{
	"contracts/DrinkMachine.sol": {
		"DrinkMachine": {
			"abi": [
				{
					"inputs": [],
					"stateMutability": "nonpayable",
					"type": "constructor"
				},
				{
					"inputs": [
						{
							"internalType": "enum DrinkMachine.ProductEnum",
							"name": "productEnum",
							"type": "uint8"
						},
						{
							"internalType": "uint256",
							"name": "quantity",
							"type": "uint256"
						}
					],
					"name": "addProduct",
					"outputs": [],
					"stateMutability": "nonpayable",
					"type": "function"
				},
				{
					"inputs": [
						{
							"internalType": "enum DrinkMachine.ProductEnum",
							"name": "productEnum",
							"type": "uint8"
						},
						{
							"internalType": "uint256",
							"name": "qty",
							"type": "uint256"
						}
					],
					"name": "buy",
					"outputs": [],
					"stateMutability": "payable",
					"type": "function"
				},
				{
					"inputs": [
						{
							"internalType": "enum DrinkMachine.ProductEnum",
							"name": "productEnum",
							"type": "uint8"
						}
					],
					"name": "getInfoProduct",
					"outputs": [
						{
							"components": [
								{
									"internalType": "string",
									"name": "name",
									"type": "string"
								},
								{
									"internalType": "uint256",
									"name": "price",
									"type": "uint256"
								},
								{
									"internalType": "uint256",
									"name": "quantity",
									"type": "uint256"
								}
							],
							"internalType": "struct DrinkMachine.ProductType",
							"name": "",
							"type": "tuple"
						}
					],
					"stateMutability": "view",
					"type": "function"
				},
				{
					"inputs": [],
					"name": "owner",
					"outputs": [
						{
							"internalType": "address",
							"name": "",
							"type": "address"
						}
					],
					"stateMutability": "view",
					"type": "function"
				},
				{
					"inputs": [
						{
							"internalType": "address",
							"name": "",
							"type": "address"
						}
					],
					"name": "transactions",
					"outputs": [
						{
							"internalType": "uint256",
							"name": "",
							"type": "uint256"
						}
					],
					"stateMutability": "view",
					"type": "function"
				},
				{
					"inputs": [],
					"name": "withdrawAllFunds",
					"outputs": [],
					"stateMutability": "payable",
					"type": "function"
				}
			],
			"devdoc": {
				"kind": "dev",
				"methods": {},
				"version": 1
			},
			"evm": {
				"assembly": "    /* \"contracts/DrinkMachine.sol\":65:2006  contract DrinkMachine {... */\n  mstore(0x40, 0x80)\n    /* \"contracts/DrinkMachine.sol\":359:691  constructor() {... */\n  callvalue\n  dup1\n  iszero\n  tag_1\n  jumpi\n  revert(0x00, 0x00)\ntag_1:\n  pop\n    /* \"contracts/DrinkMachine.sol\":391:401  msg.sender */\n  caller\n    /* \"contracts/DrinkMachine.sol\":383:388  owner */\n  0x00\n  0x00\n    /* \"contracts/DrinkMachine.sol\":383:401  owner = msg.sender */\n  0x0100\n  exp\n  dup2\n  sload\n  dup2\n  0xffffffffffffffffffffffffffffffffffffffff\n  mul\n  not\n  and\n  swap1\n  dup4\n  0xffffffffffffffffffffffffffffffffffffffff\n  and\n  mul\n  or\n  swap1\n  sstore\n  pop\n    /* \"contracts/DrinkMachine.sol\":425:458  ProductType(\"Water\", 1 gwei, 100) */\n  mload(0x40)\n  dup1\n  0x60\n  add\n  0x40\n  mstore\n  dup1\n  mload(0x40)\n  dup1\n  0x40\n  add\n  0x40\n  mstore\n  dup1\n  0x05\n  dup2\n  mstore\n  0x20\n  add\n  0x5761746572000000000000000000000000000000000000000000000000000000\n  dup2\n  mstore\n  pop\n  dup2\n  mstore\n  0x20\n  add\n    /* \"contracts/DrinkMachine.sol\":446:452  1 gwei */\n  0x3b9aca00\n    /* \"contracts/DrinkMachine.sol\":425:458  ProductType(\"Water\", 1 gwei, 100) */\n  dup2\n  mstore\n  0x20\n  add\n    /* \"contracts/DrinkMachine.sol\":454:457  100 */\n  0x64\n    /* \"contracts/DrinkMachine.sol\":425:458  ProductType(\"Water\", 1 gwei, 100) */\n  dup2\n  mstore\n  pop\n    /* \"contracts/DrinkMachine.sol\":411:419  products */\n  0x02\n    /* \"contracts/DrinkMachine.sol\":420:421  0 */\n  0x00\n    /* \"contracts/DrinkMachine.sol\":411:422  products[0] */\n  0x05\n  dup2\n  lt\n  tag_4\n  jumpi\n  tag_5\n  tag_6\n  jump\t// in\ntag_5:\ntag_4:\n  0x03\n  mul\n  add\n    /* \"contracts/DrinkMachine.sol\":411:458  products[0] = ProductType(\"Water\", 1 gwei, 100) */\n  0x00\n  dup3\n  add\n  mload\n  dup2\n  0x00\n  add\n  swap1\n  dup2\n  tag_8\n  swap2\n  swap1\n  tag_9\n  jump\t// in\ntag_8:\n  pop\n  0x20\n  dup3\n  add\n  mload\n  dup2\n  0x01\n  add\n  sstore\n  0x40\n  dup3\n  add\n  mload\n  dup2\n  0x02\n  add\n  sstore\n  swap1\n  pop\n  pop\n    /* \"contracts/DrinkMachine.sol\":482:513  ProductType(\"Tea\", 2 gwei, 100) */\n  mload(0x40)\n  dup1\n  0x60\n  add\n  0x40\n  mstore\n  dup1\n  mload(0x40)\n  dup1\n  0x40\n  add\n  0x40\n  mstore\n  dup1\n  0x03\n  dup2\n  mstore\n  0x20\n  add\n  0x5465610000000000000000000000000000000000000000000000000000000000\n  dup2\n  mstore\n  pop\n  dup2\n  mstore\n  0x20\n  add\n    /* \"contracts/DrinkMachine.sol\":501:507  2 gwei */\n  0x77359400\n    /* \"contracts/DrinkMachine.sol\":482:513  ProductType(\"Tea\", 2 gwei, 100) */\n  dup2\n  mstore\n  0x20\n  add\n    /* \"contracts/DrinkMachine.sol\":509:512  100 */\n  0x64\n    /* \"contracts/DrinkMachine.sol\":482:513  ProductType(\"Tea\", 2 gwei, 100) */\n  dup2\n  mstore\n  pop\n    /* \"contracts/DrinkMachine.sol\":468:476  products */\n  0x02\n    /* \"contracts/DrinkMachine.sol\":477:478  1 */\n  0x01\n    /* \"contracts/DrinkMachine.sol\":468:479  products[1] */\n  0x05\n  dup2\n  lt\n  tag_10\n  jumpi\n  tag_11\n  tag_6\n  jump\t// in\ntag_11:\ntag_10:\n  0x03\n  mul\n  add\n    /* \"contracts/DrinkMachine.sol\":468:513  products[1] = ProductType(\"Tea\", 2 gwei, 100) */\n  0x00\n  dup3\n  add\n  mload\n  dup2\n  0x00\n  add\n  swap1\n  dup2\n  tag_13\n  swap2\n  swap1\n  tag_9\n  jump\t// in\ntag_13:\n  pop\n  0x20\n  dup3\n  add\n  mload\n  dup2\n  0x01\n  add\n  sstore\n  0x40\n  dup3\n  add\n  mload\n  dup2\n  0x02\n  add\n  sstore\n  swap1\n  pop\n  pop\n    /* \"contracts/DrinkMachine.sol\":537:570  ProductType(\"Juice\", 3 gwei, 100) */\n  mload(0x40)\n  dup1\n  0x60\n  add\n  0x40\n  mstore\n  dup1\n  mload(0x40)\n  dup1\n  0x40\n  add\n  0x40\n  mstore\n  dup1\n  0x05\n  dup2\n  mstore\n  0x20\n  add\n  0x4a75696365000000000000000000000000000000000000000000000000000000\n  dup2\n  mstore\n  pop\n  dup2\n  mstore\n  0x20\n  add\n    /* \"contracts/DrinkMachine.sol\":558:564  3 gwei */\n  0xb2d05e00\n    /* \"contracts/DrinkMachine.sol\":537:570  ProductType(\"Juice\", 3 gwei, 100) */\n  dup2\n  mstore\n  0x20\n  add\n    /* \"contracts/DrinkMachine.sol\":566:569  100 */\n  0x64\n    /* \"contracts/DrinkMachine.sol\":537:570  ProductType(\"Juice\", 3 gwei, 100) */\n  dup2\n  mstore\n  pop\n    /* \"contracts/DrinkMachine.sol\":523:531  products */\n  0x02\n    /* \"contracts/DrinkMachine.sol\":532:533  2 */\n  dup1\n    /* \"contracts/DrinkMachine.sol\":523:534  products[2] */\n  0x05\n  dup2\n  lt\n  tag_14\n  jumpi\n  tag_15\n  tag_6\n  jump\t// in\ntag_15:\ntag_14:\n  0x03\n  mul\n  add\n    /* \"contracts/DrinkMachine.sol\":523:570  products[2] = ProductType(\"Juice\", 3 gwei, 100) */\n  0x00\n  dup3\n  add\n  mload\n  dup2\n  0x00\n  add\n  swap1\n  dup2\n  tag_17\n  swap2\n  swap1\n  tag_9\n  jump\t// in\ntag_17:\n  pop\n  0x20\n  dup3\n  add\n  mload\n  dup2\n  0x01\n  add\n  sstore\n  0x40\n  dup3\n  add\n  mload\n  dup2\n  0x02\n  add\n  sstore\n  swap1\n  pop\n  pop\n    /* \"contracts/DrinkMachine.sol\":594:626  ProductType(\"Milk\", 4 gwei, 100) */\n  mload(0x40)\n  dup1\n  0x60\n  add\n  0x40\n  mstore\n  dup1\n  mload(0x40)\n  dup1\n  0x40\n  add\n  0x40\n  mstore\n  dup1\n  0x04\n  dup2\n  mstore\n  0x20\n  add\n  0x4d696c6b00000000000000000000000000000000000000000000000000000000\n  dup2\n  mstore\n  pop\n  dup2\n  mstore\n  0x20\n  add\n    /* \"contracts/DrinkMachine.sol\":614:620  4 gwei */\n  0xee6b2800\n    /* \"contracts/DrinkMachine.sol\":594:626  ProductType(\"Milk\", 4 gwei, 100) */\n  dup2\n  mstore\n  0x20\n  add\n    /* \"contracts/DrinkMachine.sol\":622:625  100 */\n  0x64\n    /* \"contracts/DrinkMachine.sol\":594:626  ProductType(\"Milk\", 4 gwei, 100) */\n  dup2\n  mstore\n  pop\n    /* \"contracts/DrinkMachine.sol\":580:588  products */\n  0x02\n    /* \"contracts/DrinkMachine.sol\":589:590  3 */\n  0x03\n    /* \"contracts/DrinkMachine.sol\":580:591  products[3] */\n  0x05\n  dup2\n  lt\n  tag_18\n  jumpi\n  tag_19\n  tag_6\n  jump\t// in\ntag_19:\ntag_18:\n  0x03\n  mul\n  add\n    /* \"contracts/DrinkMachine.sol\":580:626  products[3] = ProductType(\"Milk\", 4 gwei, 100) */\n  0x00\n  dup3\n  add\n  mload\n  dup2\n  0x00\n  add\n  swap1\n  dup2\n  tag_21\n  swap2\n  swap1\n  tag_9\n  jump\t// in\ntag_21:\n  pop\n  0x20\n  dup3\n  add\n  mload\n  dup2\n  0x01\n  add\n  sstore\n  0x40\n  dup3\n  add\n  mload\n  dup2\n  0x02\n  add\n  sstore\n  swap1\n  pop\n  pop\n    /* \"contracts/DrinkMachine.sol\":650:684  ProductType(\"Coffee\", 5 gwei, 100) */\n  mload(0x40)\n  dup1\n  0x60\n  add\n  0x40\n  mstore\n  dup1\n  mload(0x40)\n  dup1\n  0x40\n  add\n  0x40\n  mstore\n  dup1\n  0x06\n  dup2\n  mstore\n  0x20\n  add\n  0x436f666665650000000000000000000000000000000000000000000000000000\n  dup2\n  mstore\n  pop\n  dup2\n  mstore\n  0x20\n  add\n    /* \"contracts/DrinkMachine.sol\":672:678  5 gwei */\n  0x012a05f200\n    /* \"contracts/DrinkMachine.sol\":650:684  ProductType(\"Coffee\", 5 gwei, 100) */\n  dup2\n  mstore\n  0x20\n  add\n    /* \"contracts/DrinkMachine.sol\":680:683  100 */\n  0x64\n    /* \"contracts/DrinkMachine.sol\":650:684  ProductType(\"Coffee\", 5 gwei, 100) */\n  dup2\n  mstore\n  pop\n    /* \"contracts/DrinkMachine.sol\":636:644  products */\n  0x02\n    /* \"contracts/DrinkMachine.sol\":645:646  4 */\n  0x04\n    /* \"contracts/DrinkMachine.sol\":636:647  products[4] */\n  0x05\n  dup2\n  lt\n  tag_22\n  jumpi\n  tag_23\n  tag_6\n  jump\t// in\ntag_23:\ntag_22:\n  0x03\n  mul\n  add\n    /* \"contracts/DrinkMachine.sol\":636:684  products[4] = ProductType(\"Coffee\", 5 gwei, 100) */\n  0x00\n  dup3\n  add\n  mload\n  dup2\n  0x00\n  add\n  swap1\n  dup2\n  tag_25\n  swap2\n  swap1\n  tag_9\n  jump\t// in\ntag_25:\n  pop\n  0x20\n  dup3\n  add\n  mload\n  dup2\n  0x01\n  add\n  sstore\n  0x40\n  dup3\n  add\n  mload\n  dup2\n  0x02\n  add\n  sstore\n  swap1\n  pop\n  pop\n    /* \"contracts/DrinkMachine.sol\":65:2006  contract DrinkMachine {... */\n  jump(tag_26)\n    /* \"#utility.yul\":7:187   */\ntag_6:\n    /* \"#utility.yul\":55:132   */\n  0x4e487b7100000000000000000000000000000000000000000000000000000000\n    /* \"#utility.yul\":52:53   */\n  0x00\n    /* \"#utility.yul\":45:133   */\n  mstore\n    /* \"#utility.yul\":152:156   */\n  0x32\n    /* \"#utility.yul\":149:150   */\n  0x04\n    /* \"#utility.yul\":142:157   */\n  mstore\n    /* \"#utility.yul\":176:180   */\n  0x24\n    /* \"#utility.yul\":173:174   */\n  0x00\n    /* \"#utility.yul\":166:181   */\n  revert\n    /* \"#utility.yul\":193:292   */\ntag_27:\n    /* \"#utility.yul\":245:251   */\n  0x00\n    /* \"#utility.yul\":279:284   */\n  dup2\n    /* \"#utility.yul\":273:285   */\n  mload\n    /* \"#utility.yul\":263:285   */\n  swap1\n  pop\n    /* \"#utility.yul\":193:292   */\n  swap2\n  swap1\n  pop\n  jump\t// out\n    /* \"#utility.yul\":298:478   */\ntag_28:\n    /* \"#utility.yul\":346:423   */\n  0x4e487b7100000000000000000000000000000000000000000000000000000000\n    /* \"#utility.yul\":343:344   */\n  0x00\n    /* \"#utility.yul\":336:424   */\n  mstore\n    /* \"#utility.yul\":443:447   */\n  0x41\n    /* \"#utility.yul\":440:441   */\n  0x04\n    /* \"#utility.yul\":433:448   */\n  mstore\n    /* \"#utility.yul\":467:471   */\n  0x24\n    /* \"#utility.yul\":464:465   */\n  0x00\n    /* \"#utility.yul\":457:472   */\n  revert\n    /* \"#utility.yul\":484:664   */\ntag_29:\n    /* \"#utility.yul\":532:609   */\n  0x4e487b7100000000000000000000000000000000000000000000000000000000\n    /* \"#utility.yul\":529:530   */\n  0x00\n    /* \"#utility.yul\":522:610   */\n  mstore\n    /* \"#utility.yul\":629:633   */\n  0x22\n    /* \"#utility.yul\":626:627   */\n  0x04\n    /* \"#utility.yul\":619:634   */\n  mstore\n    /* \"#utility.yul\":653:657   */\n  0x24\n    /* \"#utility.yul\":650:651   */\n  0x00\n    /* \"#utility.yul\":643:658   */\n  revert\n    /* \"#utility.yul\":670:990   */\ntag_30:\n    /* \"#utility.yul\":714:720   */\n  0x00\n    /* \"#utility.yul\":751:752   */\n  0x02\n    /* \"#utility.yul\":745:749   */\n  dup3\n    /* \"#utility.yul\":741:753   */\n  div\n    /* \"#utility.yul\":731:753   */\n  swap1\n  pop\n    /* \"#utility.yul\":798:799   */\n  0x01\n    /* \"#utility.yul\":792:796   */\n  dup3\n    /* \"#utility.yul\":788:800   */\n  and\n    /* \"#utility.yul\":819:837   */\n  dup1\n    /* \"#utility.yul\":809:890   */\n  tag_53\n  jumpi\n    /* \"#utility.yul\":875:879   */\n  0x7f\n    /* \"#utility.yul\":867:873   */\n  dup3\n    /* \"#utility.yul\":863:880   */\n  and\n    /* \"#utility.yul\":853:880   */\n  swap2\n  pop\n    /* \"#utility.yul\":809:890   */\ntag_53:\n    /* \"#utility.yul\":937:939   */\n  0x20\n    /* \"#utility.yul\":929:935   */\n  dup3\n    /* \"#utility.yul\":926:940   */\n  lt\n    /* \"#utility.yul\":906:924   */\n  dup2\n    /* \"#utility.yul\":903:941   */\n  sub\n    /* \"#utility.yul\":900:984   */\n  tag_54\n  jumpi\n    /* \"#utility.yul\":956:974   */\n  tag_55\n  tag_29\n  jump\t// in\ntag_55:\n    /* \"#utility.yul\":900:984   */\ntag_54:\n    /* \"#utility.yul\":721:990   */\n  pop\n    /* \"#utility.yul\":670:990   */\n  swap2\n  swap1\n  pop\n  jump\t// out\n    /* \"#utility.yul\":996:1137   */\ntag_31:\n    /* \"#utility.yul\":1045:1049   */\n  0x00\n    /* \"#utility.yul\":1068:1071   */\n  dup2\n    /* \"#utility.yul\":1060:1071   */\n  swap1\n  pop\n    /* \"#utility.yul\":1091:1094   */\n  dup2\n    /* \"#utility.yul\":1088:1089   */\n  0x00\n    /* \"#utility.yul\":1081:1095   */\n  mstore\n    /* \"#utility.yul\":1125:1129   */\n  0x20\n    /* \"#utility.yul\":1122:1123   */\n  0x00\n    /* \"#utility.yul\":1112:1130   */\n  keccak256\n    /* \"#utility.yul\":1104:1130   */\n  swap1\n  pop\n    /* \"#utility.yul\":996:1137   */\n  swap2\n  swap1\n  pop\n  jump\t// out\n    /* \"#utility.yul\":1143:1236   */\ntag_32:\n    /* \"#utility.yul\":1180:1186   */\n  0x00\n    /* \"#utility.yul\":1227:1229   */\n  0x20\n    /* \"#utility.yul\":1222:1224   */\n  0x1f\n    /* \"#utility.yul\":1215:1220   */\n  dup4\n    /* \"#utility.yul\":1211:1225   */\n  add\n    /* \"#utility.yul\":1207:1230   */\n  div\n    /* \"#utility.yul\":1197:1230   */\n  swap1\n  pop\n    /* \"#utility.yul\":1143:1236   */\n  swap2\n  swap1\n  pop\n  jump\t// out\n    /* \"#utility.yul\":1242:1349   */\ntag_33:\n    /* \"#utility.yul\":1286:1294   */\n  0x00\n    /* \"#utility.yul\":1336:1341   */\n  dup3\n    /* \"#utility.yul\":1330:1334   */\n  dup3\n    /* \"#utility.yul\":1326:1342   */\n  shl\n    /* \"#utility.yul\":1305:1342   */\n  swap1\n  pop\n    /* \"#utility.yul\":1242:1349   */\n  swap3\n  swap2\n  pop\n  pop\n  jump\t// out\n    /* \"#utility.yul\":1355:1748   */\ntag_34:\n    /* \"#utility.yul\":1424:1430   */\n  0x00\n    /* \"#utility.yul\":1474:1475   */\n  0x08\n    /* \"#utility.yul\":1462:1472   */\n  dup4\n    /* \"#utility.yul\":1458:1476   */\n  mul\n    /* \"#utility.yul\":1497:1594   */\n  tag_60\n    /* \"#utility.yul\":1527:1593   */\n  0xffffffffffffffffffffffffffffffffffffffffffffffffffffffffffffffff\n    /* \"#utility.yul\":1516:1525   */\n  dup3\n    /* \"#utility.yul\":1497:1594   */\n  tag_33\n  jump\t// in\ntag_60:\n    /* \"#utility.yul\":1615:1654   */\n  tag_61\n    /* \"#utility.yul\":1645:1653   */\n  dup7\n    /* \"#utility.yul\":1634:1643   */\n  dup4\n    /* \"#utility.yul\":1615:1654   */\n  tag_33\n  jump\t// in\ntag_61:\n    /* \"#utility.yul\":1603:1654   */\n  swap6\n  pop\n    /* \"#utility.yul\":1687:1691   */\n  dup1\n    /* \"#utility.yul\":1683:1692   */\n  not\n    /* \"#utility.yul\":1676:1681   */\n  dup5\n    /* \"#utility.yul\":1672:1693   */\n  and\n    /* \"#utility.yul\":1663:1693   */\n  swap4\n  pop\n    /* \"#utility.yul\":1736:1740   */\n  dup1\n    /* \"#utility.yul\":1726:1734   */\n  dup7\n    /* \"#utility.yul\":1722:1741   */\n  and\n    /* \"#utility.yul\":1715:1720   */\n  dup5\n    /* \"#utility.yul\":1712:1742   */\n  or\n    /* \"#utility.yul\":1702:1742   */\n  swap3\n  pop\n    /* \"#utility.yul\":1431:1748   */\n  pop\n  pop\n    /* \"#utility.yul\":1355:1748   */\n  swap4\n  swap3\n  pop\n  pop\n  pop\n  jump\t// out\n    /* \"#utility.yul\":1754:1831   */\ntag_35:\n    /* \"#utility.yul\":1791:1798   */\n  0x00\n    /* \"#utility.yul\":1820:1825   */\n  dup2\n    /* \"#utility.yul\":1809:1825   */\n  swap1\n  pop\n    /* \"#utility.yul\":1754:1831   */\n  swap2\n  swap1\n  pop\n  jump\t// out\n    /* \"#utility.yul\":1837:1897   */\ntag_36:\n    /* \"#utility.yul\":1865:1868   */\n  0x00\n    /* \"#utility.yul\":1886:1891   */\n  dup2\n    /* \"#utility.yul\":1879:1891   */\n  swap1\n  pop\n    /* \"#utility.yul\":1837:1897   */\n  swap2\n  swap1\n  pop\n  jump\t// out\n    /* \"#utility.yul\":1903:2045   */\ntag_37:\n    /* \"#utility.yul\":1953:1962   */\n  0x00\n    /* \"#utility.yul\":1986:2039   */\n  tag_65\n    /* \"#utility.yul\":2004:2038   */\n  tag_66\n    /* \"#utility.yul\":2013:2037   */\n  tag_67\n    /* \"#utility.yul\":2031:2036   */\n  dup5\n    /* \"#utility.yul\":2013:2037   */\n  tag_35\n  jump\t// in\ntag_67:\n    /* \"#utility.yul\":2004:2038   */\n  tag_36\n  jump\t// in\ntag_66:\n    /* \"#utility.yul\":1986:2039   */\n  tag_35\n  jump\t// in\ntag_65:\n    /* \"#utility.yul\":1973:2039   */\n  swap1\n  pop\n    /* \"#utility.yul\":1903:2045   */\n  swap2\n  swap1\n  pop\n  jump\t// out\n    /* \"#utility.yul\":2051:2126   */\ntag_38:\n    /* \"#utility.yul\":2094:2097   */\n  0x00\n    /* \"#utility.yul\":2115:2120   */\n  dup2\n    /* \"#utility.yul\":2108:2120   */\n  swap1\n  pop\n    /* \"#utility.yul\":2051:2126   */\n  swap2\n  swap1\n  pop\n  jump\t// out\n    /* \"#utility.yul\":2132:2401   */\ntag_39:\n    /* \"#utility.yul\":2242:2281   */\n  tag_70\n    /* \"#utility.yul\":2273:2280   */\n  dup4\n    /* \"#utility.yul\":2242:2281   */\n  tag_37\n  jump\t// in\ntag_70:\n    /* \"#utility.yul\":2303:2394   */\n  tag_71\n    /* \"#utility.yul\":2352:2393   */\n  tag_72\n    /* \"#utility.yul\":2376:2392   */\n  dup3\n    /* \"#utility.yul\":2352:2393   */\n  tag_38\n  jump\t// in\ntag_72:\n    /* \"#utility.yul\":2344:2350   */\n  dup5\n    /* \"#utility.yul\":2337:2341   */\n  dup5\n    /* \"#utility.yul\":2331:2342   */\n  sload\n    /* \"#utility.yul\":2303:2394   */\n  tag_34\n  jump\t// in\ntag_71:\n    /* \"#utility.yul\":2297:2301   */\n  dup3\n    /* \"#utility.yul\":2290:2395   */\n  sstore\n    /* \"#utility.yul\":2208:2401   */\n  pop\n    /* \"#utility.yul\":2132:2401   */\n  pop\n  pop\n  pop\n  jump\t// out\n    /* \"#utility.yul\":2407:2480   */\ntag_40:\n    /* \"#utility.yul\":2452:2455   */\n  0x00\n    /* \"#utility.yul\":2473:2474   */\n  0x00\n    /* \"#utility.yul\":2466:2474   */\n  swap1\n  pop\n    /* \"#utility.yul\":2407:2480   */\n  swap1\n  jump\t// out\n    /* \"#utility.yul\":2486:2675   */\ntag_41:\n    /* \"#utility.yul\":2563:2595   */\n  tag_75\n  tag_40\n  jump\t// in\ntag_75:\n    /* \"#utility.yul\":2604:2669   */\n  tag_76\n    /* \"#utility.yul\":2662:2668   */\n  dup2\n    /* \"#utility.yul\":2654:2660   */\n  dup5\n    /* \"#utility.yul\":2648:2652   */\n  dup5\n    /* \"#utility.yul\":2604:2669   */\n  tag_39\n  jump\t// in\ntag_76:\n    /* \"#utility.yul\":2539:2675   */\n  pop\n    /* \"#utility.yul\":2486:2675   */\n  pop\n  pop\n  jump\t// out\n    /* \"#utility.yul\":2681:2867   */\ntag_42:\n    /* \"#utility.yul\":2741:2861   */\ntag_78:\n    /* \"#utility.yul\":2758:2761   */\n  dup2\n    /* \"#utility.yul\":2751:2756   */\n  dup2\n    /* \"#utility.yul\":2748:2762   */\n  lt\n    /* \"#utility.yul\":2741:2861   */\n  iszero\n  tag_80\n  jumpi\n    /* \"#utility.yul\":2812:2851   */\n  tag_81\n    /* \"#utility.yul\":2849:2850   */\n  0x00\n    /* \"#utility.yul\":2842:2847   */\n  dup3\n    /* \"#utility.yul\":2812:2851   */\n  tag_41\n  jump\t// in\ntag_81:\n    /* \"#utility.yul\":2785:2786   */\n  0x01\n    /* \"#utility.yul\":2778:2783   */\n  dup2\n    /* \"#utility.yul\":2774:2787   */\n  add\n    /* \"#utility.yul\":2765:2787   */\n  swap1\n  pop\n    /* \"#utility.yul\":2741:2861   */\n  jump(tag_78)\ntag_80:\n    /* \"#utility.yul\":2681:2867   */\n  pop\n  pop\n  jump\t// out\n    /* \"#utility.yul\":2873:3416   */\ntag_43:\n    /* \"#utility.yul\":2974:2976   */\n  0x1f\n    /* \"#utility.yul\":2969:2972   */\n  dup3\n    /* \"#utility.yul\":2966:2977   */\n  gt\n    /* \"#utility.yul\":2963:3409   */\n  iszero\n  tag_83\n  jumpi\n    /* \"#utility.yul\":3008:3046   */\n  tag_84\n    /* \"#utility.yul\":3040:3045   */\n  dup2\n    /* \"#utility.yul\":3008:3046   */\n  tag_31\n  jump\t// in\ntag_84:\n    /* \"#utility.yul\":3092:3121   */\n  tag_85\n    /* \"#utility.yul\":3110:3120   */\n  dup5\n    /* \"#utility.yul\":3092:3121   */\n  tag_32\n  jump\t// in\ntag_85:\n    /* \"#utility.yul\":3082:3090   */\n  dup2\n    /* \"#utility.yul\":3078:3122   */\n  add\n    /* \"#utility.yul\":3275:3277   */\n  0x20\n    /* \"#utility.yul\":3263:3273   */\n  dup6\n    /* \"#utility.yul\":3260:3278   */\n  lt\n    /* \"#utility.yul\":3257:3306   */\n  iszero\n  tag_86\n  jumpi\n    /* \"#utility.yul\":3296:3304   */\n  dup2\n    /* \"#utility.yul\":3281:3304   */\n  swap1\n  pop\n    /* \"#utility.yul\":3257:3306   */\ntag_86:\n    /* \"#utility.yul\":3319:3399   */\n  tag_87\n    /* \"#utility.yul\":3375:3397   */\n  tag_88\n    /* \"#utility.yul\":3393:3396   */\n  dup6\n    /* \"#utility.yul\":3375:3397   */\n  tag_32\n  jump\t// in\ntag_88:\n    /* \"#utility.yul\":3365:3373   */\n  dup4\n    /* \"#utility.yul\":3361:3398   */\n  add\n    /* \"#utility.yul\":3348:3359   */\n  dup3\n    /* \"#utility.yul\":3319:3399   */\n  tag_42\n  jump\t// in\ntag_87:\n    /* \"#utility.yul\":2978:3409   */\n  pop\n  pop\n    /* \"#utility.yul\":2963:3409   */\ntag_83:\n    /* \"#utility.yul\":2873:3416   */\n  pop\n  pop\n  pop\n  jump\t// out\n    /* \"#utility.yul\":3422:3539   */\ntag_44:\n    /* \"#utility.yul\":3476:3484   */\n  0x00\n    /* \"#utility.yul\":3526:3531   */\n  dup3\n    /* \"#utility.yul\":3520:3524   */\n  dup3\n    /* \"#utility.yul\":3516:3532   */\n  shr\n    /* \"#utility.yul\":3495:3532   */\n  swap1\n  pop\n    /* \"#utility.yul\":3422:3539   */\n  swap3\n  swap2\n  pop\n  pop\n  jump\t// out\n    /* \"#utility.yul\":3545:3714   */\ntag_45:\n    /* \"#utility.yul\":3589:3595   */\n  0x00\n    /* \"#utility.yul\":3622:3673   */\n  tag_91\n    /* \"#utility.yul\":3670:3671   */\n  0x00\n    /* \"#utility.yul\":3666:3672   */\n  not\n    /* \"#utility.yul\":3658:3663   */\n  dup5\n    /* \"#utility.yul\":3655:3656   */\n  0x08\n    /* \"#utility.yul\":3651:3664   */\n  mul\n    /* \"#utility.yul\":3622:3673   */\n  tag_44\n  jump\t// in\ntag_91:\n    /* \"#utility.yul\":3618:3674   */\n  not\n    /* \"#utility.yul\":3703:3707   */\n  dup1\n    /* \"#utility.yul\":3697:3701   */\n  dup4\n    /* \"#utility.yul\":3693:3708   */\n  and\n    /* \"#utility.yul\":3683:3708   */\n  swap2\n  pop\n    /* \"#utility.yul\":3596:3714   */\n  pop\n    /* \"#utility.yul\":3545:3714   */\n  swap3\n  swap2\n  pop\n  pop\n  jump\t// out\n    /* \"#utility.yul\":3719:4014   */\ntag_46:\n    /* \"#utility.yul\":3795:3799   */\n  0x00\n    /* \"#utility.yul\":3941:3970   */\n  tag_93\n    /* \"#utility.yul\":3966:3969   */\n  dup4\n    /* \"#utility.yul\":3960:3964   */\n  dup4\n    /* \"#utility.yul\":3941:3970   */\n  tag_45\n  jump\t// in\ntag_93:\n    /* \"#utility.yul\":3933:3970   */\n  swap2\n  pop\n    /* \"#utility.yul\":4003:4006   */\n  dup3\n    /* \"#utility.yul\":4000:4001   */\n  0x02\n    /* \"#utility.yul\":3996:4007   */\n  mul\n    /* \"#utility.yul\":3990:3994   */\n  dup3\n    /* \"#utility.yul\":3987:4008   */\n  or\n    /* \"#utility.yul\":3979:4008   */\n  swap1\n  pop\n    /* \"#utility.yul\":3719:4014   */\n  swap3\n  swap2\n  pop\n  pop\n  jump\t// out\n    /* \"#utility.yul\":4019:5414   */\ntag_9:\n    /* \"#utility.yul\":4136:4173   */\n  tag_95\n    /* \"#utility.yul\":4169:4172   */\n  dup3\n    /* \"#utility.yul\":4136:4173   */\n  tag_27\n  jump\t// in\ntag_95:\n    /* \"#utility.yul\":4238:4256   */\n  0xffffffffffffffff\n    /* \"#utility.yul\":4230:4236   */\n  dup2\n    /* \"#utility.yul\":4227:4257   */\n  gt\n    /* \"#utility.yul\":4224:4280   */\n  iszero\n  tag_96\n  jumpi\n    /* \"#utility.yul\":4260:4278   */\n  tag_97\n  tag_28\n  jump\t// in\ntag_97:\n    /* \"#utility.yul\":4224:4280   */\ntag_96:\n    /* \"#utility.yul\":4304:4342   */\n  tag_98\n    /* \"#utility.yul\":4336:4340   */\n  dup3\n    /* \"#utility.yul\":4330:4341   */\n  sload\n    /* \"#utility.yul\":4304:4342   */\n  tag_30\n  jump\t// in\ntag_98:\n    /* \"#utility.yul\":4389:4456   */\n  tag_99\n    /* \"#utility.yul\":4449:4455   */\n  dup3\n    /* \"#utility.yul\":4441:4447   */\n  dup3\n    /* \"#utility.yul\":4435:4439   */\n  dup6\n    /* \"#utility.yul\":4389:4456   */\n  tag_43\n  jump\t// in\ntag_99:\n    /* \"#utility.yul\":4483:4484   */\n  0x00\n    /* \"#utility.yul\":4507:4511   */\n  0x20\n    /* \"#utility.yul\":4494:4511   */\n  swap1\n  pop\n    /* \"#utility.yul\":4539:4541   */\n  0x1f\n    /* \"#utility.yul\":4531:4537   */\n  dup4\n    /* \"#utility.yul\":4528:4542   */\n  gt\n    /* \"#utility.yul\":4556:4557   */\n  0x01\n    /* \"#utility.yul\":4551:5169   */\n  dup2\n  eq\n  tag_101\n  jumpi\n    /* \"#utility.yul\":5213:5214   */\n  0x00\n    /* \"#utility.yul\":5230:5236   */\n  dup5\n    /* \"#utility.yul\":5227:5304   */\n  iszero\n  tag_102\n  jumpi\n    /* \"#utility.yul\":5279:5288   */\n  dup3\n    /* \"#utility.yul\":5274:5277   */\n  dup8\n    /* \"#utility.yul\":5270:5289   */\n  add\n    /* \"#utility.yul\":5264:5290   */\n  mload\n    /* \"#utility.yul\":5255:5290   */\n  swap1\n  pop\n    /* \"#utility.yul\":5227:5304   */\ntag_102:\n    /* \"#utility.yul\":5330:5397   */\n  tag_103\n    /* \"#utility.yul\":5390:5396   */\n  dup6\n    /* \"#utility.yul\":5383:5388   */\n  dup3\n    /* \"#utility.yul\":5330:5397   */\n  tag_46\n  jump\t// in\ntag_103:\n    /* \"#utility.yul\":5324:5328   */\n  dup7\n    /* \"#utility.yul\":5317:5398   */\n  sstore\n    /* \"#utility.yul\":5186:5408   */\n  pop\n    /* \"#utility.yul\":4521:5408   */\n  jump(tag_100)\n    /* \"#utility.yul\":4551:5169   */\ntag_101:\n    /* \"#utility.yul\":4603:4607   */\n  0x1f\n    /* \"#utility.yul\":4599:4608   */\n  not\n    /* \"#utility.yul\":4591:4597   */\n  dup5\n    /* \"#utility.yul\":4587:4609   */\n  and\n    /* \"#utility.yul\":4637:4674   */\n  tag_104\n    /* \"#utility.yul\":4669:4673   */\n  dup7\n    /* \"#utility.yul\":4637:4674   */\n  tag_31\n  jump\t// in\ntag_104:\n    /* \"#utility.yul\":4696:4697   */\n  0x00\n    /* \"#utility.yul\":4710:4918   */\ntag_105:\n    /* \"#utility.yul\":4724:4731   */\n  dup3\n    /* \"#utility.yul\":4721:4722   */\n  dup2\n    /* \"#utility.yul\":4718:4732   */\n  lt\n    /* \"#utility.yul\":4710:4918   */\n  iszero\n  tag_107\n  jumpi\n    /* \"#utility.yul\":4803:4812   */\n  dup5\n    /* \"#utility.yul\":4798:4801   */\n  dup10\n    /* \"#utility.yul\":4794:4813   */\n  add\n    /* \"#utility.yul\":4788:4814   */\n  mload\n    /* \"#utility.yul\":4780:4786   */\n  dup3\n    /* \"#utility.yul\":4773:4815   */\n  sstore\n    /* \"#utility.yul\":4854:4855   */\n  0x01\n    /* \"#utility.yul\":4846:4852   */\n  dup3\n    /* \"#utility.yul\":4842:4856   */\n  add\n    /* \"#utility.yul\":4832:4856   */\n  swap2\n  pop\n    /* \"#utility.yul\":4901:4903   */\n  0x20\n    /* \"#utility.yul\":4890:4899   */\n  dup6\n    /* \"#utility.yul\":4886:4904   */\n  add\n    /* \"#utility.yul\":4873:4904   */\n  swap5\n  pop\n    /* \"#utility.yul\":4747:4751   */\n  0x20\n    /* \"#utility.yul\":4744:4745   */\n  dup2\n    /* \"#utility.yul\":4740:4752   */\n  add\n    /* \"#utility.yul\":4735:4752   */\n  swap1\n  pop\n    /* \"#utility.yul\":4710:4918   */\n  jump(tag_105)\ntag_107:\n    /* \"#utility.yul\":4946:4952   */\n  dup7\n    /* \"#utility.yul\":4937:4944   */\n  dup4\n    /* \"#utility.yul\":4934:4953   */\n  lt\n    /* \"#utility.yul\":4931:5110   */\n  iszero\n  tag_108\n  jumpi\n    /* \"#utility.yul\":5004:5013   */\n  dup5\n    /* \"#utility.yul\":4999:5002   */\n  dup10\n    /* \"#utility.yul\":4995:5014   */\n  add\n    /* \"#utility.yul\":4989:5015   */\n  mload\n    /* \"#utility.yul\":5047:5095   */\n  tag_109\n    /* \"#utility.yul\":5089:5093   */\n  0x1f\n    /* \"#utility.yul\":5081:5087   */\n  dup10\n    /* \"#utility.yul\":5077:5094   */\n  and\n    /* \"#utility.yul\":5066:5075   */\n  dup3\n    /* \"#utility.yul\":5047:5095   */\n  tag_45\n  jump\t// in\ntag_109:\n    /* \"#utility.yul\":5039:5045   */\n  dup4\n    /* \"#utility.yul\":5032:5096   */\n  sstore\n    /* \"#utility.yul\":4954:5110   */\n  pop\n    /* \"#utility.yul\":4931:5110   */\ntag_108:\n    /* \"#utility.yul\":5156:5157   */\n  0x01\n    /* \"#utility.yul\":5152:5153   */\n  0x02\n    /* \"#utility.yul\":5144:5150   */\n  dup9\n    /* \"#utility.yul\":5140:5154   */\n  mul\n    /* \"#utility.yul\":5136:5158   */\n  add\n    /* \"#utility.yul\":5130:5134   */\n  dup9\n    /* \"#utility.yul\":5123:5159   */\n  sstore\n    /* \"#utility.yul\":4558:5169   */\n  pop\n  pop\n  pop\n    /* \"#utility.yul\":4521:5408   */\ntag_100:\n  pop\n    /* \"#utility.yul\":4111:5414   */\n  pop\n  pop\n  pop\n    /* \"#utility.yul\":4019:5414   */\n  pop\n  pop\n  jump\t// out\n    /* \"contracts/DrinkMachine.sol\":65:2006  contract DrinkMachine {... */\ntag_26:\n  dataSize(sub_0)\n  dup1\n  dataOffset(sub_0)\n  0x00\n  codecopy\n  0x00\n  return\nstop\n\nsub_0: assembly {\n        /* \"contracts/DrinkMachine.sol\":65:2006  contract DrinkMachine {... */\n      mstore(0x40, 0x80)\n      jumpi(tag_1, lt(calldatasize, 0x04))\n      shr(0xe0, calldataload(0x00))\n      dup1\n      0x2d153a8c\n      eq\n      tag_2\n      jumpi\n      dup1\n      0x49649fbf\n      eq\n      tag_3\n      jumpi\n      dup1\n      0x5b291dba\n      eq\n      tag_4\n      jumpi\n      dup1\n      0x62f791c0\n      eq\n      tag_5\n      jumpi\n      dup1\n      0x8da5cb5b\n      eq\n      tag_6\n      jumpi\n      dup1\n      0xc32fdf34\n      eq\n      tag_7\n      jumpi\n    tag_1:\n      revert(0x00, 0x00)\n        /* \"contracts/DrinkMachine.sol\":866:1008  function addProduct(ProductEnum productEnum, uint quantity) public onlyOwner {... */\n    tag_2:\n      callvalue\n      dup1\n      iszero\n      tag_8\n      jumpi\n      revert(0x00, 0x00)\n    tag_8:\n      pop\n      tag_9\n      0x04\n      dup1\n      calldatasize\n      sub\n      dup2\n      add\n      swap1\n      tag_10\n      swap2\n      swap1\n      tag_11\n      jump\t// in\n    tag_10:\n      tag_12\n      jump\t// in\n    tag_9:\n      stop\n        /* \"contracts/DrinkMachine.sol\":1819:2004  function withdrawAllFunds() public payable onlyOwner {... */\n    tag_3:\n      tag_13\n      tag_14\n      jump\t// in\n    tag_13:\n      stop\n        /* \"contracts/DrinkMachine.sol\":1014:1154  function getInfoProduct(ProductEnum productEnum) public view returns (ProductType memory){... */\n    tag_4:\n      callvalue\n      dup1\n      iszero\n      tag_15\n      jumpi\n      revert(0x00, 0x00)\n    tag_15:\n      pop\n      tag_16\n      0x04\n      dup1\n      calldatasize\n      sub\n      dup2\n      add\n      swap1\n      tag_17\n      swap2\n      swap1\n      tag_18\n      jump\t// in\n    tag_17:\n      tag_19\n      jump\t// in\n    tag_16:\n      mload(0x40)\n      tag_20\n      swap2\n      swap1\n      tag_21\n      jump\t// in\n    tag_20:\n      mload(0x40)\n      dup1\n      swap2\n      sub\n      swap1\n      return\n        /* \"contracts/DrinkMachine.sol\":1160:1813  function buy(ProductEnum productEnum, uint qty) public payable {... */\n    tag_5:\n      tag_22\n      0x04\n      dup1\n      calldatasize\n      sub\n      dup2\n      add\n      swap1\n      tag_23\n      swap2\n      swap1\n      tag_11\n      jump\t// in\n    tag_23:\n      tag_24\n      jump\t// in\n    tag_22:\n      stop\n        /* \"contracts/DrinkMachine.sol\":189:209  address public owner */\n    tag_6:\n      callvalue\n      dup1\n      iszero\n      tag_25\n      jumpi\n      revert(0x00, 0x00)\n    tag_25:\n      pop\n      tag_26\n      tag_27\n      jump\t// in\n    tag_26:\n      mload(0x40)\n      tag_28\n      swap2\n      swap1\n      tag_29\n      jump\t// in\n    tag_28:\n      mload(0x40)\n      dup1\n      swap2\n      sub\n      swap1\n      return\n        /* \"contracts/DrinkMachine.sol\":215:259  mapping(address => uint) public transactions */\n    tag_7:\n      callvalue\n      dup1\n      iszero\n      tag_30\n      jumpi\n      revert(0x00, 0x00)\n    tag_30:\n      pop\n      tag_31\n      0x04\n      dup1\n      calldatasize\n      sub\n      dup2\n      add\n      swap1\n      tag_32\n      swap2\n      swap1\n      tag_33\n      jump\t// in\n    tag_32:\n      tag_34\n      jump\t// in\n    tag_31:\n      mload(0x40)\n      tag_35\n      swap2\n      swap1\n      tag_36\n      jump\t// in\n    tag_35:\n      mload(0x40)\n      dup1\n      swap2\n      sub\n      swap1\n      return\n        /* \"contracts/DrinkMachine.sol\":866:1008  function addProduct(ProductEnum productEnum, uint quantity) public onlyOwner {... */\n    tag_12:\n        /* \"contracts/DrinkMachine.sol\":749:754  owner */\n      0x00\n      0x00\n      swap1\n      sload\n      swap1\n      0x0100\n      exp\n      swap1\n      div\n      0xffffffffffffffffffffffffffffffffffffffff\n      and\n        /* \"contracts/DrinkMachine.sol\":735:754  msg.sender == owner */\n      0xffffffffffffffffffffffffffffffffffffffff\n      and\n        /* \"contracts/DrinkMachine.sol\":735:745  msg.sender */\n      caller\n        /* \"contracts/DrinkMachine.sol\":735:754  msg.sender == owner */\n      0xffffffffffffffffffffffffffffffffffffffff\n      and\n      eq\n        /* \"contracts/DrinkMachine.sol\":727:793  require(msg.sender == owner, \"Only owner can call this resource.\") */\n      tag_38\n      jumpi\n      mload(0x40)\n      0x08c379a000000000000000000000000000000000000000000000000000000000\n      dup2\n      mstore\n      0x04\n      add\n      tag_39\n      swap1\n      tag_40\n      jump\t// in\n    tag_39:\n      mload(0x40)\n      dup1\n      swap2\n      sub\n      swap1\n      revert\n    tag_38:\n        /* \"contracts/DrinkMachine.sol\":993:1001  quantity */\n      dup1\n        /* \"contracts/DrinkMachine.sol\":953:961  products */\n      0x02\n        /* \"contracts/DrinkMachine.sol\":967:978  productEnum */\n      dup4\n        /* \"contracts/DrinkMachine.sol\":962:979  uint(productEnum) */\n      0x04\n      dup2\n      gt\n      iszero\n      tag_42\n      jumpi\n      tag_43\n      tag_44\n      jump\t// in\n    tag_43:\n    tag_42:\n        /* \"contracts/DrinkMachine.sol\":953:980  products[uint(productEnum)] */\n      0x05\n      dup2\n      lt\n      tag_45\n      jumpi\n      tag_46\n      tag_47\n      jump\t// in\n    tag_46:\n    tag_45:\n      0x03\n      mul\n      add\n        /* \"contracts/DrinkMachine.sol\":953:989  products[uint(productEnum)].quantity */\n      0x02\n      add\n      0x00\n        /* \"contracts/DrinkMachine.sol\":953:1001  products[uint(productEnum)].quantity += quantity */\n      dup3\n      dup3\n      sload\n      tag_49\n      swap2\n      swap1\n      tag_50\n      jump\t// in\n    tag_49:\n      swap3\n      pop\n      pop\n      dup2\n      swap1\n      sstore\n      pop\n        /* \"contracts/DrinkMachine.sol\":866:1008  function addProduct(ProductEnum productEnum, uint quantity) public onlyOwner {... */\n      pop\n      pop\n      jump\t// out\n        /* \"contracts/DrinkMachine.sol\":1819:2004  function withdrawAllFunds() public payable onlyOwner {... */\n    tag_14:\n        /* \"contracts/DrinkMachine.sol\":749:754  owner */\n      0x00\n      0x00\n      swap1\n      sload\n      swap1\n      0x0100\n      exp\n      swap1\n      div\n      0xffffffffffffffffffffffffffffffffffffffff\n      and\n        /* \"contracts/DrinkMachine.sol\":735:754  msg.sender == owner */\n      0xffffffffffffffffffffffffffffffffffffffff\n      and\n        /* \"contracts/DrinkMachine.sol\":735:745  msg.sender */\n      caller\n        /* \"contracts/DrinkMachine.sol\":735:754  msg.sender == owner */\n      0xffffffffffffffffffffffffffffffffffffffff\n      and\n      eq\n        /* \"contracts/DrinkMachine.sol\":727:793  require(msg.sender == owner, \"Only owner can call this resource.\") */\n      tag_52\n      jumpi\n      mload(0x40)\n      0x08c379a000000000000000000000000000000000000000000000000000000000\n      dup2\n      mstore\n      0x04\n      add\n      tag_53\n      swap1\n      tag_40\n      jump\t// in\n    tag_53:\n      mload(0x40)\n      dup1\n      swap2\n      sub\n      swap1\n      revert\n    tag_52:\n        /* \"contracts/DrinkMachine.sol\":1914:1915  0 */\n      0x00\n        /* \"contracts/DrinkMachine.sol\":1890:1911  address(this).balance */\n      selfbalance\n        /* \"contracts/DrinkMachine.sol\":1890:1915  address(this).balance > 0 */\n      gt\n        /* \"contracts/DrinkMachine.sol\":1882:1941  require(address(this).balance > 0, \"No funds to withdraw.\") */\n      tag_55\n      jumpi\n      mload(0x40)\n      0x08c379a000000000000000000000000000000000000000000000000000000000\n      dup2\n      mstore\n      0x04\n      add\n      tag_56\n      swap1\n      tag_57\n      jump\t// in\n    tag_56:\n      mload(0x40)\n      dup1\n      swap2\n      sub\n      swap1\n      revert\n    tag_55:\n        /* \"contracts/DrinkMachine.sol\":1959:1964  owner */\n      0x00\n      0x00\n      swap1\n      sload\n      swap1\n      0x0100\n      exp\n      swap1\n      div\n      0xffffffffffffffffffffffffffffffffffffffff\n      and\n        /* \"contracts/DrinkMachine.sol\":1951:1974  payable(owner).transfer */\n      0xffffffffffffffffffffffffffffffffffffffff\n      and\n        /* \"contracts/DrinkMachine.sol\":1951:1997  payable(owner).transfer(address(this).balance) */\n      0x08fc\n        /* \"contracts/DrinkMachine.sol\":1975:1996  address(this).balance */\n      selfbalance\n        /* \"contracts/DrinkMachine.sol\":1951:1997  payable(owner).transfer(address(this).balance) */\n      swap1\n      dup2\n      iszero\n      mul\n      swap1\n      mload(0x40)\n      0x00\n      mload(0x40)\n      dup1\n      dup4\n      sub\n      dup2\n      dup6\n      dup9\n      dup9\n      call\n      swap4\n      pop\n      pop\n      pop\n      pop\n      iszero\n      dup1\n      iszero\n      tag_59\n      jumpi\n      returndatacopy(0x00, 0x00, returndatasize)\n      revert(0x00, returndatasize)\n    tag_59:\n      pop\n        /* \"contracts/DrinkMachine.sol\":1819:2004  function withdrawAllFunds() public payable onlyOwner {... */\n      jump\t// out\n        /* \"contracts/DrinkMachine.sol\":1014:1154  function getInfoProduct(ProductEnum productEnum) public view returns (ProductType memory){... */\n    tag_19:\n        /* \"contracts/DrinkMachine.sol\":1084:1102  ProductType memory */\n      tag_60\n      tag_61\n      jump\t// in\n    tag_60:\n        /* \"contracts/DrinkMachine.sol\":1120:1128  products */\n      0x02\n        /* \"contracts/DrinkMachine.sol\":1134:1145  productEnum */\n      dup3\n        /* \"contracts/DrinkMachine.sol\":1129:1146  uint(productEnum) */\n      0x04\n      dup2\n      gt\n      iszero\n      tag_63\n      jumpi\n      tag_64\n      tag_44\n      jump\t// in\n    tag_64:\n    tag_63:\n        /* \"contracts/DrinkMachine.sol\":1120:1147  products[uint(productEnum)] */\n      0x05\n      dup2\n      lt\n      tag_65\n      jumpi\n      tag_66\n      tag_47\n      jump\t// in\n    tag_66:\n    tag_65:\n      0x03\n      mul\n      add\n        /* \"contracts/DrinkMachine.sol\":1113:1147  return products[uint(productEnum)] */\n      mload(0x40)\n      dup1\n      0x60\n      add\n      0x40\n      mstore\n      swap1\n      dup2\n      0x00\n      dup3\n      add\n      dup1\n      sload\n      tag_68\n      swap1\n      tag_69\n      jump\t// in\n    tag_68:\n      dup1\n      0x1f\n      add\n      0x20\n      dup1\n      swap2\n      div\n      mul\n      0x20\n      add\n      mload(0x40)\n      swap1\n      dup2\n      add\n      0x40\n      mstore\n      dup1\n      swap3\n      swap2\n      swap1\n      dup2\n      dup2\n      mstore\n      0x20\n      add\n      dup3\n      dup1\n      sload\n      tag_70\n      swap1\n      tag_69\n      jump\t// in\n    tag_70:\n      dup1\n      iszero\n      tag_71\n      jumpi\n      dup1\n      0x1f\n      lt\n      tag_72\n      jumpi\n      0x0100\n      dup1\n      dup4\n      sload\n      div\n      mul\n      dup4\n      mstore\n      swap2\n      0x20\n      add\n      swap2\n      jump(tag_71)\n    tag_72:\n      dup3\n      add\n      swap2\n      swap1\n      0x00\n      mstore\n      keccak256(0x00, 0x20)\n      swap1\n    tag_73:\n      dup2\n      sload\n      dup2\n      mstore\n      swap1\n      0x01\n      add\n      swap1\n      0x20\n      add\n      dup1\n      dup4\n      gt\n      tag_73\n      jumpi\n      dup3\n      swap1\n      sub\n      0x1f\n      and\n      dup3\n      add\n      swap2\n    tag_71:\n      pop\n      pop\n      pop\n      pop\n      pop\n      dup2\n      mstore\n      0x20\n      add\n      0x01\n      dup3\n      add\n      sload\n      dup2\n      mstore\n      0x20\n      add\n      0x02\n      dup3\n      add\n      sload\n      dup2\n      mstore\n      pop\n      pop\n      swap1\n      pop\n        /* \"contracts/DrinkMachine.sol\":1014:1154  function getInfoProduct(ProductEnum productEnum) public view returns (ProductType memory){... */\n      swap2\n      swap1\n      pop\n      jump\t// out\n        /* \"contracts/DrinkMachine.sol\":1160:1813  function buy(ProductEnum productEnum, uint qty) public payable {... */\n    tag_24:\n        /* \"contracts/DrinkMachine.sol\":1233:1243  uint index */\n      0x00\n        /* \"contracts/DrinkMachine.sol\":1251:1262  productEnum */\n      dup3\n        /* \"contracts/DrinkMachine.sol\":1246:1263  uint(productEnum) */\n      0x04\n      dup2\n      gt\n      iszero\n      tag_75\n      jumpi\n      tag_76\n      tag_44\n      jump\t// in\n    tag_76:\n    tag_75:\n        /* \"contracts/DrinkMachine.sol\":1233:1263  uint index = uint(productEnum) */\n      swap1\n      pop\n        /* \"contracts/DrinkMachine.sol\":1273:1283  uint total */\n      0x00\n        /* \"contracts/DrinkMachine.sol\":1322:1325  qty */\n      dup3\n        /* \"contracts/DrinkMachine.sol\":1286:1294  products */\n      0x02\n        /* \"contracts/DrinkMachine.sol\":1300:1311  productEnum */\n      dup6\n        /* \"contracts/DrinkMachine.sol\":1295:1312  uint(productEnum) */\n      0x04\n      dup2\n      gt\n      iszero\n      tag_77\n      jumpi\n      tag_78\n      tag_44\n      jump\t// in\n    tag_78:\n    tag_77:\n        /* \"contracts/DrinkMachine.sol\":1286:1313  products[uint(productEnum)] */\n      0x05\n      dup2\n      lt\n      tag_79\n      jumpi\n      tag_80\n      tag_47\n      jump\t// in\n    tag_80:\n    tag_79:\n      0x03\n      mul\n      add\n        /* \"contracts/DrinkMachine.sol\":1286:1319  products[uint(productEnum)].price */\n      0x01\n      add\n      sload\n        /* \"contracts/DrinkMachine.sol\":1286:1325  products[uint(productEnum)].price * qty */\n      tag_82\n      swap2\n      swap1\n      tag_83\n      jump\t// in\n    tag_82:\n        /* \"contracts/DrinkMachine.sol\":1273:1325  uint total = products[uint(productEnum)].price * qty */\n      swap1\n      pop\n        /* \"contracts/DrinkMachine.sol\":1352:1353  0 */\n      0x00\n        /* \"contracts/DrinkMachine.sol\":1343:1348  index */\n      dup3\n        /* \"contracts/DrinkMachine.sol\":1343:1353  index >= 0 */\n      lt\n      iszero\n        /* \"contracts/DrinkMachine.sol\":1343:1380  index >= 0 || index < products.length */\n      dup1\n      tag_84\n      jumpi\n      pop\n        /* \"contracts/DrinkMachine.sol\":1365:1380  products.length */\n      0x05\n        /* \"contracts/DrinkMachine.sol\":1357:1362  index */\n      dup3\n        /* \"contracts/DrinkMachine.sol\":1357:1380  index < products.length */\n      lt\n        /* \"contracts/DrinkMachine.sol\":1343:1380  index >= 0 || index < products.length */\n    tag_84:\n        /* \"contracts/DrinkMachine.sol\":1335:1405  require(index >= 0 || index < products.length, \"Invalid product enum\") */\n      tag_85\n      jumpi\n      mload(0x40)\n      0x08c379a000000000000000000000000000000000000000000000000000000000\n      dup2\n      mstore\n      0x04\n      add\n      tag_86\n      swap1\n      tag_87\n      jump\t// in\n    tag_86:\n      mload(0x40)\n      dup1\n      swap2\n      sub\n      swap1\n      revert\n    tag_85:\n        /* \"contracts/DrinkMachine.sol\":1500:1503  qty */\n      dup3\n        /* \"contracts/DrinkMachine.sol\":1472:1480  products */\n      0x02\n        /* \"contracts/DrinkMachine.sol\":1481:1486  index */\n      dup4\n        /* \"contracts/DrinkMachine.sol\":1472:1487  products[index] */\n      0x05\n      dup2\n      lt\n      tag_88\n      jumpi\n      tag_89\n      tag_47\n      jump\t// in\n    tag_89:\n    tag_88:\n      0x03\n      mul\n      add\n        /* \"contracts/DrinkMachine.sol\":1472:1496  products[index].quantity */\n      0x02\n      add\n      sload\n        /* \"contracts/DrinkMachine.sol\":1472:1503  products[index].quantity >= qty */\n      lt\n      iszero\n        /* \"contracts/DrinkMachine.sol\":1464:1527  require(products[index].quantity >= qty, \"Product not enough.\") */\n      tag_91\n      jumpi\n      mload(0x40)\n      0x08c379a000000000000000000000000000000000000000000000000000000000\n      dup2\n      mstore\n      0x04\n      add\n      tag_92\n      swap1\n      tag_93\n      jump\t// in\n    tag_92:\n      mload(0x40)\n      dup1\n      swap2\n      sub\n      swap1\n      revert\n    tag_91:\n        /* \"contracts/DrinkMachine.sol\":1618:1623  total */\n      dup1\n        /* \"contracts/DrinkMachine.sol\":1605:1614  msg.value */\n      callvalue\n        /* \"contracts/DrinkMachine.sol\":1605:1623  msg.value >= total */\n      lt\n      iszero\n        /* \"contracts/DrinkMachine.sol\":1597:1644  require(msg.value >= total, \"Not enough ether\") */\n      tag_94\n      jumpi\n      mload(0x40)\n      0x08c379a000000000000000000000000000000000000000000000000000000000\n      dup2\n      mstore\n      0x04\n      add\n      tag_95\n      swap1\n      tag_96\n      jump\t// in\n    tag_95:\n      mload(0x40)\n      dup1\n      swap2\n      sub\n      swap1\n      revert\n    tag_94:\n        /* \"contracts/DrinkMachine.sol\":1683:1686  qty */\n      dup3\n        /* \"contracts/DrinkMachine.sol\":1655:1663  products */\n      0x02\n        /* \"contracts/DrinkMachine.sol\":1664:1669  index */\n      dup4\n        /* \"contracts/DrinkMachine.sol\":1655:1670  products[index] */\n      0x05\n      dup2\n      lt\n      tag_97\n      jumpi\n      tag_98\n      tag_47\n      jump\t// in\n    tag_98:\n    tag_97:\n      0x03\n      mul\n      add\n        /* \"contracts/DrinkMachine.sol\":1655:1679  products[index].quantity */\n      0x02\n      add\n      0x00\n        /* \"contracts/DrinkMachine.sol\":1655:1686  products[index].quantity -= qty */\n      dup3\n      dup3\n      sload\n      tag_100\n      swap2\n      swap1\n      tag_101\n      jump\t// in\n    tag_100:\n      swap3\n      pop\n      pop\n      dup2\n      swap1\n      sstore\n      pop\n        /* \"contracts/DrinkMachine.sol\":1724:1733  msg.value */\n      callvalue\n        /* \"contracts/DrinkMachine.sol\":1696:1708  transactions */\n      0x01\n        /* \"contracts/DrinkMachine.sol\":1696:1720  transactions[msg.sender] */\n      0x00\n        /* \"contracts/DrinkMachine.sol\":1709:1719  msg.sender */\n      caller\n        /* \"contracts/DrinkMachine.sol\":1696:1720  transactions[msg.sender] */\n      0xffffffffffffffffffffffffffffffffffffffff\n      and\n      0xffffffffffffffffffffffffffffffffffffffff\n      and\n      dup2\n      mstore\n      0x20\n      add\n      swap1\n      dup2\n      mstore\n      0x20\n      add\n      0x00\n      keccak256\n      0x00\n        /* \"contracts/DrinkMachine.sol\":1696:1733  transactions[msg.sender] += msg.value */\n      dup3\n      dup3\n      sload\n      tag_102\n      swap2\n      swap1\n      tag_50\n      jump\t// in\n    tag_102:\n      swap3\n      pop\n      pop\n      dup2\n      swap1\n      sstore\n      pop\n        /* \"contracts/DrinkMachine.sol\":1784:1789  owner */\n      0x00\n      0x00\n      swap1\n      sload\n      swap1\n      0x0100\n      exp\n      swap1\n      div\n      0xffffffffffffffffffffffffffffffffffffffff\n      and\n        /* \"contracts/DrinkMachine.sol\":1776:1799  payable(owner).transfer */\n      0xffffffffffffffffffffffffffffffffffffffff\n      and\n        /* \"contracts/DrinkMachine.sol\":1776:1806  payable(owner).transfer(total) */\n      0x08fc\n        /* \"contracts/DrinkMachine.sol\":1800:1805  total */\n      dup3\n        /* \"contracts/DrinkMachine.sol\":1776:1806  payable(owner).transfer(total) */\n      swap1\n      dup2\n      iszero\n      mul\n      swap1\n      mload(0x40)\n      0x00\n      mload(0x40)\n      dup1\n      dup4\n      sub\n      dup2\n      dup6\n      dup9\n      dup9\n      call\n      swap4\n      pop\n      pop\n      pop\n      pop\n      iszero\n      dup1\n      iszero\n      tag_104\n      jumpi\n      returndatacopy(0x00, 0x00, returndatasize)\n      revert(0x00, returndatasize)\n    tag_104:\n      pop\n        /* \"contracts/DrinkMachine.sol\":1223:1813  {... */\n      pop\n      pop\n        /* \"contracts/DrinkMachine.sol\":1160:1813  function buy(ProductEnum productEnum, uint qty) public payable {... */\n      pop\n      pop\n      jump\t// out\n        /* \"contracts/DrinkMachine.sol\":189:209  address public owner */\n    tag_27:\n      0x00\n      0x00\n      swap1\n      sload\n      swap1\n      0x0100\n      exp\n      swap1\n      div\n      0xffffffffffffffffffffffffffffffffffffffff\n      and\n      dup2\n      jump\t// out\n        /* \"contracts/DrinkMachine.sol\":215:259  mapping(address => uint) public transactions */\n    tag_34:\n      mstore(0x20, 0x01)\n      dup1\n      0x00\n      mstore\n      keccak256(0x00, 0x40)\n      0x00\n      swap2\n      pop\n      swap1\n      pop\n      sload\n      dup2\n      jump\t// out\n    tag_61:\n      mload(0x40)\n      dup1\n      0x60\n      add\n      0x40\n      mstore\n      dup1\n      0x60\n      dup2\n      mstore\n      0x20\n      add\n      0x00\n      dup2\n      mstore\n      0x20\n      add\n      0x00\n      dup2\n      mstore\n      pop\n      swap1\n      jump\t// out\n        /* \"#utility.yul\":88:205   */\n    tag_106:\n        /* \"#utility.yul\":197:198   */\n      0x00\n        /* \"#utility.yul\":194:195   */\n      0x00\n        /* \"#utility.yul\":187:199   */\n      revert\n        /* \"#utility.yul\":334:447   */\n    tag_108:\n        /* \"#utility.yul\":421:422   */\n      0x05\n        /* \"#utility.yul\":414:419   */\n      dup2\n        /* \"#utility.yul\":411:423   */\n      lt\n        /* \"#utility.yul\":401:441   */\n      tag_144\n      jumpi\n        /* \"#utility.yul\":437:438   */\n      0x00\n        /* \"#utility.yul\":434:435   */\n      0x00\n        /* \"#utility.yul\":427:439   */\n      revert\n        /* \"#utility.yul\":401:441   */\n    tag_144:\n        /* \"#utility.yul\":334:447   */\n      pop\n      jump\t// out\n        /* \"#utility.yul\":453:620   */\n    tag_109:\n        /* \"#utility.yul\":513:518   */\n      0x00\n        /* \"#utility.yul\":551:557   */\n      dup2\n        /* \"#utility.yul\":538:558   */\n      calldataload\n        /* \"#utility.yul\":529:558   */\n      swap1\n      pop\n        /* \"#utility.yul\":567:614   */\n      tag_146\n        /* \"#utility.yul\":608:613   */\n      dup2\n        /* \"#utility.yul\":567:614   */\n      tag_108\n      jump\t// in\n    tag_146:\n        /* \"#utility.yul\":453:620   */\n      swap3\n      swap2\n      pop\n      pop\n      jump\t// out\n        /* \"#utility.yul\":626:703   */\n    tag_110:\n        /* \"#utility.yul\":663:670   */\n      0x00\n        /* \"#utility.yul\":692:697   */\n      dup2\n        /* \"#utility.yul\":681:697   */\n      swap1\n      pop\n        /* \"#utility.yul\":626:703   */\n      swap2\n      swap1\n      pop\n      jump\t// out\n        /* \"#utility.yul\":709:831   */\n    tag_111:\n        /* \"#utility.yul\":782:806   */\n      tag_149\n        /* \"#utility.yul\":800:805   */\n      dup2\n        /* \"#utility.yul\":782:806   */\n      tag_110\n      jump\t// in\n    tag_149:\n        /* \"#utility.yul\":775:780   */\n      dup2\n        /* \"#utility.yul\":772:807   */\n      eq\n        /* \"#utility.yul\":762:825   */\n      tag_150\n      jumpi\n        /* \"#utility.yul\":821:822   */\n      0x00\n        /* \"#utility.yul\":818:819   */\n      0x00\n        /* \"#utility.yul\":811:823   */\n      revert\n        /* \"#utility.yul\":762:825   */\n    tag_150:\n        /* \"#utility.yul\":709:831   */\n      pop\n      jump\t// out\n        /* \"#utility.yul\":837:976   */\n    tag_112:\n        /* \"#utility.yul\":883:888   */\n      0x00\n        /* \"#utility.yul\":921:927   */\n      dup2\n        /* \"#utility.yul\":908:928   */\n      calldataload\n        /* \"#utility.yul\":899:928   */\n      swap1\n      pop\n        /* \"#utility.yul\":937:970   */\n      tag_152\n        /* \"#utility.yul\":964:969   */\n      dup2\n        /* \"#utility.yul\":937:970   */\n      tag_111\n      jump\t// in\n    tag_152:\n        /* \"#utility.yul\":837:976   */\n      swap3\n      swap2\n      pop\n      pop\n      jump\t// out\n        /* \"#utility.yul\":982:1484   */\n    tag_11:\n        /* \"#utility.yul\":1064:1070   */\n      0x00\n        /* \"#utility.yul\":1072:1078   */\n      0x00\n        /* \"#utility.yul\":1121:1123   */\n      0x40\n        /* \"#utility.yul\":1109:1118   */\n      dup4\n        /* \"#utility.yul\":1100:1107   */\n      dup6\n        /* \"#utility.yul\":1096:1119   */\n      sub\n        /* \"#utility.yul\":1092:1124   */\n      slt\n        /* \"#utility.yul\":1089:1208   */\n      iszero\n      tag_154\n      jumpi\n        /* \"#utility.yul\":1127:1206   */\n      tag_155\n      tag_106\n      jump\t// in\n    tag_155:\n        /* \"#utility.yul\":1089:1208   */\n    tag_154:\n        /* \"#utility.yul\":1247:1248   */\n      0x00\n        /* \"#utility.yul\":1272:1339   */\n      tag_156\n        /* \"#utility.yul\":1331:1338   */\n      dup6\n        /* \"#utility.yul\":1322:1328   */\n      dup3\n        /* \"#utility.yul\":1311:1320   */\n      dup7\n        /* \"#utility.yul\":1307:1329   */\n      add\n        /* \"#utility.yul\":1272:1339   */\n      tag_109\n      jump\t// in\n    tag_156:\n        /* \"#utility.yul\":1262:1339   */\n      swap3\n      pop\n        /* \"#utility.yul\":1218:1349   */\n      pop\n        /* \"#utility.yul\":1388:1390   */\n      0x20\n        /* \"#utility.yul\":1414:1467   */\n      tag_157\n        /* \"#utility.yul\":1459:1466   */\n      dup6\n        /* \"#utility.yul\":1450:1456   */\n      dup3\n        /* \"#utility.yul\":1439:1448   */\n      dup7\n        /* \"#utility.yul\":1435:1457   */\n      add\n        /* \"#utility.yul\":1414:1467   */\n      tag_112\n      jump\t// in\n    tag_157:\n        /* \"#utility.yul\":1404:1467   */\n      swap2\n      pop\n        /* \"#utility.yul\":1359:1477   */\n      pop\n        /* \"#utility.yul\":982:1484   */\n      swap3\n      pop\n      swap3\n      swap1\n      pop\n      jump\t// out\n        /* \"#utility.yul\":1490:1847   */\n    tag_18:\n        /* \"#utility.yul\":1563:1569   */\n      0x00\n        /* \"#utility.yul\":1612:1614   */\n      0x20\n        /* \"#utility.yul\":1600:1609   */\n      dup3\n        /* \"#utility.yul\":1591:1598   */\n      dup5\n        /* \"#utility.yul\":1587:1610   */\n      sub\n        /* \"#utility.yul\":1583:1615   */\n      slt\n        /* \"#utility.yul\":1580:1699   */\n      iszero\n      tag_159\n      jumpi\n        /* \"#utility.yul\":1618:1697   */\n      tag_160\n      tag_106\n      jump\t// in\n    tag_160:\n        /* \"#utility.yul\":1580:1699   */\n    tag_159:\n        /* \"#utility.yul\":1738:1739   */\n      0x00\n        /* \"#utility.yul\":1763:1830   */\n      tag_161\n        /* \"#utility.yul\":1822:1829   */\n      dup5\n        /* \"#utility.yul\":1813:1819   */\n      dup3\n        /* \"#utility.yul\":1802:1811   */\n      dup6\n        /* \"#utility.yul\":1798:1820   */\n      add\n        /* \"#utility.yul\":1763:1830   */\n      tag_109\n      jump\t// in\n    tag_161:\n        /* \"#utility.yul\":1753:1830   */\n      swap2\n      pop\n        /* \"#utility.yul\":1709:1840   */\n      pop\n        /* \"#utility.yul\":1490:1847   */\n      swap3\n      swap2\n      pop\n      pop\n      jump\t// out\n        /* \"#utility.yul\":1853:1952   */\n    tag_113:\n        /* \"#utility.yul\":1905:1911   */\n      0x00\n        /* \"#utility.yul\":1939:1944   */\n      dup2\n        /* \"#utility.yul\":1933:1945   */\n      mload\n        /* \"#utility.yul\":1923:1945   */\n      swap1\n      pop\n        /* \"#utility.yul\":1853:1952   */\n      swap2\n      swap1\n      pop\n      jump\t// out\n        /* \"#utility.yul\":1958:2117   */\n    tag_114:\n        /* \"#utility.yul\":2032:2043   */\n      0x00\n        /* \"#utility.yul\":2066:2072   */\n      dup3\n        /* \"#utility.yul\":2061:2064   */\n      dup3\n        /* \"#utility.yul\":2054:2073   */\n      mstore\n        /* \"#utility.yul\":2106:2110   */\n      0x20\n        /* \"#utility.yul\":2101:2104   */\n      dup3\n        /* \"#utility.yul\":2097:2111   */\n      add\n        /* \"#utility.yul\":2082:2111   */\n      swap1\n      pop\n        /* \"#utility.yul\":1958:2117   */\n      swap3\n      swap2\n      pop\n      pop\n      jump\t// out\n        /* \"#utility.yul\":2123:2262   */\n    tag_115:\n        /* \"#utility.yul\":2212:2218   */\n      dup3\n        /* \"#utility.yul\":2207:2210   */\n      dup2\n        /* \"#utility.yul\":2202:2205   */\n      dup4\n        /* \"#utility.yul\":2196:2219   */\n      mcopy\n        /* \"#utility.yul\":2253:2254   */\n      0x00\n        /* \"#utility.yul\":2244:2250   */\n      dup4\n        /* \"#utility.yul\":2239:2242   */\n      dup4\n        /* \"#utility.yul\":2235:2251   */\n      add\n        /* \"#utility.yul\":2228:2255   */\n      mstore\n        /* \"#utility.yul\":2123:2262   */\n      pop\n      pop\n      pop\n      jump\t// out\n        /* \"#utility.yul\":2268:2370   */\n    tag_116:\n        /* \"#utility.yul\":2309:2315   */\n      0x00\n        /* \"#utility.yul\":2360:2362   */\n      0x1f\n        /* \"#utility.yul\":2356:2363   */\n      not\n        /* \"#utility.yul\":2351:2353   */\n      0x1f\n        /* \"#utility.yul\":2344:2349   */\n      dup4\n        /* \"#utility.yul\":2340:2354   */\n      add\n        /* \"#utility.yul\":2336:2364   */\n      and\n        /* \"#utility.yul\":2326:2364   */\n      swap1\n      pop\n        /* \"#utility.yul\":2268:2370   */\n      swap2\n      swap1\n      pop\n      jump\t// out\n        /* \"#utility.yul\":2376:2733   */\n    tag_117:\n        /* \"#utility.yul\":2454:2457   */\n      0x00\n        /* \"#utility.yul\":2482:2521   */\n      tag_167\n        /* \"#utility.yul\":2515:2520   */\n      dup3\n        /* \"#utility.yul\":2482:2521   */\n      tag_113\n      jump\t// in\n    tag_167:\n        /* \"#utility.yul\":2537:2598   */\n      tag_168\n        /* \"#utility.yul\":2591:2597   */\n      dup2\n        /* \"#utility.yul\":2586:2589   */\n      dup6\n        /* \"#utility.yul\":2537:2598   */\n      tag_114\n      jump\t// in\n    tag_168:\n        /* \"#utility.yul\":2530:2598   */\n      swap4\n      pop\n        /* \"#utility.yul\":2607:2672   */\n      tag_169\n        /* \"#utility.yul\":2665:2671   */\n      dup2\n        /* \"#utility.yul\":2660:2663   */\n      dup6\n        /* \"#utility.yul\":2653:2657   */\n      0x20\n        /* \"#utility.yul\":2646:2651   */\n      dup7\n        /* \"#utility.yul\":2642:2658   */\n      add\n        /* \"#utility.yul\":2607:2672   */\n      tag_115\n      jump\t// in\n    tag_169:\n        /* \"#utility.yul\":2697:2726   */\n      tag_170\n        /* \"#utility.yul\":2719:2725   */\n      dup2\n        /* \"#utility.yul\":2697:2726   */\n      tag_116\n      jump\t// in\n    tag_170:\n        /* \"#utility.yul\":2692:2695   */\n      dup5\n        /* \"#utility.yul\":2688:2727   */\n      add\n        /* \"#utility.yul\":2681:2727   */\n      swap2\n      pop\n        /* \"#utility.yul\":2458:2733   */\n      pop\n        /* \"#utility.yul\":2376:2733   */\n      swap3\n      swap2\n      pop\n      pop\n      jump\t// out\n        /* \"#utility.yul\":2739:2847   */\n    tag_118:\n        /* \"#utility.yul\":2816:2840   */\n      tag_172\n        /* \"#utility.yul\":2834:2839   */\n      dup2\n        /* \"#utility.yul\":2816:2840   */\n      tag_110\n      jump\t// in\n    tag_172:\n        /* \"#utility.yul\":2811:2814   */\n      dup3\n        /* \"#utility.yul\":2804:2841   */\n      mstore\n        /* \"#utility.yul\":2739:2847   */\n      pop\n      pop\n      jump\t// out\n        /* \"#utility.yul\":2927:3714   */\n    tag_119:\n        /* \"#utility.yul\":3048:3051   */\n      0x00\n        /* \"#utility.yul\":3084:3088   */\n      0x60\n        /* \"#utility.yul\":3079:3082   */\n      dup4\n        /* \"#utility.yul\":3075:3089   */\n      add\n        /* \"#utility.yul\":3171:3175   */\n      0x00\n        /* \"#utility.yul\":3164:3169   */\n      dup4\n        /* \"#utility.yul\":3160:3176   */\n      add\n        /* \"#utility.yul\":3154:3177   */\n      mload\n        /* \"#utility.yul\":3224:3227   */\n      dup5\n        /* \"#utility.yul\":3218:3222   */\n      dup3\n        /* \"#utility.yul\":3214:3228   */\n      sub\n        /* \"#utility.yul\":3207:3211   */\n      0x00\n        /* \"#utility.yul\":3202:3205   */\n      dup7\n        /* \"#utility.yul\":3198:3212   */\n      add\n        /* \"#utility.yul\":3191:3229   */\n      mstore\n        /* \"#utility.yul\":3250:3323   */\n      tag_174\n        /* \"#utility.yul\":3318:3322   */\n      dup3\n        /* \"#utility.yul\":3304:3316   */\n      dup3\n        /* \"#utility.yul\":3250:3323   */\n      tag_117\n      jump\t// in\n    tag_174:\n        /* \"#utility.yul\":3242:3323   */\n      swap2\n      pop\n        /* \"#utility.yul\":3099:3334   */\n      pop\n        /* \"#utility.yul\":3417:3421   */\n      0x20\n        /* \"#utility.yul\":3410:3415   */\n      dup4\n        /* \"#utility.yul\":3406:3422   */\n      add\n        /* \"#utility.yul\":3400:3423   */\n      mload\n        /* \"#utility.yul\":3436:3499   */\n      tag_175\n        /* \"#utility.yul\":3493:3497   */\n      0x20\n        /* \"#utility.yul\":3488:3491   */\n      dup7\n        /* \"#utility.yul\":3484:3498   */\n      add\n        /* \"#utility.yul\":3470:3482   */\n      dup3\n        /* \"#utility.yul\":3436:3499   */\n      tag_118\n      jump\t// in\n    tag_175:\n        /* \"#utility.yul\":3344:3509   */\n      pop\n        /* \"#utility.yul\":3595:3599   */\n      0x40\n        /* \"#utility.yul\":3588:3593   */\n      dup4\n        /* \"#utility.yul\":3584:3600   */\n      add\n        /* \"#utility.yul\":3578:3601   */\n      mload\n        /* \"#utility.yul\":3614:3677   */\n      tag_176\n        /* \"#utility.yul\":3671:3675   */\n      0x40\n        /* \"#utility.yul\":3666:3669   */\n      dup7\n        /* \"#utility.yul\":3662:3676   */\n      add\n        /* \"#utility.yul\":3648:3660   */\n      dup3\n        /* \"#utility.yul\":3614:3677   */\n      tag_118\n      jump\t// in\n    tag_176:\n        /* \"#utility.yul\":3519:3687   */\n      pop\n        /* \"#utility.yul\":3704:3708   */\n      dup1\n        /* \"#utility.yul\":3697:3708   */\n      swap2\n      pop\n        /* \"#utility.yul\":3053:3714   */\n      pop\n        /* \"#utility.yul\":2927:3714   */\n      swap3\n      swap2\n      pop\n      pop\n      jump\t// out\n        /* \"#utility.yul\":3720:4097   */\n    tag_21:\n        /* \"#utility.yul\":3865:3869   */\n      0x00\n        /* \"#utility.yul\":3903:3905   */\n      0x20\n        /* \"#utility.yul\":3892:3901   */\n      dup3\n        /* \"#utility.yul\":3888:3906   */\n      add\n        /* \"#utility.yul\":3880:3906   */\n      swap1\n      pop\n        /* \"#utility.yul\":3952:3961   */\n      dup2\n        /* \"#utility.yul\":3946:3950   */\n      dup2\n        /* \"#utility.yul\":3942:3962   */\n      sub\n        /* \"#utility.yul\":3938:3939   */\n      0x00\n        /* \"#utility.yul\":3927:3936   */\n      dup4\n        /* \"#utility.yul\":3923:3940   */\n      add\n        /* \"#utility.yul\":3916:3963   */\n      mstore\n        /* \"#utility.yul\":3980:4090   */\n      tag_178\n        /* \"#utility.yul\":4085:4089   */\n      dup2\n        /* \"#utility.yul\":4076:4082   */\n      dup5\n        /* \"#utility.yul\":3980:4090   */\n      tag_119\n      jump\t// in\n    tag_178:\n        /* \"#utility.yul\":3972:4090   */\n      swap1\n      pop\n        /* \"#utility.yul\":3720:4097   */\n      swap3\n      swap2\n      pop\n      pop\n      jump\t// out\n        /* \"#utility.yul\":4103:4229   */\n    tag_120:\n        /* \"#utility.yul\":4140:4147   */\n      0x00\n        /* \"#utility.yul\":4180:4222   */\n      0xffffffffffffffffffffffffffffffffffffffff\n        /* \"#utility.yul\":4173:4178   */\n      dup3\n        /* \"#utility.yul\":4169:4223   */\n      and\n        /* \"#utility.yul\":4158:4223   */\n      swap1\n      pop\n        /* \"#utility.yul\":4103:4229   */\n      swap2\n      swap1\n      pop\n      jump\t// out\n        /* \"#utility.yul\":4235:4331   */\n    tag_121:\n        /* \"#utility.yul\":4272:4279   */\n      0x00\n        /* \"#utility.yul\":4301:4325   */\n      tag_181\n        /* \"#utility.yul\":4319:4324   */\n      dup3\n        /* \"#utility.yul\":4301:4325   */\n      tag_120\n      jump\t// in\n    tag_181:\n        /* \"#utility.yul\":4290:4325   */\n      swap1\n      pop\n        /* \"#utility.yul\":4235:4331   */\n      swap2\n      swap1\n      pop\n      jump\t// out\n        /* \"#utility.yul\":4337:4455   */\n    tag_122:\n        /* \"#utility.yul\":4424:4448   */\n      tag_183\n        /* \"#utility.yul\":4442:4447   */\n      dup2\n        /* \"#utility.yul\":4424:4448   */\n      tag_121\n      jump\t// in\n    tag_183:\n        /* \"#utility.yul\":4419:4422   */\n      dup3\n        /* \"#utility.yul\":4412:4449   */\n      mstore\n        /* \"#utility.yul\":4337:4455   */\n      pop\n      pop\n      jump\t// out\n        /* \"#utility.yul\":4461:4683   */\n    tag_29:\n        /* \"#utility.yul\":4554:4558   */\n      0x00\n        /* \"#utility.yul\":4592:4594   */\n      0x20\n        /* \"#utility.yul\":4581:4590   */\n      dup3\n        /* \"#utility.yul\":4577:4595   */\n      add\n        /* \"#utility.yul\":4569:4595   */\n      swap1\n      pop\n        /* \"#utility.yul\":4605:4676   */\n      tag_185\n        /* \"#utility.yul\":4673:4674   */\n      0x00\n        /* \"#utility.yul\":4662:4671   */\n      dup4\n        /* \"#utility.yul\":4658:4675   */\n      add\n        /* \"#utility.yul\":4649:4655   */\n      dup5\n        /* \"#utility.yul\":4605:4676   */\n      tag_122\n      jump\t// in\n    tag_185:\n        /* \"#utility.yul\":4461:4683   */\n      swap3\n      swap2\n      pop\n      pop\n      jump\t// out\n        /* \"#utility.yul\":4689:4811   */\n    tag_123:\n        /* \"#utility.yul\":4762:4786   */\n      tag_187\n        /* \"#utility.yul\":4780:4785   */\n      dup2\n        /* \"#utility.yul\":4762:4786   */\n      tag_121\n      jump\t// in\n    tag_187:\n        /* \"#utility.yul\":4755:4760   */\n      dup2\n        /* \"#utility.yul\":4752:4787   */\n      eq\n        /* \"#utility.yul\":4742:4805   */\n      tag_188\n      jumpi\n        /* \"#utility.yul\":4801:4802   */\n      0x00\n        /* \"#utility.yul\":4798:4799   */\n      0x00\n        /* \"#utility.yul\":4791:4803   */\n      revert\n        /* \"#utility.yul\":4742:4805   */\n    tag_188:\n        /* \"#utility.yul\":4689:4811   */\n      pop\n      jump\t// out\n        /* \"#utility.yul\":4817:4956   */\n    tag_124:\n        /* \"#utility.yul\":4863:4868   */\n      0x00\n        /* \"#utility.yul\":4901:4907   */\n      dup2\n        /* \"#utility.yul\":4888:4908   */\n      calldataload\n        /* \"#utility.yul\":4879:4908   */\n      swap1\n      pop\n        /* \"#utility.yul\":4917:4950   */\n      tag_190\n        /* \"#utility.yul\":4944:4949   */\n      dup2\n        /* \"#utility.yul\":4917:4950   */\n      tag_123\n      jump\t// in\n    tag_190:\n        /* \"#utility.yul\":4817:4956   */\n      swap3\n      swap2\n      pop\n      pop\n      jump\t// out\n        /* \"#utility.yul\":4962:5291   */\n    tag_33:\n        /* \"#utility.yul\":5021:5027   */\n      0x00\n        /* \"#utility.yul\":5070:5072   */\n      0x20\n        /* \"#utility.yul\":5058:5067   */\n      dup3\n        /* \"#utility.yul\":5049:5056   */\n      dup5\n        /* \"#utility.yul\":5045:5068   */\n      sub\n        /* \"#utility.yul\":5041:5073   */\n      slt\n        /* \"#utility.yul\":5038:5157   */\n      iszero\n      tag_192\n      jumpi\n        /* \"#utility.yul\":5076:5155   */\n      tag_193\n      tag_106\n      jump\t// in\n    tag_193:\n        /* \"#utility.yul\":5038:5157   */\n    tag_192:\n        /* \"#utility.yul\":5196:5197   */\n      0x00\n        /* \"#utility.yul\":5221:5274   */\n      tag_194\n        /* \"#utility.yul\":5266:5273   */\n      dup5\n        /* \"#utility.yul\":5257:5263   */\n      dup3\n        /* \"#utility.yul\":5246:5255   */\n      dup6\n        /* \"#utility.yul\":5242:5264   */\n      add\n        /* \"#utility.yul\":5221:5274   */\n      tag_124\n      jump\t// in\n    tag_194:\n        /* \"#utility.yul\":5211:5274   */\n      swap2\n      pop\n        /* \"#utility.yul\":5167:5284   */\n      pop\n        /* \"#utility.yul\":4962:5291   */\n      swap3\n      swap2\n      pop\n      pop\n      jump\t// out\n        /* \"#utility.yul\":5297:5415   */\n    tag_125:\n        /* \"#utility.yul\":5384:5408   */\n      tag_196\n        /* \"#utility.yul\":5402:5407   */\n      dup2\n        /* \"#utility.yul\":5384:5408   */\n      tag_110\n      jump\t// in\n    tag_196:\n        /* \"#utility.yul\":5379:5382   */\n      dup3\n        /* \"#utility.yul\":5372:5409   */\n      mstore\n        /* \"#utility.yul\":5297:5415   */\n      pop\n      pop\n      jump\t// out\n        /* \"#utility.yul\":5421:5643   */\n    tag_36:\n        /* \"#utility.yul\":5514:5518   */\n      0x00\n        /* \"#utility.yul\":5552:5554   */\n      0x20\n        /* \"#utility.yul\":5541:5550   */\n      dup3\n        /* \"#utility.yul\":5537:5555   */\n      add\n        /* \"#utility.yul\":5529:5555   */\n      swap1\n      pop\n        /* \"#utility.yul\":5565:5636   */\n      tag_198\n        /* \"#utility.yul\":5633:5634   */\n      0x00\n        /* \"#utility.yul\":5622:5631   */\n      dup4\n        /* \"#utility.yul\":5618:5635   */\n      add\n        /* \"#utility.yul\":5609:5615   */\n      dup5\n        /* \"#utility.yul\":5565:5636   */\n      tag_125\n      jump\t// in\n    tag_198:\n        /* \"#utility.yul\":5421:5643   */\n      swap3\n      swap2\n      pop\n      pop\n      jump\t// out\n        /* \"#utility.yul\":5649:5818   */\n    tag_126:\n        /* \"#utility.yul\":5733:5744   */\n      0x00\n        /* \"#utility.yul\":5767:5773   */\n      dup3\n        /* \"#utility.yul\":5762:5765   */\n      dup3\n        /* \"#utility.yul\":5755:5774   */\n      mstore\n        /* \"#utility.yul\":5807:5811   */\n      0x20\n        /* \"#utility.yul\":5802:5805   */\n      dup3\n        /* \"#utility.yul\":5798:5812   */\n      add\n        /* \"#utility.yul\":5783:5812   */\n      swap1\n      pop\n        /* \"#utility.yul\":5649:5818   */\n      swap3\n      swap2\n      pop\n      pop\n      jump\t// out\n        /* \"#utility.yul\":5824:6045   */\n    tag_127:\n        /* \"#utility.yul\":5964:5998   */\n      0x4f6e6c79206f776e65722063616e2063616c6c2074686973207265736f757263\n        /* \"#utility.yul\":5960:5961   */\n      0x00\n        /* \"#utility.yul\":5952:5958   */\n      dup3\n        /* \"#utility.yul\":5948:5962   */\n      add\n        /* \"#utility.yul\":5941:5999   */\n      mstore\n        /* \"#utility.yul\":6033:6037   */\n      0x652e000000000000000000000000000000000000000000000000000000000000\n        /* \"#utility.yul\":6028:6030   */\n      0x20\n        /* \"#utility.yul\":6020:6026   */\n      dup3\n        /* \"#utility.yul\":6016:6031   */\n      add\n        /* \"#utility.yul\":6009:6038   */\n      mstore\n        /* \"#utility.yul\":5824:6045   */\n      pop\n      jump\t// out\n        /* \"#utility.yul\":6051:6417   */\n    tag_128:\n        /* \"#utility.yul\":6193:6196   */\n      0x00\n        /* \"#utility.yul\":6214:6281   */\n      tag_202\n        /* \"#utility.yul\":6278:6280   */\n      0x22\n        /* \"#utility.yul\":6273:6276   */\n      dup4\n        /* \"#utility.yul\":6214:6281   */\n      tag_126\n      jump\t// in\n    tag_202:\n        /* \"#utility.yul\":6207:6281   */\n      swap2\n      pop\n        /* \"#utility.yul\":6290:6383   */\n      tag_203\n        /* \"#utility.yul\":6379:6382   */\n      dup3\n        /* \"#utility.yul\":6290:6383   */\n      tag_127\n      jump\t// in\n    tag_203:\n        /* \"#utility.yul\":6408:6410   */\n      0x40\n        /* \"#utility.yul\":6403:6406   */\n      dup3\n        /* \"#utility.yul\":6399:6411   */\n      add\n        /* \"#utility.yul\":6392:6411   */\n      swap1\n      pop\n        /* \"#utility.yul\":6051:6417   */\n      swap2\n      swap1\n      pop\n      jump\t// out\n        /* \"#utility.yul\":6423:6842   */\n    tag_40:\n        /* \"#utility.yul\":6589:6593   */\n      0x00\n        /* \"#utility.yul\":6627:6629   */\n      0x20\n        /* \"#utility.yul\":6616:6625   */\n      dup3\n        /* \"#utility.yul\":6612:6630   */\n      add\n        /* \"#utility.yul\":6604:6630   */\n      swap1\n      pop\n        /* \"#utility.yul\":6676:6685   */\n      dup2\n        /* \"#utility.yul\":6670:6674   */\n      dup2\n        /* \"#utility.yul\":6666:6686   */\n      sub\n        /* \"#utility.yul\":6662:6663   */\n      0x00\n        /* \"#utility.yul\":6651:6660   */\n      dup4\n        /* \"#utility.yul\":6647:6664   */\n      add\n        /* \"#utility.yul\":6640:6687   */\n      mstore\n        /* \"#utility.yul\":6704:6835   */\n      tag_205\n        /* \"#utility.yul\":6830:6834   */\n      dup2\n        /* \"#utility.yul\":6704:6835   */\n      tag_128\n      jump\t// in\n    tag_205:\n        /* \"#utility.yul\":6696:6835   */\n      swap1\n      pop\n        /* \"#utility.yul\":6423:6842   */\n      swap2\n      swap1\n      pop\n      jump\t// out\n        /* \"#utility.yul\":6848:7028   */\n    tag_44:\n        /* \"#utility.yul\":6896:6973   */\n      0x4e487b7100000000000000000000000000000000000000000000000000000000\n        /* \"#utility.yul\":6893:6894   */\n      0x00\n        /* \"#utility.yul\":6886:6974   */\n      mstore\n        /* \"#utility.yul\":6993:6997   */\n      0x21\n        /* \"#utility.yul\":6990:6991   */\n      0x04\n        /* \"#utility.yul\":6983:6998   */\n      mstore\n        /* \"#utility.yul\":7017:7021   */\n      0x24\n        /* \"#utility.yul\":7014:7015   */\n      0x00\n        /* \"#utility.yul\":7007:7022   */\n      revert\n        /* \"#utility.yul\":7034:7214   */\n    tag_47:\n        /* \"#utility.yul\":7082:7159   */\n      0x4e487b7100000000000000000000000000000000000000000000000000000000\n        /* \"#utility.yul\":7079:7080   */\n      0x00\n        /* \"#utility.yul\":7072:7160   */\n      mstore\n        /* \"#utility.yul\":7179:7183   */\n      0x32\n        /* \"#utility.yul\":7176:7177   */\n      0x04\n        /* \"#utility.yul\":7169:7184   */\n      mstore\n        /* \"#utility.yul\":7203:7207   */\n      0x24\n        /* \"#utility.yul\":7200:7201   */\n      0x00\n        /* \"#utility.yul\":7193:7208   */\n      revert\n        /* \"#utility.yul\":7220:7400   */\n    tag_129:\n        /* \"#utility.yul\":7268:7345   */\n      0x4e487b7100000000000000000000000000000000000000000000000000000000\n        /* \"#utility.yul\":7265:7266   */\n      0x00\n        /* \"#utility.yul\":7258:7346   */\n      mstore\n        /* \"#utility.yul\":7365:7369   */\n      0x11\n        /* \"#utility.yul\":7362:7363   */\n      0x04\n        /* \"#utility.yul\":7355:7370   */\n      mstore\n        /* \"#utility.yul\":7389:7393   */\n      0x24\n        /* \"#utility.yul\":7386:7387   */\n      0x00\n        /* \"#utility.yul\":7379:7394   */\n      revert\n        /* \"#utility.yul\":7406:7597   */\n    tag_50:\n        /* \"#utility.yul\":7446:7449   */\n      0x00\n        /* \"#utility.yul\":7465:7485   */\n      tag_210\n        /* \"#utility.yul\":7483:7484   */\n      dup3\n        /* \"#utility.yul\":7465:7485   */\n      tag_110\n      jump\t// in\n    tag_210:\n        /* \"#utility.yul\":7460:7485   */\n      swap2\n      pop\n        /* \"#utility.yul\":7499:7519   */\n      tag_211\n        /* \"#utility.yul\":7517:7518   */\n      dup4\n        /* \"#utility.yul\":7499:7519   */\n      tag_110\n      jump\t// in\n    tag_211:\n        /* \"#utility.yul\":7494:7519   */\n      swap3\n      pop\n        /* \"#utility.yul\":7542:7543   */\n      dup3\n        /* \"#utility.yul\":7539:7540   */\n      dup3\n        /* \"#utility.yul\":7535:7544   */\n      add\n        /* \"#utility.yul\":7528:7544   */\n      swap1\n      pop\n        /* \"#utility.yul\":7563:7566   */\n      dup1\n        /* \"#utility.yul\":7560:7561   */\n      dup3\n        /* \"#utility.yul\":7557:7567   */\n      gt\n        /* \"#utility.yul\":7554:7590   */\n      iszero\n      tag_212\n      jumpi\n        /* \"#utility.yul\":7570:7588   */\n      tag_213\n      tag_129\n      jump\t// in\n    tag_213:\n        /* \"#utility.yul\":7554:7590   */\n    tag_212:\n        /* \"#utility.yul\":7406:7597   */\n      swap3\n      swap2\n      pop\n      pop\n      jump\t// out\n        /* \"#utility.yul\":7603:7774   */\n    tag_130:\n        /* \"#utility.yul\":7743:7766   */\n      0x4e6f2066756e647320746f2077697468647261772e0000000000000000000000\n        /* \"#utility.yul\":7739:7740   */\n      0x00\n        /* \"#utility.yul\":7731:7737   */\n      dup3\n        /* \"#utility.yul\":7727:7741   */\n      add\n        /* \"#utility.yul\":7720:7767   */\n      mstore\n        /* \"#utility.yul\":7603:7774   */\n      pop\n      jump\t// out\n        /* \"#utility.yul\":7780:8146   */\n    tag_131:\n        /* \"#utility.yul\":7922:7925   */\n      0x00\n        /* \"#utility.yul\":7943:8010   */\n      tag_216\n        /* \"#utility.yul\":8007:8009   */\n      0x15\n        /* \"#utility.yul\":8002:8005   */\n      dup4\n        /* \"#utility.yul\":7943:8010   */\n      tag_126\n      jump\t// in\n    tag_216:\n        /* \"#utility.yul\":7936:8010   */\n      swap2\n      pop\n        /* \"#utility.yul\":8019:8112   */\n      tag_217\n        /* \"#utility.yul\":8108:8111   */\n      dup3\n        /* \"#utility.yul\":8019:8112   */\n      tag_130\n      jump\t// in\n    tag_217:\n        /* \"#utility.yul\":8137:8139   */\n      0x20\n        /* \"#utility.yul\":8132:8135   */\n      dup3\n        /* \"#utility.yul\":8128:8140   */\n      add\n        /* \"#utility.yul\":8121:8140   */\n      swap1\n      pop\n        /* \"#utility.yul\":7780:8146   */\n      swap2\n      swap1\n      pop\n      jump\t// out\n        /* \"#utility.yul\":8152:8571   */\n    tag_57:\n        /* \"#utility.yul\":8318:8322   */\n      0x00\n        /* \"#utility.yul\":8356:8358   */\n      0x20\n        /* \"#utility.yul\":8345:8354   */\n      dup3\n        /* \"#utility.yul\":8341:8359   */\n      add\n        /* \"#utility.yul\":8333:8359   */\n      swap1\n      pop\n        /* \"#utility.yul\":8405:8414   */\n      dup2\n        /* \"#utility.yul\":8399:8403   */\n      dup2\n        /* \"#utility.yul\":8395:8415   */\n      sub\n        /* \"#utility.yul\":8391:8392   */\n      0x00\n        /* \"#utility.yul\":8380:8389   */\n      dup4\n        /* \"#utility.yul\":8376:8393   */\n      add\n        /* \"#utility.yul\":8369:8416   */\n      mstore\n        /* \"#utility.yul\":8433:8564   */\n      tag_219\n        /* \"#utility.yul\":8559:8563   */\n      dup2\n        /* \"#utility.yul\":8433:8564   */\n      tag_131\n      jump\t// in\n    tag_219:\n        /* \"#utility.yul\":8425:8564   */\n      swap1\n      pop\n        /* \"#utility.yul\":8152:8571   */\n      swap2\n      swap1\n      pop\n      jump\t// out\n        /* \"#utility.yul\":8577:8757   */\n    tag_132:\n        /* \"#utility.yul\":8625:8702   */\n      0x4e487b7100000000000000000000000000000000000000000000000000000000\n        /* \"#utility.yul\":8622:8623   */\n      0x00\n        /* \"#utility.yul\":8615:8703   */\n      mstore\n        /* \"#utility.yul\":8722:8726   */\n      0x22\n        /* \"#utility.yul\":8719:8720   */\n      0x04\n        /* \"#utility.yul\":8712:8727   */\n      mstore\n        /* \"#utility.yul\":8746:8750   */\n      0x24\n        /* \"#utility.yul\":8743:8744   */\n      0x00\n        /* \"#utility.yul\":8736:8751   */\n      revert\n        /* \"#utility.yul\":8763:9083   */\n    tag_69:\n        /* \"#utility.yul\":8807:8813   */\n      0x00\n        /* \"#utility.yul\":8844:8845   */\n      0x02\n        /* \"#utility.yul\":8838:8842   */\n      dup3\n        /* \"#utility.yul\":8834:8846   */\n      div\n        /* \"#utility.yul\":8824:8846   */\n      swap1\n      pop\n        /* \"#utility.yul\":8891:8892   */\n      0x01\n        /* \"#utility.yul\":8885:8889   */\n      dup3\n        /* \"#utility.yul\":8881:8893   */\n      and\n        /* \"#utility.yul\":8912:8930   */\n      dup1\n        /* \"#utility.yul\":8902:8983   */\n      tag_222\n      jumpi\n        /* \"#utility.yul\":8968:8972   */\n      0x7f\n        /* \"#utility.yul\":8960:8966   */\n      dup3\n        /* \"#utility.yul\":8956:8973   */\n      and\n        /* \"#utility.yul\":8946:8973   */\n      swap2\n      pop\n        /* \"#utility.yul\":8902:8983   */\n    tag_222:\n        /* \"#utility.yul\":9030:9032   */\n      0x20\n        /* \"#utility.yul\":9022:9028   */\n      dup3\n        /* \"#utility.yul\":9019:9033   */\n      lt\n        /* \"#utility.yul\":8999:9017   */\n      dup2\n        /* \"#utility.yul\":8996:9034   */\n      sub\n        /* \"#utility.yul\":8993:9077   */\n      tag_223\n      jumpi\n        /* \"#utility.yul\":9049:9067   */\n      tag_224\n      tag_132\n      jump\t// in\n    tag_224:\n        /* \"#utility.yul\":8993:9077   */\n    tag_223:\n        /* \"#utility.yul\":8814:9083   */\n      pop\n        /* \"#utility.yul\":8763:9083   */\n      swap2\n      swap1\n      pop\n      jump\t// out\n        /* \"#utility.yul\":9089:9499   */\n    tag_83:\n        /* \"#utility.yul\":9129:9136   */\n      0x00\n        /* \"#utility.yul\":9152:9172   */\n      tag_226\n        /* \"#utility.yul\":9170:9171   */\n      dup3\n        /* \"#utility.yul\":9152:9172   */\n      tag_110\n      jump\t// in\n    tag_226:\n        /* \"#utility.yul\":9147:9172   */\n      swap2\n      pop\n        /* \"#utility.yul\":9186:9206   */\n      tag_227\n        /* \"#utility.yul\":9204:9205   */\n      dup4\n        /* \"#utility.yul\":9186:9206   */\n      tag_110\n      jump\t// in\n    tag_227:\n        /* \"#utility.yul\":9181:9206   */\n      swap3\n      pop\n        /* \"#utility.yul\":9241:9242   */\n      dup3\n        /* \"#utility.yul\":9238:9239   */\n      dup3\n        /* \"#utility.yul\":9234:9243   */\n      mul\n        /* \"#utility.yul\":9263:9293   */\n      tag_228\n        /* \"#utility.yul\":9281:9292   */\n      dup2\n        /* \"#utility.yul\":9263:9293   */\n      tag_110\n      jump\t// in\n    tag_228:\n        /* \"#utility.yul\":9252:9293   */\n      swap2\n      pop\n        /* \"#utility.yul\":9442:9443   */\n      dup3\n        /* \"#utility.yul\":9433:9440   */\n      dup3\n        /* \"#utility.yul\":9429:9444   */\n      div\n        /* \"#utility.yul\":9426:9427   */\n      dup5\n        /* \"#utility.yul\":9423:9445   */\n      eq\n        /* \"#utility.yul\":9403:9404   */\n      dup4\n        /* \"#utility.yul\":9396:9405   */\n      iszero\n        /* \"#utility.yul\":9376:9459   */\n      or\n        /* \"#utility.yul\":9353:9492   */\n      tag_229\n      jumpi\n        /* \"#utility.yul\":9472:9490   */\n      tag_230\n      tag_129\n      jump\t// in\n    tag_230:\n        /* \"#utility.yul\":9353:9492   */\n    tag_229:\n        /* \"#utility.yul\":9137:9499   */\n      pop\n        /* \"#utility.yul\":9089:9499   */\n      swap3\n      swap2\n      pop\n      pop\n      jump\t// out\n        /* \"#utility.yul\":9505:9675   */\n    tag_133:\n        /* \"#utility.yul\":9645:9667   */\n      0x496e76616c69642070726f6475637420656e756d000000000000000000000000\n        /* \"#utility.yul\":9641:9642   */\n      0x00\n        /* \"#utility.yul\":9633:9639   */\n      dup3\n        /* \"#utility.yul\":9629:9643   */\n      add\n        /* \"#utility.yul\":9622:9668   */\n      mstore\n        /* \"#utility.yul\":9505:9675   */\n      pop\n      jump\t// out\n        /* \"#utility.yul\":9681:10047   */\n    tag_134:\n        /* \"#utility.yul\":9823:9826   */\n      0x00\n        /* \"#utility.yul\":9844:9911   */\n      tag_233\n        /* \"#utility.yul\":9908:9910   */\n      0x14\n        /* \"#utility.yul\":9903:9906   */\n      dup4\n        /* \"#utility.yul\":9844:9911   */\n      tag_126\n      jump\t// in\n    tag_233:\n        /* \"#utility.yul\":9837:9911   */\n      swap2\n      pop\n        /* \"#utility.yul\":9920:10013   */\n      tag_234\n        /* \"#utility.yul\":10009:10012   */\n      dup3\n        /* \"#utility.yul\":9920:10013   */\n      tag_133\n      jump\t// in\n    tag_234:\n        /* \"#utility.yul\":10038:10040   */\n      0x20\n        /* \"#utility.yul\":10033:10036   */\n      dup3\n        /* \"#utility.yul\":10029:10041   */\n      add\n        /* \"#utility.yul\":10022:10041   */\n      swap1\n      pop\n        /* \"#utility.yul\":9681:10047   */\n      swap2\n      swap1\n      pop\n      jump\t// out\n        /* \"#utility.yul\":10053:10472   */\n    tag_87:\n        /* \"#utility.yul\":10219:10223   */\n      0x00\n        /* \"#utility.yul\":10257:10259   */\n      0x20\n        /* \"#utility.yul\":10246:10255   */\n      dup3\n        /* \"#utility.yul\":10242:10260   */\n      add\n        /* \"#utility.yul\":10234:10260   */\n      swap1\n      pop\n        /* \"#utility.yul\":10306:10315   */\n      dup2\n        /* \"#utility.yul\":10300:10304   */\n      dup2\n        /* \"#utility.yul\":10296:10316   */\n      sub\n        /* \"#utility.yul\":10292:10293   */\n      0x00\n        /* \"#utility.yul\":10281:10290   */\n      dup4\n        /* \"#utility.yul\":10277:10294   */\n      add\n        /* \"#utility.yul\":10270:10317   */\n      mstore\n        /* \"#utility.yul\":10334:10465   */\n      tag_236\n        /* \"#utility.yul\":10460:10464   */\n      dup2\n        /* \"#utility.yul\":10334:10465   */\n      tag_134\n      jump\t// in\n    tag_236:\n        /* \"#utility.yul\":10326:10465   */\n      swap1\n      pop\n        /* \"#utility.yul\":10053:10472   */\n      swap2\n      swap1\n      pop\n      jump\t// out\n        /* \"#utility.yul\":10478:10647   */\n    tag_135:\n        /* \"#utility.yul\":10618:10639   */\n      0x50726f64756374206e6f7420656e6f7567682e00000000000000000000000000\n        /* \"#utility.yul\":10614:10615   */\n      0x00\n        /* \"#utility.yul\":10606:10612   */\n      dup3\n        /* \"#utility.yul\":10602:10616   */\n      add\n        /* \"#utility.yul\":10595:10640   */\n      mstore\n        /* \"#utility.yul\":10478:10647   */\n      pop\n      jump\t// out\n        /* \"#utility.yul\":10653:11019   */\n    tag_136:\n        /* \"#utility.yul\":10795:10798   */\n      0x00\n        /* \"#utility.yul\":10816:10883   */\n      tag_239\n        /* \"#utility.yul\":10880:10882   */\n      0x13\n        /* \"#utility.yul\":10875:10878   */\n      dup4\n        /* \"#utility.yul\":10816:10883   */\n      tag_126\n      jump\t// in\n    tag_239:\n        /* \"#utility.yul\":10809:10883   */\n      swap2\n      pop\n        /* \"#utility.yul\":10892:10985   */\n      tag_240\n        /* \"#utility.yul\":10981:10984   */\n      dup3\n        /* \"#utility.yul\":10892:10985   */\n      tag_135\n      jump\t// in\n    tag_240:\n        /* \"#utility.yul\":11010:11012   */\n      0x20\n        /* \"#utility.yul\":11005:11008   */\n      dup3\n        /* \"#utility.yul\":11001:11013   */\n      add\n        /* \"#utility.yul\":10994:11013   */\n      swap1\n      pop\n        /* \"#utility.yul\":10653:11019   */\n      swap2\n      swap1\n      pop\n      jump\t// out\n        /* \"#utility.yul\":11025:11444   */\n    tag_93:\n        /* \"#utility.yul\":11191:11195   */\n      0x00\n        /* \"#utility.yul\":11229:11231   */\n      0x20\n        /* \"#utility.yul\":11218:11227   */\n      dup3\n        /* \"#utility.yul\":11214:11232   */\n      add\n        /* \"#utility.yul\":11206:11232   */\n      swap1\n      pop\n        /* \"#utility.yul\":11278:11287   */\n      dup2\n        /* \"#utility.yul\":11272:11276   */\n      dup2\n        /* \"#utility.yul\":11268:11288   */\n      sub\n        /* \"#utility.yul\":11264:11265   */\n      0x00\n        /* \"#utility.yul\":11253:11262   */\n      dup4\n        /* \"#utility.yul\":11249:11266   */\n      add\n        /* \"#utility.yul\":11242:11289   */\n      mstore\n        /* \"#utility.yul\":11306:11437   */\n      tag_242\n        /* \"#utility.yul\":11432:11436   */\n      dup2\n        /* \"#utility.yul\":11306:11437   */\n      tag_136\n      jump\t// in\n    tag_242:\n        /* \"#utility.yul\":11298:11437   */\n      swap1\n      pop\n        /* \"#utility.yul\":11025:11444   */\n      swap2\n      swap1\n      pop\n      jump\t// out\n        /* \"#utility.yul\":11450:11616   */\n    tag_137:\n        /* \"#utility.yul\":11590:11608   */\n      0x4e6f7420656e6f75676820657468657200000000000000000000000000000000\n        /* \"#utility.yul\":11586:11587   */\n      0x00\n        /* \"#utility.yul\":11578:11584   */\n      dup3\n        /* \"#utility.yul\":11574:11588   */\n      add\n        /* \"#utility.yul\":11567:11609   */\n      mstore\n        /* \"#utility.yul\":11450:11616   */\n      pop\n      jump\t// out\n        /* \"#utility.yul\":11622:11988   */\n    tag_138:\n        /* \"#utility.yul\":11764:11767   */\n      0x00\n        /* \"#utility.yul\":11785:11852   */\n      tag_245\n        /* \"#utility.yul\":11849:11851   */\n      0x10\n        /* \"#utility.yul\":11844:11847   */\n      dup4\n        /* \"#utility.yul\":11785:11852   */\n      tag_126\n      jump\t// in\n    tag_245:\n        /* \"#utility.yul\":11778:11852   */\n      swap2\n      pop\n        /* \"#utility.yul\":11861:11954   */\n      tag_246\n        /* \"#utility.yul\":11950:11953   */\n      dup3\n        /* \"#utility.yul\":11861:11954   */\n      tag_137\n      jump\t// in\n    tag_246:\n        /* \"#utility.yul\":11979:11981   */\n      0x20\n        /* \"#utility.yul\":11974:11977   */\n      dup3\n        /* \"#utility.yul\":11970:11982   */\n      add\n        /* \"#utility.yul\":11963:11982   */\n      swap1\n      pop\n        /* \"#utility.yul\":11622:11988   */\n      swap2\n      swap1\n      pop\n      jump\t// out\n        /* \"#utility.yul\":11994:12413   */\n    tag_96:\n        /* \"#utility.yul\":12160:12164   */\n      0x00\n        /* \"#utility.yul\":12198:12200   */\n      0x20\n        /* \"#utility.yul\":12187:12196   */\n      dup3\n        /* \"#utility.yul\":12183:12201   */\n      add\n        /* \"#utility.yul\":12175:12201   */\n      swap1\n      pop\n        /* \"#utility.yul\":12247:12256   */\n      dup2\n        /* \"#utility.yul\":12241:12245   */\n      dup2\n        /* \"#utility.yul\":12237:12257   */\n      sub\n        /* \"#utility.yul\":12233:12234   */\n      0x00\n        /* \"#utility.yul\":12222:12231   */\n      dup4\n        /* \"#utility.yul\":12218:12235   */\n      add\n        /* \"#utility.yul\":12211:12258   */\n      mstore\n        /* \"#utility.yul\":12275:12406   */\n      tag_248\n        /* \"#utility.yul\":12401:12405   */\n      dup2\n        /* \"#utility.yul\":12275:12406   */\n      tag_138\n      jump\t// in\n    tag_248:\n        /* \"#utility.yul\":12267:12406   */\n      swap1\n      pop\n        /* \"#utility.yul\":11994:12413   */\n      swap2\n      swap1\n      pop\n      jump\t// out\n        /* \"#utility.yul\":12419:12613   */\n    tag_101:\n        /* \"#utility.yul\":12459:12463   */\n      0x00\n        /* \"#utility.yul\":12479:12499   */\n      tag_250\n        /* \"#utility.yul\":12497:12498   */\n      dup3\n        /* \"#utility.yul\":12479:12499   */\n      tag_110\n      jump\t// in\n    tag_250:\n        /* \"#utility.yul\":12474:12499   */\n      swap2\n      pop\n        /* \"#utility.yul\":12513:12533   */\n      tag_251\n        /* \"#utility.yul\":12531:12532   */\n      dup4\n        /* \"#utility.yul\":12513:12533   */\n      tag_110\n      jump\t// in\n    tag_251:\n        /* \"#utility.yul\":12508:12533   */\n      swap3\n      pop\n        /* \"#utility.yul\":12557:12558   */\n      dup3\n        /* \"#utility.yul\":12554:12555   */\n      dup3\n        /* \"#utility.yul\":12550:12559   */\n      sub\n        /* \"#utility.yul\":12542:12559   */\n      swap1\n      pop\n        /* \"#utility.yul\":12581:12582   */\n      dup2\n        /* \"#utility.yul\":12575:12579   */\n      dup2\n        /* \"#utility.yul\":12572:12583   */\n      gt\n        /* \"#utility.yul\":12569:12606   */\n      iszero\n      tag_252\n      jumpi\n        /* \"#utility.yul\":12586:12604   */\n      tag_253\n      tag_129\n      jump\t// in\n    tag_253:\n        /* \"#utility.yul\":12569:12606   */\n    tag_252:\n        /* \"#utility.yul\":12419:12613   */\n      swap3\n      swap2\n      pop\n      pop\n      jump\t// out\n\n    auxdata: 0xa2646970667358221220a7380bea62ab48306ee1541e575548eeb560c3736baae03bf6f660489b7ab14f64736f6c634300081e0033\n}\n",
				"bytecode": {
					"linkReferences": {},
					"object": "608060405234801561000f575f5ffd5b50335f5f6101000a81548173ffffffffffffffffffffffffffffffffffffffff021916908373ffffffffffffffffffffffffffffffffffffffff16021790555060405180606001604052806040518060400160405280600581526020017f57617465720000000000000000000000000000000000000000000000000000008152508152602001633b9aca008152602001606481525060025f600581106100b8576100b7610350565b5b600302015f820151815f0190816100cf91906105ba565b50602082015181600101556040820151816002015590505060405180606001604052806040518060400160405280600381526020017f54656100000000000000000000000000000000000000000000000000000000008152508152602001637735940081526020016064815250600260016005811061015157610150610350565b5b600302015f820151815f01908161016891906105ba565b50602082015181600101556040820151816002015590505060405180606001604052806040518060400160405280600581526020017f4a75696365000000000000000000000000000000000000000000000000000000815250815260200163b2d05e0081526020016064815250600280600581106101e9576101e8610350565b5b600302015f820151815f01908161020091906105ba565b50602082015181600101556040820151816002015590505060405180606001604052806040518060400160405280600481526020017f4d696c6b00000000000000000000000000000000000000000000000000000000815250815260200163ee6b280081526020016064815250600260036005811061028257610281610350565b5b600302015f820151815f01908161029991906105ba565b50602082015181600101556040820151816002015590505060405180606001604052806040518060400160405280600681526020017f436f666665650000000000000000000000000000000000000000000000000000815250815260200164012a05f20081526020016064815250600260046005811061031c5761031b610350565b5b600302015f820151815f01908161033391906105ba565b506020820151816001015560408201518160020155905050610689565b7f4e487b71000000000000000000000000000000000000000000000000000000005f52603260045260245ffd5b5f81519050919050565b7f4e487b71000000000000000000000000000000000000000000000000000000005f52604160045260245ffd5b7f4e487b71000000000000000000000000000000000000000000000000000000005f52602260045260245ffd5b5f60028204905060018216806103f857607f821691505b60208210810361040b5761040a6103b4565b5b50919050565b5f819050815f5260205f209050919050565b5f6020601f8301049050919050565b5f82821b905092915050565b5f6008830261046d7fffffffffffffffffffffffffffffffffffffffffffffffffffffffffffffffff82610432565b6104778683610432565b95508019841693508086168417925050509392505050565b5f819050919050565b5f819050919050565b5f6104bb6104b66104b18461048f565b610498565b61048f565b9050919050565b5f819050919050565b6104d4836104a1565b6104e86104e0826104c2565b84845461043e565b825550505050565b5f5f905090565b6104ff6104f0565b61050a8184846104cb565b505050565b5b8181101561052d576105225f826104f7565b600181019050610510565b5050565b601f8211156105725761054381610411565b61054c84610423565b8101602085101561055b578190505b61056f61056785610423565b83018261050f565b50505b505050565b5f82821c905092915050565b5f6105925f1984600802610577565b1980831691505092915050565b5f6105aa8383610583565b9150826002028217905092915050565b6105c38261037d565b67ffffffffffffffff8111156105dc576105db610387565b5b6105e682546103e1565b6105f1828285610531565b5f60209050601f831160018114610622575f8415610610578287015190505b61061a858261059f565b865550610681565b601f19841661063086610411565b5f5b8281101561065757848901518255600182019150602085019450602081019050610632565b868310156106745784890151610670601f891682610583565b8355505b6001600288020188555050505b505050505050565b610d44806106965f395ff3fe608060405260043610610054575f3560e01c80632d153a8c1461005857806349649fbf146100805780635b291dba1461008a57806362f791c0146100c65780638da5cb5b146100e2578063c32fdf341461010c575b5f5ffd5b348015610063575f5ffd5b5061007e6004803603810190610079919061071b565b610148565b005b61008861021d565b005b348015610095575f5ffd5b506100b060048036038101906100ab9190610759565b610353565b6040516100bd9190610850565b60405180910390f35b6100e060048036038101906100db919061071b565b61043a565b005b3480156100ed575f5ffd5b506100f6610669565b60405161010391906108af565b60405180910390f35b348015610117575f5ffd5b50610132600480360381019061012d91906108f2565b61068d565b60405161013f919061092c565b60405180910390f35b5f5f9054906101000a900473ffffffffffffffffffffffffffffffffffffffff1673ffffffffffffffffffffffffffffffffffffffff163373ffffffffffffffffffffffffffffffffffffffff16146101d6576040517f08c379a00000000000000000000000000000000000000000000000000000000081526004016101cd906109c5565b60405180910390fd5b8060028360048111156101ec576101eb6109e3565b5b600581106101fd576101fc610a10565b5b600302016002015f8282546102129190610a6a565b925050819055505050565b5f5f9054906101000a900473ffffffffffffffffffffffffffffffffffffffff1673ffffffffffffffffffffffffffffffffffffffff163373ffffffffffffffffffffffffffffffffffffffff16146102ab576040517f08c379a00000000000000000000000000000000000000000000000000000000081526004016102a2906109c5565b60405180910390fd5b5f47116102ed576040517f08c379a00000000000000000000000000000000000000000000000000000000081526004016102e490610ae7565b60405180910390fd5b5f5f9054906101000a900473ffffffffffffffffffffffffffffffffffffffff1673ffffffffffffffffffffffffffffffffffffffff166108fc4790811502906040515f60405180830381858888f19350505050158015610350573d5f5f3e3d5ffd5b50565b61035b6106a2565b60028260048111156103705761036f6109e3565b5b6005811061038157610380610a10565b5b600302016040518060600160405290815f8201805461039f90610b32565b80601f01602080910402602001604051908101604052809291908181526020018280546103cb90610b32565b80156104165780601f106103ed57610100808354040283529160200191610416565b820191905f5260205f20905b8154815290600101906020018083116103f957829003601f168201915b50505050508152602001600182015481526020016002820154815250509050919050565b5f82600481111561044e5761044d6109e3565b5b90505f826002856004811115610467576104666109e3565b5b6005811061047857610477610a10565b5b600302016001015461048a9190610b62565b90505f8210158061049b5750600582105b6104da576040517f08c379a00000000000000000000000000000000000000000000000000000000081526004016104d190610bed565b60405180910390fd5b82600283600581106104ef576104ee610a10565b5b60030201600201541015610538576040517f08c379a000000000000000000000000000000000000000000000000000000000815260040161052f90610c55565b60405180910390fd5b8034101561057b576040517f08c379a000000000000000000000000000000000000000000000000000000000815260040161057290610cbd565b60405180910390fd5b82600283600581106105905761058f610a10565b5b600302016002015f8282546105a59190610cdb565b925050819055503460015f3373ffffffffffffffffffffffffffffffffffffffff1673ffffffffffffffffffffffffffffffffffffffff1681526020019081526020015f205f8282546105f89190610a6a565b925050819055505f5f9054906101000a900473ffffffffffffffffffffffffffffffffffffffff1673ffffffffffffffffffffffffffffffffffffffff166108fc8290811502906040515f60405180830381858888f19350505050158015610662573d5f5f3e3d5ffd5b5050505050565b5f5f9054906101000a900473ffffffffffffffffffffffffffffffffffffffff1681565b6001602052805f5260405f205f915090505481565b6040518060600160405280606081526020015f81526020015f81525090565b5f5ffd5b600581106106d1575f5ffd5b50565b5f813590506106e2816106c5565b92915050565b5f819050919050565b6106fa816106e8565b8114610704575f5ffd5b50565b5f81359050610715816106f1565b92915050565b5f5f60408385031215610731576107306106c1565b5b5f61073e858286016106d4565b925050602061074f85828601610707565b9150509250929050565b5f6020828403121561076e5761076d6106c1565b5b5f61077b848285016106d4565b91505092915050565b5f81519050919050565b5f82825260208201905092915050565b8281835e5f83830152505050565b5f601f19601f8301169050919050565b5f6107c682610784565b6107d0818561078e565b93506107e081856020860161079e565b6107e9816107ac565b840191505092915050565b6107fd816106e8565b82525050565b5f606083015f8301518482035f86015261081d82826107bc565b915050602083015161083260208601826107f4565b50604083015161084560408601826107f4565b508091505092915050565b5f6020820190508181035f8301526108688184610803565b905092915050565b5f73ffffffffffffffffffffffffffffffffffffffff82169050919050565b5f61089982610870565b9050919050565b6108a98161088f565b82525050565b5f6020820190506108c25f8301846108a0565b92915050565b6108d18161088f565b81146108db575f5ffd5b50565b5f813590506108ec816108c8565b92915050565b5f60208284031215610907576109066106c1565b5b5f610914848285016108de565b91505092915050565b610926816106e8565b82525050565b5f60208201905061093f5f83018461091d565b92915050565b5f82825260208201905092915050565b7f4f6e6c79206f776e65722063616e2063616c6c2074686973207265736f7572635f8201527f652e000000000000000000000000000000000000000000000000000000000000602082015250565b5f6109af602283610945565b91506109ba82610955565b604082019050919050565b5f6020820190508181035f8301526109dc816109a3565b9050919050565b7f4e487b71000000000000000000000000000000000000000000000000000000005f52602160045260245ffd5b7f4e487b71000000000000000000000000000000000000000000000000000000005f52603260045260245ffd5b7f4e487b71000000000000000000000000000000000000000000000000000000005f52601160045260245ffd5b5f610a74826106e8565b9150610a7f836106e8565b9250828201905080821115610a9757610a96610a3d565b5b92915050565b7f4e6f2066756e647320746f2077697468647261772e00000000000000000000005f82015250565b5f610ad1601583610945565b9150610adc82610a9d565b602082019050919050565b5f6020820190508181035f830152610afe81610ac5565b9050919050565b7f4e487b71000000000000000000000000000000000000000000000000000000005f52602260045260245ffd5b5f6002820490506001821680610b4957607f821691505b602082108103610b5c57610b5b610b05565b5b50919050565b5f610b6c826106e8565b9150610b77836106e8565b9250828202610b85816106e8565b91508282048414831517610b9c57610b9b610a3d565b5b5092915050565b7f496e76616c69642070726f6475637420656e756d0000000000000000000000005f82015250565b5f610bd7601483610945565b9150610be282610ba3565b602082019050919050565b5f6020820190508181035f830152610c0481610bcb565b9050919050565b7f50726f64756374206e6f7420656e6f7567682e000000000000000000000000005f82015250565b5f610c3f601383610945565b9150610c4a82610c0b565b602082019050919050565b5f6020820190508181035f830152610c6c81610c33565b9050919050565b7f4e6f7420656e6f756768206574686572000000000000000000000000000000005f82015250565b5f610ca7601083610945565b9150610cb282610c73565b602082019050919050565b5f6020820190508181035f830152610cd481610c9b565b9050919050565b5f610ce5826106e8565b9150610cf0836106e8565b9250828203905081811115610d0857610d07610a3d565b5b9291505056fea2646970667358221220a7380bea62ab48306ee1541e575548eeb560c3736baae03bf6f660489b7ab14f64736f6c634300081e0033",
					"opcodes": "PUSH1 0x80 PUSH1 0x40 MSTORE CALLVALUE DUP1 ISZERO PUSH2 0xF JUMPI PUSH0 PUSH0 REVERT JUMPDEST POP CALLER PUSH0 PUSH0 PUSH2 0x100 EXP DUP2 SLOAD DUP2 PUSH20 0xFFFFFFFFFFFFFFFFFFFFFFFFFFFFFFFFFFFFFFFF MUL NOT AND SWAP1 DUP4 PUSH20 0xFFFFFFFFFFFFFFFFFFFFFFFFFFFFFFFFFFFFFFFF AND MUL OR SWAP1 SSTORE POP PUSH1 0x40 MLOAD DUP1 PUSH1 0x60 ADD PUSH1 0x40 MSTORE DUP1 PUSH1 0x40 MLOAD DUP1 PUSH1 0x40 ADD PUSH1 0x40 MSTORE DUP1 PUSH1 0x5 DUP2 MSTORE PUSH1 0x20 ADD PUSH32 0x5761746572000000000000000000000000000000000000000000000000000000 DUP2 MSTORE POP DUP2 MSTORE PUSH1 0x20 ADD PUSH4 0x3B9ACA00 DUP2 MSTORE PUSH1 0x20 ADD PUSH1 0x64 DUP2 MSTORE POP PUSH1 0x2 PUSH0 PUSH1 0x5 DUP2 LT PUSH2 0xB8 JUMPI PUSH2 0xB7 PUSH2 0x350 JUMP JUMPDEST JUMPDEST PUSH1 0x3 MUL ADD PUSH0 DUP3 ADD MLOAD DUP2 PUSH0 ADD SWAP1 DUP2 PUSH2 0xCF SWAP2 SWAP1 PUSH2 0x5BA JUMP JUMPDEST POP PUSH1 0x20 DUP3 ADD MLOAD DUP2 PUSH1 0x1 ADD SSTORE PUSH1 0x40 DUP3 ADD MLOAD DUP2 PUSH1 0x2 ADD SSTORE SWAP1 POP POP PUSH1 0x40 MLOAD DUP1 PUSH1 0x60 ADD PUSH1 0x40 MSTORE DUP1 PUSH1 0x40 MLOAD DUP1 PUSH1 0x40 ADD PUSH1 0x40 MSTORE DUP1 PUSH1 0x3 DUP2 MSTORE PUSH1 0x20 ADD PUSH32 0x5465610000000000000000000000000000000000000000000000000000000000 DUP2 MSTORE POP DUP2 MSTORE PUSH1 0x20 ADD PUSH4 0x77359400 DUP2 MSTORE PUSH1 0x20 ADD PUSH1 0x64 DUP2 MSTORE POP PUSH1 0x2 PUSH1 0x1 PUSH1 0x5 DUP2 LT PUSH2 0x151 JUMPI PUSH2 0x150 PUSH2 0x350 JUMP JUMPDEST JUMPDEST PUSH1 0x3 MUL ADD PUSH0 DUP3 ADD MLOAD DUP2 PUSH0 ADD SWAP1 DUP2 PUSH2 0x168 SWAP2 SWAP1 PUSH2 0x5BA JUMP JUMPDEST POP PUSH1 0x20 DUP3 ADD MLOAD DUP2 PUSH1 0x1 ADD SSTORE PUSH1 0x40 DUP3 ADD MLOAD DUP2 PUSH1 0x2 ADD SSTORE SWAP1 POP POP PUSH1 0x40 MLOAD DUP1 PUSH1 0x60 ADD PUSH1 0x40 MSTORE DUP1 PUSH1 0x40 MLOAD DUP1 PUSH1 0x40 ADD PUSH1 0x40 MSTORE DUP1 PUSH1 0x5 DUP2 MSTORE PUSH1 0x20 ADD PUSH32 0x4A75696365000000000000000000000000000000000000000000000000000000 DUP2 MSTORE POP DUP2 MSTORE PUSH1 0x20 ADD PUSH4 0xB2D05E00 DUP2 MSTORE PUSH1 0x20 ADD PUSH1 0x64 DUP2 MSTORE POP PUSH1 0x2 DUP1 PUSH1 0x5 DUP2 LT PUSH2 0x1E9 JUMPI PUSH2 0x1E8 PUSH2 0x350 JUMP JUMPDEST JUMPDEST PUSH1 0x3 MUL ADD PUSH0 DUP3 ADD MLOAD DUP2 PUSH0 ADD SWAP1 DUP2 PUSH2 0x200 SWAP2 SWAP1 PUSH2 0x5BA JUMP JUMPDEST POP PUSH1 0x20 DUP3 ADD MLOAD DUP2 PUSH1 0x1 ADD SSTORE PUSH1 0x40 DUP3 ADD MLOAD DUP2 PUSH1 0x2 ADD SSTORE SWAP1 POP POP PUSH1 0x40 MLOAD DUP1 PUSH1 0x60 ADD PUSH1 0x40 MSTORE DUP1 PUSH1 0x40 MLOAD DUP1 PUSH1 0x40 ADD PUSH1 0x40 MSTORE DUP1 PUSH1 0x4 DUP2 MSTORE PUSH1 0x20 ADD PUSH32 0x4D696C6B00000000000000000000000000000000000000000000000000000000 DUP2 MSTORE POP DUP2 MSTORE PUSH1 0x20 ADD PUSH4 0xEE6B2800 DUP2 MSTORE PUSH1 0x20 ADD PUSH1 0x64 DUP2 MSTORE POP PUSH1 0x2 PUSH1 0x3 PUSH1 0x5 DUP2 LT PUSH2 0x282 JUMPI PUSH2 0x281 PUSH2 0x350 JUMP JUMPDEST JUMPDEST PUSH1 0x3 MUL ADD PUSH0 DUP3 ADD MLOAD DUP2 PUSH0 ADD SWAP1 DUP2 PUSH2 0x299 SWAP2 SWAP1 PUSH2 0x5BA JUMP JUMPDEST POP PUSH1 0x20 DUP3 ADD MLOAD DUP2 PUSH1 0x1 ADD SSTORE PUSH1 0x40 DUP3 ADD MLOAD DUP2 PUSH1 0x2 ADD SSTORE SWAP1 POP POP PUSH1 0x40 MLOAD DUP1 PUSH1 0x60 ADD PUSH1 0x40 MSTORE DUP1 PUSH1 0x40 MLOAD DUP1 PUSH1 0x40 ADD PUSH1 0x40 MSTORE DUP1 PUSH1 0x6 DUP2 MSTORE PUSH1 0x20 ADD PUSH32 0x436F666665650000000000000000000000000000000000000000000000000000 DUP2 MSTORE POP DUP2 MSTORE PUSH1 0x20 ADD PUSH5 0x12A05F200 DUP2 MSTORE PUSH1 0x20 ADD PUSH1 0x64 DUP2 MSTORE POP PUSH1 0x2 PUSH1 0x4 PUSH1 0x5 DUP2 LT PUSH2 0x31C JUMPI PUSH2 0x31B PUSH2 0x350 JUMP JUMPDEST JUMPDEST PUSH1 0x3 MUL ADD PUSH0 DUP3 ADD MLOAD DUP2 PUSH0 ADD SWAP1 DUP2 PUSH2 0x333 SWAP2 SWAP1 PUSH2 0x5BA JUMP JUMPDEST POP PUSH1 0x20 DUP3 ADD MLOAD DUP2 PUSH1 0x1 ADD SSTORE PUSH1 0x40 DUP3 ADD MLOAD DUP2 PUSH1 0x2 ADD SSTORE SWAP1 POP POP PUSH2 0x689 JUMP JUMPDEST PUSH32 0x4E487B7100000000000000000000000000000000000000000000000000000000 PUSH0 MSTORE PUSH1 0x32 PUSH1 0x4 MSTORE PUSH1 0x24 PUSH0 REVERT JUMPDEST PUSH0 DUP2 MLOAD SWAP1 POP SWAP2 SWAP1 POP JUMP JUMPDEST PUSH32 0x4E487B7100000000000000000000000000000000000000000000000000000000 PUSH0 MSTORE PUSH1 0x41 PUSH1 0x4 MSTORE PUSH1 0x24 PUSH0 REVERT JUMPDEST PUSH32 0x4E487B7100000000000000000000000000000000000000000000000000000000 PUSH0 MSTORE PUSH1 0x22 PUSH1 0x4 MSTORE PUSH1 0x24 PUSH0 REVERT JUMPDEST PUSH0 PUSH1 0x2 DUP3 DIV SWAP1 POP PUSH1 0x1 DUP3 AND DUP1 PUSH2 0x3F8 JUMPI PUSH1 0x7F DUP3 AND SWAP2 POP JUMPDEST PUSH1 0x20 DUP3 LT DUP2 SUB PUSH2 0x40B JUMPI PUSH2 0x40A PUSH2 0x3B4 JUMP JUMPDEST JUMPDEST POP SWAP2 SWAP1 POP JUMP JUMPDEST PUSH0 DUP2 SWAP1 POP DUP2 PUSH0 MSTORE PUSH1 0x20 PUSH0 KECCAK256 SWAP1 POP SWAP2 SWAP1 POP JUMP JUMPDEST PUSH0 PUSH1 0x20 PUSH1 0x1F DUP4 ADD DIV SWAP1 POP SWAP2 SWAP1 POP JUMP JUMPDEST PUSH0 DUP3 DUP3 SHL SWAP1 POP SWAP3 SWAP2 POP POP JUMP JUMPDEST PUSH0 PUSH1 0x8 DUP4 MUL PUSH2 0x46D PUSH32 0xFFFFFFFFFFFFFFFFFFFFFFFFFFFFFFFFFFFFFFFFFFFFFFFFFFFFFFFFFFFFFFFF DUP3 PUSH2 0x432 JUMP JUMPDEST PUSH2 0x477 DUP7 DUP4 PUSH2 0x432 JUMP JUMPDEST SWAP6 POP DUP1 NOT DUP5 AND SWAP4 POP DUP1 DUP7 AND DUP5 OR SWAP3 POP POP POP SWAP4 SWAP3 POP POP POP JUMP JUMPDEST PUSH0 DUP2 SWAP1 POP SWAP2 SWAP1 POP JUMP JUMPDEST PUSH0 DUP2 SWAP1 POP SWAP2 SWAP1 POP JUMP JUMPDEST PUSH0 PUSH2 0x4BB PUSH2 0x4B6 PUSH2 0x4B1 DUP5 PUSH2 0x48F JUMP JUMPDEST PUSH2 0x498 JUMP JUMPDEST PUSH2 0x48F JUMP JUMPDEST SWAP1 POP SWAP2 SWAP1 POP JUMP JUMPDEST PUSH0 DUP2 SWAP1 POP SWAP2 SWAP1 POP JUMP JUMPDEST PUSH2 0x4D4 DUP4 PUSH2 0x4A1 JUMP JUMPDEST PUSH2 0x4E8 PUSH2 0x4E0 DUP3 PUSH2 0x4C2 JUMP JUMPDEST DUP5 DUP5 SLOAD PUSH2 0x43E JUMP JUMPDEST DUP3 SSTORE POP POP POP POP JUMP JUMPDEST PUSH0 PUSH0 SWAP1 POP SWAP1 JUMP JUMPDEST PUSH2 0x4FF PUSH2 0x4F0 JUMP JUMPDEST PUSH2 0x50A DUP2 DUP5 DUP5 PUSH2 0x4CB JUMP JUMPDEST POP POP POP JUMP JUMPDEST JUMPDEST DUP2 DUP2 LT ISZERO PUSH2 0x52D JUMPI PUSH2 0x522 PUSH0 DUP3 PUSH2 0x4F7 JUMP JUMPDEST PUSH1 0x1 DUP2 ADD SWAP1 POP PUSH2 0x510 JUMP JUMPDEST POP POP JUMP JUMPDEST PUSH1 0x1F DUP3 GT ISZERO PUSH2 0x572 JUMPI PUSH2 0x543 DUP2 PUSH2 0x411 JUMP JUMPDEST PUSH2 0x54C DUP5 PUSH2 0x423 JUMP JUMPDEST DUP2 ADD PUSH1 0x20 DUP6 LT ISZERO PUSH2 0x55B JUMPI DUP2 SWAP1 POP JUMPDEST PUSH2 0x56F PUSH2 0x567 DUP6 PUSH2 0x423 JUMP JUMPDEST DUP4 ADD DUP3 PUSH2 0x50F JUMP JUMPDEST POP POP JUMPDEST POP POP POP JUMP JUMPDEST PUSH0 DUP3 DUP3 SHR SWAP1 POP SWAP3 SWAP2 POP POP JUMP JUMPDEST PUSH0 PUSH2 0x592 PUSH0 NOT DUP5 PUSH1 0x8 MUL PUSH2 0x577 JUMP JUMPDEST NOT DUP1 DUP4 AND SWAP2 POP POP SWAP3 SWAP2 POP POP JUMP JUMPDEST PUSH0 PUSH2 0x5AA DUP4 DUP4 PUSH2 0x583 JUMP JUMPDEST SWAP2 POP DUP3 PUSH1 0x2 MUL DUP3 OR SWAP1 POP SWAP3 SWAP2 POP POP JUMP JUMPDEST PUSH2 0x5C3 DUP3 PUSH2 0x37D JUMP JUMPDEST PUSH8 0xFFFFFFFFFFFFFFFF DUP2 GT ISZERO PUSH2 0x5DC JUMPI PUSH2 0x5DB PUSH2 0x387 JUMP JUMPDEST JUMPDEST PUSH2 0x5E6 DUP3 SLOAD PUSH2 0x3E1 JUMP JUMPDEST PUSH2 0x5F1 DUP3 DUP3 DUP6 PUSH2 0x531 JUMP JUMPDEST PUSH0 PUSH1 0x20 SWAP1 POP PUSH1 0x1F DUP4 GT PUSH1 0x1 DUP2 EQ PUSH2 0x622 JUMPI PUSH0 DUP5 ISZERO PUSH2 0x610 JUMPI DUP3 DUP8 ADD MLOAD SWAP1 POP JUMPDEST PUSH2 0x61A DUP6 DUP3 PUSH2 0x59F JUMP JUMPDEST DUP7 SSTORE POP PUSH2 0x681 JUMP JUMPDEST PUSH1 0x1F NOT DUP5 AND PUSH2 0x630 DUP7 PUSH2 0x411 JUMP JUMPDEST PUSH0 JUMPDEST DUP3 DUP2 LT ISZERO PUSH2 0x657 JUMPI DUP5 DUP10 ADD MLOAD DUP3 SSTORE PUSH1 0x1 DUP3 ADD SWAP2 POP PUSH1 0x20 DUP6 ADD SWAP5 POP PUSH1 0x20 DUP2 ADD SWAP1 POP PUSH2 0x632 JUMP JUMPDEST DUP7 DUP4 LT ISZERO PUSH2 0x674 JUMPI DUP5 DUP10 ADD MLOAD PUSH2 0x670 PUSH1 0x1F DUP10 AND DUP3 PUSH2 0x583 JUMP JUMPDEST DUP4 SSTORE POP JUMPDEST PUSH1 0x1 PUSH1 0x2 DUP9 MUL ADD DUP9 SSTORE POP POP POP JUMPDEST POP POP POP POP POP POP JUMP JUMPDEST PUSH2 0xD44 DUP1 PUSH2 0x696 PUSH0 CODECOPY PUSH0 RETURN INVALID PUSH1 0x80 PUSH1 0x40 MSTORE PUSH1 0x4 CALLDATASIZE LT PUSH2 0x54 JUMPI PUSH0 CALLDATALOAD PUSH1 0xE0 SHR DUP1 PUSH4 0x2D153A8C EQ PUSH2 0x58 JUMPI DUP1 PUSH4 0x49649FBF EQ PUSH2 0x80 JUMPI DUP1 PUSH4 0x5B291DBA EQ PUSH2 0x8A JUMPI DUP1 PUSH4 0x62F791C0 EQ PUSH2 0xC6 JUMPI DUP1 PUSH4 0x8DA5CB5B EQ PUSH2 0xE2 JUMPI DUP1 PUSH4 0xC32FDF34 EQ PUSH2 0x10C JUMPI JUMPDEST PUSH0 PUSH0 REVERT JUMPDEST CALLVALUE DUP1 ISZERO PUSH2 0x63 JUMPI PUSH0 PUSH0 REVERT JUMPDEST POP PUSH2 0x7E PUSH1 0x4 DUP1 CALLDATASIZE SUB DUP2 ADD SWAP1 PUSH2 0x79 SWAP2 SWAP1 PUSH2 0x71B JUMP JUMPDEST PUSH2 0x148 JUMP JUMPDEST STOP JUMPDEST PUSH2 0x88 PUSH2 0x21D JUMP JUMPDEST STOP JUMPDEST CALLVALUE DUP1 ISZERO PUSH2 0x95 JUMPI PUSH0 PUSH0 REVERT JUMPDEST POP PUSH2 0xB0 PUSH1 0x4 DUP1 CALLDATASIZE SUB DUP2 ADD SWAP1 PUSH2 0xAB SWAP2 SWAP1 PUSH2 0x759 JUMP JUMPDEST PUSH2 0x353 JUMP JUMPDEST PUSH1 0x40 MLOAD PUSH2 0xBD SWAP2 SWAP1 PUSH2 0x850 JUMP JUMPDEST PUSH1 0x40 MLOAD DUP1 SWAP2 SUB SWAP1 RETURN JUMPDEST PUSH2 0xE0 PUSH1 0x4 DUP1 CALLDATASIZE SUB DUP2 ADD SWAP1 PUSH2 0xDB SWAP2 SWAP1 PUSH2 0x71B JUMP JUMPDEST PUSH2 0x43A JUMP JUMPDEST STOP JUMPDEST CALLVALUE DUP1 ISZERO PUSH2 0xED JUMPI PUSH0 PUSH0 REVERT JUMPDEST POP PUSH2 0xF6 PUSH2 0x669 JUMP JUMPDEST PUSH1 0x40 MLOAD PUSH2 0x103 SWAP2 SWAP1 PUSH2 0x8AF JUMP JUMPDEST PUSH1 0x40 MLOAD DUP1 SWAP2 SUB SWAP1 RETURN JUMPDEST CALLVALUE DUP1 ISZERO PUSH2 0x117 JUMPI PUSH0 PUSH0 REVERT JUMPDEST POP PUSH2 0x132 PUSH1 0x4 DUP1 CALLDATASIZE SUB DUP2 ADD SWAP1 PUSH2 0x12D SWAP2 SWAP1 PUSH2 0x8F2 JUMP JUMPDEST PUSH2 0x68D JUMP JUMPDEST PUSH1 0x40 MLOAD PUSH2 0x13F SWAP2 SWAP1 PUSH2 0x92C JUMP JUMPDEST PUSH1 0x40 MLOAD DUP1 SWAP2 SUB SWAP1 RETURN JUMPDEST PUSH0 PUSH0 SWAP1 SLOAD SWAP1 PUSH2 0x100 EXP SWAP1 DIV PUSH20 0xFFFFFFFFFFFFFFFFFFFFFFFFFFFFFFFFFFFFFFFF AND PUSH20 0xFFFFFFFFFFFFFFFFFFFFFFFFFFFFFFFFFFFFFFFF AND CALLER PUSH20 0xFFFFFFFFFFFFFFFFFFFFFFFFFFFFFFFFFFFFFFFF AND EQ PUSH2 0x1D6 JUMPI PUSH1 0x40 MLOAD PUSH32 0x8C379A000000000000000000000000000000000000000000000000000000000 DUP2 MSTORE PUSH1 0x4 ADD PUSH2 0x1CD SWAP1 PUSH2 0x9C5 JUMP JUMPDEST PUSH1 0x40 MLOAD DUP1 SWAP2 SUB SWAP1 REVERT JUMPDEST DUP1 PUSH1 0x2 DUP4 PUSH1 0x4 DUP2 GT ISZERO PUSH2 0x1EC JUMPI PUSH2 0x1EB PUSH2 0x9E3 JUMP JUMPDEST JUMPDEST PUSH1 0x5 DUP2 LT PUSH2 0x1FD JUMPI PUSH2 0x1FC PUSH2 0xA10 JUMP JUMPDEST JUMPDEST PUSH1 0x3 MUL ADD PUSH1 0x2 ADD PUSH0 DUP3 DUP3 SLOAD PUSH2 0x212 SWAP2 SWAP1 PUSH2 0xA6A JUMP JUMPDEST SWAP3 POP POP DUP2 SWAP1 SSTORE POP POP POP JUMP JUMPDEST PUSH0 PUSH0 SWAP1 SLOAD SWAP1 PUSH2 0x100 EXP SWAP1 DIV PUSH20 0xFFFFFFFFFFFFFFFFFFFFFFFFFFFFFFFFFFFFFFFF AND PUSH20 0xFFFFFFFFFFFFFFFFFFFFFFFFFFFFFFFFFFFFFFFF AND CALLER PUSH20 0xFFFFFFFFFFFFFFFFFFFFFFFFFFFFFFFFFFFFFFFF AND EQ PUSH2 0x2AB JUMPI PUSH1 0x40 MLOAD PUSH32 0x8C379A000000000000000000000000000000000000000000000000000000000 DUP2 MSTORE PUSH1 0x4 ADD PUSH2 0x2A2 SWAP1 PUSH2 0x9C5 JUMP JUMPDEST PUSH1 0x40 MLOAD DUP1 SWAP2 SUB SWAP1 REVERT JUMPDEST PUSH0 SELFBALANCE GT PUSH2 0x2ED JUMPI PUSH1 0x40 MLOAD PUSH32 0x8C379A000000000000000000000000000000000000000000000000000000000 DUP2 MSTORE PUSH1 0x4 ADD PUSH2 0x2E4 SWAP1 PUSH2 0xAE7 JUMP JUMPDEST PUSH1 0x40 MLOAD DUP1 SWAP2 SUB SWAP1 REVERT JUMPDEST PUSH0 PUSH0 SWAP1 SLOAD SWAP1 PUSH2 0x100 EXP SWAP1 DIV PUSH20 0xFFFFFFFFFFFFFFFFFFFFFFFFFFFFFFFFFFFFFFFF AND PUSH20 0xFFFFFFFFFFFFFFFFFFFFFFFFFFFFFFFFFFFFFFFF AND PUSH2 0x8FC SELFBALANCE SWAP1 DUP2 ISZERO MUL SWAP1 PUSH1 0x40 MLOAD PUSH0 PUSH1 0x40 MLOAD DUP1 DUP4 SUB DUP2 DUP6 DUP9 DUP9 CALL SWAP4 POP POP POP POP ISZERO DUP1 ISZERO PUSH2 0x350 JUMPI RETURNDATASIZE PUSH0 PUSH0 RETURNDATACOPY RETURNDATASIZE PUSH0 REVERT JUMPDEST POP JUMP JUMPDEST PUSH2 0x35B PUSH2 0x6A2 JUMP JUMPDEST PUSH1 0x2 DUP3 PUSH1 0x4 DUP2 GT ISZERO PUSH2 0x370 JUMPI PUSH2 0x36F PUSH2 0x9E3 JUMP JUMPDEST JUMPDEST PUSH1 0x5 DUP2 LT PUSH2 0x381 JUMPI PUSH2 0x380 PUSH2 0xA10 JUMP JUMPDEST JUMPDEST PUSH1 0x3 MUL ADD PUSH1 0x40 MLOAD DUP1 PUSH1 0x60 ADD PUSH1 0x40 MSTORE SWAP1 DUP2 PUSH0 DUP3 ADD DUP1 SLOAD PUSH2 0x39F SWAP1 PUSH2 0xB32 JUMP JUMPDEST DUP1 PUSH1 0x1F ADD PUSH1 0x20 DUP1 SWAP2 DIV MUL PUSH1 0x20 ADD PUSH1 0x40 MLOAD SWAP1 DUP2 ADD PUSH1 0x40 MSTORE DUP1 SWAP3 SWAP2 SWAP1 DUP2 DUP2 MSTORE PUSH1 0x20 ADD DUP3 DUP1 SLOAD PUSH2 0x3CB SWAP1 PUSH2 0xB32 JUMP JUMPDEST DUP1 ISZERO PUSH2 0x416 JUMPI DUP1 PUSH1 0x1F LT PUSH2 0x3ED JUMPI PUSH2 0x100 DUP1 DUP4 SLOAD DIV MUL DUP4 MSTORE SWAP2 PUSH1 0x20 ADD SWAP2 PUSH2 0x416 JUMP JUMPDEST DUP3 ADD SWAP2 SWAP1 PUSH0 MSTORE PUSH1 0x20 PUSH0 KECCAK256 SWAP1 JUMPDEST DUP2 SLOAD DUP2 MSTORE SWAP1 PUSH1 0x1 ADD SWAP1 PUSH1 0x20 ADD DUP1 DUP4 GT PUSH2 0x3F9 JUMPI DUP3 SWAP1 SUB PUSH1 0x1F AND DUP3 ADD SWAP2 JUMPDEST POP POP POP POP POP DUP2 MSTORE PUSH1 0x20 ADD PUSH1 0x1 DUP3 ADD SLOAD DUP2 MSTORE PUSH1 0x20 ADD PUSH1 0x2 DUP3 ADD SLOAD DUP2 MSTORE POP POP SWAP1 POP SWAP2 SWAP1 POP JUMP JUMPDEST PUSH0 DUP3 PUSH1 0x4 DUP2 GT ISZERO PUSH2 0x44E JUMPI PUSH2 0x44D PUSH2 0x9E3 JUMP JUMPDEST JUMPDEST SWAP1 POP PUSH0 DUP3 PUSH1 0x2 DUP6 PUSH1 0x4 DUP2 GT ISZERO PUSH2 0x467 JUMPI PUSH2 0x466 PUSH2 0x9E3 JUMP JUMPDEST JUMPDEST PUSH1 0x5 DUP2 LT PUSH2 0x478 JUMPI PUSH2 0x477 PUSH2 0xA10 JUMP JUMPDEST JUMPDEST PUSH1 0x3 MUL ADD PUSH1 0x1 ADD SLOAD PUSH2 0x48A SWAP2 SWAP1 PUSH2 0xB62 JUMP JUMPDEST SWAP1 POP PUSH0 DUP3 LT ISZERO DUP1 PUSH2 0x49B JUMPI POP PUSH1 0x5 DUP3 LT JUMPDEST PUSH2 0x4DA JUMPI PUSH1 0x40 MLOAD PUSH32 0x8C379A000000000000000000000000000000000000000000000000000000000 DUP2 MSTORE PUSH1 0x4 ADD PUSH2 0x4D1 SWAP1 PUSH2 0xBED JUMP JUMPDEST PUSH1 0x40 MLOAD DUP1 SWAP2 SUB SWAP1 REVERT JUMPDEST DUP3 PUSH1 0x2 DUP4 PUSH1 0x5 DUP2 LT PUSH2 0x4EF JUMPI PUSH2 0x4EE PUSH2 0xA10 JUMP JUMPDEST JUMPDEST PUSH1 0x3 MUL ADD PUSH1 0x2 ADD SLOAD LT ISZERO PUSH2 0x538 JUMPI PUSH1 0x40 MLOAD PUSH32 0x8C379A000000000000000000000000000000000000000000000000000000000 DUP2 MSTORE PUSH1 0x4 ADD PUSH2 0x52F SWAP1 PUSH2 0xC55 JUMP JUMPDEST PUSH1 0x40 MLOAD DUP1 SWAP2 SUB SWAP1 REVERT JUMPDEST DUP1 CALLVALUE LT ISZERO PUSH2 0x57B JUMPI PUSH1 0x40 MLOAD PUSH32 0x8C379A000000000000000000000000000000000000000000000000000000000 DUP2 MSTORE PUSH1 0x4 ADD PUSH2 0x572 SWAP1 PUSH2 0xCBD JUMP JUMPDEST PUSH1 0x40 MLOAD DUP1 SWAP2 SUB SWAP1 REVERT JUMPDEST DUP3 PUSH1 0x2 DUP4 PUSH1 0x5 DUP2 LT PUSH2 0x590 JUMPI PUSH2 0x58F PUSH2 0xA10 JUMP JUMPDEST JUMPDEST PUSH1 0x3 MUL ADD PUSH1 0x2 ADD PUSH0 DUP3 DUP3 SLOAD PUSH2 0x5A5 SWAP2 SWAP1 PUSH2 0xCDB JUMP JUMPDEST SWAP3 POP POP DUP2 SWAP1 SSTORE POP CALLVALUE PUSH1 0x1 PUSH0 CALLER PUSH20 0xFFFFFFFFFFFFFFFFFFFFFFFFFFFFFFFFFFFFFFFF AND PUSH20 0xFFFFFFFFFFFFFFFFFFFFFFFFFFFFFFFFFFFFFFFF AND DUP2 MSTORE PUSH1 0x20 ADD SWAP1 DUP2 MSTORE PUSH1 0x20 ADD PUSH0 KECCAK256 PUSH0 DUP3 DUP3 SLOAD PUSH2 0x5F8 SWAP2 SWAP1 PUSH2 0xA6A JUMP JUMPDEST SWAP3 POP POP DUP2 SWAP1 SSTORE POP PUSH0 PUSH0 SWAP1 SLOAD SWAP1 PUSH2 0x100 EXP SWAP1 DIV PUSH20 0xFFFFFFFFFFFFFFFFFFFFFFFFFFFFFFFFFFFFFFFF AND PUSH20 0xFFFFFFFFFFFFFFFFFFFFFFFFFFFFFFFFFFFFFFFF AND PUSH2 0x8FC DUP3 SWAP1 DUP2 ISZERO MUL SWAP1 PUSH1 0x40 MLOAD PUSH0 PUSH1 0x40 MLOAD DUP1 DUP4 SUB DUP2 DUP6 DUP9 DUP9 CALL SWAP4 POP POP POP POP ISZERO DUP1 ISZERO PUSH2 0x662 JUMPI RETURNDATASIZE PUSH0 PUSH0 RETURNDATACOPY RETURNDATASIZE PUSH0 REVERT JUMPDEST POP POP POP POP POP JUMP JUMPDEST PUSH0 PUSH0 SWAP1 SLOAD SWAP1 PUSH2 0x100 EXP SWAP1 DIV PUSH20 0xFFFFFFFFFFFFFFFFFFFFFFFFFFFFFFFFFFFFFFFF AND DUP2 JUMP JUMPDEST PUSH1 0x1 PUSH1 0x20 MSTORE DUP1 PUSH0 MSTORE PUSH1 0x40 PUSH0 KECCAK256 PUSH0 SWAP2 POP SWAP1 POP SLOAD DUP2 JUMP JUMPDEST PUSH1 0x40 MLOAD DUP1 PUSH1 0x60 ADD PUSH1 0x40 MSTORE DUP1 PUSH1 0x60 DUP2 MSTORE PUSH1 0x20 ADD PUSH0 DUP2 MSTORE PUSH1 0x20 ADD PUSH0 DUP2 MSTORE POP SWAP1 JUMP JUMPDEST PUSH0 PUSH0 REVERT JUMPDEST PUSH1 0x5 DUP2 LT PUSH2 0x6D1 JUMPI PUSH0 PUSH0 REVERT JUMPDEST POP JUMP JUMPDEST PUSH0 DUP2 CALLDATALOAD SWAP1 POP PUSH2 0x6E2 DUP2 PUSH2 0x6C5 JUMP JUMPDEST SWAP3 SWAP2 POP POP JUMP JUMPDEST PUSH0 DUP2 SWAP1 POP SWAP2 SWAP1 POP JUMP JUMPDEST PUSH2 0x6FA DUP2 PUSH2 0x6E8 JUMP JUMPDEST DUP2 EQ PUSH2 0x704 JUMPI PUSH0 PUSH0 REVERT JUMPDEST POP JUMP JUMPDEST PUSH0 DUP2 CALLDATALOAD SWAP1 POP PUSH2 0x715 DUP2 PUSH2 0x6F1 JUMP JUMPDEST SWAP3 SWAP2 POP POP JUMP JUMPDEST PUSH0 PUSH0 PUSH1 0x40 DUP4 DUP6 SUB SLT ISZERO PUSH2 0x731 JUMPI PUSH2 0x730 PUSH2 0x6C1 JUMP JUMPDEST JUMPDEST PUSH0 PUSH2 0x73E DUP6 DUP3 DUP7 ADD PUSH2 0x6D4 JUMP JUMPDEST SWAP3 POP POP PUSH1 0x20 PUSH2 0x74F DUP6 DUP3 DUP7 ADD PUSH2 0x707 JUMP JUMPDEST SWAP2 POP POP SWAP3 POP SWAP3 SWAP1 POP JUMP JUMPDEST PUSH0 PUSH1 0x20 DUP3 DUP5 SUB SLT ISZERO PUSH2 0x76E JUMPI PUSH2 0x76D PUSH2 0x6C1 JUMP JUMPDEST JUMPDEST PUSH0 PUSH2 0x77B DUP5 DUP3 DUP6 ADD PUSH2 0x6D4 JUMP JUMPDEST SWAP2 POP POP SWAP3 SWAP2 POP POP JUMP JUMPDEST PUSH0 DUP2 MLOAD SWAP1 POP SWAP2 SWAP1 POP JUMP JUMPDEST PUSH0 DUP3 DUP3 MSTORE PUSH1 0x20 DUP3 ADD SWAP1 POP SWAP3 SWAP2 POP POP JUMP JUMPDEST DUP3 DUP2 DUP4 MCOPY PUSH0 DUP4 DUP4 ADD MSTORE POP POP POP JUMP JUMPDEST PUSH0 PUSH1 0x1F NOT PUSH1 0x1F DUP4 ADD AND SWAP1 POP SWAP2 SWAP1 POP JUMP JUMPDEST PUSH0 PUSH2 0x7C6 DUP3 PUSH2 0x784 JUMP JUMPDEST PUSH2 0x7D0 DUP2 DUP6 PUSH2 0x78E JUMP JUMPDEST SWAP4 POP PUSH2 0x7E0 DUP2 DUP6 PUSH1 0x20 DUP7 ADD PUSH2 0x79E JUMP JUMPDEST PUSH2 0x7E9 DUP2 PUSH2 0x7AC JUMP JUMPDEST DUP5 ADD SWAP2 POP POP SWAP3 SWAP2 POP POP JUMP JUMPDEST PUSH2 0x7FD DUP2 PUSH2 0x6E8 JUMP JUMPDEST DUP3 MSTORE POP POP JUMP JUMPDEST PUSH0 PUSH1 0x60 DUP4 ADD PUSH0 DUP4 ADD MLOAD DUP5 DUP3 SUB PUSH0 DUP7 ADD MSTORE PUSH2 0x81D DUP3 DUP3 PUSH2 0x7BC JUMP JUMPDEST SWAP2 POP POP PUSH1 0x20 DUP4 ADD MLOAD PUSH2 0x832 PUSH1 0x20 DUP7 ADD DUP3 PUSH2 0x7F4 JUMP JUMPDEST POP PUSH1 0x40 DUP4 ADD MLOAD PUSH2 0x845 PUSH1 0x40 DUP7 ADD DUP3 PUSH2 0x7F4 JUMP JUMPDEST POP DUP1 SWAP2 POP POP SWAP3 SWAP2 POP POP JUMP JUMPDEST PUSH0 PUSH1 0x20 DUP3 ADD SWAP1 POP DUP2 DUP2 SUB PUSH0 DUP4 ADD MSTORE PUSH2 0x868 DUP2 DUP5 PUSH2 0x803 JUMP JUMPDEST SWAP1 POP SWAP3 SWAP2 POP POP JUMP JUMPDEST PUSH0 PUSH20 0xFFFFFFFFFFFFFFFFFFFFFFFFFFFFFFFFFFFFFFFF DUP3 AND SWAP1 POP SWAP2 SWAP1 POP JUMP JUMPDEST PUSH0 PUSH2 0x899 DUP3 PUSH2 0x870 JUMP JUMPDEST SWAP1 POP SWAP2 SWAP1 POP JUMP JUMPDEST PUSH2 0x8A9 DUP2 PUSH2 0x88F JUMP JUMPDEST DUP3 MSTORE POP POP JUMP JUMPDEST PUSH0 PUSH1 0x20 DUP3 ADD SWAP1 POP PUSH2 0x8C2 PUSH0 DUP4 ADD DUP5 PUSH2 0x8A0 JUMP JUMPDEST SWAP3 SWAP2 POP POP JUMP JUMPDEST PUSH2 0x8D1 DUP2 PUSH2 0x88F JUMP JUMPDEST DUP2 EQ PUSH2 0x8DB JUMPI PUSH0 PUSH0 REVERT JUMPDEST POP JUMP JUMPDEST PUSH0 DUP2 CALLDATALOAD SWAP1 POP PUSH2 0x8EC DUP2 PUSH2 0x8C8 JUMP JUMPDEST SWAP3 SWAP2 POP POP JUMP JUMPDEST PUSH0 PUSH1 0x20 DUP3 DUP5 SUB SLT ISZERO PUSH2 0x907 JUMPI PUSH2 0x906 PUSH2 0x6C1 JUMP JUMPDEST JUMPDEST PUSH0 PUSH2 0x914 DUP5 DUP3 DUP6 ADD PUSH2 0x8DE JUMP JUMPDEST SWAP2 POP POP SWAP3 SWAP2 POP POP JUMP JUMPDEST PUSH2 0x926 DUP2 PUSH2 0x6E8 JUMP JUMPDEST DUP3 MSTORE POP POP JUMP JUMPDEST PUSH0 PUSH1 0x20 DUP3 ADD SWAP1 POP PUSH2 0x93F PUSH0 DUP4 ADD DUP5 PUSH2 0x91D JUMP JUMPDEST SWAP3 SWAP2 POP POP JUMP JUMPDEST PUSH0 DUP3 DUP3 MSTORE PUSH1 0x20 DUP3 ADD SWAP1 POP SWAP3 SWAP2 POP POP JUMP JUMPDEST PUSH32 0x4F6E6C79206F776E65722063616E2063616C6C2074686973207265736F757263 PUSH0 DUP3 ADD MSTORE PUSH32 0x652E000000000000000000000000000000000000000000000000000000000000 PUSH1 0x20 DUP3 ADD MSTORE POP JUMP JUMPDEST PUSH0 PUSH2 0x9AF PUSH1 0x22 DUP4 PUSH2 0x945 JUMP JUMPDEST SWAP2 POP PUSH2 0x9BA DUP3 PUSH2 0x955 JUMP JUMPDEST PUSH1 0x40 DUP3 ADD SWAP1 POP SWAP2 SWAP1 POP JUMP JUMPDEST PUSH0 PUSH1 0x20 DUP3 ADD SWAP1 POP DUP2 DUP2 SUB PUSH0 DUP4 ADD MSTORE PUSH2 0x9DC DUP2 PUSH2 0x9A3 JUMP JUMPDEST SWAP1 POP SWAP2 SWAP1 POP JUMP JUMPDEST PUSH32 0x4E487B7100000000000000000000000000000000000000000000000000000000 PUSH0 MSTORE PUSH1 0x21 PUSH1 0x4 MSTORE PUSH1 0x24 PUSH0 REVERT JUMPDEST PUSH32 0x4E487B7100000000000000000000000000000000000000000000000000000000 PUSH0 MSTORE PUSH1 0x32 PUSH1 0x4 MSTORE PUSH1 0x24 PUSH0 REVERT JUMPDEST PUSH32 0x4E487B7100000000000000000000000000000000000000000000000000000000 PUSH0 MSTORE PUSH1 0x11 PUSH1 0x4 MSTORE PUSH1 0x24 PUSH0 REVERT JUMPDEST PUSH0 PUSH2 0xA74 DUP3 PUSH2 0x6E8 JUMP JUMPDEST SWAP2 POP PUSH2 0xA7F DUP4 PUSH2 0x6E8 JUMP JUMPDEST SWAP3 POP DUP3 DUP3 ADD SWAP1 POP DUP1 DUP3 GT ISZERO PUSH2 0xA97 JUMPI PUSH2 0xA96 PUSH2 0xA3D JUMP JUMPDEST JUMPDEST SWAP3 SWAP2 POP POP JUMP JUMPDEST PUSH32 0x4E6F2066756E647320746F2077697468647261772E0000000000000000000000 PUSH0 DUP3 ADD MSTORE POP JUMP JUMPDEST PUSH0 PUSH2 0xAD1 PUSH1 0x15 DUP4 PUSH2 0x945 JUMP JUMPDEST SWAP2 POP PUSH2 0xADC DUP3 PUSH2 0xA9D JUMP JUMPDEST PUSH1 0x20 DUP3 ADD SWAP1 POP SWAP2 SWAP1 POP JUMP JUMPDEST PUSH0 PUSH1 0x20 DUP3 ADD SWAP1 POP DUP2 DUP2 SUB PUSH0 DUP4 ADD MSTORE PUSH2 0xAFE DUP2 PUSH2 0xAC5 JUMP JUMPDEST SWAP1 POP SWAP2 SWAP1 POP JUMP JUMPDEST PUSH32 0x4E487B7100000000000000000000000000000000000000000000000000000000 PUSH0 MSTORE PUSH1 0x22 PUSH1 0x4 MSTORE PUSH1 0x24 PUSH0 REVERT JUMPDEST PUSH0 PUSH1 0x2 DUP3 DIV SWAP1 POP PUSH1 0x1 DUP3 AND DUP1 PUSH2 0xB49 JUMPI PUSH1 0x7F DUP3 AND SWAP2 POP JUMPDEST PUSH1 0x20 DUP3 LT DUP2 SUB PUSH2 0xB5C JUMPI PUSH2 0xB5B PUSH2 0xB05 JUMP JUMPDEST JUMPDEST POP SWAP2 SWAP1 POP JUMP JUMPDEST PUSH0 PUSH2 0xB6C DUP3 PUSH2 0x6E8 JUMP JUMPDEST SWAP2 POP PUSH2 0xB77 DUP4 PUSH2 0x6E8 JUMP JUMPDEST SWAP3 POP DUP3 DUP3 MUL PUSH2 0xB85 DUP2 PUSH2 0x6E8 JUMP JUMPDEST SWAP2 POP DUP3 DUP3 DIV DUP5 EQ DUP4 ISZERO OR PUSH2 0xB9C JUMPI PUSH2 0xB9B PUSH2 0xA3D JUMP JUMPDEST JUMPDEST POP SWAP3 SWAP2 POP POP JUMP JUMPDEST PUSH32 0x496E76616C69642070726F6475637420656E756D000000000000000000000000 PUSH0 DUP3 ADD MSTORE POP JUMP JUMPDEST PUSH0 PUSH2 0xBD7 PUSH1 0x14 DUP4 PUSH2 0x945 JUMP JUMPDEST SWAP2 POP PUSH2 0xBE2 DUP3 PUSH2 0xBA3 JUMP JUMPDEST PUSH1 0x20 DUP3 ADD SWAP1 POP SWAP2 SWAP1 POP JUMP JUMPDEST PUSH0 PUSH1 0x20 DUP3 ADD SWAP1 POP DUP2 DUP2 SUB PUSH0 DUP4 ADD MSTORE PUSH2 0xC04 DUP2 PUSH2 0xBCB JUMP JUMPDEST SWAP1 POP SWAP2 SWAP1 POP JUMP JUMPDEST PUSH32 0x50726F64756374206E6F7420656E6F7567682E00000000000000000000000000 PUSH0 DUP3 ADD MSTORE POP JUMP JUMPDEST PUSH0 PUSH2 0xC3F PUSH1 0x13 DUP4 PUSH2 0x945 JUMP JUMPDEST SWAP2 POP PUSH2 0xC4A DUP3 PUSH2 0xC0B JUMP JUMPDEST PUSH1 0x20 DUP3 ADD SWAP1 POP SWAP2 SWAP1 POP JUMP JUMPDEST PUSH0 PUSH1 0x20 DUP3 ADD SWAP1 POP DUP2 DUP2 SUB PUSH0 DUP4 ADD MSTORE PUSH2 0xC6C DUP2 PUSH2 0xC33 JUMP JUMPDEST SWAP1 POP SWAP2 SWAP1 POP JUMP JUMPDEST PUSH32 0x4E6F7420656E6F75676820657468657200000000000000000000000000000000 PUSH0 DUP3 ADD MSTORE POP JUMP JUMPDEST PUSH0 PUSH2 0xCA7 PUSH1 0x10 DUP4 PUSH2 0x945 JUMP JUMPDEST SWAP2 POP PUSH2 0xCB2 DUP3 PUSH2 0xC73 JUMP JUMPDEST PUSH1 0x20 DUP3 ADD SWAP1 POP SWAP2 SWAP1 POP JUMP JUMPDEST PUSH0 PUSH1 0x20 DUP3 ADD SWAP1 POP DUP2 DUP2 SUB PUSH0 DUP4 ADD MSTORE PUSH2 0xCD4 DUP2 PUSH2 0xC9B JUMP JUMPDEST SWAP1 POP SWAP2 SWAP1 POP JUMP JUMPDEST PUSH0 PUSH2 0xCE5 DUP3 PUSH2 0x6E8 JUMP JUMPDEST SWAP2 POP PUSH2 0xCF0 DUP4 PUSH2 0x6E8 JUMP JUMPDEST SWAP3 POP DUP3 DUP3 SUB SWAP1 POP DUP2 DUP2 GT ISZERO PUSH2 0xD08 JUMPI PUSH2 0xD07 PUSH2 0xA3D JUMP JUMPDEST JUMPDEST SWAP3 SWAP2 POP POP JUMP INVALID LOG2 PUSH5 0x6970667358 0x22 SLT KECCAK256 0xA7 CODESIZE SIGNEXTEND 0xEA PUSH3 0xAB4830 PUSH15 0xE1541E575548EEB560C3736BAAE03B 0xF6 0xF6 PUSH1 0x48 SWAP12 PUSH27 0xB14F64736F6C634300081E00330000000000000000000000000000 "
				},
				"gasEstimates": {
					"creation": {
						"codeDepositCost": "679200",
						"executionCost": "infinite",
						"totalCost": "infinite"
					},
					"external": {
						"addProduct(uint8,uint256)": "infinite",
						"buy(uint8,uint256)": "infinite",
						"getInfoProduct(uint8)": "infinite",
						"owner()": "2573",
						"transactions(address)": "2890",
						"withdrawAllFunds()": "infinite"
					}
				},
				"methodIdentifiers": {
					"addProduct(uint8,uint256)": "2d153a8c",
					"buy(uint8,uint256)": "62f791c0",
					"getInfoProduct(uint8)": "5b291dba",
					"owner()": "8da5cb5b",
					"transactions(address)": "c32fdf34",
					"withdrawAllFunds()": "49649fbf"
				}
			},
			"storageLayout": {
				"storage": [
					{
						"astId": 10,
						"contract": "contracts/DrinkMachine.sol:DrinkMachine",
						"label": "owner",
						"offset": 0,
						"slot": "0",
						"type": "t_address"
					},
					{
						"astId": 14,
						"contract": "contracts/DrinkMachine.sol:DrinkMachine",
						"label": "transactions",
						"offset": 0,
						"slot": "1",
						"type": "t_mapping(t_address,t_uint256)"
					},
					{
						"astId": 19,
						"contract": "contracts/DrinkMachine.sol:DrinkMachine",
						"label": "products",
						"offset": 0,
						"slot": "2",
						"type": "t_array(t_struct(ProductType)8_storage)5_storage"
					}
				],
				"types": {
					"t_address": {
						"encoding": "inplace",
						"label": "address",
						"numberOfBytes": "20"
					},
					"t_array(t_struct(ProductType)8_storage)5_storage": {
						"base": "t_struct(ProductType)8_storage",
						"encoding": "inplace",
						"label": "struct DrinkMachine.ProductType[5]",
						"numberOfBytes": "480"
					},
					"t_mapping(t_address,t_uint256)": {
						"encoding": "mapping",
						"key": "t_address",
						"label": "mapping(address => uint256)",
						"numberOfBytes": "32",
						"value": "t_uint256"
					},
					"t_string_storage": {
						"encoding": "bytes",
						"label": "string",
						"numberOfBytes": "32"
					},
					"t_struct(ProductType)8_storage": {
						"encoding": "inplace",
						"label": "struct DrinkMachine.ProductType",
						"members": [
							{
								"astId": 3,
								"contract": "contracts/DrinkMachine.sol:DrinkMachine",
								"label": "name",
								"offset": 0,
								"slot": "0",
								"type": "t_string_storage"
							},
							{
								"astId": 5,
								"contract": "contracts/DrinkMachine.sol:DrinkMachine",
								"label": "price",
								"offset": 0,
								"slot": "1",
								"type": "t_uint256"
							},
							{
								"astId": 7,
								"contract": "contracts/DrinkMachine.sol:DrinkMachine",
								"label": "quantity",
								"offset": 0,
								"slot": "2",
								"type": "t_uint256"
							}
						],
						"numberOfBytes": "96"
					},
					"t_uint256": {
						"encoding": "inplace",
						"label": "uint256",
						"numberOfBytes": "32"
					}
				}
			},
			"userdoc": {
				"kind": "user",
				"methods": {},
				"version": 1
			}
		}
	}
}