{
	"contracts/DrinkMachine.sol": {
		"DrinkMachine": {
			"abi": [
				{
					"inputs": [
						{
							"internalType": "address",
							"name": "_wallet",
							"type": "address"
						}
					],
					"stateMutability": "nonpayable",
					"type": "constructor"
				},
				{
					"inputs": [
						{
							"internalType": "enum DrinkMachine.ProductEnum",
							"name": "productEnum",
							"type": "uint8"
						},
						{
							"internalType": "uint256",
							"name": "quantity",
							"type": "uint256"
						}
					],
					"name": "addProduct",
					"outputs": [],
					"stateMutability": "nonpayable",
					"type": "function"
				},
				{
					"inputs": [
						{
							"internalType": "enum DrinkMachine.ProductEnum",
							"name": "productEnum",
							"type": "uint8"
						},
						{
							"internalType": "uint256",
							"name": "qty",
							"type": "uint256"
						}
					],
					"name": "buy",
					"outputs": [],
					"stateMutability": "payable",
					"type": "function"
				},
				{
					"inputs": [
						{
							"internalType": "enum DrinkMachine.ProductEnum",
							"name": "productEnum",
							"type": "uint8"
						}
					],
					"name": "getInfoProduct",
					"outputs": [
						{
							"components": [
								{
									"internalType": "string",
									"name": "name",
									"type": "string"
								},
								{
									"internalType": "uint256",
									"name": "price",
									"type": "uint256"
								},
								{
									"internalType": "uint256",
									"name": "quantity",
									"type": "uint256"
								}
							],
							"internalType": "struct ProductType",
							"name": "",
							"type": "tuple"
						}
					],
					"stateMutability": "view",
					"type": "function"
				},
				{
					"inputs": [],
					"name": "owner",
					"outputs": [
						{
							"internalType": "address",
							"name": "",
							"type": "address"
						}
					],
					"stateMutability": "view",
					"type": "function"
				},
				{
					"inputs": [
						{
							"internalType": "address",
							"name": "",
							"type": "address"
						}
					],
					"name": "transactions",
					"outputs": [
						{
							"internalType": "uint256",
							"name": "",
							"type": "uint256"
						}
					],
					"stateMutability": "view",
					"type": "function"
				},
				{
					"inputs": [],
					"name": "wallet",
					"outputs": [
						{
							"internalType": "contract IDrinkMachineWallet",
							"name": "",
							"type": "address"
						}
					],
					"stateMutability": "view",
					"type": "function"
				},
				{
					"inputs": [],
					"name": "withdrawAllFunds",
					"outputs": [],
					"stateMutability": "payable",
					"type": "function"
				}
			],
			"devdoc": {
				"kind": "dev",
				"methods": {},
				"version": 1
			},
			"evm": {
				"assembly": "    /* \"contracts/DrinkMachine.sol\":125:2071  contract DrinkMachine {... */\n  mstore(0x40, 0x80)\n    /* \"contracts/DrinkMachine.sol\":362:756  constructor(address _wallet) {... */\n  callvalue\n  dup1\n  iszero\n  tag_1\n  jumpi\n  revert(0x00, 0x00)\ntag_1:\n  pop\n  mload(0x40)\n  sub(codesize, bytecodeSize)\n  dup1\n  bytecodeSize\n  dup4\n  codecopy\n  dup2\n  dup2\n  add\n  0x40\n  mstore\n  dup2\n  add\n  swap1\n  tag_2\n  swap2\n  swap1\n  tag_3\n  jump\t// in\ntag_2:\n    /* \"contracts/DrinkMachine.sol\":409:419  msg.sender */\n  caller\n    /* \"contracts/DrinkMachine.sol\":401:406  owner */\n  0x01\n  0x00\n    /* \"contracts/DrinkMachine.sol\":401:419  owner = msg.sender */\n  0x0100\n  exp\n  dup2\n  sload\n  dup2\n  0xffffffffffffffffffffffffffffffffffffffff\n  mul\n  not\n  and\n  swap1\n  dup4\n  0xffffffffffffffffffffffffffffffffffffffff\n  and\n  mul\n  or\n  swap1\n  sstore\n  pop\n    /* \"contracts/DrinkMachine.sol\":458:465  _wallet */\n  dup1\n    /* \"contracts/DrinkMachine.sol\":429:435  wallet */\n  0x00\n  0x00\n    /* \"contracts/DrinkMachine.sol\":429:466  wallet = IDrinkMachineWallet(_wallet) */\n  0x0100\n  exp\n  dup2\n  sload\n  dup2\n  0xffffffffffffffffffffffffffffffffffffffff\n  mul\n  not\n  and\n  swap1\n  dup4\n  0xffffffffffffffffffffffffffffffffffffffff\n  and\n  mul\n  or\n  swap1\n  sstore\n  pop\n    /* \"contracts/DrinkMachine.sol\":490:523  ProductType(\"Water\", 1 gwei, 100) */\n  mload(0x40)\n  dup1\n  0x60\n  add\n  0x40\n  mstore\n  dup1\n  mload(0x40)\n  dup1\n  0x40\n  add\n  0x40\n  mstore\n  dup1\n  0x05\n  dup2\n  mstore\n  0x20\n  add\n  0x5761746572000000000000000000000000000000000000000000000000000000\n  dup2\n  mstore\n  pop\n  dup2\n  mstore\n  0x20\n  add\n    /* \"contracts/DrinkMachine.sol\":511:517  1 gwei */\n  0x3b9aca00\n    /* \"contracts/DrinkMachine.sol\":490:523  ProductType(\"Water\", 1 gwei, 100) */\n  dup2\n  mstore\n  0x20\n  add\n    /* \"contracts/DrinkMachine.sol\":519:522  100 */\n  0x64\n    /* \"contracts/DrinkMachine.sol\":490:523  ProductType(\"Water\", 1 gwei, 100) */\n  dup2\n  mstore\n  pop\n    /* \"contracts/DrinkMachine.sol\":476:484  products */\n  0x03\n    /* \"contracts/DrinkMachine.sol\":485:486  0 */\n  0x00\n    /* \"contracts/DrinkMachine.sol\":476:487  products[0] */\n  0x05\n  dup2\n  lt\n  tag_6\n  jumpi\n  tag_7\n  tag_8\n  jump\t// in\ntag_7:\ntag_6:\n  0x03\n  mul\n  add\n    /* \"contracts/DrinkMachine.sol\":476:523  products[0] = ProductType(\"Water\", 1 gwei, 100) */\n  0x00\n  dup3\n  add\n  mload\n  dup2\n  0x00\n  add\n  swap1\n  dup2\n  tag_10\n  swap2\n  swap1\n  tag_11\n  jump\t// in\ntag_10:\n  pop\n  0x20\n  dup3\n  add\n  mload\n  dup2\n  0x01\n  add\n  sstore\n  0x40\n  dup3\n  add\n  mload\n  dup2\n  0x02\n  add\n  sstore\n  swap1\n  pop\n  pop\n    /* \"contracts/DrinkMachine.sol\":547:578  ProductType(\"Tea\", 2 gwei, 100) */\n  mload(0x40)\n  dup1\n  0x60\n  add\n  0x40\n  mstore\n  dup1\n  mload(0x40)\n  dup1\n  0x40\n  add\n  0x40\n  mstore\n  dup1\n  0x03\n  dup2\n  mstore\n  0x20\n  add\n  0x5465610000000000000000000000000000000000000000000000000000000000\n  dup2\n  mstore\n  pop\n  dup2\n  mstore\n  0x20\n  add\n    /* \"contracts/DrinkMachine.sol\":566:572  2 gwei */\n  0x77359400\n    /* \"contracts/DrinkMachine.sol\":547:578  ProductType(\"Tea\", 2 gwei, 100) */\n  dup2\n  mstore\n  0x20\n  add\n    /* \"contracts/DrinkMachine.sol\":574:577  100 */\n  0x64\n    /* \"contracts/DrinkMachine.sol\":547:578  ProductType(\"Tea\", 2 gwei, 100) */\n  dup2\n  mstore\n  pop\n    /* \"contracts/DrinkMachine.sol\":533:541  products */\n  0x03\n    /* \"contracts/DrinkMachine.sol\":542:543  1 */\n  0x01\n    /* \"contracts/DrinkMachine.sol\":533:544  products[1] */\n  0x05\n  dup2\n  lt\n  tag_12\n  jumpi\n  tag_13\n  tag_8\n  jump\t// in\ntag_13:\ntag_12:\n  0x03\n  mul\n  add\n    /* \"contracts/DrinkMachine.sol\":533:578  products[1] = ProductType(\"Tea\", 2 gwei, 100) */\n  0x00\n  dup3\n  add\n  mload\n  dup2\n  0x00\n  add\n  swap1\n  dup2\n  tag_15\n  swap2\n  swap1\n  tag_11\n  jump\t// in\ntag_15:\n  pop\n  0x20\n  dup3\n  add\n  mload\n  dup2\n  0x01\n  add\n  sstore\n  0x40\n  dup3\n  add\n  mload\n  dup2\n  0x02\n  add\n  sstore\n  swap1\n  pop\n  pop\n    /* \"contracts/DrinkMachine.sol\":602:635  ProductType(\"Juice\", 3 gwei, 100) */\n  mload(0x40)\n  dup1\n  0x60\n  add\n  0x40\n  mstore\n  dup1\n  mload(0x40)\n  dup1\n  0x40\n  add\n  0x40\n  mstore\n  dup1\n  0x05\n  dup2\n  mstore\n  0x20\n  add\n  0x4a75696365000000000000000000000000000000000000000000000000000000\n  dup2\n  mstore\n  pop\n  dup2\n  mstore\n  0x20\n  add\n    /* \"contracts/DrinkMachine.sol\":623:629  3 gwei */\n  0xb2d05e00\n    /* \"contracts/DrinkMachine.sol\":602:635  ProductType(\"Juice\", 3 gwei, 100) */\n  dup2\n  mstore\n  0x20\n  add\n    /* \"contracts/DrinkMachine.sol\":631:634  100 */\n  0x64\n    /* \"contracts/DrinkMachine.sol\":602:635  ProductType(\"Juice\", 3 gwei, 100) */\n  dup2\n  mstore\n  pop\n    /* \"contracts/DrinkMachine.sol\":588:596  products */\n  0x03\n    /* \"contracts/DrinkMachine.sol\":597:598  2 */\n  0x02\n    /* \"contracts/DrinkMachine.sol\":588:599  products[2] */\n  0x05\n  dup2\n  lt\n  tag_16\n  jumpi\n  tag_17\n  tag_8\n  jump\t// in\ntag_17:\ntag_16:\n  0x03\n  mul\n  add\n    /* \"contracts/DrinkMachine.sol\":588:635  products[2] = ProductType(\"Juice\", 3 gwei, 100) */\n  0x00\n  dup3\n  add\n  mload\n  dup2\n  0x00\n  add\n  swap1\n  dup2\n  tag_19\n  swap2\n  swap1\n  tag_11\n  jump\t// in\ntag_19:\n  pop\n  0x20\n  dup3\n  add\n  mload\n  dup2\n  0x01\n  add\n  sstore\n  0x40\n  dup3\n  add\n  mload\n  dup2\n  0x02\n  add\n  sstore\n  swap1\n  pop\n  pop\n    /* \"contracts/DrinkMachine.sol\":659:691  ProductType(\"Milk\", 4 gwei, 100) */\n  mload(0x40)\n  dup1\n  0x60\n  add\n  0x40\n  mstore\n  dup1\n  mload(0x40)\n  dup1\n  0x40\n  add\n  0x40\n  mstore\n  dup1\n  0x04\n  dup2\n  mstore\n  0x20\n  add\n  0x4d696c6b00000000000000000000000000000000000000000000000000000000\n  dup2\n  mstore\n  pop\n  dup2\n  mstore\n  0x20\n  add\n    /* \"contracts/DrinkMachine.sol\":679:685  4 gwei */\n  0xee6b2800\n    /* \"contracts/DrinkMachine.sol\":659:691  ProductType(\"Milk\", 4 gwei, 100) */\n  dup2\n  mstore\n  0x20\n  add\n    /* \"contracts/DrinkMachine.sol\":687:690  100 */\n  0x64\n    /* \"contracts/DrinkMachine.sol\":659:691  ProductType(\"Milk\", 4 gwei, 100) */\n  dup2\n  mstore\n  pop\n    /* \"contracts/DrinkMachine.sol\":645:653  products */\n  0x03\n    /* \"contracts/DrinkMachine.sol\":654:655  3 */\n  dup1\n    /* \"contracts/DrinkMachine.sol\":645:656  products[3] */\n  0x05\n  dup2\n  lt\n  tag_20\n  jumpi\n  tag_21\n  tag_8\n  jump\t// in\ntag_21:\ntag_20:\n  0x03\n  mul\n  add\n    /* \"contracts/DrinkMachine.sol\":645:691  products[3] = ProductType(\"Milk\", 4 gwei, 100) */\n  0x00\n  dup3\n  add\n  mload\n  dup2\n  0x00\n  add\n  swap1\n  dup2\n  tag_23\n  swap2\n  swap1\n  tag_11\n  jump\t// in\ntag_23:\n  pop\n  0x20\n  dup3\n  add\n  mload\n  dup2\n  0x01\n  add\n  sstore\n  0x40\n  dup3\n  add\n  mload\n  dup2\n  0x02\n  add\n  sstore\n  swap1\n  pop\n  pop\n    /* \"contracts/DrinkMachine.sol\":715:749  ProductType(\"Coffee\", 5 gwei, 100) */\n  mload(0x40)\n  dup1\n  0x60\n  add\n  0x40\n  mstore\n  dup1\n  mload(0x40)\n  dup1\n  0x40\n  add\n  0x40\n  mstore\n  dup1\n  0x06\n  dup2\n  mstore\n  0x20\n  add\n  0x436f666665650000000000000000000000000000000000000000000000000000\n  dup2\n  mstore\n  pop\n  dup2\n  mstore\n  0x20\n  add\n    /* \"contracts/DrinkMachine.sol\":737:743  5 gwei */\n  0x012a05f200\n    /* \"contracts/DrinkMachine.sol\":715:749  ProductType(\"Coffee\", 5 gwei, 100) */\n  dup2\n  mstore\n  0x20\n  add\n    /* \"contracts/DrinkMachine.sol\":745:748  100 */\n  0x64\n    /* \"contracts/DrinkMachine.sol\":715:749  ProductType(\"Coffee\", 5 gwei, 100) */\n  dup2\n  mstore\n  pop\n    /* \"contracts/DrinkMachine.sol\":701:709  products */\n  0x03\n    /* \"contracts/DrinkMachine.sol\":710:711  4 */\n  0x04\n    /* \"contracts/DrinkMachine.sol\":701:712  products[4] */\n  0x05\n  dup2\n  lt\n  tag_24\n  jumpi\n  tag_25\n  tag_8\n  jump\t// in\ntag_25:\ntag_24:\n  0x03\n  mul\n  add\n    /* \"contracts/DrinkMachine.sol\":701:749  products[4] = ProductType(\"Coffee\", 5 gwei, 100) */\n  0x00\n  dup3\n  add\n  mload\n  dup2\n  0x00\n  add\n  swap1\n  dup2\n  tag_27\n  swap2\n  swap1\n  tag_11\n  jump\t// in\ntag_27:\n  pop\n  0x20\n  dup3\n  add\n  mload\n  dup2\n  0x01\n  add\n  sstore\n  0x40\n  dup3\n  add\n  mload\n  dup2\n  0x02\n  add\n  sstore\n  swap1\n  pop\n  pop\n    /* \"contracts/DrinkMachine.sol\":362:756  constructor(address _wallet) {... */\n  pop\n    /* \"contracts/DrinkMachine.sol\":125:2071  contract DrinkMachine {... */\n  jump(tag_28)\n    /* \"#utility.yul\":88:205   */\ntag_30:\n    /* \"#utility.yul\":197:198   */\n  0x00\n    /* \"#utility.yul\":194:195   */\n  0x00\n    /* \"#utility.yul\":187:199   */\n  revert\n    /* \"#utility.yul\":334:460   */\ntag_32:\n    /* \"#utility.yul\":371:378   */\n  0x00\n    /* \"#utility.yul\":411:453   */\n  0xffffffffffffffffffffffffffffffffffffffff\n    /* \"#utility.yul\":404:409   */\n  dup3\n    /* \"#utility.yul\":400:454   */\n  and\n    /* \"#utility.yul\":389:454   */\n  swap1\n  pop\n    /* \"#utility.yul\":334:460   */\n  swap2\n  swap1\n  pop\n  jump\t// out\n    /* \"#utility.yul\":466:562   */\ntag_33:\n    /* \"#utility.yul\":503:510   */\n  0x00\n    /* \"#utility.yul\":532:556   */\n  tag_62\n    /* \"#utility.yul\":550:555   */\n  dup3\n    /* \"#utility.yul\":532:556   */\n  tag_32\n  jump\t// in\ntag_62:\n    /* \"#utility.yul\":521:556   */\n  swap1\n  pop\n    /* \"#utility.yul\":466:562   */\n  swap2\n  swap1\n  pop\n  jump\t// out\n    /* \"#utility.yul\":568:690   */\ntag_34:\n    /* \"#utility.yul\":641:665   */\n  tag_64\n    /* \"#utility.yul\":659:664   */\n  dup2\n    /* \"#utility.yul\":641:665   */\n  tag_33\n  jump\t// in\ntag_64:\n    /* \"#utility.yul\":634:639   */\n  dup2\n    /* \"#utility.yul\":631:666   */\n  eq\n    /* \"#utility.yul\":621:684   */\n  tag_65\n  jumpi\n    /* \"#utility.yul\":680:681   */\n  0x00\n    /* \"#utility.yul\":677:678   */\n  0x00\n    /* \"#utility.yul\":670:682   */\n  revert\n    /* \"#utility.yul\":621:684   */\ntag_65:\n    /* \"#utility.yul\":568:690   */\n  pop\n  jump\t// out\n    /* \"#utility.yul\":696:839   */\ntag_35:\n    /* \"#utility.yul\":753:758   */\n  0x00\n    /* \"#utility.yul\":784:790   */\n  dup2\n    /* \"#utility.yul\":778:791   */\n  mload\n    /* \"#utility.yul\":769:791   */\n  swap1\n  pop\n    /* \"#utility.yul\":800:833   */\n  tag_67\n    /* \"#utility.yul\":827:832   */\n  dup2\n    /* \"#utility.yul\":800:833   */\n  tag_34\n  jump\t// in\ntag_67:\n    /* \"#utility.yul\":696:839   */\n  swap3\n  swap2\n  pop\n  pop\n  jump\t// out\n    /* \"#utility.yul\":845:1196   */\ntag_3:\n    /* \"#utility.yul\":915:921   */\n  0x00\n    /* \"#utility.yul\":964:966   */\n  0x20\n    /* \"#utility.yul\":952:961   */\n  dup3\n    /* \"#utility.yul\":943:950   */\n  dup5\n    /* \"#utility.yul\":939:962   */\n  sub\n    /* \"#utility.yul\":935:967   */\n  slt\n    /* \"#utility.yul\":932:1051   */\n  iszero\n  tag_69\n  jumpi\n    /* \"#utility.yul\":970:1049   */\n  tag_70\n  tag_30\n  jump\t// in\ntag_70:\n    /* \"#utility.yul\":932:1051   */\ntag_69:\n    /* \"#utility.yul\":1090:1091   */\n  0x00\n    /* \"#utility.yul\":1115:1179   */\n  tag_71\n    /* \"#utility.yul\":1171:1178   */\n  dup5\n    /* \"#utility.yul\":1162:1168   */\n  dup3\n    /* \"#utility.yul\":1151:1160   */\n  dup6\n    /* \"#utility.yul\":1147:1169   */\n  add\n    /* \"#utility.yul\":1115:1179   */\n  tag_35\n  jump\t// in\ntag_71:\n    /* \"#utility.yul\":1105:1179   */\n  swap2\n  pop\n    /* \"#utility.yul\":1061:1189   */\n  pop\n    /* \"#utility.yul\":845:1196   */\n  swap3\n  swap2\n  pop\n  pop\n  jump\t// out\n    /* \"#utility.yul\":1202:1382   */\ntag_8:\n    /* \"#utility.yul\":1250:1327   */\n  0x4e487b7100000000000000000000000000000000000000000000000000000000\n    /* \"#utility.yul\":1247:1248   */\n  0x00\n    /* \"#utility.yul\":1240:1328   */\n  mstore\n    /* \"#utility.yul\":1347:1351   */\n  0x32\n    /* \"#utility.yul\":1344:1345   */\n  0x04\n    /* \"#utility.yul\":1337:1352   */\n  mstore\n    /* \"#utility.yul\":1371:1375   */\n  0x24\n    /* \"#utility.yul\":1368:1369   */\n  0x00\n    /* \"#utility.yul\":1361:1376   */\n  revert\n    /* \"#utility.yul\":1388:1487   */\ntag_36:\n    /* \"#utility.yul\":1440:1446   */\n  0x00\n    /* \"#utility.yul\":1474:1479   */\n  dup2\n    /* \"#utility.yul\":1468:1480   */\n  mload\n    /* \"#utility.yul\":1458:1480   */\n  swap1\n  pop\n    /* \"#utility.yul\":1388:1487   */\n  swap2\n  swap1\n  pop\n  jump\t// out\n    /* \"#utility.yul\":1493:1673   */\ntag_37:\n    /* \"#utility.yul\":1541:1618   */\n  0x4e487b7100000000000000000000000000000000000000000000000000000000\n    /* \"#utility.yul\":1538:1539   */\n  0x00\n    /* \"#utility.yul\":1531:1619   */\n  mstore\n    /* \"#utility.yul\":1638:1642   */\n  0x41\n    /* \"#utility.yul\":1635:1636   */\n  0x04\n    /* \"#utility.yul\":1628:1643   */\n  mstore\n    /* \"#utility.yul\":1662:1666   */\n  0x24\n    /* \"#utility.yul\":1659:1660   */\n  0x00\n    /* \"#utility.yul\":1652:1667   */\n  revert\n    /* \"#utility.yul\":1679:1859   */\ntag_38:\n    /* \"#utility.yul\":1727:1804   */\n  0x4e487b7100000000000000000000000000000000000000000000000000000000\n    /* \"#utility.yul\":1724:1725   */\n  0x00\n    /* \"#utility.yul\":1717:1805   */\n  mstore\n    /* \"#utility.yul\":1824:1828   */\n  0x22\n    /* \"#utility.yul\":1821:1822   */\n  0x04\n    /* \"#utility.yul\":1814:1829   */\n  mstore\n    /* \"#utility.yul\":1848:1852   */\n  0x24\n    /* \"#utility.yul\":1845:1846   */\n  0x00\n    /* \"#utility.yul\":1838:1853   */\n  revert\n    /* \"#utility.yul\":1865:2185   */\ntag_39:\n    /* \"#utility.yul\":1909:1915   */\n  0x00\n    /* \"#utility.yul\":1946:1947   */\n  0x02\n    /* \"#utility.yul\":1940:1944   */\n  dup3\n    /* \"#utility.yul\":1936:1948   */\n  div\n    /* \"#utility.yul\":1926:1948   */\n  swap1\n  pop\n    /* \"#utility.yul\":1993:1994   */\n  0x01\n    /* \"#utility.yul\":1987:1991   */\n  dup3\n    /* \"#utility.yul\":1983:1995   */\n  and\n    /* \"#utility.yul\":2014:2032   */\n  dup1\n    /* \"#utility.yul\":2004:2085   */\n  tag_77\n  jumpi\n    /* \"#utility.yul\":2070:2074   */\n  0x7f\n    /* \"#utility.yul\":2062:2068   */\n  dup3\n    /* \"#utility.yul\":2058:2075   */\n  and\n    /* \"#utility.yul\":2048:2075   */\n  swap2\n  pop\n    /* \"#utility.yul\":2004:2085   */\ntag_77:\n    /* \"#utility.yul\":2132:2134   */\n  0x20\n    /* \"#utility.yul\":2124:2130   */\n  dup3\n    /* \"#utility.yul\":2121:2135   */\n  lt\n    /* \"#utility.yul\":2101:2119   */\n  dup2\n    /* \"#utility.yul\":2098:2136   */\n  sub\n    /* \"#utility.yul\":2095:2179   */\n  tag_78\n  jumpi\n    /* \"#utility.yul\":2151:2169   */\n  tag_79\n  tag_38\n  jump\t// in\ntag_79:\n    /* \"#utility.yul\":2095:2179   */\ntag_78:\n    /* \"#utility.yul\":1916:2185   */\n  pop\n    /* \"#utility.yul\":1865:2185   */\n  swap2\n  swap1\n  pop\n  jump\t// out\n    /* \"#utility.yul\":2191:2332   */\ntag_40:\n    /* \"#utility.yul\":2240:2244   */\n  0x00\n    /* \"#utility.yul\":2263:2266   */\n  dup2\n    /* \"#utility.yul\":2255:2266   */\n  swap1\n  pop\n    /* \"#utility.yul\":2286:2289   */\n  dup2\n    /* \"#utility.yul\":2283:2284   */\n  0x00\n    /* \"#utility.yul\":2276:2290   */\n  mstore\n    /* \"#utility.yul\":2320:2324   */\n  0x20\n    /* \"#utility.yul\":2317:2318   */\n  0x00\n    /* \"#utility.yul\":2307:2325   */\n  keccak256\n    /* \"#utility.yul\":2299:2325   */\n  swap1\n  pop\n    /* \"#utility.yul\":2191:2332   */\n  swap2\n  swap1\n  pop\n  jump\t// out\n    /* \"#utility.yul\":2338:2431   */\ntag_41:\n    /* \"#utility.yul\":2375:2381   */\n  0x00\n    /* \"#utility.yul\":2422:2424   */\n  0x20\n    /* \"#utility.yul\":2417:2419   */\n  0x1f\n    /* \"#utility.yul\":2410:2415   */\n  dup4\n    /* \"#utility.yul\":2406:2420   */\n  add\n    /* \"#utility.yul\":2402:2425   */\n  div\n    /* \"#utility.yul\":2392:2425   */\n  swap1\n  pop\n    /* \"#utility.yul\":2338:2431   */\n  swap2\n  swap1\n  pop\n  jump\t// out\n    /* \"#utility.yul\":2437:2544   */\ntag_42:\n    /* \"#utility.yul\":2481:2489   */\n  0x00\n    /* \"#utility.yul\":2531:2536   */\n  dup3\n    /* \"#utility.yul\":2525:2529   */\n  dup3\n    /* \"#utility.yul\":2521:2537   */\n  shl\n    /* \"#utility.yul\":2500:2537   */\n  swap1\n  pop\n    /* \"#utility.yul\":2437:2544   */\n  swap3\n  swap2\n  pop\n  pop\n  jump\t// out\n    /* \"#utility.yul\":2550:2943   */\ntag_43:\n    /* \"#utility.yul\":2619:2625   */\n  0x00\n    /* \"#utility.yul\":2669:2670   */\n  0x08\n    /* \"#utility.yul\":2657:2667   */\n  dup4\n    /* \"#utility.yul\":2653:2671   */\n  mul\n    /* \"#utility.yul\":2692:2789   */\n  tag_84\n    /* \"#utility.yul\":2722:2788   */\n  0xffffffffffffffffffffffffffffffffffffffffffffffffffffffffffffffff\n    /* \"#utility.yul\":2711:2720   */\n  dup3\n    /* \"#utility.yul\":2692:2789   */\n  tag_42\n  jump\t// in\ntag_84:\n    /* \"#utility.yul\":2810:2849   */\n  tag_85\n    /* \"#utility.yul\":2840:2848   */\n  dup7\n    /* \"#utility.yul\":2829:2838   */\n  dup4\n    /* \"#utility.yul\":2810:2849   */\n  tag_42\n  jump\t// in\ntag_85:\n    /* \"#utility.yul\":2798:2849   */\n  swap6\n  pop\n    /* \"#utility.yul\":2882:2886   */\n  dup1\n    /* \"#utility.yul\":2878:2887   */\n  not\n    /* \"#utility.yul\":2871:2876   */\n  dup5\n    /* \"#utility.yul\":2867:2888   */\n  and\n    /* \"#utility.yul\":2858:2888   */\n  swap4\n  pop\n    /* \"#utility.yul\":2931:2935   */\n  dup1\n    /* \"#utility.yul\":2921:2929   */\n  dup7\n    /* \"#utility.yul\":2917:2936   */\n  and\n    /* \"#utility.yul\":2910:2915   */\n  dup5\n    /* \"#utility.yul\":2907:2937   */\n  or\n    /* \"#utility.yul\":2897:2937   */\n  swap3\n  pop\n    /* \"#utility.yul\":2626:2943   */\n  pop\n  pop\n    /* \"#utility.yul\":2550:2943   */\n  swap4\n  swap3\n  pop\n  pop\n  pop\n  jump\t// out\n    /* \"#utility.yul\":2949:3026   */\ntag_44:\n    /* \"#utility.yul\":2986:2993   */\n  0x00\n    /* \"#utility.yul\":3015:3020   */\n  dup2\n    /* \"#utility.yul\":3004:3020   */\n  swap1\n  pop\n    /* \"#utility.yul\":2949:3026   */\n  swap2\n  swap1\n  pop\n  jump\t// out\n    /* \"#utility.yul\":3032:3092   */\ntag_45:\n    /* \"#utility.yul\":3060:3063   */\n  0x00\n    /* \"#utility.yul\":3081:3086   */\n  dup2\n    /* \"#utility.yul\":3074:3086   */\n  swap1\n  pop\n    /* \"#utility.yul\":3032:3092   */\n  swap2\n  swap1\n  pop\n  jump\t// out\n    /* \"#utility.yul\":3098:3240   */\ntag_46:\n    /* \"#utility.yul\":3148:3157   */\n  0x00\n    /* \"#utility.yul\":3181:3234   */\n  tag_89\n    /* \"#utility.yul\":3199:3233   */\n  tag_90\n    /* \"#utility.yul\":3208:3232   */\n  tag_91\n    /* \"#utility.yul\":3226:3231   */\n  dup5\n    /* \"#utility.yul\":3208:3232   */\n  tag_44\n  jump\t// in\ntag_91:\n    /* \"#utility.yul\":3199:3233   */\n  tag_45\n  jump\t// in\ntag_90:\n    /* \"#utility.yul\":3181:3234   */\n  tag_44\n  jump\t// in\ntag_89:\n    /* \"#utility.yul\":3168:3234   */\n  swap1\n  pop\n    /* \"#utility.yul\":3098:3240   */\n  swap2\n  swap1\n  pop\n  jump\t// out\n    /* \"#utility.yul\":3246:3321   */\ntag_47:\n    /* \"#utility.yul\":3289:3292   */\n  0x00\n    /* \"#utility.yul\":3310:3315   */\n  dup2\n    /* \"#utility.yul\":3303:3315   */\n  swap1\n  pop\n    /* \"#utility.yul\":3246:3321   */\n  swap2\n  swap1\n  pop\n  jump\t// out\n    /* \"#utility.yul\":3327:3596   */\ntag_48:\n    /* \"#utility.yul\":3437:3476   */\n  tag_94\n    /* \"#utility.yul\":3468:3475   */\n  dup4\n    /* \"#utility.yul\":3437:3476   */\n  tag_46\n  jump\t// in\ntag_94:\n    /* \"#utility.yul\":3498:3589   */\n  tag_95\n    /* \"#utility.yul\":3547:3588   */\n  tag_96\n    /* \"#utility.yul\":3571:3587   */\n  dup3\n    /* \"#utility.yul\":3547:3588   */\n  tag_47\n  jump\t// in\ntag_96:\n    /* \"#utility.yul\":3539:3545   */\n  dup5\n    /* \"#utility.yul\":3532:3536   */\n  dup5\n    /* \"#utility.yul\":3526:3537   */\n  sload\n    /* \"#utility.yul\":3498:3589   */\n  tag_43\n  jump\t// in\ntag_95:\n    /* \"#utility.yul\":3492:3496   */\n  dup3\n    /* \"#utility.yul\":3485:3590   */\n  sstore\n    /* \"#utility.yul\":3403:3596   */\n  pop\n    /* \"#utility.yul\":3327:3596   */\n  pop\n  pop\n  pop\n  jump\t// out\n    /* \"#utility.yul\":3602:3675   */\ntag_49:\n    /* \"#utility.yul\":3647:3650   */\n  0x00\n    /* \"#utility.yul\":3668:3669   */\n  0x00\n    /* \"#utility.yul\":3661:3669   */\n  swap1\n  pop\n    /* \"#utility.yul\":3602:3675   */\n  swap1\n  jump\t// out\n    /* \"#utility.yul\":3681:3870   */\ntag_50:\n    /* \"#utility.yul\":3758:3790   */\n  tag_99\n  tag_49\n  jump\t// in\ntag_99:\n    /* \"#utility.yul\":3799:3864   */\n  tag_100\n    /* \"#utility.yul\":3857:3863   */\n  dup2\n    /* \"#utility.yul\":3849:3855   */\n  dup5\n    /* \"#utility.yul\":3843:3847   */\n  dup5\n    /* \"#utility.yul\":3799:3864   */\n  tag_48\n  jump\t// in\ntag_100:\n    /* \"#utility.yul\":3734:3870   */\n  pop\n    /* \"#utility.yul\":3681:3870   */\n  pop\n  pop\n  jump\t// out\n    /* \"#utility.yul\":3876:4062   */\ntag_51:\n    /* \"#utility.yul\":3936:4056   */\ntag_102:\n    /* \"#utility.yul\":3953:3956   */\n  dup2\n    /* \"#utility.yul\":3946:3951   */\n  dup2\n    /* \"#utility.yul\":3943:3957   */\n  lt\n    /* \"#utility.yul\":3936:4056   */\n  iszero\n  tag_104\n  jumpi\n    /* \"#utility.yul\":4007:4046   */\n  tag_105\n    /* \"#utility.yul\":4044:4045   */\n  0x00\n    /* \"#utility.yul\":4037:4042   */\n  dup3\n    /* \"#utility.yul\":4007:4046   */\n  tag_50\n  jump\t// in\ntag_105:\n    /* \"#utility.yul\":3980:3981   */\n  0x01\n    /* \"#utility.yul\":3973:3978   */\n  dup2\n    /* \"#utility.yul\":3969:3982   */\n  add\n    /* \"#utility.yul\":3960:3982   */\n  swap1\n  pop\n    /* \"#utility.yul\":3936:4056   */\n  jump(tag_102)\ntag_104:\n    /* \"#utility.yul\":3876:4062   */\n  pop\n  pop\n  jump\t// out\n    /* \"#utility.yul\":4068:4611   */\ntag_52:\n    /* \"#utility.yul\":4169:4171   */\n  0x1f\n    /* \"#utility.yul\":4164:4167   */\n  dup3\n    /* \"#utility.yul\":4161:4172   */\n  gt\n    /* \"#utility.yul\":4158:4604   */\n  iszero\n  tag_107\n  jumpi\n    /* \"#utility.yul\":4203:4241   */\n  tag_108\n    /* \"#utility.yul\":4235:4240   */\n  dup2\n    /* \"#utility.yul\":4203:4241   */\n  tag_40\n  jump\t// in\ntag_108:\n    /* \"#utility.yul\":4287:4316   */\n  tag_109\n    /* \"#utility.yul\":4305:4315   */\n  dup5\n    /* \"#utility.yul\":4287:4316   */\n  tag_41\n  jump\t// in\ntag_109:\n    /* \"#utility.yul\":4277:4285   */\n  dup2\n    /* \"#utility.yul\":4273:4317   */\n  add\n    /* \"#utility.yul\":4470:4472   */\n  0x20\n    /* \"#utility.yul\":4458:4468   */\n  dup6\n    /* \"#utility.yul\":4455:4473   */\n  lt\n    /* \"#utility.yul\":4452:4501   */\n  iszero\n  tag_110\n  jumpi\n    /* \"#utility.yul\":4491:4499   */\n  dup2\n    /* \"#utility.yul\":4476:4499   */\n  swap1\n  pop\n    /* \"#utility.yul\":4452:4501   */\ntag_110:\n    /* \"#utility.yul\":4514:4594   */\n  tag_111\n    /* \"#utility.yul\":4570:4592   */\n  tag_112\n    /* \"#utility.yul\":4588:4591   */\n  dup6\n    /* \"#utility.yul\":4570:4592   */\n  tag_41\n  jump\t// in\ntag_112:\n    /* \"#utility.yul\":4560:4568   */\n  dup4\n    /* \"#utility.yul\":4556:4593   */\n  add\n    /* \"#utility.yul\":4543:4554   */\n  dup3\n    /* \"#utility.yul\":4514:4594   */\n  tag_51\n  jump\t// in\ntag_111:\n    /* \"#utility.yul\":4173:4604   */\n  pop\n  pop\n    /* \"#utility.yul\":4158:4604   */\ntag_107:\n    /* \"#utility.yul\":4068:4611   */\n  pop\n  pop\n  pop\n  jump\t// out\n    /* \"#utility.yul\":4617:4734   */\ntag_53:\n    /* \"#utility.yul\":4671:4679   */\n  0x00\n    /* \"#utility.yul\":4721:4726   */\n  dup3\n    /* \"#utility.yul\":4715:4719   */\n  dup3\n    /* \"#utility.yul\":4711:4727   */\n  shr\n    /* \"#utility.yul\":4690:4727   */\n  swap1\n  pop\n    /* \"#utility.yul\":4617:4734   */\n  swap3\n  swap2\n  pop\n  pop\n  jump\t// out\n    /* \"#utility.yul\":4740:4909   */\ntag_54:\n    /* \"#utility.yul\":4784:4790   */\n  0x00\n    /* \"#utility.yul\":4817:4868   */\n  tag_115\n    /* \"#utility.yul\":4865:4866   */\n  0x00\n    /* \"#utility.yul\":4861:4867   */\n  not\n    /* \"#utility.yul\":4853:4858   */\n  dup5\n    /* \"#utility.yul\":4850:4851   */\n  0x08\n    /* \"#utility.yul\":4846:4859   */\n  mul\n    /* \"#utility.yul\":4817:4868   */\n  tag_53\n  jump\t// in\ntag_115:\n    /* \"#utility.yul\":4813:4869   */\n  not\n    /* \"#utility.yul\":4898:4902   */\n  dup1\n    /* \"#utility.yul\":4892:4896   */\n  dup4\n    /* \"#utility.yul\":4888:4903   */\n  and\n    /* \"#utility.yul\":4878:4903   */\n  swap2\n  pop\n    /* \"#utility.yul\":4791:4909   */\n  pop\n    /* \"#utility.yul\":4740:4909   */\n  swap3\n  swap2\n  pop\n  pop\n  jump\t// out\n    /* \"#utility.yul\":4914:5209   */\ntag_55:\n    /* \"#utility.yul\":4990:4994   */\n  0x00\n    /* \"#utility.yul\":5136:5165   */\n  tag_117\n    /* \"#utility.yul\":5161:5164   */\n  dup4\n    /* \"#utility.yul\":5155:5159   */\n  dup4\n    /* \"#utility.yul\":5136:5165   */\n  tag_54\n  jump\t// in\ntag_117:\n    /* \"#utility.yul\":5128:5165   */\n  swap2\n  pop\n    /* \"#utility.yul\":5198:5201   */\n  dup3\n    /* \"#utility.yul\":5195:5196   */\n  0x02\n    /* \"#utility.yul\":5191:5202   */\n  mul\n    /* \"#utility.yul\":5185:5189   */\n  dup3\n    /* \"#utility.yul\":5182:5203   */\n  or\n    /* \"#utility.yul\":5174:5203   */\n  swap1\n  pop\n    /* \"#utility.yul\":4914:5209   */\n  swap3\n  swap2\n  pop\n  pop\n  jump\t// out\n    /* \"#utility.yul\":5214:6609   */\ntag_11:\n    /* \"#utility.yul\":5331:5368   */\n  tag_119\n    /* \"#utility.yul\":5364:5367   */\n  dup3\n    /* \"#utility.yul\":5331:5368   */\n  tag_36\n  jump\t// in\ntag_119:\n    /* \"#utility.yul\":5433:5451   */\n  0xffffffffffffffff\n    /* \"#utility.yul\":5425:5431   */\n  dup2\n    /* \"#utility.yul\":5422:5452   */\n  gt\n    /* \"#utility.yul\":5419:5475   */\n  iszero\n  tag_120\n  jumpi\n    /* \"#utility.yul\":5455:5473   */\n  tag_121\n  tag_37\n  jump\t// in\ntag_121:\n    /* \"#utility.yul\":5419:5475   */\ntag_120:\n    /* \"#utility.yul\":5499:5537   */\n  tag_122\n    /* \"#utility.yul\":5531:5535   */\n  dup3\n    /* \"#utility.yul\":5525:5536   */\n  sload\n    /* \"#utility.yul\":5499:5537   */\n  tag_39\n  jump\t// in\ntag_122:\n    /* \"#utility.yul\":5584:5651   */\n  tag_123\n    /* \"#utility.yul\":5644:5650   */\n  dup3\n    /* \"#utility.yul\":5636:5642   */\n  dup3\n    /* \"#utility.yul\":5630:5634   */\n  dup6\n    /* \"#utility.yul\":5584:5651   */\n  tag_52\n  jump\t// in\ntag_123:\n    /* \"#utility.yul\":5678:5679   */\n  0x00\n    /* \"#utility.yul\":5702:5706   */\n  0x20\n    /* \"#utility.yul\":5689:5706   */\n  swap1\n  pop\n    /* \"#utility.yul\":5734:5736   */\n  0x1f\n    /* \"#utility.yul\":5726:5732   */\n  dup4\n    /* \"#utility.yul\":5723:5737   */\n  gt\n    /* \"#utility.yul\":5751:5752   */\n  0x01\n    /* \"#utility.yul\":5746:6364   */\n  dup2\n  eq\n  tag_125\n  jumpi\n    /* \"#utility.yul\":6408:6409   */\n  0x00\n    /* \"#utility.yul\":6425:6431   */\n  dup5\n    /* \"#utility.yul\":6422:6499   */\n  iszero\n  tag_126\n  jumpi\n    /* \"#utility.yul\":6474:6483   */\n  dup3\n    /* \"#utility.yul\":6469:6472   */\n  dup8\n    /* \"#utility.yul\":6465:6484   */\n  add\n    /* \"#utility.yul\":6459:6485   */\n  mload\n    /* \"#utility.yul\":6450:6485   */\n  swap1\n  pop\n    /* \"#utility.yul\":6422:6499   */\ntag_126:\n    /* \"#utility.yul\":6525:6592   */\n  tag_127\n    /* \"#utility.yul\":6585:6591   */\n  dup6\n    /* \"#utility.yul\":6578:6583   */\n  dup3\n    /* \"#utility.yul\":6525:6592   */\n  tag_55\n  jump\t// in\ntag_127:\n    /* \"#utility.yul\":6519:6523   */\n  dup7\n    /* \"#utility.yul\":6512:6593   */\n  sstore\n    /* \"#utility.yul\":6381:6603   */\n  pop\n    /* \"#utility.yul\":5716:6603   */\n  jump(tag_124)\n    /* \"#utility.yul\":5746:6364   */\ntag_125:\n    /* \"#utility.yul\":5798:5802   */\n  0x1f\n    /* \"#utility.yul\":5794:5803   */\n  not\n    /* \"#utility.yul\":5786:5792   */\n  dup5\n    /* \"#utility.yul\":5782:5804   */\n  and\n    /* \"#utility.yul\":5832:5869   */\n  tag_128\n    /* \"#utility.yul\":5864:5868   */\n  dup7\n    /* \"#utility.yul\":5832:5869   */\n  tag_40\n  jump\t// in\ntag_128:\n    /* \"#utility.yul\":5891:5892   */\n  0x00\n    /* \"#utility.yul\":5905:6113   */\ntag_129:\n    /* \"#utility.yul\":5919:5926   */\n  dup3\n    /* \"#utility.yul\":5916:5917   */\n  dup2\n    /* \"#utility.yul\":5913:5927   */\n  lt\n    /* \"#utility.yul\":5905:6113   */\n  iszero\n  tag_131\n  jumpi\n    /* \"#utility.yul\":5998:6007   */\n  dup5\n    /* \"#utility.yul\":5993:5996   */\n  dup10\n    /* \"#utility.yul\":5989:6008   */\n  add\n    /* \"#utility.yul\":5983:6009   */\n  mload\n    /* \"#utility.yul\":5975:5981   */\n  dup3\n    /* \"#utility.yul\":5968:6010   */\n  sstore\n    /* \"#utility.yul\":6049:6050   */\n  0x01\n    /* \"#utility.yul\":6041:6047   */\n  dup3\n    /* \"#utility.yul\":6037:6051   */\n  add\n    /* \"#utility.yul\":6027:6051   */\n  swap2\n  pop\n    /* \"#utility.yul\":6096:6098   */\n  0x20\n    /* \"#utility.yul\":6085:6094   */\n  dup6\n    /* \"#utility.yul\":6081:6099   */\n  add\n    /* \"#utility.yul\":6068:6099   */\n  swap5\n  pop\n    /* \"#utility.yul\":5942:5946   */\n  0x20\n    /* \"#utility.yul\":5939:5940   */\n  dup2\n    /* \"#utility.yul\":5935:5947   */\n  add\n    /* \"#utility.yul\":5930:5947   */\n  swap1\n  pop\n    /* \"#utility.yul\":5905:6113   */\n  jump(tag_129)\ntag_131:\n    /* \"#utility.yul\":6141:6147   */\n  dup7\n    /* \"#utility.yul\":6132:6139   */\n  dup4\n    /* \"#utility.yul\":6129:6148   */\n  lt\n    /* \"#utility.yul\":6126:6305   */\n  iszero\n  tag_132\n  jumpi\n    /* \"#utility.yul\":6199:6208   */\n  dup5\n    /* \"#utility.yul\":6194:6197   */\n  dup10\n    /* \"#utility.yul\":6190:6209   */\n  add\n    /* \"#utility.yul\":6184:6210   */\n  mload\n    /* \"#utility.yul\":6242:6290   */\n  tag_133\n    /* \"#utility.yul\":6284:6288   */\n  0x1f\n    /* \"#utility.yul\":6276:6282   */\n  dup10\n    /* \"#utility.yul\":6272:6289   */\n  and\n    /* \"#utility.yul\":6261:6270   */\n  dup3\n    /* \"#utility.yul\":6242:6290   */\n  tag_54\n  jump\t// in\ntag_133:\n    /* \"#utility.yul\":6234:6240   */\n  dup4\n    /* \"#utility.yul\":6227:6291   */\n  sstore\n    /* \"#utility.yul\":6149:6305   */\n  pop\n    /* \"#utility.yul\":6126:6305   */\ntag_132:\n    /* \"#utility.yul\":6351:6352   */\n  0x01\n    /* \"#utility.yul\":6347:6348   */\n  0x02\n    /* \"#utility.yul\":6339:6345   */\n  dup9\n    /* \"#utility.yul\":6335:6349   */\n  mul\n    /* \"#utility.yul\":6331:6353   */\n  add\n    /* \"#utility.yul\":6325:6329   */\n  dup9\n    /* \"#utility.yul\":6318:6354   */\n  sstore\n    /* \"#utility.yul\":5753:6364   */\n  pop\n  pop\n  pop\n    /* \"#utility.yul\":5716:6603   */\ntag_124:\n  pop\n    /* \"#utility.yul\":5306:6609   */\n  pop\n  pop\n  pop\n    /* \"#utility.yul\":5214:6609   */\n  pop\n  pop\n  jump\t// out\n    /* \"contracts/DrinkMachine.sol\":125:2071  contract DrinkMachine {... */\ntag_28:\n  dataSize(sub_0)\n  dup1\n  dataOffset(sub_0)\n  0x00\n  codecopy\n  0x00\n  return\nstop\n\nsub_0: assembly {\n        /* \"contracts/DrinkMachine.sol\":125:2071  contract DrinkMachine {... */\n      mstore(0x40, 0x80)\n      jumpi(tag_1, lt(calldatasize, 0x04))\n      shr(0xe0, calldataload(0x00))\n      dup1\n      0x5b291dba\n      gt\n      tag_9\n      jumpi\n      dup1\n      0x5b291dba\n      eq\n      tag_5\n      jumpi\n      dup1\n      0x62f791c0\n      eq\n      tag_6\n      jumpi\n      dup1\n      0x8da5cb5b\n      eq\n      tag_7\n      jumpi\n      dup1\n      0xc32fdf34\n      eq\n      tag_8\n      jumpi\n      jump(tag_1)\n    tag_9:\n      dup1\n      0x2d153a8c\n      eq\n      tag_2\n      jumpi\n      dup1\n      0x49649fbf\n      eq\n      tag_3\n      jumpi\n      dup1\n      0x521eb273\n      eq\n      tag_4\n      jumpi\n    tag_1:\n      revert(0x00, 0x00)\n        /* \"contracts/DrinkMachine.sol\":931:1073  function addProduct(ProductEnum productEnum, uint quantity) public onlyOwner {... */\n    tag_2:\n      callvalue\n      dup1\n      iszero\n      tag_10\n      jumpi\n      revert(0x00, 0x00)\n    tag_10:\n      pop\n      tag_11\n      0x04\n      dup1\n      calldatasize\n      sub\n      dup2\n      add\n      swap1\n      tag_12\n      swap2\n      swap1\n      tag_13\n      jump\t// in\n    tag_12:\n      tag_14\n      jump\t// in\n    tag_11:\n      stop\n        /* \"contracts/DrinkMachine.sol\":1884:2069  function withdrawAllFunds() public payable onlyOwner {... */\n    tag_3:\n      tag_15\n      tag_16\n      jump\t// in\n    tag_15:\n      stop\n        /* \"contracts/DrinkMachine.sol\":153:186  IDrinkMachineWallet public wallet */\n    tag_4:\n      callvalue\n      dup1\n      iszero\n      tag_17\n      jumpi\n      revert(0x00, 0x00)\n    tag_17:\n      pop\n      tag_18\n      tag_19\n      jump\t// in\n    tag_18:\n      mload(0x40)\n      tag_20\n      swap2\n      swap1\n      tag_21\n      jump\t// in\n    tag_20:\n      mload(0x40)\n      dup1\n      swap2\n      sub\n      swap1\n      return\n        /* \"contracts/DrinkMachine.sol\":1079:1219  function getInfoProduct(ProductEnum productEnum) public view returns (ProductType memory){... */\n    tag_5:\n      callvalue\n      dup1\n      iszero\n      tag_22\n      jumpi\n      revert(0x00, 0x00)\n    tag_22:\n      pop\n      tag_23\n      0x04\n      dup1\n      calldatasize\n      sub\n      dup2\n      add\n      swap1\n      tag_24\n      swap2\n      swap1\n      tag_25\n      jump\t// in\n    tag_24:\n      tag_26\n      jump\t// in\n    tag_23:\n      mload(0x40)\n      tag_27\n      swap2\n      swap1\n      tag_28\n      jump\t// in\n    tag_27:\n      mload(0x40)\n      dup1\n      swap2\n      sub\n      swap1\n      return\n        /* \"contracts/DrinkMachine.sol\":1225:1878  function buy(ProductEnum productEnum, uint qty) public payable {... */\n    tag_6:\n      tag_29\n      0x04\n      dup1\n      calldatasize\n      sub\n      dup2\n      add\n      swap1\n      tag_30\n      swap2\n      swap1\n      tag_13\n      jump\t// in\n    tag_30:\n      tag_31\n      jump\t// in\n    tag_29:\n      stop\n        /* \"contracts/DrinkMachine.sol\":192:212  address public owner */\n    tag_7:\n      callvalue\n      dup1\n      iszero\n      tag_32\n      jumpi\n      revert(0x00, 0x00)\n    tag_32:\n      pop\n      tag_33\n      tag_34\n      jump\t// in\n    tag_33:\n      mload(0x40)\n      tag_35\n      swap2\n      swap1\n      tag_36\n      jump\t// in\n    tag_35:\n      mload(0x40)\n      dup1\n      swap2\n      sub\n      swap1\n      return\n        /* \"contracts/DrinkMachine.sol\":218:262  mapping(address => uint) public transactions */\n    tag_8:\n      callvalue\n      dup1\n      iszero\n      tag_37\n      jumpi\n      revert(0x00, 0x00)\n    tag_37:\n      pop\n      tag_38\n      0x04\n      dup1\n      calldatasize\n      sub\n      dup2\n      add\n      swap1\n      tag_39\n      swap2\n      swap1\n      tag_40\n      jump\t// in\n    tag_39:\n      tag_41\n      jump\t// in\n    tag_38:\n      mload(0x40)\n      tag_42\n      swap2\n      swap1\n      tag_43\n      jump\t// in\n    tag_42:\n      mload(0x40)\n      dup1\n      swap2\n      sub\n      swap1\n      return\n        /* \"contracts/DrinkMachine.sol\":931:1073  function addProduct(ProductEnum productEnum, uint quantity) public onlyOwner {... */\n    tag_14:\n        /* \"contracts/DrinkMachine.sol\":814:819  owner */\n      0x01\n      0x00\n      swap1\n      sload\n      swap1\n      0x0100\n      exp\n      swap1\n      div\n      0xffffffffffffffffffffffffffffffffffffffff\n      and\n        /* \"contracts/DrinkMachine.sol\":800:819  msg.sender == owner */\n      0xffffffffffffffffffffffffffffffffffffffff\n      and\n        /* \"contracts/DrinkMachine.sol\":800:810  msg.sender */\n      caller\n        /* \"contracts/DrinkMachine.sol\":800:819  msg.sender == owner */\n      0xffffffffffffffffffffffffffffffffffffffff\n      and\n      eq\n        /* \"contracts/DrinkMachine.sol\":792:858  require(msg.sender == owner, \"Only owner can call this resource.\") */\n      tag_45\n      jumpi\n      mload(0x40)\n      0x08c379a000000000000000000000000000000000000000000000000000000000\n      dup2\n      mstore\n      0x04\n      add\n      tag_46\n      swap1\n      tag_47\n      jump\t// in\n    tag_46:\n      mload(0x40)\n      dup1\n      swap2\n      sub\n      swap1\n      revert\n    tag_45:\n        /* \"contracts/DrinkMachine.sol\":1058:1066  quantity */\n      dup1\n        /* \"contracts/DrinkMachine.sol\":1018:1026  products */\n      0x03\n        /* \"contracts/DrinkMachine.sol\":1032:1043  productEnum */\n      dup4\n        /* \"contracts/DrinkMachine.sol\":1027:1044  uint(productEnum) */\n      0x04\n      dup2\n      gt\n      iszero\n      tag_49\n      jumpi\n      tag_50\n      tag_51\n      jump\t// in\n    tag_50:\n    tag_49:\n        /* \"contracts/DrinkMachine.sol\":1018:1045  products[uint(productEnum)] */\n      0x05\n      dup2\n      lt\n      tag_52\n      jumpi\n      tag_53\n      tag_54\n      jump\t// in\n    tag_53:\n    tag_52:\n      0x03\n      mul\n      add\n        /* \"contracts/DrinkMachine.sol\":1018:1054  products[uint(productEnum)].quantity */\n      0x02\n      add\n      0x00\n        /* \"contracts/DrinkMachine.sol\":1018:1066  products[uint(productEnum)].quantity += quantity */\n      dup3\n      dup3\n      sload\n      tag_56\n      swap2\n      swap1\n      tag_57\n      jump\t// in\n    tag_56:\n      swap3\n      pop\n      pop\n      dup2\n      swap1\n      sstore\n      pop\n        /* \"contracts/DrinkMachine.sol\":931:1073  function addProduct(ProductEnum productEnum, uint quantity) public onlyOwner {... */\n      pop\n      pop\n      jump\t// out\n        /* \"contracts/DrinkMachine.sol\":1884:2069  function withdrawAllFunds() public payable onlyOwner {... */\n    tag_16:\n        /* \"contracts/DrinkMachine.sol\":814:819  owner */\n      0x01\n      0x00\n      swap1\n      sload\n      swap1\n      0x0100\n      exp\n      swap1\n      div\n      0xffffffffffffffffffffffffffffffffffffffff\n      and\n        /* \"contracts/DrinkMachine.sol\":800:819  msg.sender == owner */\n      0xffffffffffffffffffffffffffffffffffffffff\n      and\n        /* \"contracts/DrinkMachine.sol\":800:810  msg.sender */\n      caller\n        /* \"contracts/DrinkMachine.sol\":800:819  msg.sender == owner */\n      0xffffffffffffffffffffffffffffffffffffffff\n      and\n      eq\n        /* \"contracts/DrinkMachine.sol\":792:858  require(msg.sender == owner, \"Only owner can call this resource.\") */\n      tag_59\n      jumpi\n      mload(0x40)\n      0x08c379a000000000000000000000000000000000000000000000000000000000\n      dup2\n      mstore\n      0x04\n      add\n      tag_60\n      swap1\n      tag_47\n      jump\t// in\n    tag_60:\n      mload(0x40)\n      dup1\n      swap2\n      sub\n      swap1\n      revert\n    tag_59:\n        /* \"contracts/DrinkMachine.sol\":1979:1980  0 */\n      0x00\n        /* \"contracts/DrinkMachine.sol\":1955:1976  address(this).balance */\n      selfbalance\n        /* \"contracts/DrinkMachine.sol\":1955:1980  address(this).balance > 0 */\n      gt\n        /* \"contracts/DrinkMachine.sol\":1947:2006  require(address(this).balance > 0, \"No funds to withdraw.\") */\n      tag_62\n      jumpi\n      mload(0x40)\n      0x08c379a000000000000000000000000000000000000000000000000000000000\n      dup2\n      mstore\n      0x04\n      add\n      tag_63\n      swap1\n      tag_64\n      jump\t// in\n    tag_63:\n      mload(0x40)\n      dup1\n      swap2\n      sub\n      swap1\n      revert\n    tag_62:\n        /* \"contracts/DrinkMachine.sol\":2024:2029  owner */\n      0x01\n      0x00\n      swap1\n      sload\n      swap1\n      0x0100\n      exp\n      swap1\n      div\n      0xffffffffffffffffffffffffffffffffffffffff\n      and\n        /* \"contracts/DrinkMachine.sol\":2016:2039  payable(owner).transfer */\n      0xffffffffffffffffffffffffffffffffffffffff\n      and\n        /* \"contracts/DrinkMachine.sol\":2016:2062  payable(owner).transfer(address(this).balance) */\n      0x08fc\n        /* \"contracts/DrinkMachine.sol\":2040:2061  address(this).balance */\n      selfbalance\n        /* \"contracts/DrinkMachine.sol\":2016:2062  payable(owner).transfer(address(this).balance) */\n      swap1\n      dup2\n      iszero\n      mul\n      swap1\n      mload(0x40)\n      0x00\n      mload(0x40)\n      dup1\n      dup4\n      sub\n      dup2\n      dup6\n      dup9\n      dup9\n      call\n      swap4\n      pop\n      pop\n      pop\n      pop\n      iszero\n      dup1\n      iszero\n      tag_66\n      jumpi\n      returndatacopy(0x00, 0x00, returndatasize)\n      revert(0x00, returndatasize)\n    tag_66:\n      pop\n        /* \"contracts/DrinkMachine.sol\":1884:2069  function withdrawAllFunds() public payable onlyOwner {... */\n      jump\t// out\n        /* \"contracts/DrinkMachine.sol\":153:186  IDrinkMachineWallet public wallet */\n    tag_19:\n      0x00\n      0x00\n      swap1\n      sload\n      swap1\n      0x0100\n      exp\n      swap1\n      div\n      0xffffffffffffffffffffffffffffffffffffffff\n      and\n      dup2\n      jump\t// out\n        /* \"contracts/DrinkMachine.sol\":1079:1219  function getInfoProduct(ProductEnum productEnum) public view returns (ProductType memory){... */\n    tag_26:\n        /* \"contracts/DrinkMachine.sol\":1149:1167  ProductType memory */\n      tag_67\n      tag_68\n      jump\t// in\n    tag_67:\n        /* \"contracts/DrinkMachine.sol\":1185:1193  products */\n      0x03\n        /* \"contracts/DrinkMachine.sol\":1199:1210  productEnum */\n      dup3\n        /* \"contracts/DrinkMachine.sol\":1194:1211  uint(productEnum) */\n      0x04\n      dup2\n      gt\n      iszero\n      tag_70\n      jumpi\n      tag_71\n      tag_51\n      jump\t// in\n    tag_71:\n    tag_70:\n        /* \"contracts/DrinkMachine.sol\":1185:1212  products[uint(productEnum)] */\n      0x05\n      dup2\n      lt\n      tag_72\n      jumpi\n      tag_73\n      tag_54\n      jump\t// in\n    tag_73:\n    tag_72:\n      0x03\n      mul\n      add\n        /* \"contracts/DrinkMachine.sol\":1178:1212  return products[uint(productEnum)] */\n      mload(0x40)\n      dup1\n      0x60\n      add\n      0x40\n      mstore\n      swap1\n      dup2\n      0x00\n      dup3\n      add\n      dup1\n      sload\n      tag_75\n      swap1\n      tag_76\n      jump\t// in\n    tag_75:\n      dup1\n      0x1f\n      add\n      0x20\n      dup1\n      swap2\n      div\n      mul\n      0x20\n      add\n      mload(0x40)\n      swap1\n      dup2\n      add\n      0x40\n      mstore\n      dup1\n      swap3\n      swap2\n      swap1\n      dup2\n      dup2\n      mstore\n      0x20\n      add\n      dup3\n      dup1\n      sload\n      tag_77\n      swap1\n      tag_76\n      jump\t// in\n    tag_77:\n      dup1\n      iszero\n      tag_78\n      jumpi\n      dup1\n      0x1f\n      lt\n      tag_79\n      jumpi\n      0x0100\n      dup1\n      dup4\n      sload\n      div\n      mul\n      dup4\n      mstore\n      swap2\n      0x20\n      add\n      swap2\n      jump(tag_78)\n    tag_79:\n      dup3\n      add\n      swap2\n      swap1\n      0x00\n      mstore\n      keccak256(0x00, 0x20)\n      swap1\n    tag_80:\n      dup2\n      sload\n      dup2\n      mstore\n      swap1\n      0x01\n      add\n      swap1\n      0x20\n      add\n      dup1\n      dup4\n      gt\n      tag_80\n      jumpi\n      dup3\n      swap1\n      sub\n      0x1f\n      and\n      dup3\n      add\n      swap2\n    tag_78:\n      pop\n      pop\n      pop\n      pop\n      pop\n      dup2\n      mstore\n      0x20\n      add\n      0x01\n      dup3\n      add\n      sload\n      dup2\n      mstore\n      0x20\n      add\n      0x02\n      dup3\n      add\n      sload\n      dup2\n      mstore\n      pop\n      pop\n      swap1\n      pop\n        /* \"contracts/DrinkMachine.sol\":1079:1219  function getInfoProduct(ProductEnum productEnum) public view returns (ProductType memory){... */\n      swap2\n      swap1\n      pop\n      jump\t// out\n        /* \"contracts/DrinkMachine.sol\":1225:1878  function buy(ProductEnum productEnum, uint qty) public payable {... */\n    tag_31:\n        /* \"contracts/DrinkMachine.sol\":1298:1308  uint index */\n      0x00\n        /* \"contracts/DrinkMachine.sol\":1316:1327  productEnum */\n      dup3\n        /* \"contracts/DrinkMachine.sol\":1311:1328  uint(productEnum) */\n      0x04\n      dup2\n      gt\n      iszero\n      tag_82\n      jumpi\n      tag_83\n      tag_51\n      jump\t// in\n    tag_83:\n    tag_82:\n        /* \"contracts/DrinkMachine.sol\":1298:1328  uint index = uint(productEnum) */\n      swap1\n      pop\n        /* \"contracts/DrinkMachine.sol\":1338:1348  uint total */\n      0x00\n        /* \"contracts/DrinkMachine.sol\":1387:1390  qty */\n      dup3\n        /* \"contracts/DrinkMachine.sol\":1351:1359  products */\n      0x03\n        /* \"contracts/DrinkMachine.sol\":1365:1376  productEnum */\n      dup6\n        /* \"contracts/DrinkMachine.sol\":1360:1377  uint(productEnum) */\n      0x04\n      dup2\n      gt\n      iszero\n      tag_84\n      jumpi\n      tag_85\n      tag_51\n      jump\t// in\n    tag_85:\n    tag_84:\n        /* \"contracts/DrinkMachine.sol\":1351:1378  products[uint(productEnum)] */\n      0x05\n      dup2\n      lt\n      tag_86\n      jumpi\n      tag_87\n      tag_54\n      jump\t// in\n    tag_87:\n    tag_86:\n      0x03\n      mul\n      add\n        /* \"contracts/DrinkMachine.sol\":1351:1384  products[uint(productEnum)].price */\n      0x01\n      add\n      sload\n        /* \"contracts/DrinkMachine.sol\":1351:1390  products[uint(productEnum)].price * qty */\n      tag_89\n      swap2\n      swap1\n      tag_90\n      jump\t// in\n    tag_89:\n        /* \"contracts/DrinkMachine.sol\":1338:1390  uint total = products[uint(productEnum)].price * qty */\n      swap1\n      pop\n        /* \"contracts/DrinkMachine.sol\":1417:1418  0 */\n      0x00\n        /* \"contracts/DrinkMachine.sol\":1408:1413  index */\n      dup3\n        /* \"contracts/DrinkMachine.sol\":1408:1418  index >= 0 */\n      lt\n      iszero\n        /* \"contracts/DrinkMachine.sol\":1408:1445  index >= 0 || index < products.length */\n      dup1\n      tag_91\n      jumpi\n      pop\n        /* \"contracts/DrinkMachine.sol\":1430:1445  products.length */\n      0x05\n        /* \"contracts/DrinkMachine.sol\":1422:1427  index */\n      dup3\n        /* \"contracts/DrinkMachine.sol\":1422:1445  index < products.length */\n      lt\n        /* \"contracts/DrinkMachine.sol\":1408:1445  index >= 0 || index < products.length */\n    tag_91:\n        /* \"contracts/DrinkMachine.sol\":1400:1470  require(index >= 0 || index < products.length, \"Invalid product enum\") */\n      tag_92\n      jumpi\n      mload(0x40)\n      0x08c379a000000000000000000000000000000000000000000000000000000000\n      dup2\n      mstore\n      0x04\n      add\n      tag_93\n      swap1\n      tag_94\n      jump\t// in\n    tag_93:\n      mload(0x40)\n      dup1\n      swap2\n      sub\n      swap1\n      revert\n    tag_92:\n        /* \"contracts/DrinkMachine.sol\":1565:1568  qty */\n      dup3\n        /* \"contracts/DrinkMachine.sol\":1537:1545  products */\n      0x03\n        /* \"contracts/DrinkMachine.sol\":1546:1551  index */\n      dup4\n        /* \"contracts/DrinkMachine.sol\":1537:1552  products[index] */\n      0x05\n      dup2\n      lt\n      tag_95\n      jumpi\n      tag_96\n      tag_54\n      jump\t// in\n    tag_96:\n    tag_95:\n      0x03\n      mul\n      add\n        /* \"contracts/DrinkMachine.sol\":1537:1561  products[index].quantity */\n      0x02\n      add\n      sload\n        /* \"contracts/DrinkMachine.sol\":1537:1568  products[index].quantity >= qty */\n      lt\n      iszero\n        /* \"contracts/DrinkMachine.sol\":1529:1592  require(products[index].quantity >= qty, \"Product not enough.\") */\n      tag_98\n      jumpi\n      mload(0x40)\n      0x08c379a000000000000000000000000000000000000000000000000000000000\n      dup2\n      mstore\n      0x04\n      add\n      tag_99\n      swap1\n      tag_100\n      jump\t// in\n    tag_99:\n      mload(0x40)\n      dup1\n      swap2\n      sub\n      swap1\n      revert\n    tag_98:\n        /* \"contracts/DrinkMachine.sol\":1683:1688  total */\n      dup1\n        /* \"contracts/DrinkMachine.sol\":1670:1679  msg.value */\n      callvalue\n        /* \"contracts/DrinkMachine.sol\":1670:1688  msg.value >= total */\n      lt\n      iszero\n        /* \"contracts/DrinkMachine.sol\":1662:1709  require(msg.value >= total, \"Not enough ether\") */\n      tag_101\n      jumpi\n      mload(0x40)\n      0x08c379a000000000000000000000000000000000000000000000000000000000\n      dup2\n      mstore\n      0x04\n      add\n      tag_102\n      swap1\n      tag_103\n      jump\t// in\n    tag_102:\n      mload(0x40)\n      dup1\n      swap2\n      sub\n      swap1\n      revert\n    tag_101:\n        /* \"contracts/DrinkMachine.sol\":1748:1751  qty */\n      dup3\n        /* \"contracts/DrinkMachine.sol\":1720:1728  products */\n      0x03\n        /* \"contracts/DrinkMachine.sol\":1729:1734  index */\n      dup4\n        /* \"contracts/DrinkMachine.sol\":1720:1735  products[index] */\n      0x05\n      dup2\n      lt\n      tag_104\n      jumpi\n      tag_105\n      tag_54\n      jump\t// in\n    tag_105:\n    tag_104:\n      0x03\n      mul\n      add\n        /* \"contracts/DrinkMachine.sol\":1720:1744  products[index].quantity */\n      0x02\n      add\n      0x00\n        /* \"contracts/DrinkMachine.sol\":1720:1751  products[index].quantity -= qty */\n      dup3\n      dup3\n      sload\n      tag_107\n      swap2\n      swap1\n      tag_108\n      jump\t// in\n    tag_107:\n      swap3\n      pop\n      pop\n      dup2\n      swap1\n      sstore\n      pop\n        /* \"contracts/DrinkMachine.sol\":1789:1798  msg.value */\n      callvalue\n        /* \"contracts/DrinkMachine.sol\":1761:1773  transactions */\n      0x02\n        /* \"contracts/DrinkMachine.sol\":1761:1785  transactions[msg.sender] */\n      0x00\n        /* \"contracts/DrinkMachine.sol\":1774:1784  msg.sender */\n      caller\n        /* \"contracts/DrinkMachine.sol\":1761:1785  transactions[msg.sender] */\n      0xffffffffffffffffffffffffffffffffffffffff\n      and\n      0xffffffffffffffffffffffffffffffffffffffff\n      and\n      dup2\n      mstore\n      0x20\n      add\n      swap1\n      dup2\n      mstore\n      0x20\n      add\n      0x00\n      keccak256\n      0x00\n        /* \"contracts/DrinkMachine.sol\":1761:1798  transactions[msg.sender] += msg.value */\n      dup3\n      dup3\n      sload\n      tag_109\n      swap2\n      swap1\n      tag_57\n      jump\t// in\n    tag_109:\n      swap3\n      pop\n      pop\n      dup2\n      swap1\n      sstore\n      pop\n        /* \"contracts/DrinkMachine.sol\":1849:1854  owner */\n      0x01\n      0x00\n      swap1\n      sload\n      swap1\n      0x0100\n      exp\n      swap1\n      div\n      0xffffffffffffffffffffffffffffffffffffffff\n      and\n        /* \"contracts/DrinkMachine.sol\":1841:1864  payable(owner).transfer */\n      0xffffffffffffffffffffffffffffffffffffffff\n      and\n        /* \"contracts/DrinkMachine.sol\":1841:1871  payable(owner).transfer(total) */\n      0x08fc\n        /* \"contracts/DrinkMachine.sol\":1865:1870  total */\n      dup3\n        /* \"contracts/DrinkMachine.sol\":1841:1871  payable(owner).transfer(total) */\n      swap1\n      dup2\n      iszero\n      mul\n      swap1\n      mload(0x40)\n      0x00\n      mload(0x40)\n      dup1\n      dup4\n      sub\n      dup2\n      dup6\n      dup9\n      dup9\n      call\n      swap4\n      pop\n      pop\n      pop\n      pop\n      iszero\n      dup1\n      iszero\n      tag_111\n      jumpi\n      returndatacopy(0x00, 0x00, returndatasize)\n      revert(0x00, returndatasize)\n    tag_111:\n      pop\n        /* \"contracts/DrinkMachine.sol\":1288:1878  {... */\n      pop\n      pop\n        /* \"contracts/DrinkMachine.sol\":1225:1878  function buy(ProductEnum productEnum, uint qty) public payable {... */\n      pop\n      pop\n      jump\t// out\n        /* \"contracts/DrinkMachine.sol\":192:212  address public owner */\n    tag_34:\n      0x01\n      0x00\n      swap1\n      sload\n      swap1\n      0x0100\n      exp\n      swap1\n      div\n      0xffffffffffffffffffffffffffffffffffffffff\n      and\n      dup2\n      jump\t// out\n        /* \"contracts/DrinkMachine.sol\":218:262  mapping(address => uint) public transactions */\n    tag_41:\n      mstore(0x20, 0x02)\n      dup1\n      0x00\n      mstore\n      keccak256(0x00, 0x40)\n      0x00\n      swap2\n      pop\n      swap1\n      pop\n      sload\n      dup2\n      jump\t// out\n    tag_68:\n      mload(0x40)\n      dup1\n      0x60\n      add\n      0x40\n      mstore\n      dup1\n      0x60\n      dup2\n      mstore\n      0x20\n      add\n      0x00\n      dup2\n      mstore\n      0x20\n      add\n      0x00\n      dup2\n      mstore\n      pop\n      swap1\n      jump\t// out\n        /* \"#utility.yul\":88:205   */\n    tag_113:\n        /* \"#utility.yul\":197:198   */\n      0x00\n        /* \"#utility.yul\":194:195   */\n      0x00\n        /* \"#utility.yul\":187:199   */\n      revert\n        /* \"#utility.yul\":334:447   */\n    tag_115:\n        /* \"#utility.yul\":421:422   */\n      0x05\n        /* \"#utility.yul\":414:419   */\n      dup2\n        /* \"#utility.yul\":411:423   */\n      lt\n        /* \"#utility.yul\":401:441   */\n      tag_156\n      jumpi\n        /* \"#utility.yul\":437:438   */\n      0x00\n        /* \"#utility.yul\":434:435   */\n      0x00\n        /* \"#utility.yul\":427:439   */\n      revert\n        /* \"#utility.yul\":401:441   */\n    tag_156:\n        /* \"#utility.yul\":334:447   */\n      pop\n      jump\t// out\n        /* \"#utility.yul\":453:620   */\n    tag_116:\n        /* \"#utility.yul\":513:518   */\n      0x00\n        /* \"#utility.yul\":551:557   */\n      dup2\n        /* \"#utility.yul\":538:558   */\n      calldataload\n        /* \"#utility.yul\":529:558   */\n      swap1\n      pop\n        /* \"#utility.yul\":567:614   */\n      tag_158\n        /* \"#utility.yul\":608:613   */\n      dup2\n        /* \"#utility.yul\":567:614   */\n      tag_115\n      jump\t// in\n    tag_158:\n        /* \"#utility.yul\":453:620   */\n      swap3\n      swap2\n      pop\n      pop\n      jump\t// out\n        /* \"#utility.yul\":626:703   */\n    tag_117:\n        /* \"#utility.yul\":663:670   */\n      0x00\n        /* \"#utility.yul\":692:697   */\n      dup2\n        /* \"#utility.yul\":681:697   */\n      swap1\n      pop\n        /* \"#utility.yul\":626:703   */\n      swap2\n      swap1\n      pop\n      jump\t// out\n        /* \"#utility.yul\":709:831   */\n    tag_118:\n        /* \"#utility.yul\":782:806   */\n      tag_161\n        /* \"#utility.yul\":800:805   */\n      dup2\n        /* \"#utility.yul\":782:806   */\n      tag_117\n      jump\t// in\n    tag_161:\n        /* \"#utility.yul\":775:780   */\n      dup2\n        /* \"#utility.yul\":772:807   */\n      eq\n        /* \"#utility.yul\":762:825   */\n      tag_162\n      jumpi\n        /* \"#utility.yul\":821:822   */\n      0x00\n        /* \"#utility.yul\":818:819   */\n      0x00\n        /* \"#utility.yul\":811:823   */\n      revert\n        /* \"#utility.yul\":762:825   */\n    tag_162:\n        /* \"#utility.yul\":709:831   */\n      pop\n      jump\t// out\n        /* \"#utility.yul\":837:976   */\n    tag_119:\n        /* \"#utility.yul\":883:888   */\n      0x00\n        /* \"#utility.yul\":921:927   */\n      dup2\n        /* \"#utility.yul\":908:928   */\n      calldataload\n        /* \"#utility.yul\":899:928   */\n      swap1\n      pop\n        /* \"#utility.yul\":937:970   */\n      tag_164\n        /* \"#utility.yul\":964:969   */\n      dup2\n        /* \"#utility.yul\":937:970   */\n      tag_118\n      jump\t// in\n    tag_164:\n        /* \"#utility.yul\":837:976   */\n      swap3\n      swap2\n      pop\n      pop\n      jump\t// out\n        /* \"#utility.yul\":982:1484   */\n    tag_13:\n        /* \"#utility.yul\":1064:1070   */\n      0x00\n        /* \"#utility.yul\":1072:1078   */\n      0x00\n        /* \"#utility.yul\":1121:1123   */\n      0x40\n        /* \"#utility.yul\":1109:1118   */\n      dup4\n        /* \"#utility.yul\":1100:1107   */\n      dup6\n        /* \"#utility.yul\":1096:1119   */\n      sub\n        /* \"#utility.yul\":1092:1124   */\n      slt\n        /* \"#utility.yul\":1089:1208   */\n      iszero\n      tag_166\n      jumpi\n        /* \"#utility.yul\":1127:1206   */\n      tag_167\n      tag_113\n      jump\t// in\n    tag_167:\n        /* \"#utility.yul\":1089:1208   */\n    tag_166:\n        /* \"#utility.yul\":1247:1248   */\n      0x00\n        /* \"#utility.yul\":1272:1339   */\n      tag_168\n        /* \"#utility.yul\":1331:1338   */\n      dup6\n        /* \"#utility.yul\":1322:1328   */\n      dup3\n        /* \"#utility.yul\":1311:1320   */\n      dup7\n        /* \"#utility.yul\":1307:1329   */\n      add\n        /* \"#utility.yul\":1272:1339   */\n      tag_116\n      jump\t// in\n    tag_168:\n        /* \"#utility.yul\":1262:1339   */\n      swap3\n      pop\n        /* \"#utility.yul\":1218:1349   */\n      pop\n        /* \"#utility.yul\":1388:1390   */\n      0x20\n        /* \"#utility.yul\":1414:1467   */\n      tag_169\n        /* \"#utility.yul\":1459:1466   */\n      dup6\n        /* \"#utility.yul\":1450:1456   */\n      dup3\n        /* \"#utility.yul\":1439:1448   */\n      dup7\n        /* \"#utility.yul\":1435:1457   */\n      add\n        /* \"#utility.yul\":1414:1467   */\n      tag_119\n      jump\t// in\n    tag_169:\n        /* \"#utility.yul\":1404:1467   */\n      swap2\n      pop\n        /* \"#utility.yul\":1359:1477   */\n      pop\n        /* \"#utility.yul\":982:1484   */\n      swap3\n      pop\n      swap3\n      swap1\n      pop\n      jump\t// out\n        /* \"#utility.yul\":1490:1616   */\n    tag_120:\n        /* \"#utility.yul\":1527:1534   */\n      0x00\n        /* \"#utility.yul\":1567:1609   */\n      0xffffffffffffffffffffffffffffffffffffffff\n        /* \"#utility.yul\":1560:1565   */\n      dup3\n        /* \"#utility.yul\":1556:1610   */\n      and\n        /* \"#utility.yul\":1545:1610   */\n      swap1\n      pop\n        /* \"#utility.yul\":1490:1616   */\n      swap2\n      swap1\n      pop\n      jump\t// out\n        /* \"#utility.yul\":1622:1682   */\n    tag_121:\n        /* \"#utility.yul\":1650:1653   */\n      0x00\n        /* \"#utility.yul\":1671:1676   */\n      dup2\n        /* \"#utility.yul\":1664:1676   */\n      swap1\n      pop\n        /* \"#utility.yul\":1622:1682   */\n      swap2\n      swap1\n      pop\n      jump\t// out\n        /* \"#utility.yul\":1688:1830   */\n    tag_122:\n        /* \"#utility.yul\":1738:1747   */\n      0x00\n        /* \"#utility.yul\":1771:1824   */\n      tag_173\n        /* \"#utility.yul\":1789:1823   */\n      tag_174\n        /* \"#utility.yul\":1798:1822   */\n      tag_175\n        /* \"#utility.yul\":1816:1821   */\n      dup5\n        /* \"#utility.yul\":1798:1822   */\n      tag_120\n      jump\t// in\n    tag_175:\n        /* \"#utility.yul\":1789:1823   */\n      tag_121\n      jump\t// in\n    tag_174:\n        /* \"#utility.yul\":1771:1824   */\n      tag_120\n      jump\t// in\n    tag_173:\n        /* \"#utility.yul\":1758:1824   */\n      swap1\n      pop\n        /* \"#utility.yul\":1688:1830   */\n      swap2\n      swap1\n      pop\n      jump\t// out\n        /* \"#utility.yul\":1836:1962   */\n    tag_123:\n        /* \"#utility.yul\":1886:1895   */\n      0x00\n        /* \"#utility.yul\":1919:1956   */\n      tag_177\n        /* \"#utility.yul\":1950:1955   */\n      dup3\n        /* \"#utility.yul\":1919:1956   */\n      tag_122\n      jump\t// in\n    tag_177:\n        /* \"#utility.yul\":1906:1956   */\n      swap1\n      pop\n        /* \"#utility.yul\":1836:1962   */\n      swap2\n      swap1\n      pop\n      jump\t// out\n        /* \"#utility.yul\":1968:2121   */\n    tag_124:\n        /* \"#utility.yul\":2045:2054   */\n      0x00\n        /* \"#utility.yul\":2078:2115   */\n      tag_179\n        /* \"#utility.yul\":2109:2114   */\n      dup3\n        /* \"#utility.yul\":2078:2115   */\n      tag_123\n      jump\t// in\n    tag_179:\n        /* \"#utility.yul\":2065:2115   */\n      swap1\n      pop\n        /* \"#utility.yul\":1968:2121   */\n      swap2\n      swap1\n      pop\n      jump\t// out\n        /* \"#utility.yul\":2127:2312   */\n    tag_125:\n        /* \"#utility.yul\":2241:2305   */\n      tag_181\n        /* \"#utility.yul\":2299:2304   */\n      dup2\n        /* \"#utility.yul\":2241:2305   */\n      tag_124\n      jump\t// in\n    tag_181:\n        /* \"#utility.yul\":2236:2239   */\n      dup3\n        /* \"#utility.yul\":2229:2306   */\n      mstore\n        /* \"#utility.yul\":2127:2312   */\n      pop\n      pop\n      jump\t// out\n        /* \"#utility.yul\":2318:2594   */\n    tag_21:\n        /* \"#utility.yul\":2438:2442   */\n      0x00\n        /* \"#utility.yul\":2476:2478   */\n      0x20\n        /* \"#utility.yul\":2465:2474   */\n      dup3\n        /* \"#utility.yul\":2461:2479   */\n      add\n        /* \"#utility.yul\":2453:2479   */\n      swap1\n      pop\n        /* \"#utility.yul\":2489:2587   */\n      tag_183\n        /* \"#utility.yul\":2584:2585   */\n      0x00\n        /* \"#utility.yul\":2573:2582   */\n      dup4\n        /* \"#utility.yul\":2569:2586   */\n      add\n        /* \"#utility.yul\":2560:2566   */\n      dup5\n        /* \"#utility.yul\":2489:2587   */\n      tag_125\n      jump\t// in\n    tag_183:\n        /* \"#utility.yul\":2318:2594   */\n      swap3\n      swap2\n      pop\n      pop\n      jump\t// out\n        /* \"#utility.yul\":2600:2957   */\n    tag_25:\n        /* \"#utility.yul\":2673:2679   */\n      0x00\n        /* \"#utility.yul\":2722:2724   */\n      0x20\n        /* \"#utility.yul\":2710:2719   */\n      dup3\n        /* \"#utility.yul\":2701:2708   */\n      dup5\n        /* \"#utility.yul\":2697:2720   */\n      sub\n        /* \"#utility.yul\":2693:2725   */\n      slt\n        /* \"#utility.yul\":2690:2809   */\n      iszero\n      tag_185\n      jumpi\n        /* \"#utility.yul\":2728:2807   */\n      tag_186\n      tag_113\n      jump\t// in\n    tag_186:\n        /* \"#utility.yul\":2690:2809   */\n    tag_185:\n        /* \"#utility.yul\":2848:2849   */\n      0x00\n        /* \"#utility.yul\":2873:2940   */\n      tag_187\n        /* \"#utility.yul\":2932:2939   */\n      dup5\n        /* \"#utility.yul\":2923:2929   */\n      dup3\n        /* \"#utility.yul\":2912:2921   */\n      dup6\n        /* \"#utility.yul\":2908:2930   */\n      add\n        /* \"#utility.yul\":2873:2940   */\n      tag_116\n      jump\t// in\n    tag_187:\n        /* \"#utility.yul\":2863:2940   */\n      swap2\n      pop\n        /* \"#utility.yul\":2819:2950   */\n      pop\n        /* \"#utility.yul\":2600:2957   */\n      swap3\n      swap2\n      pop\n      pop\n      jump\t// out\n        /* \"#utility.yul\":2963:3062   */\n    tag_126:\n        /* \"#utility.yul\":3015:3021   */\n      0x00\n        /* \"#utility.yul\":3049:3054   */\n      dup2\n        /* \"#utility.yul\":3043:3055   */\n      mload\n        /* \"#utility.yul\":3033:3055   */\n      swap1\n      pop\n        /* \"#utility.yul\":2963:3062   */\n      swap2\n      swap1\n      pop\n      jump\t// out\n        /* \"#utility.yul\":3068:3227   */\n    tag_127:\n        /* \"#utility.yul\":3142:3153   */\n      0x00\n        /* \"#utility.yul\":3176:3182   */\n      dup3\n        /* \"#utility.yul\":3171:3174   */\n      dup3\n        /* \"#utility.yul\":3164:3183   */\n      mstore\n        /* \"#utility.yul\":3216:3220   */\n      0x20\n        /* \"#utility.yul\":3211:3214   */\n      dup3\n        /* \"#utility.yul\":3207:3221   */\n      add\n        /* \"#utility.yul\":3192:3221   */\n      swap1\n      pop\n        /* \"#utility.yul\":3068:3227   */\n      swap3\n      swap2\n      pop\n      pop\n      jump\t// out\n        /* \"#utility.yul\":3233:3372   */\n    tag_128:\n        /* \"#utility.yul\":3322:3328   */\n      dup3\n        /* \"#utility.yul\":3317:3320   */\n      dup2\n        /* \"#utility.yul\":3312:3315   */\n      dup4\n        /* \"#utility.yul\":3306:3329   */\n      mcopy\n        /* \"#utility.yul\":3363:3364   */\n      0x00\n        /* \"#utility.yul\":3354:3360   */\n      dup4\n        /* \"#utility.yul\":3349:3352   */\n      dup4\n        /* \"#utility.yul\":3345:3361   */\n      add\n        /* \"#utility.yul\":3338:3365   */\n      mstore\n        /* \"#utility.yul\":3233:3372   */\n      pop\n      pop\n      pop\n      jump\t// out\n        /* \"#utility.yul\":3378:3480   */\n    tag_129:\n        /* \"#utility.yul\":3419:3425   */\n      0x00\n        /* \"#utility.yul\":3470:3472   */\n      0x1f\n        /* \"#utility.yul\":3466:3473   */\n      not\n        /* \"#utility.yul\":3461:3463   */\n      0x1f\n        /* \"#utility.yul\":3454:3459   */\n      dup4\n        /* \"#utility.yul\":3450:3464   */\n      add\n        /* \"#utility.yul\":3446:3474   */\n      and\n        /* \"#utility.yul\":3436:3474   */\n      swap1\n      pop\n        /* \"#utility.yul\":3378:3480   */\n      swap2\n      swap1\n      pop\n      jump\t// out\n        /* \"#utility.yul\":3486:3843   */\n    tag_130:\n        /* \"#utility.yul\":3564:3567   */\n      0x00\n        /* \"#utility.yul\":3592:3631   */\n      tag_193\n        /* \"#utility.yul\":3625:3630   */\n      dup3\n        /* \"#utility.yul\":3592:3631   */\n      tag_126\n      jump\t// in\n    tag_193:\n        /* \"#utility.yul\":3647:3708   */\n      tag_194\n        /* \"#utility.yul\":3701:3707   */\n      dup2\n        /* \"#utility.yul\":3696:3699   */\n      dup6\n        /* \"#utility.yul\":3647:3708   */\n      tag_127\n      jump\t// in\n    tag_194:\n        /* \"#utility.yul\":3640:3708   */\n      swap4\n      pop\n        /* \"#utility.yul\":3717:3782   */\n      tag_195\n        /* \"#utility.yul\":3775:3781   */\n      dup2\n        /* \"#utility.yul\":3770:3773   */\n      dup6\n        /* \"#utility.yul\":3763:3767   */\n      0x20\n        /* \"#utility.yul\":3756:3761   */\n      dup7\n        /* \"#utility.yul\":3752:3768   */\n      add\n        /* \"#utility.yul\":3717:3782   */\n      tag_128\n      jump\t// in\n    tag_195:\n        /* \"#utility.yul\":3807:3836   */\n      tag_196\n        /* \"#utility.yul\":3829:3835   */\n      dup2\n        /* \"#utility.yul\":3807:3836   */\n      tag_129\n      jump\t// in\n    tag_196:\n        /* \"#utility.yul\":3802:3805   */\n      dup5\n        /* \"#utility.yul\":3798:3837   */\n      add\n        /* \"#utility.yul\":3791:3837   */\n      swap2\n      pop\n        /* \"#utility.yul\":3568:3843   */\n      pop\n        /* \"#utility.yul\":3486:3843   */\n      swap3\n      swap2\n      pop\n      pop\n      jump\t// out\n        /* \"#utility.yul\":3849:3957   */\n    tag_131:\n        /* \"#utility.yul\":3926:3950   */\n      tag_198\n        /* \"#utility.yul\":3944:3949   */\n      dup2\n        /* \"#utility.yul\":3926:3950   */\n      tag_117\n      jump\t// in\n    tag_198:\n        /* \"#utility.yul\":3921:3924   */\n      dup3\n        /* \"#utility.yul\":3914:3951   */\n      mstore\n        /* \"#utility.yul\":3849:3957   */\n      pop\n      pop\n      jump\t// out\n        /* \"#utility.yul\":4011:4802   */\n    tag_132:\n        /* \"#utility.yul\":4136:4139   */\n      0x00\n        /* \"#utility.yul\":4172:4176   */\n      0x60\n        /* \"#utility.yul\":4167:4170   */\n      dup4\n        /* \"#utility.yul\":4163:4177   */\n      add\n        /* \"#utility.yul\":4259:4263   */\n      0x00\n        /* \"#utility.yul\":4252:4257   */\n      dup4\n        /* \"#utility.yul\":4248:4264   */\n      add\n        /* \"#utility.yul\":4242:4265   */\n      mload\n        /* \"#utility.yul\":4312:4315   */\n      dup5\n        /* \"#utility.yul\":4306:4310   */\n      dup3\n        /* \"#utility.yul\":4302:4316   */\n      sub\n        /* \"#utility.yul\":4295:4299   */\n      0x00\n        /* \"#utility.yul\":4290:4293   */\n      dup7\n        /* \"#utility.yul\":4286:4300   */\n      add\n        /* \"#utility.yul\":4279:4317   */\n      mstore\n        /* \"#utility.yul\":4338:4411   */\n      tag_200\n        /* \"#utility.yul\":4406:4410   */\n      dup3\n        /* \"#utility.yul\":4392:4404   */\n      dup3\n        /* \"#utility.yul\":4338:4411   */\n      tag_130\n      jump\t// in\n    tag_200:\n        /* \"#utility.yul\":4330:4411   */\n      swap2\n      pop\n        /* \"#utility.yul\":4187:4422   */\n      pop\n        /* \"#utility.yul\":4505:4509   */\n      0x20\n        /* \"#utility.yul\":4498:4503   */\n      dup4\n        /* \"#utility.yul\":4494:4510   */\n      add\n        /* \"#utility.yul\":4488:4511   */\n      mload\n        /* \"#utility.yul\":4524:4587   */\n      tag_201\n        /* \"#utility.yul\":4581:4585   */\n      0x20\n        /* \"#utility.yul\":4576:4579   */\n      dup7\n        /* \"#utility.yul\":4572:4586   */\n      add\n        /* \"#utility.yul\":4558:4570   */\n      dup3\n        /* \"#utility.yul\":4524:4587   */\n      tag_131\n      jump\t// in\n    tag_201:\n        /* \"#utility.yul\":4432:4597   */\n      pop\n        /* \"#utility.yul\":4683:4687   */\n      0x40\n        /* \"#utility.yul\":4676:4681   */\n      dup4\n        /* \"#utility.yul\":4672:4688   */\n      add\n        /* \"#utility.yul\":4666:4689   */\n      mload\n        /* \"#utility.yul\":4702:4765   */\n      tag_202\n        /* \"#utility.yul\":4759:4763   */\n      0x40\n        /* \"#utility.yul\":4754:4757   */\n      dup7\n        /* \"#utility.yul\":4750:4764   */\n      add\n        /* \"#utility.yul\":4736:4748   */\n      dup3\n        /* \"#utility.yul\":4702:4765   */\n      tag_131\n      jump\t// in\n    tag_202:\n        /* \"#utility.yul\":4607:4775   */\n      pop\n        /* \"#utility.yul\":4792:4796   */\n      dup1\n        /* \"#utility.yul\":4785:4796   */\n      swap2\n      pop\n        /* \"#utility.yul\":4141:4802   */\n      pop\n        /* \"#utility.yul\":4011:4802   */\n      swap3\n      swap2\n      pop\n      pop\n      jump\t// out\n        /* \"#utility.yul\":4808:5193   */\n    tag_28:\n        /* \"#utility.yul\":4957:4961   */\n      0x00\n        /* \"#utility.yul\":4995:4997   */\n      0x20\n        /* \"#utility.yul\":4984:4993   */\n      dup3\n        /* \"#utility.yul\":4980:4998   */\n      add\n        /* \"#utility.yul\":4972:4998   */\n      swap1\n      pop\n        /* \"#utility.yul\":5044:5053   */\n      dup2\n        /* \"#utility.yul\":5038:5042   */\n      dup2\n        /* \"#utility.yul\":5034:5054   */\n      sub\n        /* \"#utility.yul\":5030:5031   */\n      0x00\n        /* \"#utility.yul\":5019:5028   */\n      dup4\n        /* \"#utility.yul\":5015:5032   */\n      add\n        /* \"#utility.yul\":5008:5055   */\n      mstore\n        /* \"#utility.yul\":5072:5186   */\n      tag_204\n        /* \"#utility.yul\":5181:5185   */\n      dup2\n        /* \"#utility.yul\":5172:5178   */\n      dup5\n        /* \"#utility.yul\":5072:5186   */\n      tag_132\n      jump\t// in\n    tag_204:\n        /* \"#utility.yul\":5064:5186   */\n      swap1\n      pop\n        /* \"#utility.yul\":4808:5193   */\n      swap3\n      swap2\n      pop\n      pop\n      jump\t// out\n        /* \"#utility.yul\":5199:5295   */\n    tag_133:\n        /* \"#utility.yul\":5236:5243   */\n      0x00\n        /* \"#utility.yul\":5265:5289   */\n      tag_206\n        /* \"#utility.yul\":5283:5288   */\n      dup3\n        /* \"#utility.yul\":5265:5289   */\n      tag_120\n      jump\t// in\n    tag_206:\n        /* \"#utility.yul\":5254:5289   */\n      swap1\n      pop\n        /* \"#utility.yul\":5199:5295   */\n      swap2\n      swap1\n      pop\n      jump\t// out\n        /* \"#utility.yul\":5301:5419   */\n    tag_134:\n        /* \"#utility.yul\":5388:5412   */\n      tag_208\n        /* \"#utility.yul\":5406:5411   */\n      dup2\n        /* \"#utility.yul\":5388:5412   */\n      tag_133\n      jump\t// in\n    tag_208:\n        /* \"#utility.yul\":5383:5386   */\n      dup3\n        /* \"#utility.yul\":5376:5413   */\n      mstore\n        /* \"#utility.yul\":5301:5419   */\n      pop\n      pop\n      jump\t// out\n        /* \"#utility.yul\":5425:5647   */\n    tag_36:\n        /* \"#utility.yul\":5518:5522   */\n      0x00\n        /* \"#utility.yul\":5556:5558   */\n      0x20\n        /* \"#utility.yul\":5545:5554   */\n      dup3\n        /* \"#utility.yul\":5541:5559   */\n      add\n        /* \"#utility.yul\":5533:5559   */\n      swap1\n      pop\n        /* \"#utility.yul\":5569:5640   */\n      tag_210\n        /* \"#utility.yul\":5637:5638   */\n      0x00\n        /* \"#utility.yul\":5626:5635   */\n      dup4\n        /* \"#utility.yul\":5622:5639   */\n      add\n        /* \"#utility.yul\":5613:5619   */\n      dup5\n        /* \"#utility.yul\":5569:5640   */\n      tag_134\n      jump\t// in\n    tag_210:\n        /* \"#utility.yul\":5425:5647   */\n      swap3\n      swap2\n      pop\n      pop\n      jump\t// out\n        /* \"#utility.yul\":5653:5775   */\n    tag_135:\n        /* \"#utility.yul\":5726:5750   */\n      tag_212\n        /* \"#utility.yul\":5744:5749   */\n      dup2\n        /* \"#utility.yul\":5726:5750   */\n      tag_133\n      jump\t// in\n    tag_212:\n        /* \"#utility.yul\":5719:5724   */\n      dup2\n        /* \"#utility.yul\":5716:5751   */\n      eq\n        /* \"#utility.yul\":5706:5769   */\n      tag_213\n      jumpi\n        /* \"#utility.yul\":5765:5766   */\n      0x00\n        /* \"#utility.yul\":5762:5763   */\n      0x00\n        /* \"#utility.yul\":5755:5767   */\n      revert\n        /* \"#utility.yul\":5706:5769   */\n    tag_213:\n        /* \"#utility.yul\":5653:5775   */\n      pop\n      jump\t// out\n        /* \"#utility.yul\":5781:5920   */\n    tag_136:\n        /* \"#utility.yul\":5827:5832   */\n      0x00\n        /* \"#utility.yul\":5865:5871   */\n      dup2\n        /* \"#utility.yul\":5852:5872   */\n      calldataload\n        /* \"#utility.yul\":5843:5872   */\n      swap1\n      pop\n        /* \"#utility.yul\":5881:5914   */\n      tag_215\n        /* \"#utility.yul\":5908:5913   */\n      dup2\n        /* \"#utility.yul\":5881:5914   */\n      tag_135\n      jump\t// in\n    tag_215:\n        /* \"#utility.yul\":5781:5920   */\n      swap3\n      swap2\n      pop\n      pop\n      jump\t// out\n        /* \"#utility.yul\":5926:6255   */\n    tag_40:\n        /* \"#utility.yul\":5985:5991   */\n      0x00\n        /* \"#utility.yul\":6034:6036   */\n      0x20\n        /* \"#utility.yul\":6022:6031   */\n      dup3\n        /* \"#utility.yul\":6013:6020   */\n      dup5\n        /* \"#utility.yul\":6009:6032   */\n      sub\n        /* \"#utility.yul\":6005:6037   */\n      slt\n        /* \"#utility.yul\":6002:6121   */\n      iszero\n      tag_217\n      jumpi\n        /* \"#utility.yul\":6040:6119   */\n      tag_218\n      tag_113\n      jump\t// in\n    tag_218:\n        /* \"#utility.yul\":6002:6121   */\n    tag_217:\n        /* \"#utility.yul\":6160:6161   */\n      0x00\n        /* \"#utility.yul\":6185:6238   */\n      tag_219\n        /* \"#utility.yul\":6230:6237   */\n      dup5\n        /* \"#utility.yul\":6221:6227   */\n      dup3\n        /* \"#utility.yul\":6210:6219   */\n      dup6\n        /* \"#utility.yul\":6206:6228   */\n      add\n        /* \"#utility.yul\":6185:6238   */\n      tag_136\n      jump\t// in\n    tag_219:\n        /* \"#utility.yul\":6175:6238   */\n      swap2\n      pop\n        /* \"#utility.yul\":6131:6248   */\n      pop\n        /* \"#utility.yul\":5926:6255   */\n      swap3\n      swap2\n      pop\n      pop\n      jump\t// out\n        /* \"#utility.yul\":6261:6379   */\n    tag_137:\n        /* \"#utility.yul\":6348:6372   */\n      tag_221\n        /* \"#utility.yul\":6366:6371   */\n      dup2\n        /* \"#utility.yul\":6348:6372   */\n      tag_117\n      jump\t// in\n    tag_221:\n        /* \"#utility.yul\":6343:6346   */\n      dup3\n        /* \"#utility.yul\":6336:6373   */\n      mstore\n        /* \"#utility.yul\":6261:6379   */\n      pop\n      pop\n      jump\t// out\n        /* \"#utility.yul\":6385:6607   */\n    tag_43:\n        /* \"#utility.yul\":6478:6482   */\n      0x00\n        /* \"#utility.yul\":6516:6518   */\n      0x20\n        /* \"#utility.yul\":6505:6514   */\n      dup3\n        /* \"#utility.yul\":6501:6519   */\n      add\n        /* \"#utility.yul\":6493:6519   */\n      swap1\n      pop\n        /* \"#utility.yul\":6529:6600   */\n      tag_223\n        /* \"#utility.yul\":6597:6598   */\n      0x00\n        /* \"#utility.yul\":6586:6595   */\n      dup4\n        /* \"#utility.yul\":6582:6599   */\n      add\n        /* \"#utility.yul\":6573:6579   */\n      dup5\n        /* \"#utility.yul\":6529:6600   */\n      tag_137\n      jump\t// in\n    tag_223:\n        /* \"#utility.yul\":6385:6607   */\n      swap3\n      swap2\n      pop\n      pop\n      jump\t// out\n        /* \"#utility.yul\":6613:6782   */\n    tag_138:\n        /* \"#utility.yul\":6697:6708   */\n      0x00\n        /* \"#utility.yul\":6731:6737   */\n      dup3\n        /* \"#utility.yul\":6726:6729   */\n      dup3\n        /* \"#utility.yul\":6719:6738   */\n      mstore\n        /* \"#utility.yul\":6771:6775   */\n      0x20\n        /* \"#utility.yul\":6766:6769   */\n      dup3\n        /* \"#utility.yul\":6762:6776   */\n      add\n        /* \"#utility.yul\":6747:6776   */\n      swap1\n      pop\n        /* \"#utility.yul\":6613:6782   */\n      swap3\n      swap2\n      pop\n      pop\n      jump\t// out\n        /* \"#utility.yul\":6788:7009   */\n    tag_139:\n        /* \"#utility.yul\":6928:6962   */\n      0x4f6e6c79206f776e65722063616e2063616c6c2074686973207265736f757263\n        /* \"#utility.yul\":6924:6925   */\n      0x00\n        /* \"#utility.yul\":6916:6922   */\n      dup3\n        /* \"#utility.yul\":6912:6926   */\n      add\n        /* \"#utility.yul\":6905:6963   */\n      mstore\n        /* \"#utility.yul\":6997:7001   */\n      0x652e000000000000000000000000000000000000000000000000000000000000\n        /* \"#utility.yul\":6992:6994   */\n      0x20\n        /* \"#utility.yul\":6984:6990   */\n      dup3\n        /* \"#utility.yul\":6980:6995   */\n      add\n        /* \"#utility.yul\":6973:7002   */\n      mstore\n        /* \"#utility.yul\":6788:7009   */\n      pop\n      jump\t// out\n        /* \"#utility.yul\":7015:7381   */\n    tag_140:\n        /* \"#utility.yul\":7157:7160   */\n      0x00\n        /* \"#utility.yul\":7178:7245   */\n      tag_227\n        /* \"#utility.yul\":7242:7244   */\n      0x22\n        /* \"#utility.yul\":7237:7240   */\n      dup4\n        /* \"#utility.yul\":7178:7245   */\n      tag_138\n      jump\t// in\n    tag_227:\n        /* \"#utility.yul\":7171:7245   */\n      swap2\n      pop\n        /* \"#utility.yul\":7254:7347   */\n      tag_228\n        /* \"#utility.yul\":7343:7346   */\n      dup3\n        /* \"#utility.yul\":7254:7347   */\n      tag_139\n      jump\t// in\n    tag_228:\n        /* \"#utility.yul\":7372:7374   */\n      0x40\n        /* \"#utility.yul\":7367:7370   */\n      dup3\n        /* \"#utility.yul\":7363:7375   */\n      add\n        /* \"#utility.yul\":7356:7375   */\n      swap1\n      pop\n        /* \"#utility.yul\":7015:7381   */\n      swap2\n      swap1\n      pop\n      jump\t// out\n        /* \"#utility.yul\":7387:7806   */\n    tag_47:\n        /* \"#utility.yul\":7553:7557   */\n      0x00\n        /* \"#utility.yul\":7591:7593   */\n      0x20\n        /* \"#utility.yul\":7580:7589   */\n      dup3\n        /* \"#utility.yul\":7576:7594   */\n      add\n        /* \"#utility.yul\":7568:7594   */\n      swap1\n      pop\n        /* \"#utility.yul\":7640:7649   */\n      dup2\n        /* \"#utility.yul\":7634:7638   */\n      dup2\n        /* \"#utility.yul\":7630:7650   */\n      sub\n        /* \"#utility.yul\":7626:7627   */\n      0x00\n        /* \"#utility.yul\":7615:7624   */\n      dup4\n        /* \"#utility.yul\":7611:7628   */\n      add\n        /* \"#utility.yul\":7604:7651   */\n      mstore\n        /* \"#utility.yul\":7668:7799   */\n      tag_230\n        /* \"#utility.yul\":7794:7798   */\n      dup2\n        /* \"#utility.yul\":7668:7799   */\n      tag_140\n      jump\t// in\n    tag_230:\n        /* \"#utility.yul\":7660:7799   */\n      swap1\n      pop\n        /* \"#utility.yul\":7387:7806   */\n      swap2\n      swap1\n      pop\n      jump\t// out\n        /* \"#utility.yul\":7812:7992   */\n    tag_51:\n        /* \"#utility.yul\":7860:7937   */\n      0x4e487b7100000000000000000000000000000000000000000000000000000000\n        /* \"#utility.yul\":7857:7858   */\n      0x00\n        /* \"#utility.yul\":7850:7938   */\n      mstore\n        /* \"#utility.yul\":7957:7961   */\n      0x21\n        /* \"#utility.yul\":7954:7955   */\n      0x04\n        /* \"#utility.yul\":7947:7962   */\n      mstore\n        /* \"#utility.yul\":7981:7985   */\n      0x24\n        /* \"#utility.yul\":7978:7979   */\n      0x00\n        /* \"#utility.yul\":7971:7986   */\n      revert\n        /* \"#utility.yul\":7998:8178   */\n    tag_54:\n        /* \"#utility.yul\":8046:8123   */\n      0x4e487b7100000000000000000000000000000000000000000000000000000000\n        /* \"#utility.yul\":8043:8044   */\n      0x00\n        /* \"#utility.yul\":8036:8124   */\n      mstore\n        /* \"#utility.yul\":8143:8147   */\n      0x32\n        /* \"#utility.yul\":8140:8141   */\n      0x04\n        /* \"#utility.yul\":8133:8148   */\n      mstore\n        /* \"#utility.yul\":8167:8171   */\n      0x24\n        /* \"#utility.yul\":8164:8165   */\n      0x00\n        /* \"#utility.yul\":8157:8172   */\n      revert\n        /* \"#utility.yul\":8184:8364   */\n    tag_141:\n        /* \"#utility.yul\":8232:8309   */\n      0x4e487b7100000000000000000000000000000000000000000000000000000000\n        /* \"#utility.yul\":8229:8230   */\n      0x00\n        /* \"#utility.yul\":8222:8310   */\n      mstore\n        /* \"#utility.yul\":8329:8333   */\n      0x11\n        /* \"#utility.yul\":8326:8327   */\n      0x04\n        /* \"#utility.yul\":8319:8334   */\n      mstore\n        /* \"#utility.yul\":8353:8357   */\n      0x24\n        /* \"#utility.yul\":8350:8351   */\n      0x00\n        /* \"#utility.yul\":8343:8358   */\n      revert\n        /* \"#utility.yul\":8370:8561   */\n    tag_57:\n        /* \"#utility.yul\":8410:8413   */\n      0x00\n        /* \"#utility.yul\":8429:8449   */\n      tag_235\n        /* \"#utility.yul\":8447:8448   */\n      dup3\n        /* \"#utility.yul\":8429:8449   */\n      tag_117\n      jump\t// in\n    tag_235:\n        /* \"#utility.yul\":8424:8449   */\n      swap2\n      pop\n        /* \"#utility.yul\":8463:8483   */\n      tag_236\n        /* \"#utility.yul\":8481:8482   */\n      dup4\n        /* \"#utility.yul\":8463:8483   */\n      tag_117\n      jump\t// in\n    tag_236:\n        /* \"#utility.yul\":8458:8483   */\n      swap3\n      pop\n        /* \"#utility.yul\":8506:8507   */\n      dup3\n        /* \"#utility.yul\":8503:8504   */\n      dup3\n        /* \"#utility.yul\":8499:8508   */\n      add\n        /* \"#utility.yul\":8492:8508   */\n      swap1\n      pop\n        /* \"#utility.yul\":8527:8530   */\n      dup1\n        /* \"#utility.yul\":8524:8525   */\n      dup3\n        /* \"#utility.yul\":8521:8531   */\n      gt\n        /* \"#utility.yul\":8518:8554   */\n      iszero\n      tag_237\n      jumpi\n        /* \"#utility.yul\":8534:8552   */\n      tag_238\n      tag_141\n      jump\t// in\n    tag_238:\n        /* \"#utility.yul\":8518:8554   */\n    tag_237:\n        /* \"#utility.yul\":8370:8561   */\n      swap3\n      swap2\n      pop\n      pop\n      jump\t// out\n        /* \"#utility.yul\":8567:8738   */\n    tag_142:\n        /* \"#utility.yul\":8707:8730   */\n      0x4e6f2066756e647320746f2077697468647261772e0000000000000000000000\n        /* \"#utility.yul\":8703:8704   */\n      0x00\n        /* \"#utility.yul\":8695:8701   */\n      dup3\n        /* \"#utility.yul\":8691:8705   */\n      add\n        /* \"#utility.yul\":8684:8731   */\n      mstore\n        /* \"#utility.yul\":8567:8738   */\n      pop\n      jump\t// out\n        /* \"#utility.yul\":8744:9110   */\n    tag_143:\n        /* \"#utility.yul\":8886:8889   */\n      0x00\n        /* \"#utility.yul\":8907:8974   */\n      tag_241\n        /* \"#utility.yul\":8971:8973   */\n      0x15\n        /* \"#utility.yul\":8966:8969   */\n      dup4\n        /* \"#utility.yul\":8907:8974   */\n      tag_138\n      jump\t// in\n    tag_241:\n        /* \"#utility.yul\":8900:8974   */\n      swap2\n      pop\n        /* \"#utility.yul\":8983:9076   */\n      tag_242\n        /* \"#utility.yul\":9072:9075   */\n      dup3\n        /* \"#utility.yul\":8983:9076   */\n      tag_142\n      jump\t// in\n    tag_242:\n        /* \"#utility.yul\":9101:9103   */\n      0x20\n        /* \"#utility.yul\":9096:9099   */\n      dup3\n        /* \"#utility.yul\":9092:9104   */\n      add\n        /* \"#utility.yul\":9085:9104   */\n      swap1\n      pop\n        /* \"#utility.yul\":8744:9110   */\n      swap2\n      swap1\n      pop\n      jump\t// out\n        /* \"#utility.yul\":9116:9535   */\n    tag_64:\n        /* \"#utility.yul\":9282:9286   */\n      0x00\n        /* \"#utility.yul\":9320:9322   */\n      0x20\n        /* \"#utility.yul\":9309:9318   */\n      dup3\n        /* \"#utility.yul\":9305:9323   */\n      add\n        /* \"#utility.yul\":9297:9323   */\n      swap1\n      pop\n        /* \"#utility.yul\":9369:9378   */\n      dup2\n        /* \"#utility.yul\":9363:9367   */\n      dup2\n        /* \"#utility.yul\":9359:9379   */\n      sub\n        /* \"#utility.yul\":9355:9356   */\n      0x00\n        /* \"#utility.yul\":9344:9353   */\n      dup4\n        /* \"#utility.yul\":9340:9357   */\n      add\n        /* \"#utility.yul\":9333:9380   */\n      mstore\n        /* \"#utility.yul\":9397:9528   */\n      tag_244\n        /* \"#utility.yul\":9523:9527   */\n      dup2\n        /* \"#utility.yul\":9397:9528   */\n      tag_143\n      jump\t// in\n    tag_244:\n        /* \"#utility.yul\":9389:9528   */\n      swap1\n      pop\n        /* \"#utility.yul\":9116:9535   */\n      swap2\n      swap1\n      pop\n      jump\t// out\n        /* \"#utility.yul\":9541:9721   */\n    tag_144:\n        /* \"#utility.yul\":9589:9666   */\n      0x4e487b7100000000000000000000000000000000000000000000000000000000\n        /* \"#utility.yul\":9586:9587   */\n      0x00\n        /* \"#utility.yul\":9579:9667   */\n      mstore\n        /* \"#utility.yul\":9686:9690   */\n      0x22\n        /* \"#utility.yul\":9683:9684   */\n      0x04\n        /* \"#utility.yul\":9676:9691   */\n      mstore\n        /* \"#utility.yul\":9710:9714   */\n      0x24\n        /* \"#utility.yul\":9707:9708   */\n      0x00\n        /* \"#utility.yul\":9700:9715   */\n      revert\n        /* \"#utility.yul\":9727:10047   */\n    tag_76:\n        /* \"#utility.yul\":9771:9777   */\n      0x00\n        /* \"#utility.yul\":9808:9809   */\n      0x02\n        /* \"#utility.yul\":9802:9806   */\n      dup3\n        /* \"#utility.yul\":9798:9810   */\n      div\n        /* \"#utility.yul\":9788:9810   */\n      swap1\n      pop\n        /* \"#utility.yul\":9855:9856   */\n      0x01\n        /* \"#utility.yul\":9849:9853   */\n      dup3\n        /* \"#utility.yul\":9845:9857   */\n      and\n        /* \"#utility.yul\":9876:9894   */\n      dup1\n        /* \"#utility.yul\":9866:9947   */\n      tag_247\n      jumpi\n        /* \"#utility.yul\":9932:9936   */\n      0x7f\n        /* \"#utility.yul\":9924:9930   */\n      dup3\n        /* \"#utility.yul\":9920:9937   */\n      and\n        /* \"#utility.yul\":9910:9937   */\n      swap2\n      pop\n        /* \"#utility.yul\":9866:9947   */\n    tag_247:\n        /* \"#utility.yul\":9994:9996   */\n      0x20\n        /* \"#utility.yul\":9986:9992   */\n      dup3\n        /* \"#utility.yul\":9983:9997   */\n      lt\n        /* \"#utility.yul\":9963:9981   */\n      dup2\n        /* \"#utility.yul\":9960:9998   */\n      sub\n        /* \"#utility.yul\":9957:10041   */\n      tag_248\n      jumpi\n        /* \"#utility.yul\":10013:10031   */\n      tag_249\n      tag_144\n      jump\t// in\n    tag_249:\n        /* \"#utility.yul\":9957:10041   */\n    tag_248:\n        /* \"#utility.yul\":9778:10047   */\n      pop\n        /* \"#utility.yul\":9727:10047   */\n      swap2\n      swap1\n      pop\n      jump\t// out\n        /* \"#utility.yul\":10053:10463   */\n    tag_90:\n        /* \"#utility.yul\":10093:10100   */\n      0x00\n        /* \"#utility.yul\":10116:10136   */\n      tag_251\n        /* \"#utility.yul\":10134:10135   */\n      dup3\n        /* \"#utility.yul\":10116:10136   */\n      tag_117\n      jump\t// in\n    tag_251:\n        /* \"#utility.yul\":10111:10136   */\n      swap2\n      pop\n        /* \"#utility.yul\":10150:10170   */\n      tag_252\n        /* \"#utility.yul\":10168:10169   */\n      dup4\n        /* \"#utility.yul\":10150:10170   */\n      tag_117\n      jump\t// in\n    tag_252:\n        /* \"#utility.yul\":10145:10170   */\n      swap3\n      pop\n        /* \"#utility.yul\":10205:10206   */\n      dup3\n        /* \"#utility.yul\":10202:10203   */\n      dup3\n        /* \"#utility.yul\":10198:10207   */\n      mul\n        /* \"#utility.yul\":10227:10257   */\n      tag_253\n        /* \"#utility.yul\":10245:10256   */\n      dup2\n        /* \"#utility.yul\":10227:10257   */\n      tag_117\n      jump\t// in\n    tag_253:\n        /* \"#utility.yul\":10216:10257   */\n      swap2\n      pop\n        /* \"#utility.yul\":10406:10407   */\n      dup3\n        /* \"#utility.yul\":10397:10404   */\n      dup3\n        /* \"#utility.yul\":10393:10408   */\n      div\n        /* \"#utility.yul\":10390:10391   */\n      dup5\n        /* \"#utility.yul\":10387:10409   */\n      eq\n        /* \"#utility.yul\":10367:10368   */\n      dup4\n        /* \"#utility.yul\":10360:10369   */\n      iszero\n        /* \"#utility.yul\":10340:10423   */\n      or\n        /* \"#utility.yul\":10317:10456   */\n      tag_254\n      jumpi\n        /* \"#utility.yul\":10436:10454   */\n      tag_255\n      tag_141\n      jump\t// in\n    tag_255:\n        /* \"#utility.yul\":10317:10456   */\n    tag_254:\n        /* \"#utility.yul\":10101:10463   */\n      pop\n        /* \"#utility.yul\":10053:10463   */\n      swap3\n      swap2\n      pop\n      pop\n      jump\t// out\n        /* \"#utility.yul\":10469:10639   */\n    tag_145:\n        /* \"#utility.yul\":10609:10631   */\n      0x496e76616c69642070726f6475637420656e756d000000000000000000000000\n        /* \"#utility.yul\":10605:10606   */\n      0x00\n        /* \"#utility.yul\":10597:10603   */\n      dup3\n        /* \"#utility.yul\":10593:10607   */\n      add\n        /* \"#utility.yul\":10586:10632   */\n      mstore\n        /* \"#utility.yul\":10469:10639   */\n      pop\n      jump\t// out\n        /* \"#utility.yul\":10645:11011   */\n    tag_146:\n        /* \"#utility.yul\":10787:10790   */\n      0x00\n        /* \"#utility.yul\":10808:10875   */\n      tag_258\n        /* \"#utility.yul\":10872:10874   */\n      0x14\n        /* \"#utility.yul\":10867:10870   */\n      dup4\n        /* \"#utility.yul\":10808:10875   */\n      tag_138\n      jump\t// in\n    tag_258:\n        /* \"#utility.yul\":10801:10875   */\n      swap2\n      pop\n        /* \"#utility.yul\":10884:10977   */\n      tag_259\n        /* \"#utility.yul\":10973:10976   */\n      dup3\n        /* \"#utility.yul\":10884:10977   */\n      tag_145\n      jump\t// in\n    tag_259:\n        /* \"#utility.yul\":11002:11004   */\n      0x20\n        /* \"#utility.yul\":10997:11000   */\n      dup3\n        /* \"#utility.yul\":10993:11005   */\n      add\n        /* \"#utility.yul\":10986:11005   */\n      swap1\n      pop\n        /* \"#utility.yul\":10645:11011   */\n      swap2\n      swap1\n      pop\n      jump\t// out\n        /* \"#utility.yul\":11017:11436   */\n    tag_94:\n        /* \"#utility.yul\":11183:11187   */\n      0x00\n        /* \"#utility.yul\":11221:11223   */\n      0x20\n        /* \"#utility.yul\":11210:11219   */\n      dup3\n        /* \"#utility.yul\":11206:11224   */\n      add\n        /* \"#utility.yul\":11198:11224   */\n      swap1\n      pop\n        /* \"#utility.yul\":11270:11279   */\n      dup2\n        /* \"#utility.yul\":11264:11268   */\n      dup2\n        /* \"#utility.yul\":11260:11280   */\n      sub\n        /* \"#utility.yul\":11256:11257   */\n      0x00\n        /* \"#utility.yul\":11245:11254   */\n      dup4\n        /* \"#utility.yul\":11241:11258   */\n      add\n        /* \"#utility.yul\":11234:11281   */\n      mstore\n        /* \"#utility.yul\":11298:11429   */\n      tag_261\n        /* \"#utility.yul\":11424:11428   */\n      dup2\n        /* \"#utility.yul\":11298:11429   */\n      tag_146\n      jump\t// in\n    tag_261:\n        /* \"#utility.yul\":11290:11429   */\n      swap1\n      pop\n        /* \"#utility.yul\":11017:11436   */\n      swap2\n      swap1\n      pop\n      jump\t// out\n        /* \"#utility.yul\":11442:11611   */\n    tag_147:\n        /* \"#utility.yul\":11582:11603   */\n      0x50726f64756374206e6f7420656e6f7567682e00000000000000000000000000\n        /* \"#utility.yul\":11578:11579   */\n      0x00\n        /* \"#utility.yul\":11570:11576   */\n      dup3\n        /* \"#utility.yul\":11566:11580   */\n      add\n        /* \"#utility.yul\":11559:11604   */\n      mstore\n        /* \"#utility.yul\":11442:11611   */\n      pop\n      jump\t// out\n        /* \"#utility.yul\":11617:11983   */\n    tag_148:\n        /* \"#utility.yul\":11759:11762   */\n      0x00\n        /* \"#utility.yul\":11780:11847   */\n      tag_264\n        /* \"#utility.yul\":11844:11846   */\n      0x13\n        /* \"#utility.yul\":11839:11842   */\n      dup4\n        /* \"#utility.yul\":11780:11847   */\n      tag_138\n      jump\t// in\n    tag_264:\n        /* \"#utility.yul\":11773:11847   */\n      swap2\n      pop\n        /* \"#utility.yul\":11856:11949   */\n      tag_265\n        /* \"#utility.yul\":11945:11948   */\n      dup3\n        /* \"#utility.yul\":11856:11949   */\n      tag_147\n      jump\t// in\n    tag_265:\n        /* \"#utility.yul\":11974:11976   */\n      0x20\n        /* \"#utility.yul\":11969:11972   */\n      dup3\n        /* \"#utility.yul\":11965:11977   */\n      add\n        /* \"#utility.yul\":11958:11977   */\n      swap1\n      pop\n        /* \"#utility.yul\":11617:11983   */\n      swap2\n      swap1\n      pop\n      jump\t// out\n        /* \"#utility.yul\":11989:12408   */\n    tag_100:\n        /* \"#utility.yul\":12155:12159   */\n      0x00\n        /* \"#utility.yul\":12193:12195   */\n      0x20\n        /* \"#utility.yul\":12182:12191   */\n      dup3\n        /* \"#utility.yul\":12178:12196   */\n      add\n        /* \"#utility.yul\":12170:12196   */\n      swap1\n      pop\n        /* \"#utility.yul\":12242:12251   */\n      dup2\n        /* \"#utility.yul\":12236:12240   */\n      dup2\n        /* \"#utility.yul\":12232:12252   */\n      sub\n        /* \"#utility.yul\":12228:12229   */\n      0x00\n        /* \"#utility.yul\":12217:12226   */\n      dup4\n        /* \"#utility.yul\":12213:12230   */\n      add\n        /* \"#utility.yul\":12206:12253   */\n      mstore\n        /* \"#utility.yul\":12270:12401   */\n      tag_267\n        /* \"#utility.yul\":12396:12400   */\n      dup2\n        /* \"#utility.yul\":12270:12401   */\n      tag_148\n      jump\t// in\n    tag_267:\n        /* \"#utility.yul\":12262:12401   */\n      swap1\n      pop\n        /* \"#utility.yul\":11989:12408   */\n      swap2\n      swap1\n      pop\n      jump\t// out\n        /* \"#utility.yul\":12414:12580   */\n    tag_149:\n        /* \"#utility.yul\":12554:12572   */\n      0x4e6f7420656e6f75676820657468657200000000000000000000000000000000\n        /* \"#utility.yul\":12550:12551   */\n      0x00\n        /* \"#utility.yul\":12542:12548   */\n      dup3\n        /* \"#utility.yul\":12538:12552   */\n      add\n        /* \"#utility.yul\":12531:12573   */\n      mstore\n        /* \"#utility.yul\":12414:12580   */\n      pop\n      jump\t// out\n        /* \"#utility.yul\":12586:12952   */\n    tag_150:\n        /* \"#utility.yul\":12728:12731   */\n      0x00\n        /* \"#utility.yul\":12749:12816   */\n      tag_270\n        /* \"#utility.yul\":12813:12815   */\n      0x10\n        /* \"#utility.yul\":12808:12811   */\n      dup4\n        /* \"#utility.yul\":12749:12816   */\n      tag_138\n      jump\t// in\n    tag_270:\n        /* \"#utility.yul\":12742:12816   */\n      swap2\n      pop\n        /* \"#utility.yul\":12825:12918   */\n      tag_271\n        /* \"#utility.yul\":12914:12917   */\n      dup3\n        /* \"#utility.yul\":12825:12918   */\n      tag_149\n      jump\t// in\n    tag_271:\n        /* \"#utility.yul\":12943:12945   */\n      0x20\n        /* \"#utility.yul\":12938:12941   */\n      dup3\n        /* \"#utility.yul\":12934:12946   */\n      add\n        /* \"#utility.yul\":12927:12946   */\n      swap1\n      pop\n        /* \"#utility.yul\":12586:12952   */\n      swap2\n      swap1\n      pop\n      jump\t// out\n        /* \"#utility.yul\":12958:13377   */\n    tag_103:\n        /* \"#utility.yul\":13124:13128   */\n      0x00\n        /* \"#utility.yul\":13162:13164   */\n      0x20\n        /* \"#utility.yul\":13151:13160   */\n      dup3\n        /* \"#utility.yul\":13147:13165   */\n      add\n        /* \"#utility.yul\":13139:13165   */\n      swap1\n      pop\n        /* \"#utility.yul\":13211:13220   */\n      dup2\n        /* \"#utility.yul\":13205:13209   */\n      dup2\n        /* \"#utility.yul\":13201:13221   */\n      sub\n        /* \"#utility.yul\":13197:13198   */\n      0x00\n        /* \"#utility.yul\":13186:13195   */\n      dup4\n        /* \"#utility.yul\":13182:13199   */\n      add\n        /* \"#utility.yul\":13175:13222   */\n      mstore\n        /* \"#utility.yul\":13239:13370   */\n      tag_273\n        /* \"#utility.yul\":13365:13369   */\n      dup2\n        /* \"#utility.yul\":13239:13370   */\n      tag_150\n      jump\t// in\n    tag_273:\n        /* \"#utility.yul\":13231:13370   */\n      swap1\n      pop\n        /* \"#utility.yul\":12958:13377   */\n      swap2\n      swap1\n      pop\n      jump\t// out\n        /* \"#utility.yul\":13383:13577   */\n    tag_108:\n        /* \"#utility.yul\":13423:13427   */\n      0x00\n        /* \"#utility.yul\":13443:13463   */\n      tag_275\n        /* \"#utility.yul\":13461:13462   */\n      dup3\n        /* \"#utility.yul\":13443:13463   */\n      tag_117\n      jump\t// in\n    tag_275:\n        /* \"#utility.yul\":13438:13463   */\n      swap2\n      pop\n        /* \"#utility.yul\":13477:13497   */\n      tag_276\n        /* \"#utility.yul\":13495:13496   */\n      dup4\n        /* \"#utility.yul\":13477:13497   */\n      tag_117\n      jump\t// in\n    tag_276:\n        /* \"#utility.yul\":13472:13497   */\n      swap3\n      pop\n        /* \"#utility.yul\":13521:13522   */\n      dup3\n        /* \"#utility.yul\":13518:13519   */\n      dup3\n        /* \"#utility.yul\":13514:13523   */\n      sub\n        /* \"#utility.yul\":13506:13523   */\n      swap1\n      pop\n        /* \"#utility.yul\":13545:13546   */\n      dup2\n        /* \"#utility.yul\":13539:13543   */\n      dup2\n        /* \"#utility.yul\":13536:13547   */\n      gt\n        /* \"#utility.yul\":13533:13570   */\n      iszero\n      tag_277\n      jumpi\n        /* \"#utility.yul\":13550:13568   */\n      tag_278\n      tag_141\n      jump\t// in\n    tag_278:\n        /* \"#utility.yul\":13533:13570   */\n    tag_277:\n        /* \"#utility.yul\":13383:13577   */\n      swap3\n      swap2\n      pop\n      pop\n      jump\t// out\n\n    auxdata: 0xa2646970667358221220e56983b4cc1b2f37966764fa9813b765429ef6a30838b4e7f51c946c6098ac2464736f6c634300081e0033\n}\n",
				"bytecode": {
					"linkReferences": {},
					"object": "608060405234801561000f575f5ffd5b506040516115a73803806115a783398181016040528101906100319190610410565b3360015f6101000a81548173ffffffffffffffffffffffffffffffffffffffff021916908373ffffffffffffffffffffffffffffffffffffffff160217905550805f5f6101000a81548173ffffffffffffffffffffffffffffffffffffffff021916908373ffffffffffffffffffffffffffffffffffffffff16021790555060405180606001604052806040518060400160405280600581526020017f57617465720000000000000000000000000000000000000000000000000000008152508152602001633b9aca008152602001606481525060035f600581106101195761011861043b565b5b600302015f820151815f01908161013091906106a5565b50602082015181600101556040820151816002015590505060405180606001604052806040518060400160405280600381526020017f5465610000000000000000000000000000000000000000000000000000000000815250815260200163773594008152602001606481525060036001600581106101b2576101b161043b565b5b600302015f820151815f0190816101c991906106a5565b50602082015181600101556040820151816002015590505060405180606001604052806040518060400160405280600581526020017f4a75696365000000000000000000000000000000000000000000000000000000815250815260200163b2d05e0081526020016064815250600360026005811061024b5761024a61043b565b5b600302015f820151815f01908161026291906106a5565b50602082015181600101556040820151816002015590505060405180606001604052806040518060400160405280600481526020017f4d696c6b00000000000000000000000000000000000000000000000000000000815250815260200163ee6b280081526020016064815250600380600581106102e3576102e261043b565b5b600302015f820151815f0190816102fa91906106a5565b50602082015181600101556040820151816002015590505060405180606001604052806040518060400160405280600681526020017f436f666665650000000000000000000000000000000000000000000000000000815250815260200164012a05f20081526020016064815250600360046005811061037d5761037c61043b565b5b600302015f820151815f01908161039491906106a5565b50602082015181600101556040820151816002015590505050610774565b5f5ffd5b5f73ffffffffffffffffffffffffffffffffffffffff82169050919050565b5f6103df826103b6565b9050919050565b6103ef816103d5565b81146103f9575f5ffd5b50565b5f8151905061040a816103e6565b92915050565b5f60208284031215610425576104246103b2565b5b5f610432848285016103fc565b91505092915050565b7f4e487b71000000000000000000000000000000000000000000000000000000005f52603260045260245ffd5b5f81519050919050565b7f4e487b71000000000000000000000000000000000000000000000000000000005f52604160045260245ffd5b7f4e487b71000000000000000000000000000000000000000000000000000000005f52602260045260245ffd5b5f60028204905060018216806104e357607f821691505b6020821081036104f6576104f561049f565b5b50919050565b5f819050815f5260205f209050919050565b5f6020601f8301049050919050565b5f82821b905092915050565b5f600883026105587fffffffffffffffffffffffffffffffffffffffffffffffffffffffffffffffff8261051d565b610562868361051d565b95508019841693508086168417925050509392505050565b5f819050919050565b5f819050919050565b5f6105a66105a161059c8461057a565b610583565b61057a565b9050919050565b5f819050919050565b6105bf8361058c565b6105d36105cb826105ad565b848454610529565b825550505050565b5f5f905090565b6105ea6105db565b6105f58184846105b6565b505050565b5b818110156106185761060d5f826105e2565b6001810190506105fb565b5050565b601f82111561065d5761062e816104fc565b6106378461050e565b81016020851015610646578190505b61065a6106528561050e565b8301826105fa565b50505b505050565b5f82821c905092915050565b5f61067d5f1984600802610662565b1980831691505092915050565b5f610695838361066e565b9150826002028217905092915050565b6106ae82610468565b67ffffffffffffffff8111156106c7576106c6610472565b5b6106d182546104cc565b6106dc82828561061c565b5f60209050601f83116001811461070d575f84156106fb578287015190505b610705858261068a565b86555061076c565b601f19841661071b866104fc565b5f5b828110156107425784890151825560018201915060208501945060208101905061071d565b8683101561075f578489015161075b601f89168261066e565b8355505b6001600288020188555050505b505050505050565b610e26806107815f395ff3fe60806040526004361061006f575f3560e01c80635b291dba1161004d5780635b291dba146100cf57806362f791c01461010b5780638da5cb5b14610127578063c32fdf34146101515761006f565b80632d153a8c1461007357806349649fbf1461009b578063521eb273146100a5575b5f5ffd5b34801561007e575f5ffd5b5061009960048036038101906100949190610789565b61018d565b005b6100a3610263565b005b3480156100b0575f5ffd5b506100b961039b565b6040516100c69190610841565b60405180910390f35b3480156100da575f5ffd5b506100f560048036038101906100f0919061085a565b6103bf565b6040516101029190610951565b60405180910390f35b61012560048036038101906101209190610789565b6104a6565b005b348015610132575f5ffd5b5061013b6106d6565b6040516101489190610991565b60405180910390f35b34801561015c575f5ffd5b50610177600480360381019061017291906109d4565b6106fb565b6040516101849190610a0e565b60405180910390f35b60015f9054906101000a900473ffffffffffffffffffffffffffffffffffffffff1673ffffffffffffffffffffffffffffffffffffffff163373ffffffffffffffffffffffffffffffffffffffff161461021c576040517f08c379a000000000000000000000000000000000000000000000000000000000815260040161021390610aa7565b60405180910390fd5b80600383600481111561023257610231610ac5565b5b6005811061024357610242610af2565b5b600302016002015f8282546102589190610b4c565b925050819055505050565b60015f9054906101000a900473ffffffffffffffffffffffffffffffffffffffff1673ffffffffffffffffffffffffffffffffffffffff163373ffffffffffffffffffffffffffffffffffffffff16146102f2576040517f08c379a00000000000000000000000000000000000000000000000000000000081526004016102e990610aa7565b60405180910390fd5b5f4711610334576040517f08c379a000000000000000000000000000000000000000000000000000000000815260040161032b90610bc9565b60405180910390fd5b60015f9054906101000a900473ffffffffffffffffffffffffffffffffffffffff1673ffffffffffffffffffffffffffffffffffffffff166108fc4790811502906040515f60405180830381858888f19350505050158015610398573d5f5f3e3d5ffd5b50565b5f5f9054906101000a900473ffffffffffffffffffffffffffffffffffffffff1681565b6103c7610710565b60038260048111156103dc576103db610ac5565b5b600581106103ed576103ec610af2565b5b600302016040518060600160405290815f8201805461040b90610c14565b80601f016020809104026020016040519081016040528092919081815260200182805461043790610c14565b80156104825780601f1061045957610100808354040283529160200191610482565b820191905f5260205f20905b81548152906001019060200180831161046557829003601f168201915b50505050508152602001600182015481526020016002820154815250509050919050565b5f8260048111156104ba576104b9610ac5565b5b90505f8260038560048111156104d3576104d2610ac5565b5b600581106104e4576104e3610af2565b5b60030201600101546104f69190610c44565b90505f821015806105075750600582105b610546576040517f08c379a000000000000000000000000000000000000000000000000000000000815260040161053d90610ccf565b60405180910390fd5b826003836005811061055b5761055a610af2565b5b600302016002015410156105a4576040517f08c379a000000000000000000000000000000000000000000000000000000000815260040161059b90610d37565b60405180910390fd5b803410156105e7576040517f08c379a00000000000000000000000000000000000000000000000000000000081526004016105de90610d9f565b60405180910390fd5b82600383600581106105fc576105fb610af2565b5b600302016002015f8282546106119190610dbd565b925050819055503460025f3373ffffffffffffffffffffffffffffffffffffffff1673ffffffffffffffffffffffffffffffffffffffff1681526020019081526020015f205f8282546106649190610b4c565b9250508190555060015f9054906101000a900473ffffffffffffffffffffffffffffffffffffffff1673ffffffffffffffffffffffffffffffffffffffff166108fc8290811502906040515f60405180830381858888f193505050501580156106cf573d5f5f3e3d5ffd5b5050505050565b60015f9054906101000a900473ffffffffffffffffffffffffffffffffffffffff1681565b6002602052805f5260405f205f915090505481565b6040518060600160405280606081526020015f81526020015f81525090565b5f5ffd5b6005811061073f575f5ffd5b50565b5f8135905061075081610733565b92915050565b5f819050919050565b61076881610756565b8114610772575f5ffd5b50565b5f813590506107838161075f565b92915050565b5f5f6040838503121561079f5761079e61072f565b5b5f6107ac85828601610742565b92505060206107bd85828601610775565b9150509250929050565b5f73ffffffffffffffffffffffffffffffffffffffff82169050919050565b5f819050919050565b5f6108096108046107ff846107c7565b6107e6565b6107c7565b9050919050565b5f61081a826107ef565b9050919050565b5f61082b82610810565b9050919050565b61083b81610821565b82525050565b5f6020820190506108545f830184610832565b92915050565b5f6020828403121561086f5761086e61072f565b5b5f61087c84828501610742565b91505092915050565b5f81519050919050565b5f82825260208201905092915050565b8281835e5f83830152505050565b5f601f19601f8301169050919050565b5f6108c782610885565b6108d1818561088f565b93506108e181856020860161089f565b6108ea816108ad565b840191505092915050565b6108fe81610756565b82525050565b5f606083015f8301518482035f86015261091e82826108bd565b915050602083015161093360208601826108f5565b50604083015161094660408601826108f5565b508091505092915050565b5f6020820190508181035f8301526109698184610904565b905092915050565b5f61097b826107c7565b9050919050565b61098b81610971565b82525050565b5f6020820190506109a45f830184610982565b92915050565b6109b381610971565b81146109bd575f5ffd5b50565b5f813590506109ce816109aa565b92915050565b5f602082840312156109e9576109e861072f565b5b5f6109f6848285016109c0565b91505092915050565b610a0881610756565b82525050565b5f602082019050610a215f8301846109ff565b92915050565b5f82825260208201905092915050565b7f4f6e6c79206f776e65722063616e2063616c6c2074686973207265736f7572635f8201527f652e000000000000000000000000000000000000000000000000000000000000602082015250565b5f610a91602283610a27565b9150610a9c82610a37565b604082019050919050565b5f6020820190508181035f830152610abe81610a85565b9050919050565b7f4e487b71000000000000000000000000000000000000000000000000000000005f52602160045260245ffd5b7f4e487b71000000000000000000000000000000000000000000000000000000005f52603260045260245ffd5b7f4e487b71000000000000000000000000000000000000000000000000000000005f52601160045260245ffd5b5f610b5682610756565b9150610b6183610756565b9250828201905080821115610b7957610b78610b1f565b5b92915050565b7f4e6f2066756e647320746f2077697468647261772e00000000000000000000005f82015250565b5f610bb3601583610a27565b9150610bbe82610b7f565b602082019050919050565b5f6020820190508181035f830152610be081610ba7565b9050919050565b7f4e487b71000000000000000000000000000000000000000000000000000000005f52602260045260245ffd5b5f6002820490506001821680610c2b57607f821691505b602082108103610c3e57610c3d610be7565b5b50919050565b5f610c4e82610756565b9150610c5983610756565b9250828202610c6781610756565b91508282048414831517610c7e57610c7d610b1f565b5b5092915050565b7f496e76616c69642070726f6475637420656e756d0000000000000000000000005f82015250565b5f610cb9601483610a27565b9150610cc482610c85565b602082019050919050565b5f6020820190508181035f830152610ce681610cad565b9050919050565b7f50726f64756374206e6f7420656e6f7567682e000000000000000000000000005f82015250565b5f610d21601383610a27565b9150610d2c82610ced565b602082019050919050565b5f6020820190508181035f830152610d4e81610d15565b9050919050565b7f4e6f7420656e6f756768206574686572000000000000000000000000000000005f82015250565b5f610d89601083610a27565b9150610d9482610d55565b602082019050919050565b5f6020820190508181035f830152610db681610d7d565b9050919050565b5f610dc782610756565b9150610dd283610756565b9250828203905081811115610dea57610de9610b1f565b5b9291505056fea2646970667358221220e56983b4cc1b2f37966764fa9813b765429ef6a30838b4e7f51c946c6098ac2464736f6c634300081e0033",
					"opcodes": "PUSH1 0x80 PUSH1 0x40 MSTORE CALLVALUE DUP1 ISZERO PUSH2 0xF JUMPI PUSH0 PUSH0 REVERT JUMPDEST POP PUSH1 0x40 MLOAD PUSH2 0x15A7 CODESIZE SUB DUP1 PUSH2 0x15A7 DUP4 CODECOPY DUP2 DUP2 ADD PUSH1 0x40 MSTORE DUP2 ADD SWAP1 PUSH2 0x31 SWAP2 SWAP1 PUSH2 0x410 JUMP JUMPDEST CALLER PUSH1 0x1 PUSH0 PUSH2 0x100 EXP DUP2 SLOAD DUP2 PUSH20 0xFFFFFFFFFFFFFFFFFFFFFFFFFFFFFFFFFFFFFFFF MUL NOT AND SWAP1 DUP4 PUSH20 0xFFFFFFFFFFFFFFFFFFFFFFFFFFFFFFFFFFFFFFFF AND MUL OR SWAP1 SSTORE POP DUP1 PUSH0 PUSH0 PUSH2 0x100 EXP DUP2 SLOAD DUP2 PUSH20 0xFFFFFFFFFFFFFFFFFFFFFFFFFFFFFFFFFFFFFFFF MUL NOT AND SWAP1 DUP4 PUSH20 0xFFFFFFFFFFFFFFFFFFFFFFFFFFFFFFFFFFFFFFFF AND MUL OR SWAP1 SSTORE POP PUSH1 0x40 MLOAD DUP1 PUSH1 0x60 ADD PUSH1 0x40 MSTORE DUP1 PUSH1 0x40 MLOAD DUP1 PUSH1 0x40 ADD PUSH1 0x40 MSTORE DUP1 PUSH1 0x5 DUP2 MSTORE PUSH1 0x20 ADD PUSH32 0x5761746572000000000000000000000000000000000000000000000000000000 DUP2 MSTORE POP DUP2 MSTORE PUSH1 0x20 ADD PUSH4 0x3B9ACA00 DUP2 MSTORE PUSH1 0x20 ADD PUSH1 0x64 DUP2 MSTORE POP PUSH1 0x3 PUSH0 PUSH1 0x5 DUP2 LT PUSH2 0x119 JUMPI PUSH2 0x118 PUSH2 0x43B JUMP JUMPDEST JUMPDEST PUSH1 0x3 MUL ADD PUSH0 DUP3 ADD MLOAD DUP2 PUSH0 ADD SWAP1 DUP2 PUSH2 0x130 SWAP2 SWAP1 PUSH2 0x6A5 JUMP JUMPDEST POP PUSH1 0x20 DUP3 ADD MLOAD DUP2 PUSH1 0x1 ADD SSTORE PUSH1 0x40 DUP3 ADD MLOAD DUP2 PUSH1 0x2 ADD SSTORE SWAP1 POP POP PUSH1 0x40 MLOAD DUP1 PUSH1 0x60 ADD PUSH1 0x40 MSTORE DUP1 PUSH1 0x40 MLOAD DUP1 PUSH1 0x40 ADD PUSH1 0x40 MSTORE DUP1 PUSH1 0x3 DUP2 MSTORE PUSH1 0x20 ADD PUSH32 0x5465610000000000000000000000000000000000000000000000000000000000 DUP2 MSTORE POP DUP2 MSTORE PUSH1 0x20 ADD PUSH4 0x77359400 DUP2 MSTORE PUSH1 0x20 ADD PUSH1 0x64 DUP2 MSTORE POP PUSH1 0x3 PUSH1 0x1 PUSH1 0x5 DUP2 LT PUSH2 0x1B2 JUMPI PUSH2 0x1B1 PUSH2 0x43B JUMP JUMPDEST JUMPDEST PUSH1 0x3 MUL ADD PUSH0 DUP3 ADD MLOAD DUP2 PUSH0 ADD SWAP1 DUP2 PUSH2 0x1C9 SWAP2 SWAP1 PUSH2 0x6A5 JUMP JUMPDEST POP PUSH1 0x20 DUP3 ADD MLOAD DUP2 PUSH1 0x1 ADD SSTORE PUSH1 0x40 DUP3 ADD MLOAD DUP2 PUSH1 0x2 ADD SSTORE SWAP1 POP POP PUSH1 0x40 MLOAD DUP1 PUSH1 0x60 ADD PUSH1 0x40 MSTORE DUP1 PUSH1 0x40 MLOAD DUP1 PUSH1 0x40 ADD PUSH1 0x40 MSTORE DUP1 PUSH1 0x5 DUP2 MSTORE PUSH1 0x20 ADD PUSH32 0x4A75696365000000000000000000000000000000000000000000000000000000 DUP2 MSTORE POP DUP2 MSTORE PUSH1 0x20 ADD PUSH4 0xB2D05E00 DUP2 MSTORE PUSH1 0x20 ADD PUSH1 0x64 DUP2 MSTORE POP PUSH1 0x3 PUSH1 0x2 PUSH1 0x5 DUP2 LT PUSH2 0x24B JUMPI PUSH2 0x24A PUSH2 0x43B JUMP JUMPDEST JUMPDEST PUSH1 0x3 MUL ADD PUSH0 DUP3 ADD MLOAD DUP2 PUSH0 ADD SWAP1 DUP2 PUSH2 0x262 SWAP2 SWAP1 PUSH2 0x6A5 JUMP JUMPDEST POP PUSH1 0x20 DUP3 ADD MLOAD DUP2 PUSH1 0x1 ADD SSTORE PUSH1 0x40 DUP3 ADD MLOAD DUP2 PUSH1 0x2 ADD SSTORE SWAP1 POP POP PUSH1 0x40 MLOAD DUP1 PUSH1 0x60 ADD PUSH1 0x40 MSTORE DUP1 PUSH1 0x40 MLOAD DUP1 PUSH1 0x40 ADD PUSH1 0x40 MSTORE DUP1 PUSH1 0x4 DUP2 MSTORE PUSH1 0x20 ADD PUSH32 0x4D696C6B00000000000000000000000000000000000000000000000000000000 DUP2 MSTORE POP DUP2 MSTORE PUSH1 0x20 ADD PUSH4 0xEE6B2800 DUP2 MSTORE PUSH1 0x20 ADD PUSH1 0x64 DUP2 MSTORE POP PUSH1 0x3 DUP1 PUSH1 0x5 DUP2 LT PUSH2 0x2E3 JUMPI PUSH2 0x2E2 PUSH2 0x43B JUMP JUMPDEST JUMPDEST PUSH1 0x3 MUL ADD PUSH0 DUP3 ADD MLOAD DUP2 PUSH0 ADD SWAP1 DUP2 PUSH2 0x2FA SWAP2 SWAP1 PUSH2 0x6A5 JUMP JUMPDEST POP PUSH1 0x20 DUP3 ADD MLOAD DUP2 PUSH1 0x1 ADD SSTORE PUSH1 0x40 DUP3 ADD MLOAD DUP2 PUSH1 0x2 ADD SSTORE SWAP1 POP POP PUSH1 0x40 MLOAD DUP1 PUSH1 0x60 ADD PUSH1 0x40 MSTORE DUP1 PUSH1 0x40 MLOAD DUP1 PUSH1 0x40 ADD PUSH1 0x40 MSTORE DUP1 PUSH1 0x6 DUP2 MSTORE PUSH1 0x20 ADD PUSH32 0x436F666665650000000000000000000000000000000000000000000000000000 DUP2 MSTORE POP DUP2 MSTORE PUSH1 0x20 ADD PUSH5 0x12A05F200 DUP2 MSTORE PUSH1 0x20 ADD PUSH1 0x64 DUP2 MSTORE POP PUSH1 0x3 PUSH1 0x4 PUSH1 0x5 DUP2 LT PUSH2 0x37D JUMPI PUSH2 0x37C PUSH2 0x43B JUMP JUMPDEST JUMPDEST PUSH1 0x3 MUL ADD PUSH0 DUP3 ADD MLOAD DUP2 PUSH0 ADD SWAP1 DUP2 PUSH2 0x394 SWAP2 SWAP1 PUSH2 0x6A5 JUMP JUMPDEST POP PUSH1 0x20 DUP3 ADD MLOAD DUP2 PUSH1 0x1 ADD SSTORE PUSH1 0x40 DUP3 ADD MLOAD DUP2 PUSH1 0x2 ADD SSTORE SWAP1 POP POP POP PUSH2 0x774 JUMP JUMPDEST PUSH0 PUSH0 REVERT JUMPDEST PUSH0 PUSH20 0xFFFFFFFFFFFFFFFFFFFFFFFFFFFFFFFFFFFFFFFF DUP3 AND SWAP1 POP SWAP2 SWAP1 POP JUMP JUMPDEST PUSH0 PUSH2 0x3DF DUP3 PUSH2 0x3B6 JUMP JUMPDEST SWAP1 POP SWAP2 SWAP1 POP JUMP JUMPDEST PUSH2 0x3EF DUP2 PUSH2 0x3D5 JUMP JUMPDEST DUP2 EQ PUSH2 0x3F9 JUMPI PUSH0 PUSH0 REVERT JUMPDEST POP JUMP JUMPDEST PUSH0 DUP2 MLOAD SWAP1 POP PUSH2 0x40A DUP2 PUSH2 0x3E6 JUMP JUMPDEST SWAP3 SWAP2 POP POP JUMP JUMPDEST PUSH0 PUSH1 0x20 DUP3 DUP5 SUB SLT ISZERO PUSH2 0x425 JUMPI PUSH2 0x424 PUSH2 0x3B2 JUMP JUMPDEST JUMPDEST PUSH0 PUSH2 0x432 DUP5 DUP3 DUP6 ADD PUSH2 0x3FC JUMP JUMPDEST SWAP2 POP POP SWAP3 SWAP2 POP POP JUMP JUMPDEST PUSH32 0x4E487B7100000000000000000000000000000000000000000000000000000000 PUSH0 MSTORE PUSH1 0x32 PUSH1 0x4 MSTORE PUSH1 0x24 PUSH0 REVERT JUMPDEST PUSH0 DUP2 MLOAD SWAP1 POP SWAP2 SWAP1 POP JUMP JUMPDEST PUSH32 0x4E487B7100000000000000000000000000000000000000000000000000000000 PUSH0 MSTORE PUSH1 0x41 PUSH1 0x4 MSTORE PUSH1 0x24 PUSH0 REVERT JUMPDEST PUSH32 0x4E487B7100000000000000000000000000000000000000000000000000000000 PUSH0 MSTORE PUSH1 0x22 PUSH1 0x4 MSTORE PUSH1 0x24 PUSH0 REVERT JUMPDEST PUSH0 PUSH1 0x2 DUP3 DIV SWAP1 POP PUSH1 0x1 DUP3 AND DUP1 PUSH2 0x4E3 JUMPI PUSH1 0x7F DUP3 AND SWAP2 POP JUMPDEST PUSH1 0x20 DUP3 LT DUP2 SUB PUSH2 0x4F6 JUMPI PUSH2 0x4F5 PUSH2 0x49F JUMP JUMPDEST JUMPDEST POP SWAP2 SWAP1 POP JUMP JUMPDEST PUSH0 DUP2 SWAP1 POP DUP2 PUSH0 MSTORE PUSH1 0x20 PUSH0 KECCAK256 SWAP1 POP SWAP2 SWAP1 POP JUMP JUMPDEST PUSH0 PUSH1 0x20 PUSH1 0x1F DUP4 ADD DIV SWAP1 POP SWAP2 SWAP1 POP JUMP JUMPDEST PUSH0 DUP3 DUP3 SHL SWAP1 POP SWAP3 SWAP2 POP POP JUMP JUMPDEST PUSH0 PUSH1 0x8 DUP4 MUL PUSH2 0x558 PUSH32 0xFFFFFFFFFFFFFFFFFFFFFFFFFFFFFFFFFFFFFFFFFFFFFFFFFFFFFFFFFFFFFFFF DUP3 PUSH2 0x51D JUMP JUMPDEST PUSH2 0x562 DUP7 DUP4 PUSH2 0x51D JUMP JUMPDEST SWAP6 POP DUP1 NOT DUP5 AND SWAP4 POP DUP1 DUP7 AND DUP5 OR SWAP3 POP POP POP SWAP4 SWAP3 POP POP POP JUMP JUMPDEST PUSH0 DUP2 SWAP1 POP SWAP2 SWAP1 POP JUMP JUMPDEST PUSH0 DUP2 SWAP1 POP SWAP2 SWAP1 POP JUMP JUMPDEST PUSH0 PUSH2 0x5A6 PUSH2 0x5A1 PUSH2 0x59C DUP5 PUSH2 0x57A JUMP JUMPDEST PUSH2 0x583 JUMP JUMPDEST PUSH2 0x57A JUMP JUMPDEST SWAP1 POP SWAP2 SWAP1 POP JUMP JUMPDEST PUSH0 DUP2 SWAP1 POP SWAP2 SWAP1 POP JUMP JUMPDEST PUSH2 0x5BF DUP4 PUSH2 0x58C JUMP JUMPDEST PUSH2 0x5D3 PUSH2 0x5CB DUP3 PUSH2 0x5AD JUMP JUMPDEST DUP5 DUP5 SLOAD PUSH2 0x529 JUMP JUMPDEST DUP3 SSTORE POP POP POP POP JUMP JUMPDEST PUSH0 PUSH0 SWAP1 POP SWAP1 JUMP JUMPDEST PUSH2 0x5EA PUSH2 0x5DB JUMP JUMPDEST PUSH2 0x5F5 DUP2 DUP5 DUP5 PUSH2 0x5B6 JUMP JUMPDEST POP POP POP JUMP JUMPDEST JUMPDEST DUP2 DUP2 LT ISZERO PUSH2 0x618 JUMPI PUSH2 0x60D PUSH0 DUP3 PUSH2 0x5E2 JUMP JUMPDEST PUSH1 0x1 DUP2 ADD SWAP1 POP PUSH2 0x5FB JUMP JUMPDEST POP POP JUMP JUMPDEST PUSH1 0x1F DUP3 GT ISZERO PUSH2 0x65D JUMPI PUSH2 0x62E DUP2 PUSH2 0x4FC JUMP JUMPDEST PUSH2 0x637 DUP5 PUSH2 0x50E JUMP JUMPDEST DUP2 ADD PUSH1 0x20 DUP6 LT ISZERO PUSH2 0x646 JUMPI DUP2 SWAP1 POP JUMPDEST PUSH2 0x65A PUSH2 0x652 DUP6 PUSH2 0x50E JUMP JUMPDEST DUP4 ADD DUP3 PUSH2 0x5FA JUMP JUMPDEST POP POP JUMPDEST POP POP POP JUMP JUMPDEST PUSH0 DUP3 DUP3 SHR SWAP1 POP SWAP3 SWAP2 POP POP JUMP JUMPDEST PUSH0 PUSH2 0x67D PUSH0 NOT DUP5 PUSH1 0x8 MUL PUSH2 0x662 JUMP JUMPDEST NOT DUP1 DUP4 AND SWAP2 POP POP SWAP3 SWAP2 POP POP JUMP JUMPDEST PUSH0 PUSH2 0x695 DUP4 DUP4 PUSH2 0x66E JUMP JUMPDEST SWAP2 POP DUP3 PUSH1 0x2 MUL DUP3 OR SWAP1 POP SWAP3 SWAP2 POP POP JUMP JUMPDEST PUSH2 0x6AE DUP3 PUSH2 0x468 JUMP JUMPDEST PUSH8 0xFFFFFFFFFFFFFFFF DUP2 GT ISZERO PUSH2 0x6C7 JUMPI PUSH2 0x6C6 PUSH2 0x472 JUMP JUMPDEST JUMPDEST PUSH2 0x6D1 DUP3 SLOAD PUSH2 0x4CC JUMP JUMPDEST PUSH2 0x6DC DUP3 DUP3 DUP6 PUSH2 0x61C JUMP JUMPDEST PUSH0 PUSH1 0x20 SWAP1 POP PUSH1 0x1F DUP4 GT PUSH1 0x1 DUP2 EQ PUSH2 0x70D JUMPI PUSH0 DUP5 ISZERO PUSH2 0x6FB JUMPI DUP3 DUP8 ADD MLOAD SWAP1 POP JUMPDEST PUSH2 0x705 DUP6 DUP3 PUSH2 0x68A JUMP JUMPDEST DUP7 SSTORE POP PUSH2 0x76C JUMP JUMPDEST PUSH1 0x1F NOT DUP5 AND PUSH2 0x71B DUP7 PUSH2 0x4FC JUMP JUMPDEST PUSH0 JUMPDEST DUP3 DUP2 LT ISZERO PUSH2 0x742 JUMPI DUP5 DUP10 ADD MLOAD DUP3 SSTORE PUSH1 0x1 DUP3 ADD SWAP2 POP PUSH1 0x20 DUP6 ADD SWAP5 POP PUSH1 0x20 DUP2 ADD SWAP1 POP PUSH2 0x71D JUMP JUMPDEST DUP7 DUP4 LT ISZERO PUSH2 0x75F JUMPI DUP5 DUP10 ADD MLOAD PUSH2 0x75B PUSH1 0x1F DUP10 AND DUP3 PUSH2 0x66E JUMP JUMPDEST DUP4 SSTORE POP JUMPDEST PUSH1 0x1 PUSH1 0x2 DUP9 MUL ADD DUP9 SSTORE POP POP POP JUMPDEST POP POP POP POP POP POP JUMP JUMPDEST PUSH2 0xE26 DUP1 PUSH2 0x781 PUSH0 CODECOPY PUSH0 RETURN INVALID PUSH1 0x80 PUSH1 0x40 MSTORE PUSH1 0x4 CALLDATASIZE LT PUSH2 0x6F JUMPI PUSH0 CALLDATALOAD PUSH1 0xE0 SHR DUP1 PUSH4 0x5B291DBA GT PUSH2 0x4D JUMPI DUP1 PUSH4 0x5B291DBA EQ PUSH2 0xCF JUMPI DUP1 PUSH4 0x62F791C0 EQ PUSH2 0x10B JUMPI DUP1 PUSH4 0x8DA5CB5B EQ PUSH2 0x127 JUMPI DUP1 PUSH4 0xC32FDF34 EQ PUSH2 0x151 JUMPI PUSH2 0x6F JUMP JUMPDEST DUP1 PUSH4 0x2D153A8C EQ PUSH2 0x73 JUMPI DUP1 PUSH4 0x49649FBF EQ PUSH2 0x9B JUMPI DUP1 PUSH4 0x521EB273 EQ PUSH2 0xA5 JUMPI JUMPDEST PUSH0 PUSH0 REVERT JUMPDEST CALLVALUE DUP1 ISZERO PUSH2 0x7E JUMPI PUSH0 PUSH0 REVERT JUMPDEST POP PUSH2 0x99 PUSH1 0x4 DUP1 CALLDATASIZE SUB DUP2 ADD SWAP1 PUSH2 0x94 SWAP2 SWAP1 PUSH2 0x789 JUMP JUMPDEST PUSH2 0x18D JUMP JUMPDEST STOP JUMPDEST PUSH2 0xA3 PUSH2 0x263 JUMP JUMPDEST STOP JUMPDEST CALLVALUE DUP1 ISZERO PUSH2 0xB0 JUMPI PUSH0 PUSH0 REVERT JUMPDEST POP PUSH2 0xB9 PUSH2 0x39B JUMP JUMPDEST PUSH1 0x40 MLOAD PUSH2 0xC6 SWAP2 SWAP1 PUSH2 0x841 JUMP JUMPDEST PUSH1 0x40 MLOAD DUP1 SWAP2 SUB SWAP1 RETURN JUMPDEST CALLVALUE DUP1 ISZERO PUSH2 0xDA JUMPI PUSH0 PUSH0 REVERT JUMPDEST POP PUSH2 0xF5 PUSH1 0x4 DUP1 CALLDATASIZE SUB DUP2 ADD SWAP1 PUSH2 0xF0 SWAP2 SWAP1 PUSH2 0x85A JUMP JUMPDEST PUSH2 0x3BF JUMP JUMPDEST PUSH1 0x40 MLOAD PUSH2 0x102 SWAP2 SWAP1 PUSH2 0x951 JUMP JUMPDEST PUSH1 0x40 MLOAD DUP1 SWAP2 SUB SWAP1 RETURN JUMPDEST PUSH2 0x125 PUSH1 0x4 DUP1 CALLDATASIZE SUB DUP2 ADD SWAP1 PUSH2 0x120 SWAP2 SWAP1 PUSH2 0x789 JUMP JUMPDEST PUSH2 0x4A6 JUMP JUMPDEST STOP JUMPDEST CALLVALUE DUP1 ISZERO PUSH2 0x132 JUMPI PUSH0 PUSH0 REVERT JUMPDEST POP PUSH2 0x13B PUSH2 0x6D6 JUMP JUMPDEST PUSH1 0x40 MLOAD PUSH2 0x148 SWAP2 SWAP1 PUSH2 0x991 JUMP JUMPDEST PUSH1 0x40 MLOAD DUP1 SWAP2 SUB SWAP1 RETURN JUMPDEST CALLVALUE DUP1 ISZERO PUSH2 0x15C JUMPI PUSH0 PUSH0 REVERT JUMPDEST POP PUSH2 0x177 PUSH1 0x4 DUP1 CALLDATASIZE SUB DUP2 ADD SWAP1 PUSH2 0x172 SWAP2 SWAP1 PUSH2 0x9D4 JUMP JUMPDEST PUSH2 0x6FB JUMP JUMPDEST PUSH1 0x40 MLOAD PUSH2 0x184 SWAP2 SWAP1 PUSH2 0xA0E JUMP JUMPDEST PUSH1 0x40 MLOAD DUP1 SWAP2 SUB SWAP1 RETURN JUMPDEST PUSH1 0x1 PUSH0 SWAP1 SLOAD SWAP1 PUSH2 0x100 EXP SWAP1 DIV PUSH20 0xFFFFFFFFFFFFFFFFFFFFFFFFFFFFFFFFFFFFFFFF AND PUSH20 0xFFFFFFFFFFFFFFFFFFFFFFFFFFFFFFFFFFFFFFFF AND CALLER PUSH20 0xFFFFFFFFFFFFFFFFFFFFFFFFFFFFFFFFFFFFFFFF AND EQ PUSH2 0x21C JUMPI PUSH1 0x40 MLOAD PUSH32 0x8C379A000000000000000000000000000000000000000000000000000000000 DUP2 MSTORE PUSH1 0x4 ADD PUSH2 0x213 SWAP1 PUSH2 0xAA7 JUMP JUMPDEST PUSH1 0x40 MLOAD DUP1 SWAP2 SUB SWAP1 REVERT JUMPDEST DUP1 PUSH1 0x3 DUP4 PUSH1 0x4 DUP2 GT ISZERO PUSH2 0x232 JUMPI PUSH2 0x231 PUSH2 0xAC5 JUMP JUMPDEST JUMPDEST PUSH1 0x5 DUP2 LT PUSH2 0x243 JUMPI PUSH2 0x242 PUSH2 0xAF2 JUMP JUMPDEST JUMPDEST PUSH1 0x3 MUL ADD PUSH1 0x2 ADD PUSH0 DUP3 DUP3 SLOAD PUSH2 0x258 SWAP2 SWAP1 PUSH2 0xB4C JUMP JUMPDEST SWAP3 POP POP DUP2 SWAP1 SSTORE POP POP POP JUMP JUMPDEST PUSH1 0x1 PUSH0 SWAP1 SLOAD SWAP1 PUSH2 0x100 EXP SWAP1 DIV PUSH20 0xFFFFFFFFFFFFFFFFFFFFFFFFFFFFFFFFFFFFFFFF AND PUSH20 0xFFFFFFFFFFFFFFFFFFFFFFFFFFFFFFFFFFFFFFFF AND CALLER PUSH20 0xFFFFFFFFFFFFFFFFFFFFFFFFFFFFFFFFFFFFFFFF AND EQ PUSH2 0x2F2 JUMPI PUSH1 0x40 MLOAD PUSH32 0x8C379A000000000000000000000000000000000000000000000000000000000 DUP2 MSTORE PUSH1 0x4 ADD PUSH2 0x2E9 SWAP1 PUSH2 0xAA7 JUMP JUMPDEST PUSH1 0x40 MLOAD DUP1 SWAP2 SUB SWAP1 REVERT JUMPDEST PUSH0 SELFBALANCE GT PUSH2 0x334 JUMPI PUSH1 0x40 MLOAD PUSH32 0x8C379A000000000000000000000000000000000000000000000000000000000 DUP2 MSTORE PUSH1 0x4 ADD PUSH2 0x32B SWAP1 PUSH2 0xBC9 JUMP JUMPDEST PUSH1 0x40 MLOAD DUP1 SWAP2 SUB SWAP1 REVERT JUMPDEST PUSH1 0x1 PUSH0 SWAP1 SLOAD SWAP1 PUSH2 0x100 EXP SWAP1 DIV PUSH20 0xFFFFFFFFFFFFFFFFFFFFFFFFFFFFFFFFFFFFFFFF AND PUSH20 0xFFFFFFFFFFFFFFFFFFFFFFFFFFFFFFFFFFFFFFFF AND PUSH2 0x8FC SELFBALANCE SWAP1 DUP2 ISZERO MUL SWAP1 PUSH1 0x40 MLOAD PUSH0 PUSH1 0x40 MLOAD DUP1 DUP4 SUB DUP2 DUP6 DUP9 DUP9 CALL SWAP4 POP POP POP POP ISZERO DUP1 ISZERO PUSH2 0x398 JUMPI RETURNDATASIZE PUSH0 PUSH0 RETURNDATACOPY RETURNDATASIZE PUSH0 REVERT JUMPDEST POP JUMP JUMPDEST PUSH0 PUSH0 SWAP1 SLOAD SWAP1 PUSH2 0x100 EXP SWAP1 DIV PUSH20 0xFFFFFFFFFFFFFFFFFFFFFFFFFFFFFFFFFFFFFFFF AND DUP2 JUMP JUMPDEST PUSH2 0x3C7 PUSH2 0x710 JUMP JUMPDEST PUSH1 0x3 DUP3 PUSH1 0x4 DUP2 GT ISZERO PUSH2 0x3DC JUMPI PUSH2 0x3DB PUSH2 0xAC5 JUMP JUMPDEST JUMPDEST PUSH1 0x5 DUP2 LT PUSH2 0x3ED JUMPI PUSH2 0x3EC PUSH2 0xAF2 JUMP JUMPDEST JUMPDEST PUSH1 0x3 MUL ADD PUSH1 0x40 MLOAD DUP1 PUSH1 0x60 ADD PUSH1 0x40 MSTORE SWAP1 DUP2 PUSH0 DUP3 ADD DUP1 SLOAD PUSH2 0x40B SWAP1 PUSH2 0xC14 JUMP JUMPDEST DUP1 PUSH1 0x1F ADD PUSH1 0x20 DUP1 SWAP2 DIV MUL PUSH1 0x20 ADD PUSH1 0x40 MLOAD SWAP1 DUP2 ADD PUSH1 0x40 MSTORE DUP1 SWAP3 SWAP2 SWAP1 DUP2 DUP2 MSTORE PUSH1 0x20 ADD DUP3 DUP1 SLOAD PUSH2 0x437 SWAP1 PUSH2 0xC14 JUMP JUMPDEST DUP1 ISZERO PUSH2 0x482 JUMPI DUP1 PUSH1 0x1F LT PUSH2 0x459 JUMPI PUSH2 0x100 DUP1 DUP4 SLOAD DIV MUL DUP4 MSTORE SWAP2 PUSH1 0x20 ADD SWAP2 PUSH2 0x482 JUMP JUMPDEST DUP3 ADD SWAP2 SWAP1 PUSH0 MSTORE PUSH1 0x20 PUSH0 KECCAK256 SWAP1 JUMPDEST DUP2 SLOAD DUP2 MSTORE SWAP1 PUSH1 0x1 ADD SWAP1 PUSH1 0x20 ADD DUP1 DUP4 GT PUSH2 0x465 JUMPI DUP3 SWAP1 SUB PUSH1 0x1F AND DUP3 ADD SWAP2 JUMPDEST POP POP POP POP POP DUP2 MSTORE PUSH1 0x20 ADD PUSH1 0x1 DUP3 ADD SLOAD DUP2 MSTORE PUSH1 0x20 ADD PUSH1 0x2 DUP3 ADD SLOAD DUP2 MSTORE POP POP SWAP1 POP SWAP2 SWAP1 POP JUMP JUMPDEST PUSH0 DUP3 PUSH1 0x4 DUP2 GT ISZERO PUSH2 0x4BA JUMPI PUSH2 0x4B9 PUSH2 0xAC5 JUMP JUMPDEST JUMPDEST SWAP1 POP PUSH0 DUP3 PUSH1 0x3 DUP6 PUSH1 0x4 DUP2 GT ISZERO PUSH2 0x4D3 JUMPI PUSH2 0x4D2 PUSH2 0xAC5 JUMP JUMPDEST JUMPDEST PUSH1 0x5 DUP2 LT PUSH2 0x4E4 JUMPI PUSH2 0x4E3 PUSH2 0xAF2 JUMP JUMPDEST JUMPDEST PUSH1 0x3 MUL ADD PUSH1 0x1 ADD SLOAD PUSH2 0x4F6 SWAP2 SWAP1 PUSH2 0xC44 JUMP JUMPDEST SWAP1 POP PUSH0 DUP3 LT ISZERO DUP1 PUSH2 0x507 JUMPI POP PUSH1 0x5 DUP3 LT JUMPDEST PUSH2 0x546 JUMPI PUSH1 0x40 MLOAD PUSH32 0x8C379A000000000000000000000000000000000000000000000000000000000 DUP2 MSTORE PUSH1 0x4 ADD PUSH2 0x53D SWAP1 PUSH2 0xCCF JUMP JUMPDEST PUSH1 0x40 MLOAD DUP1 SWAP2 SUB SWAP1 REVERT JUMPDEST DUP3 PUSH1 0x3 DUP4 PUSH1 0x5 DUP2 LT PUSH2 0x55B JUMPI PUSH2 0x55A PUSH2 0xAF2 JUMP JUMPDEST JUMPDEST PUSH1 0x3 MUL ADD PUSH1 0x2 ADD SLOAD LT ISZERO PUSH2 0x5A4 JUMPI PUSH1 0x40 MLOAD PUSH32 0x8C379A000000000000000000000000000000000000000000000000000000000 DUP2 MSTORE PUSH1 0x4 ADD PUSH2 0x59B SWAP1 PUSH2 0xD37 JUMP JUMPDEST PUSH1 0x40 MLOAD DUP1 SWAP2 SUB SWAP1 REVERT JUMPDEST DUP1 CALLVALUE LT ISZERO PUSH2 0x5E7 JUMPI PUSH1 0x40 MLOAD PUSH32 0x8C379A000000000000000000000000000000000000000000000000000000000 DUP2 MSTORE PUSH1 0x4 ADD PUSH2 0x5DE SWAP1 PUSH2 0xD9F JUMP JUMPDEST PUSH1 0x40 MLOAD DUP1 SWAP2 SUB SWAP1 REVERT JUMPDEST DUP3 PUSH1 0x3 DUP4 PUSH1 0x5 DUP2 LT PUSH2 0x5FC JUMPI PUSH2 0x5FB PUSH2 0xAF2 JUMP JUMPDEST JUMPDEST PUSH1 0x3 MUL ADD PUSH1 0x2 ADD PUSH0 DUP3 DUP3 SLOAD PUSH2 0x611 SWAP2 SWAP1 PUSH2 0xDBD JUMP JUMPDEST SWAP3 POP POP DUP2 SWAP1 SSTORE POP CALLVALUE PUSH1 0x2 PUSH0 CALLER PUSH20 0xFFFFFFFFFFFFFFFFFFFFFFFFFFFFFFFFFFFFFFFF AND PUSH20 0xFFFFFFFFFFFFFFFFFFFFFFFFFFFFFFFFFFFFFFFF AND DUP2 MSTORE PUSH1 0x20 ADD SWAP1 DUP2 MSTORE PUSH1 0x20 ADD PUSH0 KECCAK256 PUSH0 DUP3 DUP3 SLOAD PUSH2 0x664 SWAP2 SWAP1 PUSH2 0xB4C JUMP JUMPDEST SWAP3 POP POP DUP2 SWAP1 SSTORE POP PUSH1 0x1 PUSH0 SWAP1 SLOAD SWAP1 PUSH2 0x100 EXP SWAP1 DIV PUSH20 0xFFFFFFFFFFFFFFFFFFFFFFFFFFFFFFFFFFFFFFFF AND PUSH20 0xFFFFFFFFFFFFFFFFFFFFFFFFFFFFFFFFFFFFFFFF AND PUSH2 0x8FC DUP3 SWAP1 DUP2 ISZERO MUL SWAP1 PUSH1 0x40 MLOAD PUSH0 PUSH1 0x40 MLOAD DUP1 DUP4 SUB DUP2 DUP6 DUP9 DUP9 CALL SWAP4 POP POP POP POP ISZERO DUP1 ISZERO PUSH2 0x6CF JUMPI RETURNDATASIZE PUSH0 PUSH0 RETURNDATACOPY RETURNDATASIZE PUSH0 REVERT JUMPDEST POP POP POP POP POP JUMP JUMPDEST PUSH1 0x1 PUSH0 SWAP1 SLOAD SWAP1 PUSH2 0x100 EXP SWAP1 DIV PUSH20 0xFFFFFFFFFFFFFFFFFFFFFFFFFFFFFFFFFFFFFFFF AND DUP2 JUMP JUMPDEST PUSH1 0x2 PUSH1 0x20 MSTORE DUP1 PUSH0 MSTORE PUSH1 0x40 PUSH0 KECCAK256 PUSH0 SWAP2 POP SWAP1 POP SLOAD DUP2 JUMP JUMPDEST PUSH1 0x40 MLOAD DUP1 PUSH1 0x60 ADD PUSH1 0x40 MSTORE DUP1 PUSH1 0x60 DUP2 MSTORE PUSH1 0x20 ADD PUSH0 DUP2 MSTORE PUSH1 0x20 ADD PUSH0 DUP2 MSTORE POP SWAP1 JUMP JUMPDEST PUSH0 PUSH0 REVERT JUMPDEST PUSH1 0x5 DUP2 LT PUSH2 0x73F JUMPI PUSH0 PUSH0 REVERT JUMPDEST POP JUMP JUMPDEST PUSH0 DUP2 CALLDATALOAD SWAP1 POP PUSH2 0x750 DUP2 PUSH2 0x733 JUMP JUMPDEST SWAP3 SWAP2 POP POP JUMP JUMPDEST PUSH0 DUP2 SWAP1 POP SWAP2 SWAP1 POP JUMP JUMPDEST PUSH2 0x768 DUP2 PUSH2 0x756 JUMP JUMPDEST DUP2 EQ PUSH2 0x772 JUMPI PUSH0 PUSH0 REVERT JUMPDEST POP JUMP JUMPDEST PUSH0 DUP2 CALLDATALOAD SWAP1 POP PUSH2 0x783 DUP2 PUSH2 0x75F JUMP JUMPDEST SWAP3 SWAP2 POP POP JUMP JUMPDEST PUSH0 PUSH0 PUSH1 0x40 DUP4 DUP6 SUB SLT ISZERO PUSH2 0x79F JUMPI PUSH2 0x79E PUSH2 0x72F JUMP JUMPDEST JUMPDEST PUSH0 PUSH2 0x7AC DUP6 DUP3 DUP7 ADD PUSH2 0x742 JUMP JUMPDEST SWAP3 POP POP PUSH1 0x20 PUSH2 0x7BD DUP6 DUP3 DUP7 ADD PUSH2 0x775 JUMP JUMPDEST SWAP2 POP POP SWAP3 POP SWAP3 SWAP1 POP JUMP JUMPDEST PUSH0 PUSH20 0xFFFFFFFFFFFFFFFFFFFFFFFFFFFFFFFFFFFFFFFF DUP3 AND SWAP1 POP SWAP2 SWAP1 POP JUMP JUMPDEST PUSH0 DUP2 SWAP1 POP SWAP2 SWAP1 POP JUMP JUMPDEST PUSH0 PUSH2 0x809 PUSH2 0x804 PUSH2 0x7FF DUP5 PUSH2 0x7C7 JUMP JUMPDEST PUSH2 0x7E6 JUMP JUMPDEST PUSH2 0x7C7 JUMP JUMPDEST SWAP1 POP SWAP2 SWAP1 POP JUMP JUMPDEST PUSH0 PUSH2 0x81A DUP3 PUSH2 0x7EF JUMP JUMPDEST SWAP1 POP SWAP2 SWAP1 POP JUMP JUMPDEST PUSH0 PUSH2 0x82B DUP3 PUSH2 0x810 JUMP JUMPDEST SWAP1 POP SWAP2 SWAP1 POP JUMP JUMPDEST PUSH2 0x83B DUP2 PUSH2 0x821 JUMP JUMPDEST DUP3 MSTORE POP POP JUMP JUMPDEST PUSH0 PUSH1 0x20 DUP3 ADD SWAP1 POP PUSH2 0x854 PUSH0 DUP4 ADD DUP5 PUSH2 0x832 JUMP JUMPDEST SWAP3 SWAP2 POP POP JUMP JUMPDEST PUSH0 PUSH1 0x20 DUP3 DUP5 SUB SLT ISZERO PUSH2 0x86F JUMPI PUSH2 0x86E PUSH2 0x72F JUMP JUMPDEST JUMPDEST PUSH0 PUSH2 0x87C DUP5 DUP3 DUP6 ADD PUSH2 0x742 JUMP JUMPDEST SWAP2 POP POP SWAP3 SWAP2 POP POP JUMP JUMPDEST PUSH0 DUP2 MLOAD SWAP1 POP SWAP2 SWAP1 POP JUMP JUMPDEST PUSH0 DUP3 DUP3 MSTORE PUSH1 0x20 DUP3 ADD SWAP1 POP SWAP3 SWAP2 POP POP JUMP JUMPDEST DUP3 DUP2 DUP4 MCOPY PUSH0 DUP4 DUP4 ADD MSTORE POP POP POP JUMP JUMPDEST PUSH0 PUSH1 0x1F NOT PUSH1 0x1F DUP4 ADD AND SWAP1 POP SWAP2 SWAP1 POP JUMP JUMPDEST PUSH0 PUSH2 0x8C7 DUP3 PUSH2 0x885 JUMP JUMPDEST PUSH2 0x8D1 DUP2 DUP6 PUSH2 0x88F JUMP JUMPDEST SWAP4 POP PUSH2 0x8E1 DUP2 DUP6 PUSH1 0x20 DUP7 ADD PUSH2 0x89F JUMP JUMPDEST PUSH2 0x8EA DUP2 PUSH2 0x8AD JUMP JUMPDEST DUP5 ADD SWAP2 POP POP SWAP3 SWAP2 POP POP JUMP JUMPDEST PUSH2 0x8FE DUP2 PUSH2 0x756 JUMP JUMPDEST DUP3 MSTORE POP POP JUMP JUMPDEST PUSH0 PUSH1 0x60 DUP4 ADD PUSH0 DUP4 ADD MLOAD DUP5 DUP3 SUB PUSH0 DUP7 ADD MSTORE PUSH2 0x91E DUP3 DUP3 PUSH2 0x8BD JUMP JUMPDEST SWAP2 POP POP PUSH1 0x20 DUP4 ADD MLOAD PUSH2 0x933 PUSH1 0x20 DUP7 ADD DUP3 PUSH2 0x8F5 JUMP JUMPDEST POP PUSH1 0x40 DUP4 ADD MLOAD PUSH2 0x946 PUSH1 0x40 DUP7 ADD DUP3 PUSH2 0x8F5 JUMP JUMPDEST POP DUP1 SWAP2 POP POP SWAP3 SWAP2 POP POP JUMP JUMPDEST PUSH0 PUSH1 0x20 DUP3 ADD SWAP1 POP DUP2 DUP2 SUB PUSH0 DUP4 ADD MSTORE PUSH2 0x969 DUP2 DUP5 PUSH2 0x904 JUMP JUMPDEST SWAP1 POP SWAP3 SWAP2 POP POP JUMP JUMPDEST PUSH0 PUSH2 0x97B DUP3 PUSH2 0x7C7 JUMP JUMPDEST SWAP1 POP SWAP2 SWAP1 POP JUMP JUMPDEST PUSH2 0x98B DUP2 PUSH2 0x971 JUMP JUMPDEST DUP3 MSTORE POP POP JUMP JUMPDEST PUSH0 PUSH1 0x20 DUP3 ADD SWAP1 POP PUSH2 0x9A4 PUSH0 DUP4 ADD DUP5 PUSH2 0x982 JUMP JUMPDEST SWAP3 SWAP2 POP POP JUMP JUMPDEST PUSH2 0x9B3 DUP2 PUSH2 0x971 JUMP JUMPDEST DUP2 EQ PUSH2 0x9BD JUMPI PUSH0 PUSH0 REVERT JUMPDEST POP JUMP JUMPDEST PUSH0 DUP2 CALLDATALOAD SWAP1 POP PUSH2 0x9CE DUP2 PUSH2 0x9AA JUMP JUMPDEST SWAP3 SWAP2 POP POP JUMP JUMPDEST PUSH0 PUSH1 0x20 DUP3 DUP5 SUB SLT ISZERO PUSH2 0x9E9 JUMPI PUSH2 0x9E8 PUSH2 0x72F JUMP JUMPDEST JUMPDEST PUSH0 PUSH2 0x9F6 DUP5 DUP3 DUP6 ADD PUSH2 0x9C0 JUMP JUMPDEST SWAP2 POP POP SWAP3 SWAP2 POP POP JUMP JUMPDEST PUSH2 0xA08 DUP2 PUSH2 0x756 JUMP JUMPDEST DUP3 MSTORE POP POP JUMP JUMPDEST PUSH0 PUSH1 0x20 DUP3 ADD SWAP1 POP PUSH2 0xA21 PUSH0 DUP4 ADD DUP5 PUSH2 0x9FF JUMP JUMPDEST SWAP3 SWAP2 POP POP JUMP JUMPDEST PUSH0 DUP3 DUP3 MSTORE PUSH1 0x20 DUP3 ADD SWAP1 POP SWAP3 SWAP2 POP POP JUMP JUMPDEST PUSH32 0x4F6E6C79206F776E65722063616E2063616C6C2074686973207265736F757263 PUSH0 DUP3 ADD MSTORE PUSH32 0x652E000000000000000000000000000000000000000000000000000000000000 PUSH1 0x20 DUP3 ADD MSTORE POP JUMP JUMPDEST PUSH0 PUSH2 0xA91 PUSH1 0x22 DUP4 PUSH2 0xA27 JUMP JUMPDEST SWAP2 POP PUSH2 0xA9C DUP3 PUSH2 0xA37 JUMP JUMPDEST PUSH1 0x40 DUP3 ADD SWAP1 POP SWAP2 SWAP1 POP JUMP JUMPDEST PUSH0 PUSH1 0x20 DUP3 ADD SWAP1 POP DUP2 DUP2 SUB PUSH0 DUP4 ADD MSTORE PUSH2 0xABE DUP2 PUSH2 0xA85 JUMP JUMPDEST SWAP1 POP SWAP2 SWAP1 POP JUMP JUMPDEST PUSH32 0x4E487B7100000000000000000000000000000000000000000000000000000000 PUSH0 MSTORE PUSH1 0x21 PUSH1 0x4 MSTORE PUSH1 0x24 PUSH0 REVERT JUMPDEST PUSH32 0x4E487B7100000000000000000000000000000000000000000000000000000000 PUSH0 MSTORE PUSH1 0x32 PUSH1 0x4 MSTORE PUSH1 0x24 PUSH0 REVERT JUMPDEST PUSH32 0x4E487B7100000000000000000000000000000000000000000000000000000000 PUSH0 MSTORE PUSH1 0x11 PUSH1 0x4 MSTORE PUSH1 0x24 PUSH0 REVERT JUMPDEST PUSH0 PUSH2 0xB56 DUP3 PUSH2 0x756 JUMP JUMPDEST SWAP2 POP PUSH2 0xB61 DUP4 PUSH2 0x756 JUMP JUMPDEST SWAP3 POP DUP3 DUP3 ADD SWAP1 POP DUP1 DUP3 GT ISZERO PUSH2 0xB79 JUMPI PUSH2 0xB78 PUSH2 0xB1F JUMP JUMPDEST JUMPDEST SWAP3 SWAP2 POP POP JUMP JUMPDEST PUSH32 0x4E6F2066756E647320746F2077697468647261772E0000000000000000000000 PUSH0 DUP3 ADD MSTORE POP JUMP JUMPDEST PUSH0 PUSH2 0xBB3 PUSH1 0x15 DUP4 PUSH2 0xA27 JUMP JUMPDEST SWAP2 POP PUSH2 0xBBE DUP3 PUSH2 0xB7F JUMP JUMPDEST PUSH1 0x20 DUP3 ADD SWAP1 POP SWAP2 SWAP1 POP JUMP JUMPDEST PUSH0 PUSH1 0x20 DUP3 ADD SWAP1 POP DUP2 DUP2 SUB PUSH0 DUP4 ADD MSTORE PUSH2 0xBE0 DUP2 PUSH2 0xBA7 JUMP JUMPDEST SWAP1 POP SWAP2 SWAP1 POP JUMP JUMPDEST PUSH32 0x4E487B7100000000000000000000000000000000000000000000000000000000 PUSH0 MSTORE PUSH1 0x22 PUSH1 0x4 MSTORE PUSH1 0x24 PUSH0 REVERT JUMPDEST PUSH0 PUSH1 0x2 DUP3 DIV SWAP1 POP PUSH1 0x1 DUP3 AND DUP1 PUSH2 0xC2B JUMPI PUSH1 0x7F DUP3 AND SWAP2 POP JUMPDEST PUSH1 0x20 DUP3 LT DUP2 SUB PUSH2 0xC3E JUMPI PUSH2 0xC3D PUSH2 0xBE7 JUMP JUMPDEST JUMPDEST POP SWAP2 SWAP1 POP JUMP JUMPDEST PUSH0 PUSH2 0xC4E DUP3 PUSH2 0x756 JUMP JUMPDEST SWAP2 POP PUSH2 0xC59 DUP4 PUSH2 0x756 JUMP JUMPDEST SWAP3 POP DUP3 DUP3 MUL PUSH2 0xC67 DUP2 PUSH2 0x756 JUMP JUMPDEST SWAP2 POP DUP3 DUP3 DIV DUP5 EQ DUP4 ISZERO OR PUSH2 0xC7E JUMPI PUSH2 0xC7D PUSH2 0xB1F JUMP JUMPDEST JUMPDEST POP SWAP3 SWAP2 POP POP JUMP JUMPDEST PUSH32 0x496E76616C69642070726F6475637420656E756D000000000000000000000000 PUSH0 DUP3 ADD MSTORE POP JUMP JUMPDEST PUSH0 PUSH2 0xCB9 PUSH1 0x14 DUP4 PUSH2 0xA27 JUMP JUMPDEST SWAP2 POP PUSH2 0xCC4 DUP3 PUSH2 0xC85 JUMP JUMPDEST PUSH1 0x20 DUP3 ADD SWAP1 POP SWAP2 SWAP1 POP JUMP JUMPDEST PUSH0 PUSH1 0x20 DUP3 ADD SWAP1 POP DUP2 DUP2 SUB PUSH0 DUP4 ADD MSTORE PUSH2 0xCE6 DUP2 PUSH2 0xCAD JUMP JUMPDEST SWAP1 POP SWAP2 SWAP1 POP JUMP JUMPDEST PUSH32 0x50726F64756374206E6F7420656E6F7567682E00000000000000000000000000 PUSH0 DUP3 ADD MSTORE POP JUMP JUMPDEST PUSH0 PUSH2 0xD21 PUSH1 0x13 DUP4 PUSH2 0xA27 JUMP JUMPDEST SWAP2 POP PUSH2 0xD2C DUP3 PUSH2 0xCED JUMP JUMPDEST PUSH1 0x20 DUP3 ADD SWAP1 POP SWAP2 SWAP1 POP JUMP JUMPDEST PUSH0 PUSH1 0x20 DUP3 ADD SWAP1 POP DUP2 DUP2 SUB PUSH0 DUP4 ADD MSTORE PUSH2 0xD4E DUP2 PUSH2 0xD15 JUMP JUMPDEST SWAP1 POP SWAP2 SWAP1 POP JUMP JUMPDEST PUSH32 0x4E6F7420656E6F75676820657468657200000000000000000000000000000000 PUSH0 DUP3 ADD MSTORE POP JUMP JUMPDEST PUSH0 PUSH2 0xD89 PUSH1 0x10 DUP4 PUSH2 0xA27 JUMP JUMPDEST SWAP2 POP PUSH2 0xD94 DUP3 PUSH2 0xD55 JUMP JUMPDEST PUSH1 0x20 DUP3 ADD SWAP1 POP SWAP2 SWAP1 POP JUMP JUMPDEST PUSH0 PUSH1 0x20 DUP3 ADD SWAP1 POP DUP2 DUP2 SUB PUSH0 DUP4 ADD MSTORE PUSH2 0xDB6 DUP2 PUSH2 0xD7D JUMP JUMPDEST SWAP1 POP SWAP2 SWAP1 POP JUMP JUMPDEST PUSH0 PUSH2 0xDC7 DUP3 PUSH2 0x756 JUMP JUMPDEST SWAP2 POP PUSH2 0xDD2 DUP4 PUSH2 0x756 JUMP JUMPDEST SWAP3 POP DUP3 DUP3 SUB SWAP1 POP DUP2 DUP2 GT ISZERO PUSH2 0xDEA JUMPI PUSH2 0xDE9 PUSH2 0xB1F JUMP JUMPDEST JUMPDEST SWAP3 SWAP2 POP POP JUMP INVALID LOG2 PUSH5 0x6970667358 0x22 SLT KECCAK256 JUMPF 0x6983 0xB4 0xCC SHL 0x2F CALLDATACOPY SWAP7 PUSH8 0x64FA9813B765429E 0xF6 LOG3 ADDMOD CODESIZE 0xB4 SWAPN 0xF5 SHR SWAP5 PUSH13 0x6098AC2464736F6C634300081E STOP CALLER "
				},
				"gasEstimates": {
					"creation": {
						"codeDepositCost": "724400",
						"executionCost": "infinite",
						"totalCost": "infinite"
					},
					"external": {
						"addProduct(uint8,uint256)": "infinite",
						"buy(uint8,uint256)": "infinite",
						"getInfoProduct(uint8)": "infinite",
						"owner()": "2552",
						"transactions(address)": "2868",
						"wallet()": "infinite",
						"withdrawAllFunds()": "infinite"
					}
				},
				"methodIdentifiers": {
					"addProduct(uint8,uint256)": "2d153a8c",
					"buy(uint8,uint256)": "62f791c0",
					"getInfoProduct(uint8)": "5b291dba",
					"owner()": "8da5cb5b",
					"transactions(address)": "c32fdf34",
					"wallet()": "521eb273",
					"withdrawAllFunds()": "49649fbf"
				}
			},
			"storageLayout": {
				"storage": [
					{
						"astId": 6,
						"contract": "contracts/DrinkMachine.sol:DrinkMachine",
						"label": "wallet",
						"offset": 0,
						"slot": "0",
						"type": "t_contract(IDrinkMachineWallet)257"
					},
					{
						"astId": 8,
						"contract": "contracts/DrinkMachine.sol:DrinkMachine",
						"label": "owner",
						"offset": 0,
						"slot": "1",
						"type": "t_address"
					},
					{
						"astId": 12,
						"contract": "contracts/DrinkMachine.sol:DrinkMachine",
						"label": "transactions",
						"offset": 0,
						"slot": "2",
						"type": "t_mapping(t_address,t_uint256)"
					},
					{
						"astId": 17,
						"contract": "contracts/DrinkMachine.sol:DrinkMachine",
						"label": "products",
						"offset": 0,
						"slot": "3",
						"type": "t_array(t_struct(ProductType)266_storage)5_storage"
					}
				],
				"types": {
					"t_address": {
						"encoding": "inplace",
						"label": "address",
						"numberOfBytes": "20"
					},
					"t_array(t_struct(ProductType)266_storage)5_storage": {
						"base": "t_struct(ProductType)266_storage",
						"encoding": "inplace",
						"label": "struct ProductType[5]",
						"numberOfBytes": "480"
					},
					"t_contract(IDrinkMachineWallet)257": {
						"encoding": "inplace",
						"label": "contract IDrinkMachineWallet",
						"numberOfBytes": "20"
					},
					"t_mapping(t_address,t_uint256)": {
						"encoding": "mapping",
						"key": "t_address",
						"label": "mapping(address => uint256)",
						"numberOfBytes": "32",
						"value": "t_uint256"
					},
					"t_string_storage": {
						"encoding": "bytes",
						"label": "string",
						"numberOfBytes": "32"
					},
					"t_struct(ProductType)266_storage": {
						"encoding": "inplace",
						"label": "struct ProductType",
						"members": [
							{
								"astId": 261,
								"contract": "contracts/DrinkMachine.sol:DrinkMachine",
								"label": "name",
								"offset": 0,
								"slot": "0",
								"type": "t_string_storage"
							},
							{
								"astId": 263,
								"contract": "contracts/DrinkMachine.sol:DrinkMachine",
								"label": "price",
								"offset": 0,
								"slot": "1",
								"type": "t_uint256"
							},
							{
								"astId": 265,
								"contract": "contracts/DrinkMachine.sol:DrinkMachine",
								"label": "quantity",
								"offset": 0,
								"slot": "2",
								"type": "t_uint256"
							}
						],
						"numberOfBytes": "96"
					},
					"t_uint256": {
						"encoding": "inplace",
						"label": "uint256",
						"numberOfBytes": "32"
					}
				}
			},
			"userdoc": {
				"kind": "user",
				"methods": {},
				"version": 1
			}
		}
	}
}