{
	"contracts/SimpleWallet.sol": {
		"SimpleWallet": {
			"abi": [
				{
					"inputs": [],
					"stateMutability": "nonpayable",
					"type": "constructor"
				},
				{
					"anonymous": false,
					"inputs": [
						{
							"indexed": true,
							"internalType": "address",
							"name": "user",
							"type": "address"
						},
						{
							"indexed": false,
							"internalType": "uint256",
							"name": "amount",
							"type": "uint256"
						}
					],
					"name": "EtherDeposited",
					"type": "event"
				},
				{
					"anonymous": false,
					"inputs": [
						{
							"indexed": true,
							"internalType": "address",
							"name": "to",
							"type": "address"
						},
						{
							"indexed": false,
							"internalType": "uint256",
							"name": "amount",
							"type": "uint256"
						}
					],
					"name": "EtherWithdrawn",
					"type": "event"
				},
				{
					"anonymous": false,
					"inputs": [
						{
							"indexed": true,
							"internalType": "address",
							"name": "from",
							"type": "address"
						},
						{
							"indexed": true,
							"internalType": "address",
							"name": "to",
							"type": "address"
						},
						{
							"indexed": false,
							"internalType": "uint256",
							"name": "amount",
							"type": "uint256"
						}
					],
					"name": "InternalBalanceTransferred",
					"type": "event"
				},
				{
					"stateMutability": "payable",
					"type": "fallback"
				},
				{
					"inputs": [
						{
							"internalType": "address",
							"name": "",
							"type": "address"
						}
					],
					"name": "balances",
					"outputs": [
						{
							"internalType": "uint256",
							"name": "",
							"type": "uint256"
						}
					],
					"stateMutability": "view",
					"type": "function"
				},
				{
					"inputs": [],
					"name": "deposit",
					"outputs": [],
					"stateMutability": "payable",
					"type": "function"
				},
				{
					"inputs": [],
					"name": "getContractEtherBalance",
					"outputs": [
						{
							"internalType": "uint256",
							"name": "",
							"type": "uint256"
						}
					],
					"stateMutability": "view",
					"type": "function"
				},
				{
					"inputs": [],
					"name": "getMyInternalBalance",
					"outputs": [
						{
							"internalType": "uint256",
							"name": "",
							"type": "uint256"
						}
					],
					"stateMutability": "view",
					"type": "function"
				},
				{
					"inputs": [],
					"name": "owner",
					"outputs": [
						{
							"internalType": "address",
							"name": "",
							"type": "address"
						}
					],
					"stateMutability": "view",
					"type": "function"
				},
				{
					"inputs": [
						{
							"internalType": "address",
							"name": "_to",
							"type": "address"
						},
						{
							"internalType": "uint256",
							"name": "_amount",
							"type": "uint256"
						}
					],
					"name": "transferInternalBalance",
					"outputs": [],
					"stateMutability": "nonpayable",
					"type": "function"
				},
				{
					"inputs": [
						{
							"internalType": "address payable",
							"name": "_to",
							"type": "address"
						},
						{
							"internalType": "uint256",
							"name": "_amount",
							"type": "uint256"
						}
					],
					"name": "withdrawEther",
					"outputs": [],
					"stateMutability": "nonpayable",
					"type": "function"
				},
				{
					"stateMutability": "payable",
					"type": "receive"
				}
			],
			"devdoc": {
				"kind": "dev",
				"methods": {},
				"version": 1
			},
			"evm": {
				"assembly": "    /* \"contracts/SimpleWallet.sol\":57:6054  contract SimpleWallet {... */\n  mstore(0x40, 0x80)\n    /* \"contracts/SimpleWallet.sol\":1937:2141  constructor() {... */\n  callvalue\n  dup1\n  iszero\n  tag_1\n  jumpi\n  revert(0x00, 0x00)\ntag_1:\n  pop\n    /* \"contracts/SimpleWallet.sol\":1969:1979  msg.sender */\n  caller\n    /* \"contracts/SimpleWallet.sol\":1961:1966  owner */\n  0x00\n  0x00\n    /* \"contracts/SimpleWallet.sol\":1961:1979  owner = msg.sender */\n  0x0100\n  exp\n  dup2\n  sload\n  dup2\n  0xffffffffffffffffffffffffffffffffffffffff\n  mul\n  not\n  and\n  swap1\n  dup4\n  0xffffffffffffffffffffffffffffffffffffffff\n  and\n  mul\n  or\n  swap1\n  sstore\n  pop\n    /* \"contracts/SimpleWallet.sol\":2130:2134  1000 */\n  0x03e8\n    /* \"contracts/SimpleWallet.sol\":2112:2120  balances */\n  0x01\n    /* \"contracts/SimpleWallet.sol\":2112:2127  balances[owner] */\n  0x00\n    /* \"contracts/SimpleWallet.sol\":2121:2126  owner */\n  0x00\n  0x00\n  swap1\n  sload\n  swap1\n  0x0100\n  exp\n  swap1\n  div\n  0xffffffffffffffffffffffffffffffffffffffff\n  and\n    /* \"contracts/SimpleWallet.sol\":2112:2127  balances[owner] */\n  0xffffffffffffffffffffffffffffffffffffffff\n  and\n  0xffffffffffffffffffffffffffffffffffffffff\n  and\n  dup2\n  mstore\n  0x20\n  add\n  swap1\n  dup2\n  mstore\n  0x20\n  add\n  0x00\n  keccak256\n    /* \"contracts/SimpleWallet.sol\":2112:2134  balances[owner] = 1000 */\n  dup2\n  swap1\n  sstore\n  pop\n    /* \"contracts/SimpleWallet.sol\":57:6054  contract SimpleWallet {... */\n  dataSize(sub_0)\n  dup1\n  dataOffset(sub_0)\n  0x00\n  codecopy\n  0x00\n  return\nstop\n\nsub_0: assembly {\n        /* \"contracts/SimpleWallet.sol\":57:6054  contract SimpleWallet {... */\n      mstore(0x40, 0x80)\n      jumpi(tag_1, lt(calldatasize, 0x04))\n      shr(0xe0, calldataload(0x00))\n      dup1\n      0x522f6815\n      gt\n      tag_10\n      jumpi\n      dup1\n      0x522f6815\n      eq\n      tag_6\n      jumpi\n      dup1\n      0x8da5cb5b\n      eq\n      tag_7\n      jumpi\n      dup1\n      0xccea65bd\n      eq\n      tag_8\n      jumpi\n      dup1\n      0xd0e30db0\n      eq\n      tag_9\n      jumpi\n      jump(tag_2)\n    tag_10:\n      dup1\n      0x27e235e3\n      eq\n      tag_3\n      jumpi\n      dup1\n      0x30e76dae\n      eq\n      tag_4\n      jumpi\n      dup1\n      0x401658c5\n      eq\n      tag_5\n      jumpi\n      jump(tag_2)\n    tag_1:\n      jumpi(tag_2, calldatasize)\n        /* \"contracts/SimpleWallet.sol\":2737:2746  msg.value */\n      callvalue\n        /* \"contracts/SimpleWallet.sol\":2713:2721  balances */\n      0x01\n        /* \"contracts/SimpleWallet.sol\":2713:2733  balances[msg.sender] */\n      0x00\n        /* \"contracts/SimpleWallet.sol\":2722:2732  msg.sender */\n      caller\n        /* \"contracts/SimpleWallet.sol\":2713:2733  balances[msg.sender] */\n      0xffffffffffffffffffffffffffffffffffffffff\n      and\n      0xffffffffffffffffffffffffffffffffffffffff\n      and\n      dup2\n      mstore\n      0x20\n      add\n      swap1\n      dup2\n      mstore\n      0x20\n      add\n      0x00\n      keccak256\n      0x00\n        /* \"contracts/SimpleWallet.sol\":2713:2746  balances[msg.sender] += msg.value */\n      dup3\n      dup3\n      sload\n      tag_13\n      swap2\n      swap1\n      tag_14\n      jump\t// in\n    tag_13:\n      swap3\n      pop\n      pop\n      dup2\n      swap1\n      sstore\n      pop\n        /* \"contracts/SimpleWallet.sol\":2776:2786  msg.sender */\n      caller\n        /* \"contracts/SimpleWallet.sol\":2761:2798  EtherDeposited(msg.sender, msg.value) */\n      0xffffffffffffffffffffffffffffffffffffffff\n      and\n      0x939e51ac2fd009b158d6344f7e68a83d8d18d9b0cc88cf514aac6aaa9cad2a18\n        /* \"contracts/SimpleWallet.sol\":2788:2797  msg.value */\n      callvalue\n        /* \"contracts/SimpleWallet.sol\":2761:2798  EtherDeposited(msg.sender, msg.value) */\n      mload(0x40)\n      tag_15\n      swap2\n      swap1\n      tag_16\n      jump\t// in\n    tag_15:\n      mload(0x40)\n      dup1\n      swap2\n      sub\n      swap1\n      log2\n        /* \"contracts/SimpleWallet.sol\":57:6054  contract SimpleWallet {... */\n      stop\n    tag_2:\n        /* \"contracts/SimpleWallet.sol\":3271:3280  msg.value */\n      callvalue\n        /* \"contracts/SimpleWallet.sol\":3247:3255  balances */\n      0x01\n        /* \"contracts/SimpleWallet.sol\":3247:3267  balances[msg.sender] */\n      0x00\n        /* \"contracts/SimpleWallet.sol\":3256:3266  msg.sender */\n      caller\n        /* \"contracts/SimpleWallet.sol\":3247:3267  balances[msg.sender] */\n      0xffffffffffffffffffffffffffffffffffffffff\n      and\n      0xffffffffffffffffffffffffffffffffffffffff\n      and\n      dup2\n      mstore\n      0x20\n      add\n      swap1\n      dup2\n      mstore\n      0x20\n      add\n      0x00\n      keccak256\n      0x00\n        /* \"contracts/SimpleWallet.sol\":3247:3280  balances[msg.sender] += msg.value */\n      dup3\n      dup3\n      sload\n      tag_19\n      swap2\n      swap1\n      tag_14\n      jump\t// in\n    tag_19:\n      swap3\n      pop\n      pop\n      dup2\n      swap1\n      sstore\n      pop\n        /* \"contracts/SimpleWallet.sol\":3310:3320  msg.sender */\n      caller\n        /* \"contracts/SimpleWallet.sol\":3295:3332  EtherDeposited(msg.sender, msg.value) */\n      0xffffffffffffffffffffffffffffffffffffffff\n      and\n      0x939e51ac2fd009b158d6344f7e68a83d8d18d9b0cc88cf514aac6aaa9cad2a18\n        /* \"contracts/SimpleWallet.sol\":3322:3331  msg.value */\n      callvalue\n        /* \"contracts/SimpleWallet.sol\":3295:3332  EtherDeposited(msg.sender, msg.value) */\n      mload(0x40)\n      tag_20\n      swap2\n      swap1\n      tag_16\n      jump\t// in\n    tag_20:\n      mload(0x40)\n      dup1\n      swap2\n      sub\n      swap1\n      log2\n        /* \"contracts/SimpleWallet.sol\":57:6054  contract SimpleWallet {... */\n      stop\n        /* \"contracts/SimpleWallet.sol\":533:573  mapping(address => uint) public balances */\n    tag_3:\n      callvalue\n      dup1\n      iszero\n      tag_21\n      jumpi\n      revert(0x00, 0x00)\n    tag_21:\n      pop\n      tag_22\n      0x04\n      dup1\n      calldatasize\n      sub\n      dup2\n      add\n      swap1\n      tag_23\n      swap2\n      swap1\n      tag_24\n      jump\t// in\n    tag_23:\n      tag_25\n      jump\t// in\n    tag_22:\n      mload(0x40)\n      tag_26\n      swap2\n      swap1\n      tag_16\n      jump\t// in\n    tag_26:\n      mload(0x40)\n      dup1\n      swap2\n      sub\n      swap1\n      return\n        /* \"contracts/SimpleWallet.sol\":5614:5721  function getContractEtherBalance() public view returns (uint) {... */\n    tag_4:\n      callvalue\n      dup1\n      iszero\n      tag_27\n      jumpi\n      revert(0x00, 0x00)\n    tag_27:\n      pop\n      tag_28\n      tag_29\n      jump\t// in\n    tag_28:\n      mload(0x40)\n      tag_30\n      swap2\n      swap1\n      tag_16\n      jump\t// in\n    tag_30:\n      mload(0x40)\n      dup1\n      swap2\n      sub\n      swap1\n      return\n        /* \"contracts/SimpleWallet.sol\":4105:4848  function transferInternalBalance(address _to, uint _amount) public {... */\n    tag_5:\n      callvalue\n      dup1\n      iszero\n      tag_31\n      jumpi\n      revert(0x00, 0x00)\n    tag_31:\n      pop\n      tag_32\n      0x04\n      dup1\n      calldatasize\n      sub\n      dup2\n      add\n      swap1\n      tag_33\n      swap2\n      swap1\n      tag_34\n      jump\t// in\n    tag_33:\n      tag_35\n      jump\t// in\n    tag_32:\n      stop\n        /* \"contracts/SimpleWallet.sol\":5011:5555  function withdrawEther(address payable _to, uint _amount) public onlyOwner {... */\n    tag_6:\n      callvalue\n      dup1\n      iszero\n      tag_36\n      jumpi\n      revert(0x00, 0x00)\n    tag_36:\n      pop\n      tag_37\n      0x04\n      dup1\n      calldatasize\n      sub\n      dup2\n      add\n      swap1\n      tag_38\n      swap2\n      swap1\n      tag_39\n      jump\t// in\n    tag_38:\n      tag_40\n      jump\t// in\n    tag_37:\n      stop\n        /* \"contracts/SimpleWallet.sol\":330:350  address public owner */\n    tag_7:\n      callvalue\n      dup1\n      iszero\n      tag_41\n      jumpi\n      revert(0x00, 0x00)\n    tag_41:\n      pop\n      tag_42\n      tag_43\n      jump\t// in\n    tag_42:\n      mload(0x40)\n      tag_44\n      swap2\n      swap1\n      tag_45\n      jump\t// in\n    tag_44:\n      mload(0x40)\n      dup1\n      swap2\n      sub\n      swap1\n      return\n        /* \"contracts/SimpleWallet.sol\":5949:6052  function getMyInternalBalance() public view returns (uint) {... */\n    tag_8:\n      callvalue\n      dup1\n      iszero\n      tag_46\n      jumpi\n      revert(0x00, 0x00)\n    tag_46:\n      pop\n      tag_47\n      tag_48\n      jump\t// in\n    tag_47:\n      mload(0x40)\n      tag_49\n      swap2\n      swap1\n      tag_16\n      jump\t// in\n    tag_49:\n      mload(0x40)\n      dup1\n      swap2\n      sub\n      swap1\n      return\n        /* \"contracts/SimpleWallet.sol\":3656:3946  function deposit() public payable {... */\n    tag_9:\n      tag_50\n      tag_51\n      jump\t// in\n    tag_50:\n      stop\n        /* \"contracts/SimpleWallet.sol\":533:573  mapping(address => uint) public balances */\n    tag_25:\n      mstore(0x20, 0x01)\n      dup1\n      0x00\n      mstore\n      keccak256(0x00, 0x40)\n      0x00\n      swap2\n      pop\n      swap1\n      pop\n      sload\n      dup2\n      jump\t// out\n        /* \"contracts/SimpleWallet.sol\":5614:5721  function getContractEtherBalance() public view returns (uint) {... */\n    tag_29:\n        /* \"contracts/SimpleWallet.sol\":5670:5674  uint */\n      0x00\n        /* \"contracts/SimpleWallet.sol\":5693:5714  address(this).balance */\n      selfbalance\n        /* \"contracts/SimpleWallet.sol\":5686:5714  return address(this).balance */\n      swap1\n      pop\n        /* \"contracts/SimpleWallet.sol\":5614:5721  function getContractEtherBalance() public view returns (uint) {... */\n      swap1\n      jump\t// out\n        /* \"contracts/SimpleWallet.sol\":4105:4848  function transferInternalBalance(address _to, uint _amount) public {... */\n    tag_35:\n        /* \"contracts/SimpleWallet.sol\":4291:4298  _amount */\n      dup1\n        /* \"contracts/SimpleWallet.sol\":4267:4275  balances */\n      0x01\n        /* \"contracts/SimpleWallet.sol\":4267:4287  balances[msg.sender] */\n      0x00\n        /* \"contracts/SimpleWallet.sol\":4276:4286  msg.sender */\n      caller\n        /* \"contracts/SimpleWallet.sol\":4267:4287  balances[msg.sender] */\n      0xffffffffffffffffffffffffffffffffffffffff\n      and\n      0xffffffffffffffffffffffffffffffffffffffff\n      and\n      dup2\n      mstore\n      0x20\n      add\n      swap1\n      dup2\n      mstore\n      0x20\n      add\n      0x00\n      keccak256\n      sload\n        /* \"contracts/SimpleWallet.sol\":4267:4298  balances[msg.sender] >= _amount */\n      lt\n      iszero\n        /* \"contracts/SimpleWallet.sol\":4259:4330  require(balances[msg.sender] >= _amount, \"Saldo internal tidak cukup.\") */\n      tag_54\n      jumpi\n      mload(0x40)\n      0x08c379a000000000000000000000000000000000000000000000000000000000\n      dup2\n      mstore\n      0x04\n      add\n      tag_55\n      swap1\n      tag_56\n      jump\t// in\n    tag_55:\n      mload(0x40)\n      dup1\n      swap2\n      sub\n      swap1\n      revert\n    tag_54:\n        /* \"contracts/SimpleWallet.sol\":4420:4421  0 */\n      0x00\n        /* \"contracts/SimpleWallet.sol\":4405:4422  _to != address(0) */\n      0xffffffffffffffffffffffffffffffffffffffff\n      and\n        /* \"contracts/SimpleWallet.sol\":4405:4408  _to */\n      dup3\n        /* \"contracts/SimpleWallet.sol\":4405:4422  _to != address(0) */\n      0xffffffffffffffffffffffffffffffffffffffff\n      and\n      sub\n        /* \"contracts/SimpleWallet.sol\":4397:4453  require(_to != address(0), \"Alamat tujuan tidak valid.\") */\n      tag_57\n      jumpi\n      mload(0x40)\n      0x08c379a000000000000000000000000000000000000000000000000000000000\n      dup2\n      mstore\n      0x04\n      add\n      tag_58\n      swap1\n      tag_59\n      jump\t// in\n    tag_58:\n      mload(0x40)\n      dup1\n      swap2\n      sub\n      swap1\n      revert\n    tag_57:\n        /* \"contracts/SimpleWallet.sol\":4563:4566  _to */\n      dup2\n        /* \"contracts/SimpleWallet.sol\":4549:4566  msg.sender != _to */\n      0xffffffffffffffffffffffffffffffffffffffff\n      and\n        /* \"contracts/SimpleWallet.sol\":4549:4559  msg.sender */\n      caller\n        /* \"contracts/SimpleWallet.sol\":4549:4566  msg.sender != _to */\n      0xffffffffffffffffffffffffffffffffffffffff\n      and\n      sub\n        /* \"contracts/SimpleWallet.sol\":4541:4607  require(msg.sender != _to, \"Tidak bisa transfer ke diri sendiri.\") */\n      tag_60\n      jumpi\n      mload(0x40)\n      0x08c379a000000000000000000000000000000000000000000000000000000000\n      dup2\n      mstore\n      0x04\n      add\n      tag_61\n      swap1\n      tag_62\n      jump\t// in\n    tag_61:\n      mload(0x40)\n      dup1\n      swap2\n      sub\n      swap1\n      revert\n    tag_60:\n        /* \"contracts/SimpleWallet.sol\":4686:4693  _amount */\n      dup1\n        /* \"contracts/SimpleWallet.sol\":4662:4670  balances */\n      0x01\n        /* \"contracts/SimpleWallet.sol\":4662:4682  balances[msg.sender] */\n      0x00\n        /* \"contracts/SimpleWallet.sol\":4671:4681  msg.sender */\n      caller\n        /* \"contracts/SimpleWallet.sol\":4662:4682  balances[msg.sender] */\n      0xffffffffffffffffffffffffffffffffffffffff\n      and\n      0xffffffffffffffffffffffffffffffffffffffff\n      and\n      dup2\n      mstore\n      0x20\n      add\n      swap1\n      dup2\n      mstore\n      0x20\n      add\n      0x00\n      keccak256\n      0x00\n        /* \"contracts/SimpleWallet.sol\":4662:4693  balances[msg.sender] -= _amount */\n      dup3\n      dup3\n      sload\n      tag_63\n      swap2\n      swap1\n      tag_64\n      jump\t// in\n    tag_63:\n      swap3\n      pop\n      pop\n      dup2\n      swap1\n      sstore\n      pop\n        /* \"contracts/SimpleWallet.sol\":4766:4773  _amount */\n      dup1\n        /* \"contracts/SimpleWallet.sol\":4749:4757  balances */\n      0x01\n        /* \"contracts/SimpleWallet.sol\":4749:4762  balances[_to] */\n      0x00\n        /* \"contracts/SimpleWallet.sol\":4758:4761  _to */\n      dup5\n        /* \"contracts/SimpleWallet.sol\":4749:4762  balances[_to] */\n      0xffffffffffffffffffffffffffffffffffffffff\n      and\n      0xffffffffffffffffffffffffffffffffffffffff\n      and\n      dup2\n      mstore\n      0x20\n      add\n      swap1\n      dup2\n      mstore\n      0x20\n      add\n      0x00\n      keccak256\n      0x00\n        /* \"contracts/SimpleWallet.sol\":4749:4773  balances[_to] += _amount */\n      dup3\n      dup3\n      sload\n      tag_65\n      swap2\n      swap1\n      tag_14\n      jump\t// in\n    tag_65:\n      swap3\n      pop\n      pop\n      dup2\n      swap1\n      sstore\n      pop\n        /* \"contracts/SimpleWallet.sol\":4828:4831  _to */\n      dup2\n        /* \"contracts/SimpleWallet.sol\":4789:4841  InternalBalanceTransferred(msg.sender, _to, _amount) */\n      0xffffffffffffffffffffffffffffffffffffffff\n      and\n        /* \"contracts/SimpleWallet.sol\":4816:4826  msg.sender */\n      caller\n        /* \"contracts/SimpleWallet.sol\":4789:4841  InternalBalanceTransferred(msg.sender, _to, _amount) */\n      0xffffffffffffffffffffffffffffffffffffffff\n      and\n      0x1dfb674d1b2f2e5bbe1de8cec0d1926c8dc01899356b4a3de6794bf56114913d\n        /* \"contracts/SimpleWallet.sol\":4833:4840  _amount */\n      dup4\n        /* \"contracts/SimpleWallet.sol\":4789:4841  InternalBalanceTransferred(msg.sender, _to, _amount) */\n      mload(0x40)\n      tag_66\n      swap2\n      swap1\n      tag_16\n      jump\t// in\n    tag_66:\n      mload(0x40)\n      dup1\n      swap2\n      sub\n      swap1\n      log3\n        /* \"contracts/SimpleWallet.sol\":4105:4848  function transferInternalBalance(address _to, uint _amount) public {... */\n      pop\n      pop\n      jump\t// out\n        /* \"contracts/SimpleWallet.sol\":5011:5555  function withdrawEther(address payable _to, uint _amount) public onlyOwner {... */\n    tag_40:\n        /* \"contracts/SimpleWallet.sol\":1517:1522  owner */\n      0x00\n      0x00\n      swap1\n      sload\n      swap1\n      0x0100\n      exp\n      swap1\n      div\n      0xffffffffffffffffffffffffffffffffffffffff\n      and\n        /* \"contracts/SimpleWallet.sol\":1503:1522  msg.sender == owner */\n      0xffffffffffffffffffffffffffffffffffffffff\n      and\n        /* \"contracts/SimpleWallet.sol\":1503:1513  msg.sender */\n      caller\n        /* \"contracts/SimpleWallet.sol\":1503:1522  msg.sender == owner */\n      0xffffffffffffffffffffffffffffffffffffffff\n      and\n      eq\n        /* \"contracts/SimpleWallet.sol\":1495:1572  require(msg.sender == owner, \"Hanya pemilik yang bisa memanggil fungsi ini.\") */\n      tag_68\n      jumpi\n      mload(0x40)\n      0x08c379a000000000000000000000000000000000000000000000000000000000\n      dup2\n      mstore\n      0x04\n      add\n      tag_69\n      swap1\n      tag_70\n      jump\t// in\n    tag_69:\n      mload(0x40)\n      dup1\n      swap2\n      sub\n      swap1\n      revert\n    tag_68:\n        /* \"contracts/SimpleWallet.sol\":5205:5212  _amount */\n      dup1\n        /* \"contracts/SimpleWallet.sol\":5180:5201  address(this).balance */\n      selfbalance\n        /* \"contracts/SimpleWallet.sol\":5180:5212  address(this).balance >= _amount */\n      lt\n      iszero\n        /* \"contracts/SimpleWallet.sol\":5172:5242  require(address(this).balance >= _amount, \"Dana kontrak tidak cukup.\") */\n      tag_72\n      jumpi\n      mload(0x40)\n      0x08c379a000000000000000000000000000000000000000000000000000000000\n      dup2\n      mstore\n      0x04\n      add\n      tag_73\n      swap1\n      tag_74\n      jump\t// in\n    tag_73:\n      mload(0x40)\n      dup1\n      swap2\n      sub\n      swap1\n      revert\n    tag_72:\n        /* \"contracts/SimpleWallet.sol\":5332:5333  0 */\n      0x00\n        /* \"contracts/SimpleWallet.sol\":5317:5334  _to != address(0) */\n      0xffffffffffffffffffffffffffffffffffffffff\n      and\n        /* \"contracts/SimpleWallet.sol\":5317:5320  _to */\n      dup3\n        /* \"contracts/SimpleWallet.sol\":5317:5334  _to != address(0) */\n      0xffffffffffffffffffffffffffffffffffffffff\n      and\n      sub\n        /* \"contracts/SimpleWallet.sol\":5309:5365  require(_to != address(0), \"Alamat tujuan tidak valid.\") */\n      tag_75\n      jumpi\n      mload(0x40)\n      0x08c379a000000000000000000000000000000000000000000000000000000000\n      dup2\n      mstore\n      0x04\n      add\n      tag_76\n      swap1\n      tag_59\n      jump\t// in\n    tag_76:\n      mload(0x40)\n      dup1\n      swap2\n      sub\n      swap1\n      revert\n    tag_75:\n        /* \"contracts/SimpleWallet.sol\":5484:5487  _to */\n      dup2\n        /* \"contracts/SimpleWallet.sol\":5484:5496  _to.transfer */\n      0xffffffffffffffffffffffffffffffffffffffff\n      and\n        /* \"contracts/SimpleWallet.sol\":5484:5505  _to.transfer(_amount) */\n      0x08fc\n        /* \"contracts/SimpleWallet.sol\":5497:5504  _amount */\n      dup3\n        /* \"contracts/SimpleWallet.sol\":5484:5505  _to.transfer(_amount) */\n      swap1\n      dup2\n      iszero\n      mul\n      swap1\n      mload(0x40)\n      0x00\n      mload(0x40)\n      dup1\n      dup4\n      sub\n      dup2\n      dup6\n      dup9\n      dup9\n      call\n      swap4\n      pop\n      pop\n      pop\n      pop\n      iszero\n      dup1\n      iszero\n      tag_78\n      jumpi\n      returndatacopy(0x00, 0x00, returndatasize)\n      revert(0x00, returndatasize)\n    tag_78:\n      pop\n        /* \"contracts/SimpleWallet.sol\":5535:5538  _to */\n      dup2\n        /* \"contracts/SimpleWallet.sol\":5520:5548  EtherWithdrawn(_to, _amount) */\n      0xffffffffffffffffffffffffffffffffffffffff\n      and\n      0x06097061aeda806b5e9cb4133d9899f332ff0913956567fc0f7ea15e3d19947c\n        /* \"contracts/SimpleWallet.sol\":5540:5547  _amount */\n      dup3\n        /* \"contracts/SimpleWallet.sol\":5520:5548  EtherWithdrawn(_to, _amount) */\n      mload(0x40)\n      tag_79\n      swap2\n      swap1\n      tag_16\n      jump\t// in\n    tag_79:\n      mload(0x40)\n      dup1\n      swap2\n      sub\n      swap1\n      log2\n        /* \"contracts/SimpleWallet.sol\":5011:5555  function withdrawEther(address payable _to, uint _amount) public onlyOwner {... */\n      pop\n      pop\n      jump\t// out\n        /* \"contracts/SimpleWallet.sol\":330:350  address public owner */\n    tag_43:\n      0x00\n      0x00\n      swap1\n      sload\n      swap1\n      0x0100\n      exp\n      swap1\n      div\n      0xffffffffffffffffffffffffffffffffffffffff\n      and\n      dup2\n      jump\t// out\n        /* \"contracts/SimpleWallet.sol\":5949:6052  function getMyInternalBalance() public view returns (uint) {... */\n    tag_48:\n        /* \"contracts/SimpleWallet.sol\":6002:6006  uint */\n      0x00\n        /* \"contracts/SimpleWallet.sol\":6025:6033  balances */\n      0x01\n        /* \"contracts/SimpleWallet.sol\":6025:6045  balances[msg.sender] */\n      0x00\n        /* \"contracts/SimpleWallet.sol\":6034:6044  msg.sender */\n      caller\n        /* \"contracts/SimpleWallet.sol\":6025:6045  balances[msg.sender] */\n      0xffffffffffffffffffffffffffffffffffffffff\n      and\n      0xffffffffffffffffffffffffffffffffffffffff\n      and\n      dup2\n      mstore\n      0x20\n      add\n      swap1\n      dup2\n      mstore\n      0x20\n      add\n      0x00\n      keccak256\n      sload\n        /* \"contracts/SimpleWallet.sol\":6018:6045  return balances[msg.sender] */\n      swap1\n      pop\n        /* \"contracts/SimpleWallet.sol\":5949:6052  function getMyInternalBalance() public view returns (uint) {... */\n      swap1\n      jump\t// out\n        /* \"contracts/SimpleWallet.sol\":3656:3946  function deposit() public payable {... */\n    tag_51:\n        /* \"contracts/SimpleWallet.sol\":3878:3887  msg.value */\n      callvalue\n        /* \"contracts/SimpleWallet.sol\":3854:3862  balances */\n      0x01\n        /* \"contracts/SimpleWallet.sol\":3854:3874  balances[msg.sender] */\n      0x00\n        /* \"contracts/SimpleWallet.sol\":3863:3873  msg.sender */\n      caller\n        /* \"contracts/SimpleWallet.sol\":3854:3874  balances[msg.sender] */\n      0xffffffffffffffffffffffffffffffffffffffff\n      and\n      0xffffffffffffffffffffffffffffffffffffffff\n      and\n      dup2\n      mstore\n      0x20\n      add\n      swap1\n      dup2\n      mstore\n      0x20\n      add\n      0x00\n      keccak256\n      0x00\n        /* \"contracts/SimpleWallet.sol\":3854:3887  balances[msg.sender] += msg.value */\n      dup3\n      dup3\n      sload\n      tag_82\n      swap2\n      swap1\n      tag_14\n      jump\t// in\n    tag_82:\n      swap3\n      pop\n      pop\n      dup2\n      swap1\n      sstore\n      pop\n        /* \"contracts/SimpleWallet.sol\":3917:3927  msg.sender */\n      caller\n        /* \"contracts/SimpleWallet.sol\":3902:3939  EtherDeposited(msg.sender, msg.value) */\n      0xffffffffffffffffffffffffffffffffffffffff\n      and\n      0x939e51ac2fd009b158d6344f7e68a83d8d18d9b0cc88cf514aac6aaa9cad2a18\n        /* \"contracts/SimpleWallet.sol\":3929:3938  msg.value */\n      callvalue\n        /* \"contracts/SimpleWallet.sol\":3902:3939  EtherDeposited(msg.sender, msg.value) */\n      mload(0x40)\n      tag_83\n      swap2\n      swap1\n      tag_16\n      jump\t// in\n    tag_83:\n      mload(0x40)\n      dup1\n      swap2\n      sub\n      swap1\n      log2\n        /* \"contracts/SimpleWallet.sol\":3656:3946  function deposit() public payable {... */\n      jump\t// out\n        /* \"#utility.yul\":7:84   */\n    tag_84:\n        /* \"#utility.yul\":44:51   */\n      0x00\n        /* \"#utility.yul\":73:78   */\n      dup2\n        /* \"#utility.yul\":62:78   */\n      swap1\n      pop\n        /* \"#utility.yul\":7:84   */\n      swap2\n      swap1\n      pop\n      jump\t// out\n        /* \"#utility.yul\":90:270   */\n    tag_85:\n        /* \"#utility.yul\":138:215   */\n      0x4e487b7100000000000000000000000000000000000000000000000000000000\n        /* \"#utility.yul\":135:136   */\n      0x00\n        /* \"#utility.yul\":128:216   */\n      mstore\n        /* \"#utility.yul\":235:239   */\n      0x11\n        /* \"#utility.yul\":232:233   */\n      0x04\n        /* \"#utility.yul\":225:240   */\n      mstore\n        /* \"#utility.yul\":259:263   */\n      0x24\n        /* \"#utility.yul\":256:257   */\n      0x00\n        /* \"#utility.yul\":249:264   */\n      revert\n        /* \"#utility.yul\":276:467   */\n    tag_14:\n        /* \"#utility.yul\":316:319   */\n      0x00\n        /* \"#utility.yul\":335:355   */\n      tag_115\n        /* \"#utility.yul\":353:354   */\n      dup3\n        /* \"#utility.yul\":335:355   */\n      tag_84\n      jump\t// in\n    tag_115:\n        /* \"#utility.yul\":330:355   */\n      swap2\n      pop\n        /* \"#utility.yul\":369:389   */\n      tag_116\n        /* \"#utility.yul\":387:388   */\n      dup4\n        /* \"#utility.yul\":369:389   */\n      tag_84\n      jump\t// in\n    tag_116:\n        /* \"#utility.yul\":364:389   */\n      swap3\n      pop\n        /* \"#utility.yul\":412:413   */\n      dup3\n        /* \"#utility.yul\":409:410   */\n      dup3\n        /* \"#utility.yul\":405:414   */\n      add\n        /* \"#utility.yul\":398:414   */\n      swap1\n      pop\n        /* \"#utility.yul\":433:436   */\n      dup1\n        /* \"#utility.yul\":430:431   */\n      dup3\n        /* \"#utility.yul\":427:437   */\n      gt\n        /* \"#utility.yul\":424:460   */\n      iszero\n      tag_117\n      jumpi\n        /* \"#utility.yul\":440:458   */\n      tag_118\n      tag_85\n      jump\t// in\n    tag_118:\n        /* \"#utility.yul\":424:460   */\n    tag_117:\n        /* \"#utility.yul\":276:467   */\n      swap3\n      swap2\n      pop\n      pop\n      jump\t// out\n        /* \"#utility.yul\":473:591   */\n    tag_86:\n        /* \"#utility.yul\":560:584   */\n      tag_120\n        /* \"#utility.yul\":578:583   */\n      dup2\n        /* \"#utility.yul\":560:584   */\n      tag_84\n      jump\t// in\n    tag_120:\n        /* \"#utility.yul\":555:558   */\n      dup3\n        /* \"#utility.yul\":548:585   */\n      mstore\n        /* \"#utility.yul\":473:591   */\n      pop\n      pop\n      jump\t// out\n        /* \"#utility.yul\":597:819   */\n    tag_16:\n        /* \"#utility.yul\":690:694   */\n      0x00\n        /* \"#utility.yul\":728:730   */\n      0x20\n        /* \"#utility.yul\":717:726   */\n      dup3\n        /* \"#utility.yul\":713:731   */\n      add\n        /* \"#utility.yul\":705:731   */\n      swap1\n      pop\n        /* \"#utility.yul\":741:812   */\n      tag_122\n        /* \"#utility.yul\":809:810   */\n      0x00\n        /* \"#utility.yul\":798:807   */\n      dup4\n        /* \"#utility.yul\":794:811   */\n      add\n        /* \"#utility.yul\":785:791   */\n      dup5\n        /* \"#utility.yul\":741:812   */\n      tag_86\n      jump\t// in\n    tag_122:\n        /* \"#utility.yul\":597:819   */\n      swap3\n      swap2\n      pop\n      pop\n      jump\t// out\n        /* \"#utility.yul\":906:1023   */\n    tag_88:\n        /* \"#utility.yul\":1015:1016   */\n      0x00\n        /* \"#utility.yul\":1012:1013   */\n      0x00\n        /* \"#utility.yul\":1005:1017   */\n      revert\n        /* \"#utility.yul\":1152:1278   */\n    tag_90:\n        /* \"#utility.yul\":1189:1196   */\n      0x00\n        /* \"#utility.yul\":1229:1271   */\n      0xffffffffffffffffffffffffffffffffffffffff\n        /* \"#utility.yul\":1222:1227   */\n      dup3\n        /* \"#utility.yul\":1218:1272   */\n      and\n        /* \"#utility.yul\":1207:1272   */\n      swap1\n      pop\n        /* \"#utility.yul\":1152:1278   */\n      swap2\n      swap1\n      pop\n      jump\t// out\n        /* \"#utility.yul\":1284:1380   */\n    tag_91:\n        /* \"#utility.yul\":1321:1328   */\n      0x00\n        /* \"#utility.yul\":1350:1374   */\n      tag_128\n        /* \"#utility.yul\":1368:1373   */\n      dup3\n        /* \"#utility.yul\":1350:1374   */\n      tag_90\n      jump\t// in\n    tag_128:\n        /* \"#utility.yul\":1339:1374   */\n      swap1\n      pop\n        /* \"#utility.yul\":1284:1380   */\n      swap2\n      swap1\n      pop\n      jump\t// out\n        /* \"#utility.yul\":1386:1508   */\n    tag_92:\n        /* \"#utility.yul\":1459:1483   */\n      tag_130\n        /* \"#utility.yul\":1477:1482   */\n      dup2\n        /* \"#utility.yul\":1459:1483   */\n      tag_91\n      jump\t// in\n    tag_130:\n        /* \"#utility.yul\":1452:1457   */\n      dup2\n        /* \"#utility.yul\":1449:1484   */\n      eq\n        /* \"#utility.yul\":1439:1502   */\n      tag_131\n      jumpi\n        /* \"#utility.yul\":1498:1499   */\n      0x00\n        /* \"#utility.yul\":1495:1496   */\n      0x00\n        /* \"#utility.yul\":1488:1500   */\n      revert\n        /* \"#utility.yul\":1439:1502   */\n    tag_131:\n        /* \"#utility.yul\":1386:1508   */\n      pop\n      jump\t// out\n        /* \"#utility.yul\":1514:1653   */\n    tag_93:\n        /* \"#utility.yul\":1560:1565   */\n      0x00\n        /* \"#utility.yul\":1598:1604   */\n      dup2\n        /* \"#utility.yul\":1585:1605   */\n      calldataload\n        /* \"#utility.yul\":1576:1605   */\n      swap1\n      pop\n        /* \"#utility.yul\":1614:1647   */\n      tag_133\n        /* \"#utility.yul\":1641:1646   */\n      dup2\n        /* \"#utility.yul\":1614:1647   */\n      tag_92\n      jump\t// in\n    tag_133:\n        /* \"#utility.yul\":1514:1653   */\n      swap3\n      swap2\n      pop\n      pop\n      jump\t// out\n        /* \"#utility.yul\":1659:1988   */\n    tag_24:\n        /* \"#utility.yul\":1718:1724   */\n      0x00\n        /* \"#utility.yul\":1767:1769   */\n      0x20\n        /* \"#utility.yul\":1755:1764   */\n      dup3\n        /* \"#utility.yul\":1746:1753   */\n      dup5\n        /* \"#utility.yul\":1742:1765   */\n      sub\n        /* \"#utility.yul\":1738:1770   */\n      slt\n        /* \"#utility.yul\":1735:1854   */\n      iszero\n      tag_135\n      jumpi\n        /* \"#utility.yul\":1773:1852   */\n      tag_136\n      tag_88\n      jump\t// in\n    tag_136:\n        /* \"#utility.yul\":1735:1854   */\n    tag_135:\n        /* \"#utility.yul\":1893:1894   */\n      0x00\n        /* \"#utility.yul\":1918:1971   */\n      tag_137\n        /* \"#utility.yul\":1963:1970   */\n      dup5\n        /* \"#utility.yul\":1954:1960   */\n      dup3\n        /* \"#utility.yul\":1943:1952   */\n      dup6\n        /* \"#utility.yul\":1939:1961   */\n      add\n        /* \"#utility.yul\":1918:1971   */\n      tag_93\n      jump\t// in\n    tag_137:\n        /* \"#utility.yul\":1908:1971   */\n      swap2\n      pop\n        /* \"#utility.yul\":1864:1981   */\n      pop\n        /* \"#utility.yul\":1659:1988   */\n      swap3\n      swap2\n      pop\n      pop\n      jump\t// out\n        /* \"#utility.yul\":1994:2116   */\n    tag_94:\n        /* \"#utility.yul\":2067:2091   */\n      tag_139\n        /* \"#utility.yul\":2085:2090   */\n      dup2\n        /* \"#utility.yul\":2067:2091   */\n      tag_84\n      jump\t// in\n    tag_139:\n        /* \"#utility.yul\":2060:2065   */\n      dup2\n        /* \"#utility.yul\":2057:2092   */\n      eq\n        /* \"#utility.yul\":2047:2110   */\n      tag_140\n      jumpi\n        /* \"#utility.yul\":2106:2107   */\n      0x00\n        /* \"#utility.yul\":2103:2104   */\n      0x00\n        /* \"#utility.yul\":2096:2108   */\n      revert\n        /* \"#utility.yul\":2047:2110   */\n    tag_140:\n        /* \"#utility.yul\":1994:2116   */\n      pop\n      jump\t// out\n        /* \"#utility.yul\":2122:2261   */\n    tag_95:\n        /* \"#utility.yul\":2168:2173   */\n      0x00\n        /* \"#utility.yul\":2206:2212   */\n      dup2\n        /* \"#utility.yul\":2193:2213   */\n      calldataload\n        /* \"#utility.yul\":2184:2213   */\n      swap1\n      pop\n        /* \"#utility.yul\":2222:2255   */\n      tag_142\n        /* \"#utility.yul\":2249:2254   */\n      dup2\n        /* \"#utility.yul\":2222:2255   */\n      tag_94\n      jump\t// in\n    tag_142:\n        /* \"#utility.yul\":2122:2261   */\n      swap3\n      swap2\n      pop\n      pop\n      jump\t// out\n        /* \"#utility.yul\":2267:2741   */\n    tag_34:\n        /* \"#utility.yul\":2335:2341   */\n      0x00\n        /* \"#utility.yul\":2343:2349   */\n      0x00\n        /* \"#utility.yul\":2392:2394   */\n      0x40\n        /* \"#utility.yul\":2380:2389   */\n      dup4\n        /* \"#utility.yul\":2371:2378   */\n      dup6\n        /* \"#utility.yul\":2367:2390   */\n      sub\n        /* \"#utility.yul\":2363:2395   */\n      slt\n        /* \"#utility.yul\":2360:2479   */\n      iszero\n      tag_144\n      jumpi\n        /* \"#utility.yul\":2398:2477   */\n      tag_145\n      tag_88\n      jump\t// in\n    tag_145:\n        /* \"#utility.yul\":2360:2479   */\n    tag_144:\n        /* \"#utility.yul\":2518:2519   */\n      0x00\n        /* \"#utility.yul\":2543:2596   */\n      tag_146\n        /* \"#utility.yul\":2588:2595   */\n      dup6\n        /* \"#utility.yul\":2579:2585   */\n      dup3\n        /* \"#utility.yul\":2568:2577   */\n      dup7\n        /* \"#utility.yul\":2564:2586   */\n      add\n        /* \"#utility.yul\":2543:2596   */\n      tag_93\n      jump\t// in\n    tag_146:\n        /* \"#utility.yul\":2533:2596   */\n      swap3\n      pop\n        /* \"#utility.yul\":2489:2606   */\n      pop\n        /* \"#utility.yul\":2645:2647   */\n      0x20\n        /* \"#utility.yul\":2671:2724   */\n      tag_147\n        /* \"#utility.yul\":2716:2723   */\n      dup6\n        /* \"#utility.yul\":2707:2713   */\n      dup3\n        /* \"#utility.yul\":2696:2705   */\n      dup7\n        /* \"#utility.yul\":2692:2714   */\n      add\n        /* \"#utility.yul\":2671:2724   */\n      tag_95\n      jump\t// in\n    tag_147:\n        /* \"#utility.yul\":2661:2724   */\n      swap2\n      pop\n        /* \"#utility.yul\":2616:2734   */\n      pop\n        /* \"#utility.yul\":2267:2741   */\n      swap3\n      pop\n      swap3\n      swap1\n      pop\n      jump\t// out\n        /* \"#utility.yul\":2747:2851   */\n    tag_96:\n        /* \"#utility.yul\":2792:2799   */\n      0x00\n        /* \"#utility.yul\":2821:2845   */\n      tag_149\n        /* \"#utility.yul\":2839:2844   */\n      dup3\n        /* \"#utility.yul\":2821:2845   */\n      tag_90\n      jump\t// in\n    tag_149:\n        /* \"#utility.yul\":2810:2845   */\n      swap1\n      pop\n        /* \"#utility.yul\":2747:2851   */\n      swap2\n      swap1\n      pop\n      jump\t// out\n        /* \"#utility.yul\":2857:2995   */\n    tag_97:\n        /* \"#utility.yul\":2938:2970   */\n      tag_151\n        /* \"#utility.yul\":2964:2969   */\n      dup2\n        /* \"#utility.yul\":2938:2970   */\n      tag_96\n      jump\t// in\n    tag_151:\n        /* \"#utility.yul\":2931:2936   */\n      dup2\n        /* \"#utility.yul\":2928:2971   */\n      eq\n        /* \"#utility.yul\":2918:2989   */\n      tag_152\n      jumpi\n        /* \"#utility.yul\":2985:2986   */\n      0x00\n        /* \"#utility.yul\":2982:2983   */\n      0x00\n        /* \"#utility.yul\":2975:2987   */\n      revert\n        /* \"#utility.yul\":2918:2989   */\n    tag_152:\n        /* \"#utility.yul\":2857:2995   */\n      pop\n      jump\t// out\n        /* \"#utility.yul\":3001:3156   */\n    tag_98:\n        /* \"#utility.yul\":3055:3060   */\n      0x00\n        /* \"#utility.yul\":3093:3099   */\n      dup2\n        /* \"#utility.yul\":3080:3100   */\n      calldataload\n        /* \"#utility.yul\":3071:3100   */\n      swap1\n      pop\n        /* \"#utility.yul\":3109:3150   */\n      tag_154\n        /* \"#utility.yul\":3144:3149   */\n      dup2\n        /* \"#utility.yul\":3109:3150   */\n      tag_97\n      jump\t// in\n    tag_154:\n        /* \"#utility.yul\":3001:3156   */\n      swap3\n      swap2\n      pop\n      pop\n      jump\t// out\n        /* \"#utility.yul\":3162:3652   */\n    tag_39:\n        /* \"#utility.yul\":3238:3244   */\n      0x00\n        /* \"#utility.yul\":3246:3252   */\n      0x00\n        /* \"#utility.yul\":3295:3297   */\n      0x40\n        /* \"#utility.yul\":3283:3292   */\n      dup4\n        /* \"#utility.yul\":3274:3281   */\n      dup6\n        /* \"#utility.yul\":3270:3293   */\n      sub\n        /* \"#utility.yul\":3266:3298   */\n      slt\n        /* \"#utility.yul\":3263:3382   */\n      iszero\n      tag_156\n      jumpi\n        /* \"#utility.yul\":3301:3380   */\n      tag_157\n      tag_88\n      jump\t// in\n    tag_157:\n        /* \"#utility.yul\":3263:3382   */\n    tag_156:\n        /* \"#utility.yul\":3421:3422   */\n      0x00\n        /* \"#utility.yul\":3446:3507   */\n      tag_158\n        /* \"#utility.yul\":3499:3506   */\n      dup6\n        /* \"#utility.yul\":3490:3496   */\n      dup3\n        /* \"#utility.yul\":3479:3488   */\n      dup7\n        /* \"#utility.yul\":3475:3497   */\n      add\n        /* \"#utility.yul\":3446:3507   */\n      tag_98\n      jump\t// in\n    tag_158:\n        /* \"#utility.yul\":3436:3507   */\n      swap3\n      pop\n        /* \"#utility.yul\":3392:3517   */\n      pop\n        /* \"#utility.yul\":3556:3558   */\n      0x20\n        /* \"#utility.yul\":3582:3635   */\n      tag_159\n        /* \"#utility.yul\":3627:3634   */\n      dup6\n        /* \"#utility.yul\":3618:3624   */\n      dup3\n        /* \"#utility.yul\":3607:3616   */\n      dup7\n        /* \"#utility.yul\":3603:3625   */\n      add\n        /* \"#utility.yul\":3582:3635   */\n      tag_95\n      jump\t// in\n    tag_159:\n        /* \"#utility.yul\":3572:3635   */\n      swap2\n      pop\n        /* \"#utility.yul\":3527:3645   */\n      pop\n        /* \"#utility.yul\":3162:3652   */\n      swap3\n      pop\n      swap3\n      swap1\n      pop\n      jump\t// out\n        /* \"#utility.yul\":3658:3776   */\n    tag_99:\n        /* \"#utility.yul\":3745:3769   */\n      tag_161\n        /* \"#utility.yul\":3763:3768   */\n      dup2\n        /* \"#utility.yul\":3745:3769   */\n      tag_91\n      jump\t// in\n    tag_161:\n        /* \"#utility.yul\":3740:3743   */\n      dup3\n        /* \"#utility.yul\":3733:3770   */\n      mstore\n        /* \"#utility.yul\":3658:3776   */\n      pop\n      pop\n      jump\t// out\n        /* \"#utility.yul\":3782:4004   */\n    tag_45:\n        /* \"#utility.yul\":3875:3879   */\n      0x00\n        /* \"#utility.yul\":3913:3915   */\n      0x20\n        /* \"#utility.yul\":3902:3911   */\n      dup3\n        /* \"#utility.yul\":3898:3916   */\n      add\n        /* \"#utility.yul\":3890:3916   */\n      swap1\n      pop\n        /* \"#utility.yul\":3926:3997   */\n      tag_163\n        /* \"#utility.yul\":3994:3995   */\n      0x00\n        /* \"#utility.yul\":3983:3992   */\n      dup4\n        /* \"#utility.yul\":3979:3996   */\n      add\n        /* \"#utility.yul\":3970:3976   */\n      dup5\n        /* \"#utility.yul\":3926:3997   */\n      tag_99\n      jump\t// in\n    tag_163:\n        /* \"#utility.yul\":3782:4004   */\n      swap3\n      swap2\n      pop\n      pop\n      jump\t// out\n        /* \"#utility.yul\":4010:4179   */\n    tag_100:\n        /* \"#utility.yul\":4094:4105   */\n      0x00\n        /* \"#utility.yul\":4128:4134   */\n      dup3\n        /* \"#utility.yul\":4123:4126   */\n      dup3\n        /* \"#utility.yul\":4116:4135   */\n      mstore\n        /* \"#utility.yul\":4168:4172   */\n      0x20\n        /* \"#utility.yul\":4163:4166   */\n      dup3\n        /* \"#utility.yul\":4159:4173   */\n      add\n        /* \"#utility.yul\":4144:4173   */\n      swap1\n      pop\n        /* \"#utility.yul\":4010:4179   */\n      swap3\n      swap2\n      pop\n      pop\n      jump\t// out\n        /* \"#utility.yul\":4185:4362   */\n    tag_101:\n        /* \"#utility.yul\":4325:4354   */\n      0x53616c646f20696e7465726e616c20746964616b2063756b75702e0000000000\n        /* \"#utility.yul\":4321:4322   */\n      0x00\n        /* \"#utility.yul\":4313:4319   */\n      dup3\n        /* \"#utility.yul\":4309:4323   */\n      add\n        /* \"#utility.yul\":4302:4355   */\n      mstore\n        /* \"#utility.yul\":4185:4362   */\n      pop\n      jump\t// out\n        /* \"#utility.yul\":4368:4734   */\n    tag_102:\n        /* \"#utility.yul\":4510:4513   */\n      0x00\n        /* \"#utility.yul\":4531:4598   */\n      tag_167\n        /* \"#utility.yul\":4595:4597   */\n      0x1b\n        /* \"#utility.yul\":4590:4593   */\n      dup4\n        /* \"#utility.yul\":4531:4598   */\n      tag_100\n      jump\t// in\n    tag_167:\n        /* \"#utility.yul\":4524:4598   */\n      swap2\n      pop\n        /* \"#utility.yul\":4607:4700   */\n      tag_168\n        /* \"#utility.yul\":4696:4699   */\n      dup3\n        /* \"#utility.yul\":4607:4700   */\n      tag_101\n      jump\t// in\n    tag_168:\n        /* \"#utility.yul\":4725:4727   */\n      0x20\n        /* \"#utility.yul\":4720:4723   */\n      dup3\n        /* \"#utility.yul\":4716:4728   */\n      add\n        /* \"#utility.yul\":4709:4728   */\n      swap1\n      pop\n        /* \"#utility.yul\":4368:4734   */\n      swap2\n      swap1\n      pop\n      jump\t// out\n        /* \"#utility.yul\":4740:5159   */\n    tag_56:\n        /* \"#utility.yul\":4906:4910   */\n      0x00\n        /* \"#utility.yul\":4944:4946   */\n      0x20\n        /* \"#utility.yul\":4933:4942   */\n      dup3\n        /* \"#utility.yul\":4929:4947   */\n      add\n        /* \"#utility.yul\":4921:4947   */\n      swap1\n      pop\n        /* \"#utility.yul\":4993:5002   */\n      dup2\n        /* \"#utility.yul\":4987:4991   */\n      dup2\n        /* \"#utility.yul\":4983:5003   */\n      sub\n        /* \"#utility.yul\":4979:4980   */\n      0x00\n        /* \"#utility.yul\":4968:4977   */\n      dup4\n        /* \"#utility.yul\":4964:4981   */\n      add\n        /* \"#utility.yul\":4957:5004   */\n      mstore\n        /* \"#utility.yul\":5021:5152   */\n      tag_170\n        /* \"#utility.yul\":5147:5151   */\n      dup2\n        /* \"#utility.yul\":5021:5152   */\n      tag_102\n      jump\t// in\n    tag_170:\n        /* \"#utility.yul\":5013:5152   */\n      swap1\n      pop\n        /* \"#utility.yul\":4740:5159   */\n      swap2\n      swap1\n      pop\n      jump\t// out\n        /* \"#utility.yul\":5165:5341   */\n    tag_103:\n        /* \"#utility.yul\":5305:5333   */\n      0x416c616d61742074756a75616e20746964616b2076616c69642e000000000000\n        /* \"#utility.yul\":5301:5302   */\n      0x00\n        /* \"#utility.yul\":5293:5299   */\n      dup3\n        /* \"#utility.yul\":5289:5303   */\n      add\n        /* \"#utility.yul\":5282:5334   */\n      mstore\n        /* \"#utility.yul\":5165:5341   */\n      pop\n      jump\t// out\n        /* \"#utility.yul\":5347:5713   */\n    tag_104:\n        /* \"#utility.yul\":5489:5492   */\n      0x00\n        /* \"#utility.yul\":5510:5577   */\n      tag_173\n        /* \"#utility.yul\":5574:5576   */\n      0x1a\n        /* \"#utility.yul\":5569:5572   */\n      dup4\n        /* \"#utility.yul\":5510:5577   */\n      tag_100\n      jump\t// in\n    tag_173:\n        /* \"#utility.yul\":5503:5577   */\n      swap2\n      pop\n        /* \"#utility.yul\":5586:5679   */\n      tag_174\n        /* \"#utility.yul\":5675:5678   */\n      dup3\n        /* \"#utility.yul\":5586:5679   */\n      tag_103\n      jump\t// in\n    tag_174:\n        /* \"#utility.yul\":5704:5706   */\n      0x20\n        /* \"#utility.yul\":5699:5702   */\n      dup3\n        /* \"#utility.yul\":5695:5707   */\n      add\n        /* \"#utility.yul\":5688:5707   */\n      swap1\n      pop\n        /* \"#utility.yul\":5347:5713   */\n      swap2\n      swap1\n      pop\n      jump\t// out\n        /* \"#utility.yul\":5719:6138   */\n    tag_59:\n        /* \"#utility.yul\":5885:5889   */\n      0x00\n        /* \"#utility.yul\":5923:5925   */\n      0x20\n        /* \"#utility.yul\":5912:5921   */\n      dup3\n        /* \"#utility.yul\":5908:5926   */\n      add\n        /* \"#utility.yul\":5900:5926   */\n      swap1\n      pop\n        /* \"#utility.yul\":5972:5981   */\n      dup2\n        /* \"#utility.yul\":5966:5970   */\n      dup2\n        /* \"#utility.yul\":5962:5982   */\n      sub\n        /* \"#utility.yul\":5958:5959   */\n      0x00\n        /* \"#utility.yul\":5947:5956   */\n      dup4\n        /* \"#utility.yul\":5943:5960   */\n      add\n        /* \"#utility.yul\":5936:5983   */\n      mstore\n        /* \"#utility.yul\":6000:6131   */\n      tag_176\n        /* \"#utility.yul\":6126:6130   */\n      dup2\n        /* \"#utility.yul\":6000:6131   */\n      tag_104\n      jump\t// in\n    tag_176:\n        /* \"#utility.yul\":5992:6131   */\n      swap1\n      pop\n        /* \"#utility.yul\":5719:6138   */\n      swap2\n      swap1\n      pop\n      jump\t// out\n        /* \"#utility.yul\":6144:6367   */\n    tag_105:\n        /* \"#utility.yul\":6284:6318   */\n      0x546964616b2062697361207472616e73666572206b6520646972692073656e64\n        /* \"#utility.yul\":6280:6281   */\n      0x00\n        /* \"#utility.yul\":6272:6278   */\n      dup3\n        /* \"#utility.yul\":6268:6282   */\n      add\n        /* \"#utility.yul\":6261:6319   */\n      mstore\n        /* \"#utility.yul\":6353:6359   */\n      0x6972692e00000000000000000000000000000000000000000000000000000000\n        /* \"#utility.yul\":6348:6350   */\n      0x20\n        /* \"#utility.yul\":6340:6346   */\n      dup3\n        /* \"#utility.yul\":6336:6351   */\n      add\n        /* \"#utility.yul\":6329:6360   */\n      mstore\n        /* \"#utility.yul\":6144:6367   */\n      pop\n      jump\t// out\n        /* \"#utility.yul\":6373:6739   */\n    tag_106:\n        /* \"#utility.yul\":6515:6518   */\n      0x00\n        /* \"#utility.yul\":6536:6603   */\n      tag_179\n        /* \"#utility.yul\":6600:6602   */\n      0x24\n        /* \"#utility.yul\":6595:6598   */\n      dup4\n        /* \"#utility.yul\":6536:6603   */\n      tag_100\n      jump\t// in\n    tag_179:\n        /* \"#utility.yul\":6529:6603   */\n      swap2\n      pop\n        /* \"#utility.yul\":6612:6705   */\n      tag_180\n        /* \"#utility.yul\":6701:6704   */\n      dup3\n        /* \"#utility.yul\":6612:6705   */\n      tag_105\n      jump\t// in\n    tag_180:\n        /* \"#utility.yul\":6730:6732   */\n      0x40\n        /* \"#utility.yul\":6725:6728   */\n      dup3\n        /* \"#utility.yul\":6721:6733   */\n      add\n        /* \"#utility.yul\":6714:6733   */\n      swap1\n      pop\n        /* \"#utility.yul\":6373:6739   */\n      swap2\n      swap1\n      pop\n      jump\t// out\n        /* \"#utility.yul\":6745:7164   */\n    tag_62:\n        /* \"#utility.yul\":6911:6915   */\n      0x00\n        /* \"#utility.yul\":6949:6951   */\n      0x20\n        /* \"#utility.yul\":6938:6947   */\n      dup3\n        /* \"#utility.yul\":6934:6952   */\n      add\n        /* \"#utility.yul\":6926:6952   */\n      swap1\n      pop\n        /* \"#utility.yul\":6998:7007   */\n      dup2\n        /* \"#utility.yul\":6992:6996   */\n      dup2\n        /* \"#utility.yul\":6988:7008   */\n      sub\n        /* \"#utility.yul\":6984:6985   */\n      0x00\n        /* \"#utility.yul\":6973:6982   */\n      dup4\n        /* \"#utility.yul\":6969:6986   */\n      add\n        /* \"#utility.yul\":6962:7009   */\n      mstore\n        /* \"#utility.yul\":7026:7157   */\n      tag_182\n        /* \"#utility.yul\":7152:7156   */\n      dup2\n        /* \"#utility.yul\":7026:7157   */\n      tag_106\n      jump\t// in\n    tag_182:\n        /* \"#utility.yul\":7018:7157   */\n      swap1\n      pop\n        /* \"#utility.yul\":6745:7164   */\n      swap2\n      swap1\n      pop\n      jump\t// out\n        /* \"#utility.yul\":7170:7364   */\n    tag_64:\n        /* \"#utility.yul\":7210:7214   */\n      0x00\n        /* \"#utility.yul\":7230:7250   */\n      tag_184\n        /* \"#utility.yul\":7248:7249   */\n      dup3\n        /* \"#utility.yul\":7230:7250   */\n      tag_84\n      jump\t// in\n    tag_184:\n        /* \"#utility.yul\":7225:7250   */\n      swap2\n      pop\n        /* \"#utility.yul\":7264:7284   */\n      tag_185\n        /* \"#utility.yul\":7282:7283   */\n      dup4\n        /* \"#utility.yul\":7264:7284   */\n      tag_84\n      jump\t// in\n    tag_185:\n        /* \"#utility.yul\":7259:7284   */\n      swap3\n      pop\n        /* \"#utility.yul\":7308:7309   */\n      dup3\n        /* \"#utility.yul\":7305:7306   */\n      dup3\n        /* \"#utility.yul\":7301:7310   */\n      sub\n        /* \"#utility.yul\":7293:7310   */\n      swap1\n      pop\n        /* \"#utility.yul\":7332:7333   */\n      dup2\n        /* \"#utility.yul\":7326:7330   */\n      dup2\n        /* \"#utility.yul\":7323:7334   */\n      gt\n        /* \"#utility.yul\":7320:7357   */\n      iszero\n      tag_186\n      jumpi\n        /* \"#utility.yul\":7337:7355   */\n      tag_187\n      tag_85\n      jump\t// in\n    tag_187:\n        /* \"#utility.yul\":7320:7357   */\n    tag_186:\n        /* \"#utility.yul\":7170:7364   */\n      swap3\n      swap2\n      pop\n      pop\n      jump\t// out\n        /* \"#utility.yul\":7370:7602   */\n    tag_107:\n        /* \"#utility.yul\":7510:7544   */\n      0x48616e79612070656d696c696b2079616e672062697361206d656d616e676769\n        /* \"#utility.yul\":7506:7507   */\n      0x00\n        /* \"#utility.yul\":7498:7504   */\n      dup3\n        /* \"#utility.yul\":7494:7508   */\n      add\n        /* \"#utility.yul\":7487:7545   */\n      mstore\n        /* \"#utility.yul\":7579:7594   */\n      0x6c2066756e67736920696e692e00000000000000000000000000000000000000\n        /* \"#utility.yul\":7574:7576   */\n      0x20\n        /* \"#utility.yul\":7566:7572   */\n      dup3\n        /* \"#utility.yul\":7562:7577   */\n      add\n        /* \"#utility.yul\":7555:7595   */\n      mstore\n        /* \"#utility.yul\":7370:7602   */\n      pop\n      jump\t// out\n        /* \"#utility.yul\":7608:7974   */\n    tag_108:\n        /* \"#utility.yul\":7750:7753   */\n      0x00\n        /* \"#utility.yul\":7771:7838   */\n      tag_190\n        /* \"#utility.yul\":7835:7837   */\n      0x2d\n        /* \"#utility.yul\":7830:7833   */\n      dup4\n        /* \"#utility.yul\":7771:7838   */\n      tag_100\n      jump\t// in\n    tag_190:\n        /* \"#utility.yul\":7764:7838   */\n      swap2\n      pop\n        /* \"#utility.yul\":7847:7940   */\n      tag_191\n        /* \"#utility.yul\":7936:7939   */\n      dup3\n        /* \"#utility.yul\":7847:7940   */\n      tag_107\n      jump\t// in\n    tag_191:\n        /* \"#utility.yul\":7965:7967   */\n      0x40\n        /* \"#utility.yul\":7960:7963   */\n      dup3\n        /* \"#utility.yul\":7956:7968   */\n      add\n        /* \"#utility.yul\":7949:7968   */\n      swap1\n      pop\n        /* \"#utility.yul\":7608:7974   */\n      swap2\n      swap1\n      pop\n      jump\t// out\n        /* \"#utility.yul\":7980:8399   */\n    tag_70:\n        /* \"#utility.yul\":8146:8150   */\n      0x00\n        /* \"#utility.yul\":8184:8186   */\n      0x20\n        /* \"#utility.yul\":8173:8182   */\n      dup3\n        /* \"#utility.yul\":8169:8187   */\n      add\n        /* \"#utility.yul\":8161:8187   */\n      swap1\n      pop\n        /* \"#utility.yul\":8233:8242   */\n      dup2\n        /* \"#utility.yul\":8227:8231   */\n      dup2\n        /* \"#utility.yul\":8223:8243   */\n      sub\n        /* \"#utility.yul\":8219:8220   */\n      0x00\n        /* \"#utility.yul\":8208:8217   */\n      dup4\n        /* \"#utility.yul\":8204:8221   */\n      add\n        /* \"#utility.yul\":8197:8244   */\n      mstore\n        /* \"#utility.yul\":8261:8392   */\n      tag_193\n        /* \"#utility.yul\":8387:8391   */\n      dup2\n        /* \"#utility.yul\":8261:8392   */\n      tag_108\n      jump\t// in\n    tag_193:\n        /* \"#utility.yul\":8253:8392   */\n      swap1\n      pop\n        /* \"#utility.yul\":7980:8399   */\n      swap2\n      swap1\n      pop\n      jump\t// out\n        /* \"#utility.yul\":8405:8580   */\n    tag_109:\n        /* \"#utility.yul\":8545:8572   */\n      0x44616e61206b6f6e7472616b20746964616b2063756b75702e00000000000000\n        /* \"#utility.yul\":8541:8542   */\n      0x00\n        /* \"#utility.yul\":8533:8539   */\n      dup3\n        /* \"#utility.yul\":8529:8543   */\n      add\n        /* \"#utility.yul\":8522:8573   */\n      mstore\n        /* \"#utility.yul\":8405:8580   */\n      pop\n      jump\t// out\n        /* \"#utility.yul\":8586:8952   */\n    tag_110:\n        /* \"#utility.yul\":8728:8731   */\n      0x00\n        /* \"#utility.yul\":8749:8816   */\n      tag_196\n        /* \"#utility.yul\":8813:8815   */\n      0x19\n        /* \"#utility.yul\":8808:8811   */\n      dup4\n        /* \"#utility.yul\":8749:8816   */\n      tag_100\n      jump\t// in\n    tag_196:\n        /* \"#utility.yul\":8742:8816   */\n      swap2\n      pop\n        /* \"#utility.yul\":8825:8918   */\n      tag_197\n        /* \"#utility.yul\":8914:8917   */\n      dup3\n        /* \"#utility.yul\":8825:8918   */\n      tag_109\n      jump\t// in\n    tag_197:\n        /* \"#utility.yul\":8943:8945   */\n      0x20\n        /* \"#utility.yul\":8938:8941   */\n      dup3\n        /* \"#utility.yul\":8934:8946   */\n      add\n        /* \"#utility.yul\":8927:8946   */\n      swap1\n      pop\n        /* \"#utility.yul\":8586:8952   */\n      swap2\n      swap1\n      pop\n      jump\t// out\n        /* \"#utility.yul\":8958:9377   */\n    tag_74:\n        /* \"#utility.yul\":9124:9128   */\n      0x00\n        /* \"#utility.yul\":9162:9164   */\n      0x20\n        /* \"#utility.yul\":9151:9160   */\n      dup3\n        /* \"#utility.yul\":9147:9165   */\n      add\n        /* \"#utility.yul\":9139:9165   */\n      swap1\n      pop\n        /* \"#utility.yul\":9211:9220   */\n      dup2\n        /* \"#utility.yul\":9205:9209   */\n      dup2\n        /* \"#utility.yul\":9201:9221   */\n      sub\n        /* \"#utility.yul\":9197:9198   */\n      0x00\n        /* \"#utility.yul\":9186:9195   */\n      dup4\n        /* \"#utility.yul\":9182:9199   */\n      add\n        /* \"#utility.yul\":9175:9222   */\n      mstore\n        /* \"#utility.yul\":9239:9370   */\n      tag_199\n        /* \"#utility.yul\":9365:9369   */\n      dup2\n        /* \"#utility.yul\":9239:9370   */\n      tag_110\n      jump\t// in\n    tag_199:\n        /* \"#utility.yul\":9231:9370   */\n      swap1\n      pop\n        /* \"#utility.yul\":8958:9377   */\n      swap2\n      swap1\n      pop\n      jump\t// out\n\n    auxdata: 0xa264697066735822122064a6b383f370b3759b3f2619dfadf7040382c44804a88a7bda47a0edb28fc3ab64736f6c634300081e0033\n}\n",
				"bytecode": {
					"linkReferences": {},
					"object": "6080604052348015600e575f5ffd5b50335f5f6101000a81548173ffffffffffffffffffffffffffffffffffffffff021916908373ffffffffffffffffffffffffffffffffffffffff1602179055506103e860015f5f5f9054906101000a900473ffffffffffffffffffffffffffffffffffffffff1673ffffffffffffffffffffffffffffffffffffffff1673ffffffffffffffffffffffffffffffffffffffff1681526020019081526020015f2081905550610d29806100bf5f395ff3fe608060405260043610610073575f3560e01c8063522f68151161004d578063522f68151461024c5780638da5cb5b14610274578063ccea65bd1461029e578063d0e30db0146102c85761011b565b806327e235e3146101be57806330e76dae146101fa578063401658c5146102245761011b565b3661011b573460015f3373ffffffffffffffffffffffffffffffffffffffff1673ffffffffffffffffffffffffffffffffffffffff1681526020019081526020015f205f8282546100c4919061086f565b925050819055503373ffffffffffffffffffffffffffffffffffffffff167f939e51ac2fd009b158d6344f7e68a83d8d18d9b0cc88cf514aac6aaa9cad2a183460405161011191906108b1565b60405180910390a2005b3460015f3373ffffffffffffffffffffffffffffffffffffffff1673ffffffffffffffffffffffffffffffffffffffff1681526020019081526020015f205f828254610167919061086f565b925050819055503373ffffffffffffffffffffffffffffffffffffffff167f939e51ac2fd009b158d6344f7e68a83d8d18d9b0cc88cf514aac6aaa9cad2a18346040516101b491906108b1565b60405180910390a2005b3480156101c9575f5ffd5b506101e460048036038101906101df9190610928565b6102d2565b6040516101f191906108b1565b60405180910390f35b348015610205575f5ffd5b5061020e6102e7565b60405161021b91906108b1565b60405180910390f35b34801561022f575f5ffd5b5061024a6004803603810190610245919061097d565b6102ee565b005b348015610257575f5ffd5b50610272600480360381019061026d91906109f6565b610559565b005b34801561027f575f5ffd5b5061028861072e565b6040516102959190610a43565b60405180910390f35b3480156102a9575f5ffd5b506102b2610752565b6040516102bf91906108b1565b60405180910390f35b6102d0610796565b005b6001602052805f5260405f205f915090505481565b5f47905090565b8060015f3373ffffffffffffffffffffffffffffffffffffffff1673ffffffffffffffffffffffffffffffffffffffff1681526020019081526020015f2054101561036e576040517f08c379a000000000000000000000000000000000000000000000000000000000815260040161036590610ab6565b60405180910390fd5b5f73ffffffffffffffffffffffffffffffffffffffff168273ffffffffffffffffffffffffffffffffffffffff16036103dc576040517f08c379a00000000000000000000000000000000000000000000000000000000081526004016103d390610b1e565b60405180910390fd5b8173ffffffffffffffffffffffffffffffffffffffff163373ffffffffffffffffffffffffffffffffffffffff160361044a576040517f08c379a000000000000000000000000000000000000000000000000000000000815260040161044190610bac565b60405180910390fd5b8060015f3373ffffffffffffffffffffffffffffffffffffffff1673ffffffffffffffffffffffffffffffffffffffff1681526020019081526020015f205f8282546104969190610bca565b925050819055508060015f8473ffffffffffffffffffffffffffffffffffffffff1673ffffffffffffffffffffffffffffffffffffffff1681526020019081526020015f205f8282546104e9919061086f565b925050819055508173ffffffffffffffffffffffffffffffffffffffff163373ffffffffffffffffffffffffffffffffffffffff167f1dfb674d1b2f2e5bbe1de8cec0d1926c8dc01899356b4a3de6794bf56114913d8360405161054d91906108b1565b60405180910390a35050565b5f5f9054906101000a900473ffffffffffffffffffffffffffffffffffffffff1673ffffffffffffffffffffffffffffffffffffffff163373ffffffffffffffffffffffffffffffffffffffff16146105e7576040517f08c379a00000000000000000000000000000000000000000000000000000000081526004016105de90610c6d565b60405180910390fd5b8047101561062a576040517f08c379a000000000000000000000000000000000000000000000000000000000815260040161062190610cd5565b60405180910390fd5b5f73ffffffffffffffffffffffffffffffffffffffff168273ffffffffffffffffffffffffffffffffffffffff1603610698576040517f08c379a000000000000000000000000000000000000000000000000000000000815260040161068f90610b1e565b60405180910390fd5b8173ffffffffffffffffffffffffffffffffffffffff166108fc8290811502906040515f60405180830381858888f193505050501580156106db573d5f5f3e3d5ffd5b508173ffffffffffffffffffffffffffffffffffffffff167f06097061aeda806b5e9cb4133d9899f332ff0913956567fc0f7ea15e3d19947c8260405161072291906108b1565b60405180910390a25050565b5f5f9054906101000a900473ffffffffffffffffffffffffffffffffffffffff1681565b5f60015f3373ffffffffffffffffffffffffffffffffffffffff1673ffffffffffffffffffffffffffffffffffffffff1681526020019081526020015f2054905090565b3460015f3373ffffffffffffffffffffffffffffffffffffffff1673ffffffffffffffffffffffffffffffffffffffff1681526020019081526020015f205f8282546107e2919061086f565b925050819055503373ffffffffffffffffffffffffffffffffffffffff167f939e51ac2fd009b158d6344f7e68a83d8d18d9b0cc88cf514aac6aaa9cad2a183460405161082f91906108b1565b60405180910390a2565b5f819050919050565b7f4e487b71000000000000000000000000000000000000000000000000000000005f52601160045260245ffd5b5f61087982610839565b915061088483610839565b925082820190508082111561089c5761089b610842565b5b92915050565b6108ab81610839565b82525050565b5f6020820190506108c45f8301846108a2565b92915050565b5f5ffd5b5f73ffffffffffffffffffffffffffffffffffffffff82169050919050565b5f6108f7826108ce565b9050919050565b610907816108ed565b8114610911575f5ffd5b50565b5f81359050610922816108fe565b92915050565b5f6020828403121561093d5761093c6108ca565b5b5f61094a84828501610914565b91505092915050565b61095c81610839565b8114610966575f5ffd5b50565b5f8135905061097781610953565b92915050565b5f5f60408385031215610993576109926108ca565b5b5f6109a085828601610914565b92505060206109b185828601610969565b9150509250929050565b5f6109c5826108ce565b9050919050565b6109d5816109bb565b81146109df575f5ffd5b50565b5f813590506109f0816109cc565b92915050565b5f5f60408385031215610a0c57610a0b6108ca565b5b5f610a19858286016109e2565b9250506020610a2a85828601610969565b9150509250929050565b610a3d816108ed565b82525050565b5f602082019050610a565f830184610a34565b92915050565b5f82825260208201905092915050565b7f53616c646f20696e7465726e616c20746964616b2063756b75702e00000000005f82015250565b5f610aa0601b83610a5c565b9150610aab82610a6c565b602082019050919050565b5f6020820190508181035f830152610acd81610a94565b9050919050565b7f416c616d61742074756a75616e20746964616b2076616c69642e0000000000005f82015250565b5f610b08601a83610a5c565b9150610b1382610ad4565b602082019050919050565b5f6020820190508181035f830152610b3581610afc565b9050919050565b7f546964616b2062697361207472616e73666572206b6520646972692073656e645f8201527f6972692e00000000000000000000000000000000000000000000000000000000602082015250565b5f610b96602483610a5c565b9150610ba182610b3c565b604082019050919050565b5f6020820190508181035f830152610bc381610b8a565b9050919050565b5f610bd482610839565b9150610bdf83610839565b9250828203905081811115610bf757610bf6610842565b5b92915050565b7f48616e79612070656d696c696b2079616e672062697361206d656d616e6767695f8201527f6c2066756e67736920696e692e00000000000000000000000000000000000000602082015250565b5f610c57602d83610a5c565b9150610c6282610bfd565b604082019050919050565b5f6020820190508181035f830152610c8481610c4b565b9050919050565b7f44616e61206b6f6e7472616b20746964616b2063756b75702e000000000000005f82015250565b5f610cbf601983610a5c565b9150610cca82610c8b565b602082019050919050565b5f6020820190508181035f830152610cec81610cb3565b905091905056fea264697066735822122064a6b383f370b3759b3f2619dfadf7040382c44804a88a7bda47a0edb28fc3ab64736f6c634300081e0033",
					"opcodes": "PUSH1 0x80 PUSH1 0x40 MSTORE CALLVALUE DUP1 ISZERO PUSH1 0xE JUMPI PUSH0 PUSH0 REVERT JUMPDEST POP CALLER PUSH0 PUSH0 PUSH2 0x100 EXP DUP2 SLOAD DUP2 PUSH20 0xFFFFFFFFFFFFFFFFFFFFFFFFFFFFFFFFFFFFFFFF MUL NOT AND SWAP1 DUP4 PUSH20 0xFFFFFFFFFFFFFFFFFFFFFFFFFFFFFFFFFFFFFFFF AND MUL OR SWAP1 SSTORE POP PUSH2 0x3E8 PUSH1 0x1 PUSH0 PUSH0 PUSH0 SWAP1 SLOAD SWAP1 PUSH2 0x100 EXP SWAP1 DIV PUSH20 0xFFFFFFFFFFFFFFFFFFFFFFFFFFFFFFFFFFFFFFFF AND PUSH20 0xFFFFFFFFFFFFFFFFFFFFFFFFFFFFFFFFFFFFFFFF AND PUSH20 0xFFFFFFFFFFFFFFFFFFFFFFFFFFFFFFFFFFFFFFFF AND DUP2 MSTORE PUSH1 0x20 ADD SWAP1 DUP2 MSTORE PUSH1 0x20 ADD PUSH0 KECCAK256 DUP2 SWAP1 SSTORE POP PUSH2 0xD29 DUP1 PUSH2 0xBF PUSH0 CODECOPY PUSH0 RETURN INVALID PUSH1 0x80 PUSH1 0x40 MSTORE PUSH1 0x4 CALLDATASIZE LT PUSH2 0x73 JUMPI PUSH0 CALLDATALOAD PUSH1 0xE0 SHR DUP1 PUSH4 0x522F6815 GT PUSH2 0x4D JUMPI DUP1 PUSH4 0x522F6815 EQ PUSH2 0x24C JUMPI DUP1 PUSH4 0x8DA5CB5B EQ PUSH2 0x274 JUMPI DUP1 PUSH4 0xCCEA65BD EQ PUSH2 0x29E JUMPI DUP1 PUSH4 0xD0E30DB0 EQ PUSH2 0x2C8 JUMPI PUSH2 0x11B JUMP JUMPDEST DUP1 PUSH4 0x27E235E3 EQ PUSH2 0x1BE JUMPI DUP1 PUSH4 0x30E76DAE EQ PUSH2 0x1FA JUMPI DUP1 PUSH4 0x401658C5 EQ PUSH2 0x224 JUMPI PUSH2 0x11B JUMP JUMPDEST CALLDATASIZE PUSH2 0x11B JUMPI CALLVALUE PUSH1 0x1 PUSH0 CALLER PUSH20 0xFFFFFFFFFFFFFFFFFFFFFFFFFFFFFFFFFFFFFFFF AND PUSH20 0xFFFFFFFFFFFFFFFFFFFFFFFFFFFFFFFFFFFFFFFF AND DUP2 MSTORE PUSH1 0x20 ADD SWAP1 DUP2 MSTORE PUSH1 0x20 ADD PUSH0 KECCAK256 PUSH0 DUP3 DUP3 SLOAD PUSH2 0xC4 SWAP2 SWAP1 PUSH2 0x86F JUMP JUMPDEST SWAP3 POP POP DUP2 SWAP1 SSTORE POP CALLER PUSH20 0xFFFFFFFFFFFFFFFFFFFFFFFFFFFFFFFFFFFFFFFF AND PUSH32 0x939E51AC2FD009B158D6344F7E68A83D8D18D9B0CC88CF514AAC6AAA9CAD2A18 CALLVALUE PUSH1 0x40 MLOAD PUSH2 0x111 SWAP2 SWAP1 PUSH2 0x8B1 JUMP JUMPDEST PUSH1 0x40 MLOAD DUP1 SWAP2 SUB SWAP1 LOG2 STOP JUMPDEST CALLVALUE PUSH1 0x1 PUSH0 CALLER PUSH20 0xFFFFFFFFFFFFFFFFFFFFFFFFFFFFFFFFFFFFFFFF AND PUSH20 0xFFFFFFFFFFFFFFFFFFFFFFFFFFFFFFFFFFFFFFFF AND DUP2 MSTORE PUSH1 0x20 ADD SWAP1 DUP2 MSTORE PUSH1 0x20 ADD PUSH0 KECCAK256 PUSH0 DUP3 DUP3 SLOAD PUSH2 0x167 SWAP2 SWAP1 PUSH2 0x86F JUMP JUMPDEST SWAP3 POP POP DUP2 SWAP1 SSTORE POP CALLER PUSH20 0xFFFFFFFFFFFFFFFFFFFFFFFFFFFFFFFFFFFFFFFF AND PUSH32 0x939E51AC2FD009B158D6344F7E68A83D8D18D9B0CC88CF514AAC6AAA9CAD2A18 CALLVALUE PUSH1 0x40 MLOAD PUSH2 0x1B4 SWAP2 SWAP1 PUSH2 0x8B1 JUMP JUMPDEST PUSH1 0x40 MLOAD DUP1 SWAP2 SUB SWAP1 LOG2 STOP JUMPDEST CALLVALUE DUP1 ISZERO PUSH2 0x1C9 JUMPI PUSH0 PUSH0 REVERT JUMPDEST POP PUSH2 0x1E4 PUSH1 0x4 DUP1 CALLDATASIZE SUB DUP2 ADD SWAP1 PUSH2 0x1DF SWAP2 SWAP1 PUSH2 0x928 JUMP JUMPDEST PUSH2 0x2D2 JUMP JUMPDEST PUSH1 0x40 MLOAD PUSH2 0x1F1 SWAP2 SWAP1 PUSH2 0x8B1 JUMP JUMPDEST PUSH1 0x40 MLOAD DUP1 SWAP2 SUB SWAP1 RETURN JUMPDEST CALLVALUE DUP1 ISZERO PUSH2 0x205 JUMPI PUSH0 PUSH0 REVERT JUMPDEST POP PUSH2 0x20E PUSH2 0x2E7 JUMP JUMPDEST PUSH1 0x40 MLOAD PUSH2 0x21B SWAP2 SWAP1 PUSH2 0x8B1 JUMP JUMPDEST PUSH1 0x40 MLOAD DUP1 SWAP2 SUB SWAP1 RETURN JUMPDEST CALLVALUE DUP1 ISZERO PUSH2 0x22F JUMPI PUSH0 PUSH0 REVERT JUMPDEST POP PUSH2 0x24A PUSH1 0x4 DUP1 CALLDATASIZE SUB DUP2 ADD SWAP1 PUSH2 0x245 SWAP2 SWAP1 PUSH2 0x97D JUMP JUMPDEST PUSH2 0x2EE JUMP JUMPDEST STOP JUMPDEST CALLVALUE DUP1 ISZERO PUSH2 0x257 JUMPI PUSH0 PUSH0 REVERT JUMPDEST POP PUSH2 0x272 PUSH1 0x4 DUP1 CALLDATASIZE SUB DUP2 ADD SWAP1 PUSH2 0x26D SWAP2 SWAP1 PUSH2 0x9F6 JUMP JUMPDEST PUSH2 0x559 JUMP JUMPDEST STOP JUMPDEST CALLVALUE DUP1 ISZERO PUSH2 0x27F JUMPI PUSH0 PUSH0 REVERT JUMPDEST POP PUSH2 0x288 PUSH2 0x72E JUMP JUMPDEST PUSH1 0x40 MLOAD PUSH2 0x295 SWAP2 SWAP1 PUSH2 0xA43 JUMP JUMPDEST PUSH1 0x40 MLOAD DUP1 SWAP2 SUB SWAP1 RETURN JUMPDEST CALLVALUE DUP1 ISZERO PUSH2 0x2A9 JUMPI PUSH0 PUSH0 REVERT JUMPDEST POP PUSH2 0x2B2 PUSH2 0x752 JUMP JUMPDEST PUSH1 0x40 MLOAD PUSH2 0x2BF SWAP2 SWAP1 PUSH2 0x8B1 JUMP JUMPDEST PUSH1 0x40 MLOAD DUP1 SWAP2 SUB SWAP1 RETURN JUMPDEST PUSH2 0x2D0 PUSH2 0x796 JUMP JUMPDEST STOP JUMPDEST PUSH1 0x1 PUSH1 0x20 MSTORE DUP1 PUSH0 MSTORE PUSH1 0x40 PUSH0 KECCAK256 PUSH0 SWAP2 POP SWAP1 POP SLOAD DUP2 JUMP JUMPDEST PUSH0 SELFBALANCE SWAP1 POP SWAP1 JUMP JUMPDEST DUP1 PUSH1 0x1 PUSH0 CALLER PUSH20 0xFFFFFFFFFFFFFFFFFFFFFFFFFFFFFFFFFFFFFFFF AND PUSH20 0xFFFFFFFFFFFFFFFFFFFFFFFFFFFFFFFFFFFFFFFF AND DUP2 MSTORE PUSH1 0x20 ADD SWAP1 DUP2 MSTORE PUSH1 0x20 ADD PUSH0 KECCAK256 SLOAD LT ISZERO PUSH2 0x36E JUMPI PUSH1 0x40 MLOAD PUSH32 0x8C379A000000000000000000000000000000000000000000000000000000000 DUP2 MSTORE PUSH1 0x4 ADD PUSH2 0x365 SWAP1 PUSH2 0xAB6 JUMP JUMPDEST PUSH1 0x40 MLOAD DUP1 SWAP2 SUB SWAP1 REVERT JUMPDEST PUSH0 PUSH20 0xFFFFFFFFFFFFFFFFFFFFFFFFFFFFFFFFFFFFFFFF AND DUP3 PUSH20 0xFFFFFFFFFFFFFFFFFFFFFFFFFFFFFFFFFFFFFFFF AND SUB PUSH2 0x3DC JUMPI PUSH1 0x40 MLOAD PUSH32 0x8C379A000000000000000000000000000000000000000000000000000000000 DUP2 MSTORE PUSH1 0x4 ADD PUSH2 0x3D3 SWAP1 PUSH2 0xB1E JUMP JUMPDEST PUSH1 0x40 MLOAD DUP1 SWAP2 SUB SWAP1 REVERT JUMPDEST DUP2 PUSH20 0xFFFFFFFFFFFFFFFFFFFFFFFFFFFFFFFFFFFFFFFF AND CALLER PUSH20 0xFFFFFFFFFFFFFFFFFFFFFFFFFFFFFFFFFFFFFFFF AND SUB PUSH2 0x44A JUMPI PUSH1 0x40 MLOAD PUSH32 0x8C379A000000000000000000000000000000000000000000000000000000000 DUP2 MSTORE PUSH1 0x4 ADD PUSH2 0x441 SWAP1 PUSH2 0xBAC JUMP JUMPDEST PUSH1 0x40 MLOAD DUP1 SWAP2 SUB SWAP1 REVERT JUMPDEST DUP1 PUSH1 0x1 PUSH0 CALLER PUSH20 0xFFFFFFFFFFFFFFFFFFFFFFFFFFFFFFFFFFFFFFFF AND PUSH20 0xFFFFFFFFFFFFFFFFFFFFFFFFFFFFFFFFFFFFFFFF AND DUP2 MSTORE PUSH1 0x20 ADD SWAP1 DUP2 MSTORE PUSH1 0x20 ADD PUSH0 KECCAK256 PUSH0 DUP3 DUP3 SLOAD PUSH2 0x496 SWAP2 SWAP1 PUSH2 0xBCA JUMP JUMPDEST SWAP3 POP POP DUP2 SWAP1 SSTORE POP DUP1 PUSH1 0x1 PUSH0 DUP5 PUSH20 0xFFFFFFFFFFFFFFFFFFFFFFFFFFFFFFFFFFFFFFFF AND PUSH20 0xFFFFFFFFFFFFFFFFFFFFFFFFFFFFFFFFFFFFFFFF AND DUP2 MSTORE PUSH1 0x20 ADD SWAP1 DUP2 MSTORE PUSH1 0x20 ADD PUSH0 KECCAK256 PUSH0 DUP3 DUP3 SLOAD PUSH2 0x4E9 SWAP2 SWAP1 PUSH2 0x86F JUMP JUMPDEST SWAP3 POP POP DUP2 SWAP1 SSTORE POP DUP2 PUSH20 0xFFFFFFFFFFFFFFFFFFFFFFFFFFFFFFFFFFFFFFFF AND CALLER PUSH20 0xFFFFFFFFFFFFFFFFFFFFFFFFFFFFFFFFFFFFFFFF AND PUSH32 0x1DFB674D1B2F2E5BBE1DE8CEC0D1926C8DC01899356B4A3DE6794BF56114913D DUP4 PUSH1 0x40 MLOAD PUSH2 0x54D SWAP2 SWAP1 PUSH2 0x8B1 JUMP JUMPDEST PUSH1 0x40 MLOAD DUP1 SWAP2 SUB SWAP1 LOG3 POP POP JUMP JUMPDEST PUSH0 PUSH0 SWAP1 SLOAD SWAP1 PUSH2 0x100 EXP SWAP1 DIV PUSH20 0xFFFFFFFFFFFFFFFFFFFFFFFFFFFFFFFFFFFFFFFF AND PUSH20 0xFFFFFFFFFFFFFFFFFFFFFFFFFFFFFFFFFFFFFFFF AND CALLER PUSH20 0xFFFFFFFFFFFFFFFFFFFFFFFFFFFFFFFFFFFFFFFF AND EQ PUSH2 0x5E7 JUMPI PUSH1 0x40 MLOAD PUSH32 0x8C379A000000000000000000000000000000000000000000000000000000000 DUP2 MSTORE PUSH1 0x4 ADD PUSH2 0x5DE SWAP1 PUSH2 0xC6D JUMP JUMPDEST PUSH1 0x40 MLOAD DUP1 SWAP2 SUB SWAP1 REVERT JUMPDEST DUP1 SELFBALANCE LT ISZERO PUSH2 0x62A JUMPI PUSH1 0x40 MLOAD PUSH32 0x8C379A000000000000000000000000000000000000000000000000000000000 DUP2 MSTORE PUSH1 0x4 ADD PUSH2 0x621 SWAP1 PUSH2 0xCD5 JUMP JUMPDEST PUSH1 0x40 MLOAD DUP1 SWAP2 SUB SWAP1 REVERT JUMPDEST PUSH0 PUSH20 0xFFFFFFFFFFFFFFFFFFFFFFFFFFFFFFFFFFFFFFFF AND DUP3 PUSH20 0xFFFFFFFFFFFFFFFFFFFFFFFFFFFFFFFFFFFFFFFF AND SUB PUSH2 0x698 JUMPI PUSH1 0x40 MLOAD PUSH32 0x8C379A000000000000000000000000000000000000000000000000000000000 DUP2 MSTORE PUSH1 0x4 ADD PUSH2 0x68F SWAP1 PUSH2 0xB1E JUMP JUMPDEST PUSH1 0x40 MLOAD DUP1 SWAP2 SUB SWAP1 REVERT JUMPDEST DUP2 PUSH20 0xFFFFFFFFFFFFFFFFFFFFFFFFFFFFFFFFFFFFFFFF AND PUSH2 0x8FC DUP3 SWAP1 DUP2 ISZERO MUL SWAP1 PUSH1 0x40 MLOAD PUSH0 PUSH1 0x40 MLOAD DUP1 DUP4 SUB DUP2 DUP6 DUP9 DUP9 CALL SWAP4 POP POP POP POP ISZERO DUP1 ISZERO PUSH2 0x6DB JUMPI RETURNDATASIZE PUSH0 PUSH0 RETURNDATACOPY RETURNDATASIZE PUSH0 REVERT JUMPDEST POP DUP2 PUSH20 0xFFFFFFFFFFFFFFFFFFFFFFFFFFFFFFFFFFFFFFFF AND PUSH32 0x6097061AEDA806B5E9CB4133D9899F332FF0913956567FC0F7EA15E3D19947C DUP3 PUSH1 0x40 MLOAD PUSH2 0x722 SWAP2 SWAP1 PUSH2 0x8B1 JUMP JUMPDEST PUSH1 0x40 MLOAD DUP1 SWAP2 SUB SWAP1 LOG2 POP POP JUMP JUMPDEST PUSH0 PUSH0 SWAP1 SLOAD SWAP1 PUSH2 0x100 EXP SWAP1 DIV PUSH20 0xFFFFFFFFFFFFFFFFFFFFFFFFFFFFFFFFFFFFFFFF AND DUP2 JUMP JUMPDEST PUSH0 PUSH1 0x1 PUSH0 CALLER PUSH20 0xFFFFFFFFFFFFFFFFFFFFFFFFFFFFFFFFFFFFFFFF AND PUSH20 0xFFFFFFFFFFFFFFFFFFFFFFFFFFFFFFFFFFFFFFFF AND DUP2 MSTORE PUSH1 0x20 ADD SWAP1 DUP2 MSTORE PUSH1 0x20 ADD PUSH0 KECCAK256 SLOAD SWAP1 POP SWAP1 JUMP JUMPDEST CALLVALUE PUSH1 0x1 PUSH0 CALLER PUSH20 0xFFFFFFFFFFFFFFFFFFFFFFFFFFFFFFFFFFFFFFFF AND PUSH20 0xFFFFFFFFFFFFFFFFFFFFFFFFFFFFFFFFFFFFFFFF AND DUP2 MSTORE PUSH1 0x20 ADD SWAP1 DUP2 MSTORE PUSH1 0x20 ADD PUSH0 KECCAK256 PUSH0 DUP3 DUP3 SLOAD PUSH2 0x7E2 SWAP2 SWAP1 PUSH2 0x86F JUMP JUMPDEST SWAP3 POP POP DUP2 SWAP1 SSTORE POP CALLER PUSH20 0xFFFFFFFFFFFFFFFFFFFFFFFFFFFFFFFFFFFFFFFF AND PUSH32 0x939E51AC2FD009B158D6344F7E68A83D8D18D9B0CC88CF514AAC6AAA9CAD2A18 CALLVALUE PUSH1 0x40 MLOAD PUSH2 0x82F SWAP2 SWAP1 PUSH2 0x8B1 JUMP JUMPDEST PUSH1 0x40 MLOAD DUP1 SWAP2 SUB SWAP1 LOG2 JUMP JUMPDEST PUSH0 DUP2 SWAP1 POP SWAP2 SWAP1 POP JUMP JUMPDEST PUSH32 0x4E487B7100000000000000000000000000000000000000000000000000000000 PUSH0 MSTORE PUSH1 0x11 PUSH1 0x4 MSTORE PUSH1 0x24 PUSH0 REVERT JUMPDEST PUSH0 PUSH2 0x879 DUP3 PUSH2 0x839 JUMP JUMPDEST SWAP2 POP PUSH2 0x884 DUP4 PUSH2 0x839 JUMP JUMPDEST SWAP3 POP DUP3 DUP3 ADD SWAP1 POP DUP1 DUP3 GT ISZERO PUSH2 0x89C JUMPI PUSH2 0x89B PUSH2 0x842 JUMP JUMPDEST JUMPDEST SWAP3 SWAP2 POP POP JUMP JUMPDEST PUSH2 0x8AB DUP2 PUSH2 0x839 JUMP JUMPDEST DUP3 MSTORE POP POP JUMP JUMPDEST PUSH0 PUSH1 0x20 DUP3 ADD SWAP1 POP PUSH2 0x8C4 PUSH0 DUP4 ADD DUP5 PUSH2 0x8A2 JUMP JUMPDEST SWAP3 SWAP2 POP POP JUMP JUMPDEST PUSH0 PUSH0 REVERT JUMPDEST PUSH0 PUSH20 0xFFFFFFFFFFFFFFFFFFFFFFFFFFFFFFFFFFFFFFFF DUP3 AND SWAP1 POP SWAP2 SWAP1 POP JUMP JUMPDEST PUSH0 PUSH2 0x8F7 DUP3 PUSH2 0x8CE JUMP JUMPDEST SWAP1 POP SWAP2 SWAP1 POP JUMP JUMPDEST PUSH2 0x907 DUP2 PUSH2 0x8ED JUMP JUMPDEST DUP2 EQ PUSH2 0x911 JUMPI PUSH0 PUSH0 REVERT JUMPDEST POP JUMP JUMPDEST PUSH0 DUP2 CALLDATALOAD SWAP1 POP PUSH2 0x922 DUP2 PUSH2 0x8FE JUMP JUMPDEST SWAP3 SWAP2 POP POP JUMP JUMPDEST PUSH0 PUSH1 0x20 DUP3 DUP5 SUB SLT ISZERO PUSH2 0x93D JUMPI PUSH2 0x93C PUSH2 0x8CA JUMP JUMPDEST JUMPDEST PUSH0 PUSH2 0x94A DUP5 DUP3 DUP6 ADD PUSH2 0x914 JUMP JUMPDEST SWAP2 POP POP SWAP3 SWAP2 POP POP JUMP JUMPDEST PUSH2 0x95C DUP2 PUSH2 0x839 JUMP JUMPDEST DUP2 EQ PUSH2 0x966 JUMPI PUSH0 PUSH0 REVERT JUMPDEST POP JUMP JUMPDEST PUSH0 DUP2 CALLDATALOAD SWAP1 POP PUSH2 0x977 DUP2 PUSH2 0x953 JUMP JUMPDEST SWAP3 SWAP2 POP POP JUMP JUMPDEST PUSH0 PUSH0 PUSH1 0x40 DUP4 DUP6 SUB SLT ISZERO PUSH2 0x993 JUMPI PUSH2 0x992 PUSH2 0x8CA JUMP JUMPDEST JUMPDEST PUSH0 PUSH2 0x9A0 DUP6 DUP3 DUP7 ADD PUSH2 0x914 JUMP JUMPDEST SWAP3 POP POP PUSH1 0x20 PUSH2 0x9B1 DUP6 DUP3 DUP7 ADD PUSH2 0x969 JUMP JUMPDEST SWAP2 POP POP SWAP3 POP SWAP3 SWAP1 POP JUMP JUMPDEST PUSH0 PUSH2 0x9C5 DUP3 PUSH2 0x8CE JUMP JUMPDEST SWAP1 POP SWAP2 SWAP1 POP JUMP JUMPDEST PUSH2 0x9D5 DUP2 PUSH2 0x9BB JUMP JUMPDEST DUP2 EQ PUSH2 0x9DF JUMPI PUSH0 PUSH0 REVERT JUMPDEST POP JUMP JUMPDEST PUSH0 DUP2 CALLDATALOAD SWAP1 POP PUSH2 0x9F0 DUP2 PUSH2 0x9CC JUMP JUMPDEST SWAP3 SWAP2 POP POP JUMP JUMPDEST PUSH0 PUSH0 PUSH1 0x40 DUP4 DUP6 SUB SLT ISZERO PUSH2 0xA0C JUMPI PUSH2 0xA0B PUSH2 0x8CA JUMP JUMPDEST JUMPDEST PUSH0 PUSH2 0xA19 DUP6 DUP3 DUP7 ADD PUSH2 0x9E2 JUMP JUMPDEST SWAP3 POP POP PUSH1 0x20 PUSH2 0xA2A DUP6 DUP3 DUP7 ADD PUSH2 0x969 JUMP JUMPDEST SWAP2 POP POP SWAP3 POP SWAP3 SWAP1 POP JUMP JUMPDEST PUSH2 0xA3D DUP2 PUSH2 0x8ED JUMP JUMPDEST DUP3 MSTORE POP POP JUMP JUMPDEST PUSH0 PUSH1 0x20 DUP3 ADD SWAP1 POP PUSH2 0xA56 PUSH0 DUP4 ADD DUP5 PUSH2 0xA34 JUMP JUMPDEST SWAP3 SWAP2 POP POP JUMP JUMPDEST PUSH0 DUP3 DUP3 MSTORE PUSH1 0x20 DUP3 ADD SWAP1 POP SWAP3 SWAP2 POP POP JUMP JUMPDEST PUSH32 0x53616C646F20696E7465726E616C20746964616B2063756B75702E0000000000 PUSH0 DUP3 ADD MSTORE POP JUMP JUMPDEST PUSH0 PUSH2 0xAA0 PUSH1 0x1B DUP4 PUSH2 0xA5C JUMP JUMPDEST SWAP2 POP PUSH2 0xAAB DUP3 PUSH2 0xA6C JUMP JUMPDEST PUSH1 0x20 DUP3 ADD SWAP1 POP SWAP2 SWAP1 POP JUMP JUMPDEST PUSH0 PUSH1 0x20 DUP3 ADD SWAP1 POP DUP2 DUP2 SUB PUSH0 DUP4 ADD MSTORE PUSH2 0xACD DUP2 PUSH2 0xA94 JUMP JUMPDEST SWAP1 POP SWAP2 SWAP1 POP JUMP JUMPDEST PUSH32 0x416C616D61742074756A75616E20746964616B2076616C69642E000000000000 PUSH0 DUP3 ADD MSTORE POP JUMP JUMPDEST PUSH0 PUSH2 0xB08 PUSH1 0x1A DUP4 PUSH2 0xA5C JUMP JUMPDEST SWAP2 POP PUSH2 0xB13 DUP3 PUSH2 0xAD4 JUMP JUMPDEST PUSH1 0x20 DUP3 ADD SWAP1 POP SWAP2 SWAP1 POP JUMP JUMPDEST PUSH0 PUSH1 0x20 DUP3 ADD SWAP1 POP DUP2 DUP2 SUB PUSH0 DUP4 ADD MSTORE PUSH2 0xB35 DUP2 PUSH2 0xAFC JUMP JUMPDEST SWAP1 POP SWAP2 SWAP1 POP JUMP JUMPDEST PUSH32 0x546964616B2062697361207472616E73666572206B6520646972692073656E64 PUSH0 DUP3 ADD MSTORE PUSH32 0x6972692E00000000000000000000000000000000000000000000000000000000 PUSH1 0x20 DUP3 ADD MSTORE POP JUMP JUMPDEST PUSH0 PUSH2 0xB96 PUSH1 0x24 DUP4 PUSH2 0xA5C JUMP JUMPDEST SWAP2 POP PUSH2 0xBA1 DUP3 PUSH2 0xB3C JUMP JUMPDEST PUSH1 0x40 DUP3 ADD SWAP1 POP SWAP2 SWAP1 POP JUMP JUMPDEST PUSH0 PUSH1 0x20 DUP3 ADD SWAP1 POP DUP2 DUP2 SUB PUSH0 DUP4 ADD MSTORE PUSH2 0xBC3 DUP2 PUSH2 0xB8A JUMP JUMPDEST SWAP1 POP SWAP2 SWAP1 POP JUMP JUMPDEST PUSH0 PUSH2 0xBD4 DUP3 PUSH2 0x839 JUMP JUMPDEST SWAP2 POP PUSH2 0xBDF DUP4 PUSH2 0x839 JUMP JUMPDEST SWAP3 POP DUP3 DUP3 SUB SWAP1 POP DUP2 DUP2 GT ISZERO PUSH2 0xBF7 JUMPI PUSH2 0xBF6 PUSH2 0x842 JUMP JUMPDEST JUMPDEST SWAP3 SWAP2 POP POP JUMP JUMPDEST PUSH32 0x48616E79612070656D696C696B2079616E672062697361206D656D616E676769 PUSH0 DUP3 ADD MSTORE PUSH32 0x6C2066756E67736920696E692E00000000000000000000000000000000000000 PUSH1 0x20 DUP3 ADD MSTORE POP JUMP JUMPDEST PUSH0 PUSH2 0xC57 PUSH1 0x2D DUP4 PUSH2 0xA5C JUMP JUMPDEST SWAP2 POP PUSH2 0xC62 DUP3 PUSH2 0xBFD JUMP JUMPDEST PUSH1 0x40 DUP3 ADD SWAP1 POP SWAP2 SWAP1 POP JUMP JUMPDEST PUSH0 PUSH1 0x20 DUP3 ADD SWAP1 POP DUP2 DUP2 SUB PUSH0 DUP4 ADD MSTORE PUSH2 0xC84 DUP2 PUSH2 0xC4B JUMP JUMPDEST SWAP1 POP SWAP2 SWAP1 POP JUMP JUMPDEST PUSH32 0x44616E61206B6F6E7472616B20746964616B2063756B75702E00000000000000 PUSH0 DUP3 ADD MSTORE POP JUMP JUMPDEST PUSH0 PUSH2 0xCBF PUSH1 0x19 DUP4 PUSH2 0xA5C JUMP JUMPDEST SWAP2 POP PUSH2 0xCCA DUP3 PUSH2 0xC8B JUMP JUMPDEST PUSH1 0x20 DUP3 ADD SWAP1 POP SWAP2 SWAP1 POP JUMP JUMPDEST PUSH0 PUSH1 0x20 DUP3 ADD SWAP1 POP DUP2 DUP2 SUB PUSH0 DUP4 ADD MSTORE PUSH2 0xCEC DUP2 PUSH2 0xCB3 JUMP JUMPDEST SWAP1 POP SWAP2 SWAP1 POP JUMP INVALID LOG2 PUSH5 0x6970667358 0x22 SLT KECCAK256 PUSH5 0xA6B383F370 0xB3 PUSH22 0x9B3F2619DFADF7040382C44804A88A7BDA47A0EDB28F 0xC3 0xAB PUSH5 0x736F6C6343 STOP ADDMOD 0x1E STOP CALLER "
				},
				"gasEstimates": {
					"creation": {
						"codeDepositCost": "673800",
						"executionCost": "49306",
						"totalCost": "723106"
					},
					"external": {
						"": "infinite",
						"balances(address)": "2803",
						"deposit()": "infinite",
						"getContractEtherBalance()": "357",
						"getMyInternalBalance()": "2563",
						"owner()": "2529",
						"transferInternalBalance(address,uint256)": "infinite",
						"withdrawEther(address,uint256)": "infinite"
					}
				},
				"methodIdentifiers": {
					"balances(address)": "27e235e3",
					"deposit()": "d0e30db0",
					"getContractEtherBalance()": "30e76dae",
					"getMyInternalBalance()": "ccea65bd",
					"owner()": "8da5cb5b",
					"transferInternalBalance(address,uint256)": "401658c5",
					"withdrawEther(address,uint256)": "522f6815"
				}
			},
			"storageLayout": {
				"storage": [
					{
						"astId": 3,
						"contract": "contracts/SimpleWallet.sol:SimpleWallet",
						"label": "owner",
						"offset": 0,
						"slot": "0",
						"type": "t_address"
					},
					{
						"astId": 7,
						"contract": "contracts/SimpleWallet.sol:SimpleWallet",
						"label": "balances",
						"offset": 0,
						"slot": "1",
						"type": "t_mapping(t_address,t_uint256)"
					}
				],
				"types": {
					"t_address": {
						"encoding": "inplace",
						"label": "address",
						"numberOfBytes": "20"
					},
					"t_mapping(t_address,t_uint256)": {
						"encoding": "mapping",
						"key": "t_address",
						"label": "mapping(address => uint256)",
						"numberOfBytes": "32",
						"value": "t_uint256"
					},
					"t_uint256": {
						"encoding": "inplace",
						"label": "uint256",
						"numberOfBytes": "32"
					}
				}
			},
			"userdoc": {
				"kind": "user",
				"methods": {},
				"version": 1
			}
		}
	}
}