{
	"data": {
		"bytecode": {
			"linkReferences": {},
			"object": "608060405234801561000f575f5ffd5b506040516116a13803806116a183398181016040528101906100319190610595565b3360015f6101000a81548173ffffffffffffffffffffffffffffffffffffffff021916908373ffffffffffffffffffffffffffffffffffffffff160217905550805f5f6101000a81548173ffffffffffffffffffffffffffffffffffffffff021916908373ffffffffffffffffffffffffffffffffffffffff16021790555060405180608001604052806040518060400160405280600581526020017f776174657200000000000000000000000000000000000000000000000000000081525081526020016040518060400160405280600581526020017f5761746572000000000000000000000000000000000000000000000000000000815250815260200160018152602001606481525060025f60058110610151576101506105c0565b5b600402015f820151815f019081610168919061082a565b50602082015181600101908161017e919061082a565b50604082015181600201556060820151816003015590505060405180608001604052806040518060400160405280600381526020017f746561000000000000000000000000000000000000000000000000000000000081525081526020016040518060400160405280600381526020017f546561000000000000000000000000000000000000000000000000000000000081525081526020016002815260200160648152506002600160058110610238576102376105c0565b5b600402015f820151815f01908161024f919061082a565b506020820151816001019081610265919061082a565b50604082015181600201556060820151816003015590505060405180608001604052806040518060400160405280600581526020017f6a7569636500000000000000000000000000000000000000000000000000000081525081526020016040518060400160405280600581526020017f4a7569636500000000000000000000000000000000000000000000000000000081525081526020016003815260200160648152506002806005811061031e5761031d6105c0565b5b600402015f820151815f019081610335919061082a565b50602082015181600101908161034b919061082a565b50604082015181600201556060820151816003015590505060405180608001604052806040518060400160405280600481526020017f6d696c6b0000000000000000000000000000000000000000000000000000000081525081526020016040518060400160405280600481526020017f4d696c6b0000000000000000000000000000000000000000000000000000000081525081526020016004815260200160648152506002600360058110610405576104046105c0565b5b600402015f820151815f01908161041c919061082a565b506020820151816001019081610432919061082a565b50604082015181600201556060820151816003015590505060405180608001604052806040518060400160405280600681526020017f636f66666565000000000000000000000000000000000000000000000000000081525081526020016040518060400160405280600681526020017f436f666665650000000000000000000000000000000000000000000000000000815250815260200160058152602001606481525060026004600581106104ec576104eb6105c0565b5b600402015f820151815f019081610503919061082a565b506020820151816001019081610519919061082a565b506040820151816002015560608201518160030155905050506108f9565b5f5ffd5b5f73ffffffffffffffffffffffffffffffffffffffff82169050919050565b5f6105648261053b565b9050919050565b6105748161055a565b811461057e575f5ffd5b50565b5f8151905061058f8161056b565b92915050565b5f602082840312156105aa576105a9610537565b5b5f6105b784828501610581565b91505092915050565b7f4e487b71000000000000000000000000000000000000000000000000000000005f52603260045260245ffd5b5f81519050919050565b7f4e487b71000000000000000000000000000000000000000000000000000000005f52604160045260245ffd5b7f4e487b71000000000000000000000000000000000000000000000000000000005f52602260045260245ffd5b5f600282049050600182168061066857607f821691505b60208210810361067b5761067a610624565b5b50919050565b5f819050815f5260205f209050919050565b5f6020601f8301049050919050565b5f82821b905092915050565b5f600883026106dd7fffffffffffffffffffffffffffffffffffffffffffffffffffffffffffffffff826106a2565b6106e786836106a2565b95508019841693508086168417925050509392505050565b5f819050919050565b5f819050919050565b5f61072b610726610721846106ff565b610708565b6106ff565b9050919050565b5f819050919050565b61074483610711565b61075861075082610732565b8484546106ae565b825550505050565b5f5f905090565b61076f610760565b61077a81848461073b565b505050565b5b8181101561079d576107925f82610767565b600181019050610780565b5050565b601f8211156107e2576107b381610681565b6107bc84610693565b810160208510156107cb578190505b6107df6107d785610693565b83018261077f565b50505b505050565b5f82821c905092915050565b5f6108025f19846008026107e7565b1980831691505092915050565b5f61081a83836107f3565b9150826002028217905092915050565b610833826105ed565b67ffffffffffffffff81111561084c5761084b6105f7565b5b6108568254610651565b6108618282856107a1565b5f60209050601f831160018114610892575f8415610880578287015190505b61088a858261080f565b8655506108f1565b601f1984166108a086610681565b5f5b828110156108c7578489015182556001820191506020850194506020810190506108a2565b868310156108e457848901516108e0601f8916826107f3565b8355505b6001600288020188555050505b505050505050565b610d9b806109065f395ff3fe608060405260043610610054575f3560e01c80632d153a8c1461005857806349649fbf14610080578063521eb2731461008a5780635b291dba146100b457806362f791c0146100f05780638da5cb5b1461010c575b5f5ffd5b348015610063575f5ffd5b5061007e60048036038101906100799190610761565b610136565b005b61008861020c565b005b348015610095575f5ffd5b5061009e610344565b6040516100ab9190610819565b60405180910390f35b3480156100bf575f5ffd5b506100da60048036038101906100d59190610832565b610368565b6040516100e79190610943565b60405180910390f35b61010a60048036038101906101059190610761565b6104df565b005b348015610117575f5ffd5b506101206106bc565b60405161012d9190610983565b60405180910390f35b60015f9054906101000a900473ffffffffffffffffffffffffffffffffffffffff1673ffffffffffffffffffffffffffffffffffffffff163373ffffffffffffffffffffffffffffffffffffffff16146101c5576040517f08c379a00000000000000000000000000000000000000000000000000000000081526004016101bc90610a1c565b60405180910390fd5b8060028360048111156101db576101da610a3a565b5b600581106101ec576101eb610a67565b5b600402016003015f8282546102019190610ac1565b925050819055505050565b60015f9054906101000a900473ffffffffffffffffffffffffffffffffffffffff1673ffffffffffffffffffffffffffffffffffffffff163373ffffffffffffffffffffffffffffffffffffffff161461029b576040517f08c379a000000000000000000000000000000000000000000000000000000000815260040161029290610a1c565b60405180910390fd5b5f47116102dd576040517f08c379a00000000000000000000000000000000000000000000000000000000081526004016102d490610b3e565b60405180910390fd5b60015f9054906101000a900473ffffffffffffffffffffffffffffffffffffffff1673ffffffffffffffffffffffffffffffffffffffff166108fc4790811502906040515f60405180830381858888f19350505050158015610341573d5f5f3e3d5ffd5b50565b5f5f9054906101000a900473ffffffffffffffffffffffffffffffffffffffff1681565b6103706106e1565b600282600481111561038557610384610a3a565b5b6005811061039657610395610a67565b5b600402016040518060800160405290815f820180546103b490610b89565b80601f01602080910402602001604051908101604052809291908181526020018280546103e090610b89565b801561042b5780601f106104025761010080835404028352916020019161042b565b820191905f5260205f20905b81548152906001019060200180831161040e57829003601f168201915b5050505050815260200160018201805461044490610b89565b80601f016020809104026020016040519081016040528092919081815260200182805461047090610b89565b80156104bb5780601f10610492576101008083540402835291602001916104bb565b820191905f5260205f20905b81548152906001019060200180831161049e57829003601f168201915b50505050508152602001600282015481526020016003820154815250509050919050565b5f8260048111156104f3576104f2610a3a565b5b90505f82600285600481111561050c5761050b610a3a565b5b6005811061051d5761051c610a67565b5b600402016002015461052f9190610bb9565b90505f821015806105405750600582105b61057f576040517f08c379a000000000000000000000000000000000000000000000000000000000815260040161057690610c44565b60405180910390fd5b826002836005811061059457610593610a67565b5b600402016003015410156105dd576040517f08c379a00000000000000000000000000000000000000000000000000000000081526004016105d490610cac565b60405180910390fd5b80341015610620576040517f08c379a000000000000000000000000000000000000000000000000000000000815260040161061790610d14565b60405180910390fd5b826002836005811061063557610634610a67565b5b600402016003015f82825461064a9190610d32565b9250508190555060015f9054906101000a900473ffffffffffffffffffffffffffffffffffffffff1673ffffffffffffffffffffffffffffffffffffffff166108fc8290811502906040515f60405180830381858888f193505050501580156106b5573d5f5f3e3d5ffd5b5050505050565b60015f9054906101000a900473ffffffffffffffffffffffffffffffffffffffff1681565b604051806080016040528060608152602001606081526020015f81526020015f81525090565b5f5ffd5b60058110610717575f5ffd5b50565b5f813590506107288161070b565b92915050565b5f819050919050565b6107408161072e565b811461074a575f5ffd5b50565b5f8135905061075b81610737565b92915050565b5f5f6040838503121561077757610776610707565b5b5f6107848582860161071a565b92505060206107958582860161074d565b9150509250929050565b5f73ffffffffffffffffffffffffffffffffffffffff82169050919050565b5f819050919050565b5f6107e16107dc6107d78461079f565b6107be565b61079f565b9050919050565b5f6107f2826107c7565b9050919050565b5f610803826107e8565b9050919050565b610813816107f9565b82525050565b5f60208201905061082c5f83018461080a565b92915050565b5f6020828403121561084757610846610707565b5b5f6108548482850161071a565b91505092915050565b5f81519050919050565b5f82825260208201905092915050565b8281835e5f83830152505050565b5f601f19601f8301169050919050565b5f61089f8261085d565b6108a98185610867565b93506108b9818560208601610877565b6108c281610885565b840191505092915050565b6108d68161072e565b82525050565b5f608083015f8301518482035f8601526108f68282610895565b915050602083015184820360208601526109108282610895565b915050604083015161092560408601826108cd565b50606083015161093860608601826108cd565b508091505092915050565b5f6020820190508181035f83015261095b81846108dc565b905092915050565b5f61096d8261079f565b9050919050565b61097d81610963565b82525050565b5f6020820190506109965f830184610974565b92915050565b5f82825260208201905092915050565b7f4f6e6c79206f776e65722063616e2063616c6c2074686973207265736f7572635f8201527f652e000000000000000000000000000000000000000000000000000000000000602082015250565b5f610a0660228361099c565b9150610a11826109ac565b604082019050919050565b5f6020820190508181035f830152610a33816109fa565b9050919050565b7f4e487b71000000000000000000000000000000000000000000000000000000005f52602160045260245ffd5b7f4e487b71000000000000000000000000000000000000000000000000000000005f52603260045260245ffd5b7f4e487b71000000000000000000000000000000000000000000000000000000005f52601160045260245ffd5b5f610acb8261072e565b9150610ad68361072e565b9250828201905080821115610aee57610aed610a94565b5b92915050565b7f4e6f2066756e647320746f2077697468647261772e00000000000000000000005f82015250565b5f610b2860158361099c565b9150610b3382610af4565b602082019050919050565b5f6020820190508181035f830152610b5581610b1c565b9050919050565b7f4e487b71000000000000000000000000000000000000000000000000000000005f52602260045260245ffd5b5f6002820490506001821680610ba057607f821691505b602082108103610bb357610bb2610b5c565b5b50919050565b5f610bc38261072e565b9150610bce8361072e565b9250828202610bdc8161072e565b91508282048414831517610bf357610bf2610a94565b5b5092915050565b7f496e76616c69642070726f6475637420656e756d0000000000000000000000005f82015250565b5f610c2e60148361099c565b9150610c3982610bfa565b602082019050919050565b5f6020820190508181035f830152610c5b81610c22565b9050919050565b7f50726f64756374206e6f7420656e6f7567682e000000000000000000000000005f82015250565b5f610c9660138361099c565b9150610ca182610c62565b602082019050919050565b5f6020820190508181035f830152610cc381610c8a565b9050919050565b7f4e6f7420656e6f756768206574686572000000000000000000000000000000005f82015250565b5f610cfe60108361099c565b9150610d0982610cca565b602082019050919050565b5f6020820190508181035f830152610d2b81610cf2565b9050919050565b5f610d3c8261072e565b9150610d478361072e565b9250828203905081811115610d5f57610d5e610a94565b5b9291505056fea2646970667358221220a077b6cd83b9f2224664f09b3d67d189ae824058526683e917036f3a6c1a3b1764736f6c634300081e0033",
			"opcodes": "PUSH1 0x80 PUSH1 0x40 MSTORE CALLVALUE DUP1 ISZERO PUSH2 0xF JUMPI PUSH0 PUSH0 REVERT JUMPDEST POP PUSH1 0x40 MLOAD PUSH2 0x16A1 CODESIZE SUB DUP1 PUSH2 0x16A1 DUP4 CODECOPY DUP2 DUP2 ADD PUSH1 0x40 MSTORE DUP2 ADD SWAP1 PUSH2 0x31 SWAP2 SWAP1 PUSH2 0x595 JUMP JUMPDEST CALLER PUSH1 0x1 PUSH0 PUSH2 0x100 EXP DUP2 SLOAD DUP2 PUSH20 0xFFFFFFFFFFFFFFFFFFFFFFFFFFFFFFFFFFFFFFFF MUL NOT AND SWAP1 DUP4 PUSH20 0xFFFFFFFFFFFFFFFFFFFFFFFFFFFFFFFFFFFFFFFF AND MUL OR SWAP1 SSTORE POP DUP1 PUSH0 PUSH0 PUSH2 0x100 EXP DUP2 SLOAD DUP2 PUSH20 0xFFFFFFFFFFFFFFFFFFFFFFFFFFFFFFFFFFFFFFFF MUL NOT AND SWAP1 DUP4 PUSH20 0xFFFFFFFFFFFFFFFFFFFFFFFFFFFFFFFFFFFFFFFF AND MUL OR SWAP1 SSTORE POP PUSH1 0x40 MLOAD DUP1 PUSH1 0x80 ADD PUSH1 0x40 MSTORE DUP1 PUSH1 0x40 MLOAD DUP1 PUSH1 0x40 ADD PUSH1 0x40 MSTORE DUP1 PUSH1 0x5 DUP2 MSTORE PUSH1 0x20 ADD PUSH32 0x7761746572000000000000000000000000000000000000000000000000000000 DUP2 MSTORE POP DUP2 MSTORE PUSH1 0x20 ADD PUSH1 0x40 MLOAD DUP1 PUSH1 0x40 ADD PUSH1 0x40 MSTORE DUP1 PUSH1 0x5 DUP2 MSTORE PUSH1 0x20 ADD PUSH32 0x5761746572000000000000000000000000000000000000000000000000000000 DUP2 MSTORE POP DUP2 MSTORE PUSH1 0x20 ADD PUSH1 0x1 DUP2 MSTORE PUSH1 0x20 ADD PUSH1 0x64 DUP2 MSTORE POP PUSH1 0x2 PUSH0 PUSH1 0x5 DUP2 LT PUSH2 0x151 JUMPI PUSH2 0x150 PUSH2 0x5C0 JUMP JUMPDEST JUMPDEST PUSH1 0x4 MUL ADD PUSH0 DUP3 ADD MLOAD DUP2 PUSH0 ADD SWAP1 DUP2 PUSH2 0x168 SWAP2 SWAP1 PUSH2 0x82A JUMP JUMPDEST POP PUSH1 0x20 DUP3 ADD MLOAD DUP2 PUSH1 0x1 ADD SWAP1 DUP2 PUSH2 0x17E SWAP2 SWAP1 PUSH2 0x82A JUMP JUMPDEST POP PUSH1 0x40 DUP3 ADD MLOAD DUP2 PUSH1 0x2 ADD SSTORE PUSH1 0x60 DUP3 ADD MLOAD DUP2 PUSH1 0x3 ADD SSTORE SWAP1 POP POP PUSH1 0x40 MLOAD DUP1 PUSH1 0x80 ADD PUSH1 0x40 MSTORE DUP1 PUSH1 0x40 MLOAD DUP1 PUSH1 0x40 ADD PUSH1 0x40 MSTORE DUP1 PUSH1 0x3 DUP2 MSTORE PUSH1 0x20 ADD PUSH32 0x7465610000000000000000000000000000000000000000000000000000000000 DUP2 MSTORE POP DUP2 MSTORE PUSH1 0x20 ADD PUSH1 0x40 MLOAD DUP1 PUSH1 0x40 ADD PUSH1 0x40 MSTORE DUP1 PUSH1 0x3 DUP2 MSTORE PUSH1 0x20 ADD PUSH32 0x5465610000000000000000000000000000000000000000000000000000000000 DUP2 MSTORE POP DUP2 MSTORE PUSH1 0x20 ADD PUSH1 0x2 DUP2 MSTORE PUSH1 0x20 ADD PUSH1 0x64 DUP2 MSTORE POP PUSH1 0x2 PUSH1 0x1 PUSH1 0x5 DUP2 LT PUSH2 0x238 JUMPI PUSH2 0x237 PUSH2 0x5C0 JUMP JUMPDEST JUMPDEST PUSH1 0x4 MUL ADD PUSH0 DUP3 ADD MLOAD DUP2 PUSH0 ADD SWAP1 DUP2 PUSH2 0x24F SWAP2 SWAP1 PUSH2 0x82A JUMP JUMPDEST POP PUSH1 0x20 DUP3 ADD MLOAD DUP2 PUSH1 0x1 ADD SWAP1 DUP2 PUSH2 0x265 SWAP2 SWAP1 PUSH2 0x82A JUMP JUMPDEST POP PUSH1 0x40 DUP3 ADD MLOAD DUP2 PUSH1 0x2 ADD SSTORE PUSH1 0x60 DUP3 ADD MLOAD DUP2 PUSH1 0x3 ADD SSTORE SWAP1 POP POP PUSH1 0x40 MLOAD DUP1 PUSH1 0x80 ADD PUSH1 0x40 MSTORE DUP1 PUSH1 0x40 MLOAD DUP1 PUSH1 0x40 ADD PUSH1 0x40 MSTORE DUP1 PUSH1 0x5 DUP2 MSTORE PUSH1 0x20 ADD PUSH32 0x6A75696365000000000000000000000000000000000000000000000000000000 DUP2 MSTORE POP DUP2 MSTORE PUSH1 0x20 ADD PUSH1 0x40 MLOAD DUP1 PUSH1 0x40 ADD PUSH1 0x40 MSTORE DUP1 PUSH1 0x5 DUP2 MSTORE PUSH1 0x20 ADD PUSH32 0x4A75696365000000000000000000000000000000000000000000000000000000 DUP2 MSTORE POP DUP2 MSTORE PUSH1 0x20 ADD PUSH1 0x3 DUP2 MSTORE PUSH1 0x20 ADD PUSH1 0x64 DUP2 MSTORE POP PUSH1 0x2 DUP1 PUSH1 0x5 DUP2 LT PUSH2 0x31E JUMPI PUSH2 0x31D PUSH2 0x5C0 JUMP JUMPDEST JUMPDEST PUSH1 0x4 MUL ADD PUSH0 DUP3 ADD MLOAD DUP2 PUSH0 ADD SWAP1 DUP2 PUSH2 0x335 SWAP2 SWAP1 PUSH2 0x82A JUMP JUMPDEST POP PUSH1 0x20 DUP3 ADD MLOAD DUP2 PUSH1 0x1 ADD SWAP1 DUP2 PUSH2 0x34B SWAP2 SWAP1 PUSH2 0x82A JUMP JUMPDEST POP PUSH1 0x40 DUP3 ADD MLOAD DUP2 PUSH1 0x2 ADD SSTORE PUSH1 0x60 DUP3 ADD MLOAD DUP2 PUSH1 0x3 ADD SSTORE SWAP1 POP POP PUSH1 0x40 MLOAD DUP1 PUSH1 0x80 ADD PUSH1 0x40 MSTORE DUP1 PUSH1 0x40 MLOAD DUP1 PUSH1 0x40 ADD PUSH1 0x40 MSTORE DUP1 PUSH1 0x4 DUP2 MSTORE PUSH1 0x20 ADD PUSH32 0x6D696C6B00000000000000000000000000000000000000000000000000000000 DUP2 MSTORE POP DUP2 MSTORE PUSH1 0x20 ADD PUSH1 0x40 MLOAD DUP1 PUSH1 0x40 ADD PUSH1 0x40 MSTORE DUP1 PUSH1 0x4 DUP2 MSTORE PUSH1 0x20 ADD PUSH32 0x4D696C6B00000000000000000000000000000000000000000000000000000000 DUP2 MSTORE POP DUP2 MSTORE PUSH1 0x20 ADD PUSH1 0x4 DUP2 MSTORE PUSH1 0x20 ADD PUSH1 0x64 DUP2 MSTORE POP PUSH1 0x2 PUSH1 0x3 PUSH1 0x5 DUP2 LT PUSH2 0x405 JUMPI PUSH2 0x404 PUSH2 0x5C0 JUMP JUMPDEST JUMPDEST PUSH1 0x4 MUL ADD PUSH0 DUP3 ADD MLOAD DUP2 PUSH0 ADD SWAP1 DUP2 PUSH2 0x41C SWAP2 SWAP1 PUSH2 0x82A JUMP JUMPDEST POP PUSH1 0x20 DUP3 ADD MLOAD DUP2 PUSH1 0x1 ADD SWAP1 DUP2 PUSH2 0x432 SWAP2 SWAP1 PUSH2 0x82A JUMP JUMPDEST POP PUSH1 0x40 DUP3 ADD MLOAD DUP2 PUSH1 0x2 ADD SSTORE PUSH1 0x60 DUP3 ADD MLOAD DUP2 PUSH1 0x3 ADD SSTORE SWAP1 POP POP PUSH1 0x40 MLOAD DUP1 PUSH1 0x80 ADD PUSH1 0x40 MSTORE DUP1 PUSH1 0x40 MLOAD DUP1 PUSH1 0x40 ADD PUSH1 0x40 MSTORE DUP1 PUSH1 0x6 DUP2 MSTORE PUSH1 0x20 ADD PUSH32 0x636F666665650000000000000000000000000000000000000000000000000000 DUP2 MSTORE POP DUP2 MSTORE PUSH1 0x20 ADD PUSH1 0x40 MLOAD DUP1 PUSH1 0x40 ADD PUSH1 0x40 MSTORE DUP1 PUSH1 0x6 DUP2 MSTORE PUSH1 0x20 ADD PUSH32 0x436F666665650000000000000000000000000000000000000000000000000000 DUP2 MSTORE POP DUP2 MSTORE PUSH1 0x20 ADD PUSH1 0x5 DUP2 MSTORE PUSH1 0x20 ADD PUSH1 0x64 DUP2 MSTORE POP PUSH1 0x2 PUSH1 0x4 PUSH1 0x5 DUP2 LT PUSH2 0x4EC JUMPI PUSH2 0x4EB PUSH2 0x5C0 JUMP JUMPDEST JUMPDEST PUSH1 0x4 MUL ADD PUSH0 DUP3 ADD MLOAD DUP2 PUSH0 ADD SWAP1 DUP2 PUSH2 0x503 SWAP2 SWAP1 PUSH2 0x82A JUMP JUMPDEST POP PUSH1 0x20 DUP3 ADD MLOAD DUP2 PUSH1 0x1 ADD SWAP1 DUP2 PUSH2 0x519 SWAP2 SWAP1 PUSH2 0x82A JUMP JUMPDEST POP PUSH1 0x40 DUP3 ADD MLOAD DUP2 PUSH1 0x2 ADD SSTORE PUSH1 0x60 DUP3 ADD MLOAD DUP2 PUSH1 0x3 ADD SSTORE SWAP1 POP POP POP PUSH2 0x8F9 JUMP JUMPDEST PUSH0 PUSH0 REVERT JUMPDEST PUSH0 PUSH20 0xFFFFFFFFFFFFFFFFFFFFFFFFFFFFFFFFFFFFFFFF DUP3 AND SWAP1 POP SWAP2 SWAP1 POP JUMP JUMPDEST PUSH0 PUSH2 0x564 DUP3 PUSH2 0x53B JUMP JUMPDEST SWAP1 POP SWAP2 SWAP1 POP JUMP JUMPDEST PUSH2 0x574 DUP2 PUSH2 0x55A JUMP JUMPDEST DUP2 EQ PUSH2 0x57E JUMPI PUSH0 PUSH0 REVERT JUMPDEST POP JUMP JUMPDEST PUSH0 DUP2 MLOAD SWAP1 POP PUSH2 0x58F DUP2 PUSH2 0x56B JUMP JUMPDEST SWAP3 SWAP2 POP POP JUMP JUMPDEST PUSH0 PUSH1 0x20 DUP3 DUP5 SUB SLT ISZERO PUSH2 0x5AA JUMPI PUSH2 0x5A9 PUSH2 0x537 JUMP JUMPDEST JUMPDEST PUSH0 PUSH2 0x5B7 DUP5 DUP3 DUP6 ADD PUSH2 0x581 JUMP JUMPDEST SWAP2 POP POP SWAP3 SWAP2 POP POP JUMP JUMPDEST PUSH32 0x4E487B7100000000000000000000000000000000000000000000000000000000 PUSH0 MSTORE PUSH1 0x32 PUSH1 0x4 MSTORE PUSH1 0x24 PUSH0 REVERT JUMPDEST PUSH0 DUP2 MLOAD SWAP1 POP SWAP2 SWAP1 POP JUMP JUMPDEST PUSH32 0x4E487B7100000000000000000000000000000000000000000000000000000000 PUSH0 MSTORE PUSH1 0x41 PUSH1 0x4 MSTORE PUSH1 0x24 PUSH0 REVERT JUMPDEST PUSH32 0x4E487B7100000000000000000000000000000000000000000000000000000000 PUSH0 MSTORE PUSH1 0x22 PUSH1 0x4 MSTORE PUSH1 0x24 PUSH0 REVERT JUMPDEST PUSH0 PUSH1 0x2 DUP3 DIV SWAP1 POP PUSH1 0x1 DUP3 AND DUP1 PUSH2 0x668 JUMPI PUSH1 0x7F DUP3 AND SWAP2 POP JUMPDEST PUSH1 0x20 DUP3 LT DUP2 SUB PUSH2 0x67B JUMPI PUSH2 0x67A PUSH2 0x624 JUMP JUMPDEST JUMPDEST POP SWAP2 SWAP1 POP JUMP JUMPDEST PUSH0 DUP2 SWAP1 POP DUP2 PUSH0 MSTORE PUSH1 0x20 PUSH0 KECCAK256 SWAP1 POP SWAP2 SWAP1 POP JUMP JUMPDEST PUSH0 PUSH1 0x20 PUSH1 0x1F DUP4 ADD DIV SWAP1 POP SWAP2 SWAP1 POP JUMP JUMPDEST PUSH0 DUP3 DUP3 SHL SWAP1 POP SWAP3 SWAP2 POP POP JUMP JUMPDEST PUSH0 PUSH1 0x8 DUP4 MUL PUSH2 0x6DD PUSH32 0xFFFFFFFFFFFFFFFFFFFFFFFFFFFFFFFFFFFFFFFFFFFFFFFFFFFFFFFFFFFFFFFF DUP3 PUSH2 0x6A2 JUMP JUMPDEST PUSH2 0x6E7 DUP7 DUP4 PUSH2 0x6A2 JUMP JUMPDEST SWAP6 POP DUP1 NOT DUP5 AND SWAP4 POP DUP1 DUP7 AND DUP5 OR SWAP3 POP POP POP SWAP4 SWAP3 POP POP POP JUMP JUMPDEST PUSH0 DUP2 SWAP1 POP SWAP2 SWAP1 POP JUMP JUMPDEST PUSH0 DUP2 SWAP1 POP SWAP2 SWAP1 POP JUMP JUMPDEST PUSH0 PUSH2 0x72B PUSH2 0x726 PUSH2 0x721 DUP5 PUSH2 0x6FF JUMP JUMPDEST PUSH2 0x708 JUMP JUMPDEST PUSH2 0x6FF JUMP JUMPDEST SWAP1 POP SWAP2 SWAP1 POP JUMP JUMPDEST PUSH0 DUP2 SWAP1 POP SWAP2 SWAP1 POP JUMP JUMPDEST PUSH2 0x744 DUP4 PUSH2 0x711 JUMP JUMPDEST PUSH2 0x758 PUSH2 0x750 DUP3 PUSH2 0x732 JUMP JUMPDEST DUP5 DUP5 SLOAD PUSH2 0x6AE JUMP JUMPDEST DUP3 SSTORE POP POP POP POP JUMP JUMPDEST PUSH0 PUSH0 SWAP1 POP SWAP1 JUMP JUMPDEST PUSH2 0x76F PUSH2 0x760 JUMP JUMPDEST PUSH2 0x77A DUP2 DUP5 DUP5 PUSH2 0x73B JUMP JUMPDEST POP POP POP JUMP JUMPDEST JUMPDEST DUP2 DUP2 LT ISZERO PUSH2 0x79D JUMPI PUSH2 0x792 PUSH0 DUP3 PUSH2 0x767 JUMP JUMPDEST PUSH1 0x1 DUP2 ADD SWAP1 POP PUSH2 0x780 JUMP JUMPDEST POP POP JUMP JUMPDEST PUSH1 0x1F DUP3 GT ISZERO PUSH2 0x7E2 JUMPI PUSH2 0x7B3 DUP2 PUSH2 0x681 JUMP JUMPDEST PUSH2 0x7BC DUP5 PUSH2 0x693 JUMP JUMPDEST DUP2 ADD PUSH1 0x20 DUP6 LT ISZERO PUSH2 0x7CB JUMPI DUP2 SWAP1 POP JUMPDEST PUSH2 0x7DF PUSH2 0x7D7 DUP6 PUSH2 0x693 JUMP JUMPDEST DUP4 ADD DUP3 PUSH2 0x77F JUMP JUMPDEST POP POP JUMPDEST POP POP POP JUMP JUMPDEST PUSH0 DUP3 DUP3 SHR SWAP1 POP SWAP3 SWAP2 POP POP JUMP JUMPDEST PUSH0 PUSH2 0x802 PUSH0 NOT DUP5 PUSH1 0x8 MUL PUSH2 0x7E7 JUMP JUMPDEST NOT DUP1 DUP4 AND SWAP2 POP POP SWAP3 SWAP2 POP POP JUMP JUMPDEST PUSH0 PUSH2 0x81A DUP4 DUP4 PUSH2 0x7F3 JUMP JUMPDEST SWAP2 POP DUP3 PUSH1 0x2 MUL DUP3 OR SWAP1 POP SWAP3 SWAP2 POP POP JUMP JUMPDEST PUSH2 0x833 DUP3 PUSH2 0x5ED JUMP JUMPDEST PUSH8 0xFFFFFFFFFFFFFFFF DUP2 GT ISZERO PUSH2 0x84C JUMPI PUSH2 0x84B PUSH2 0x5F7 JUMP JUMPDEST JUMPDEST PUSH2 0x856 DUP3 SLOAD PUSH2 0x651 JUMP JUMPDEST PUSH2 0x861 DUP3 DUP3 DUP6 PUSH2 0x7A1 JUMP JUMPDEST PUSH0 PUSH1 0x20 SWAP1 POP PUSH1 0x1F DUP4 GT PUSH1 0x1 DUP2 EQ PUSH2 0x892 JUMPI PUSH0 DUP5 ISZERO PUSH2 0x880 JUMPI DUP3 DUP8 ADD MLOAD SWAP1 POP JUMPDEST PUSH2 0x88A DUP6 DUP3 PUSH2 0x80F JUMP JUMPDEST DUP7 SSTORE POP PUSH2 0x8F1 JUMP JUMPDEST PUSH1 0x1F NOT DUP5 AND PUSH2 0x8A0 DUP7 PUSH2 0x681 JUMP JUMPDEST PUSH0 JUMPDEST DUP3 DUP2 LT ISZERO PUSH2 0x8C7 JUMPI DUP5 DUP10 ADD MLOAD DUP3 SSTORE PUSH1 0x1 DUP3 ADD SWAP2 POP PUSH1 0x20 DUP6 ADD SWAP5 POP PUSH1 0x20 DUP2 ADD SWAP1 POP PUSH2 0x8A2 JUMP JUMPDEST DUP7 DUP4 LT ISZERO PUSH2 0x8E4 JUMPI DUP5 DUP10 ADD MLOAD PUSH2 0x8E0 PUSH1 0x1F DUP10 AND DUP3 PUSH2 0x7F3 JUMP JUMPDEST DUP4 SSTORE POP JUMPDEST PUSH1 0x1 PUSH1 0x2 DUP9 MUL ADD DUP9 SSTORE POP POP POP JUMPDEST POP POP POP POP POP POP JUMP JUMPDEST PUSH2 0xD9B DUP1 PUSH2 0x906 PUSH0 CODECOPY PUSH0 RETURN INVALID PUSH1 0x80 PUSH1 0x40 MSTORE PUSH1 0x4 CALLDATASIZE LT PUSH2 0x54 JUMPI PUSH0 CALLDATALOAD PUSH1 0xE0 SHR DUP1 PUSH4 0x2D153A8C EQ PUSH2 0x58 JUMPI DUP1 PUSH4 0x49649FBF EQ PUSH2 0x80 JUMPI DUP1 PUSH4 0x521EB273 EQ PUSH2 0x8A JUMPI DUP1 PUSH4 0x5B291DBA EQ PUSH2 0xB4 JUMPI DUP1 PUSH4 0x62F791C0 EQ PUSH2 0xF0 JUMPI DUP1 PUSH4 0x8DA5CB5B EQ PUSH2 0x10C JUMPI JUMPDEST PUSH0 PUSH0 REVERT JUMPDEST CALLVALUE DUP1 ISZERO PUSH2 0x63 JUMPI PUSH0 PUSH0 REVERT JUMPDEST POP PUSH2 0x7E PUSH1 0x4 DUP1 CALLDATASIZE SUB DUP2 ADD SWAP1 PUSH2 0x79 SWAP2 SWAP1 PUSH2 0x761 JUMP JUMPDEST PUSH2 0x136 JUMP JUMPDEST STOP JUMPDEST PUSH2 0x88 PUSH2 0x20C JUMP JUMPDEST STOP JUMPDEST CALLVALUE DUP1 ISZERO PUSH2 0x95 JUMPI PUSH0 PUSH0 REVERT JUMPDEST POP PUSH2 0x9E PUSH2 0x344 JUMP JUMPDEST PUSH1 0x40 MLOAD PUSH2 0xAB SWAP2 SWAP1 PUSH2 0x819 JUMP JUMPDEST PUSH1 0x40 MLOAD DUP1 SWAP2 SUB SWAP1 RETURN JUMPDEST CALLVALUE DUP1 ISZERO PUSH2 0xBF JUMPI PUSH0 PUSH0 REVERT JUMPDEST POP PUSH2 0xDA PUSH1 0x4 DUP1 CALLDATASIZE SUB DUP2 ADD SWAP1 PUSH2 0xD5 SWAP2 SWAP1 PUSH2 0x832 JUMP JUMPDEST PUSH2 0x368 JUMP JUMPDEST PUSH1 0x40 MLOAD PUSH2 0xE7 SWAP2 SWAP1 PUSH2 0x943 JUMP JUMPDEST PUSH1 0x40 MLOAD DUP1 SWAP2 SUB SWAP1 RETURN JUMPDEST PUSH2 0x10A PUSH1 0x4 DUP1 CALLDATASIZE SUB DUP2 ADD SWAP1 PUSH2 0x105 SWAP2 SWAP1 PUSH2 0x761 JUMP JUMPDEST PUSH2 0x4DF JUMP JUMPDEST STOP JUMPDEST CALLVALUE DUP1 ISZERO PUSH2 0x117 JUMPI PUSH0 PUSH0 REVERT JUMPDEST POP PUSH2 0x120 PUSH2 0x6BC JUMP JUMPDEST PUSH1 0x40 MLOAD PUSH2 0x12D SWAP2 SWAP1 PUSH2 0x983 JUMP JUMPDEST PUSH1 0x40 MLOAD DUP1 SWAP2 SUB SWAP1 RETURN JUMPDEST PUSH1 0x1 PUSH0 SWAP1 SLOAD SWAP1 PUSH2 0x100 EXP SWAP1 DIV PUSH20 0xFFFFFFFFFFFFFFFFFFFFFFFFFFFFFFFFFFFFFFFF AND PUSH20 0xFFFFFFFFFFFFFFFFFFFFFFFFFFFFFFFFFFFFFFFF AND CALLER PUSH20 0xFFFFFFFFFFFFFFFFFFFFFFFFFFFFFFFFFFFFFFFF AND EQ PUSH2 0x1C5 JUMPI PUSH1 0x40 MLOAD PUSH32 0x8C379A000000000000000000000000000000000000000000000000000000000 DUP2 MSTORE PUSH1 0x4 ADD PUSH2 0x1BC SWAP1 PUSH2 0xA1C JUMP JUMPDEST PUSH1 0x40 MLOAD DUP1 SWAP2 SUB SWAP1 REVERT JUMPDEST DUP1 PUSH1 0x2 DUP4 PUSH1 0x4 DUP2 GT ISZERO PUSH2 0x1DB JUMPI PUSH2 0x1DA PUSH2 0xA3A JUMP JUMPDEST JUMPDEST PUSH1 0x5 DUP2 LT PUSH2 0x1EC JUMPI PUSH2 0x1EB PUSH2 0xA67 JUMP JUMPDEST JUMPDEST PUSH1 0x4 MUL ADD PUSH1 0x3 ADD PUSH0 DUP3 DUP3 SLOAD PUSH2 0x201 SWAP2 SWAP1 PUSH2 0xAC1 JUMP JUMPDEST SWAP3 POP POP DUP2 SWAP1 SSTORE POP POP POP JUMP JUMPDEST PUSH1 0x1 PUSH0 SWAP1 SLOAD SWAP1 PUSH2 0x100 EXP SWAP1 DIV PUSH20 0xFFFFFFFFFFFFFFFFFFFFFFFFFFFFFFFFFFFFFFFF AND PUSH20 0xFFFFFFFFFFFFFFFFFFFFFFFFFFFFFFFFFFFFFFFF AND CALLER PUSH20 0xFFFFFFFFFFFFFFFFFFFFFFFFFFFFFFFFFFFFFFFF AND EQ PUSH2 0x29B JUMPI PUSH1 0x40 MLOAD PUSH32 0x8C379A000000000000000000000000000000000000000000000000000000000 DUP2 MSTORE PUSH1 0x4 ADD PUSH2 0x292 SWAP1 PUSH2 0xA1C JUMP JUMPDEST PUSH1 0x40 MLOAD DUP1 SWAP2 SUB SWAP1 REVERT JUMPDEST PUSH0 SELFBALANCE GT PUSH2 0x2DD JUMPI PUSH1 0x40 MLOAD PUSH32 0x8C379A000000000000000000000000000000000000000000000000000000000 DUP2 MSTORE PUSH1 0x4 ADD PUSH2 0x2D4 SWAP1 PUSH2 0xB3E JUMP JUMPDEST PUSH1 0x40 MLOAD DUP1 SWAP2 SUB SWAP1 REVERT JUMPDEST PUSH1 0x1 PUSH0 SWAP1 SLOAD SWAP1 PUSH2 0x100 EXP SWAP1 DIV PUSH20 0xFFFFFFFFFFFFFFFFFFFFFFFFFFFFFFFFFFFFFFFF AND PUSH20 0xFFFFFFFFFFFFFFFFFFFFFFFFFFFFFFFFFFFFFFFF AND PUSH2 0x8FC SELFBALANCE SWAP1 DUP2 ISZERO MUL SWAP1 PUSH1 0x40 MLOAD PUSH0 PUSH1 0x40 MLOAD DUP1 DUP4 SUB DUP2 DUP6 DUP9 DUP9 CALL SWAP4 POP POP POP POP ISZERO DUP1 ISZERO PUSH2 0x341 JUMPI RETURNDATASIZE PUSH0 PUSH0 RETURNDATACOPY RETURNDATASIZE PUSH0 REVERT JUMPDEST POP JUMP JUMPDEST PUSH0 PUSH0 SWAP1 SLOAD SWAP1 PUSH2 0x100 EXP SWAP1 DIV PUSH20 0xFFFFFFFFFFFFFFFFFFFFFFFFFFFFFFFFFFFFFFFF AND DUP2 JUMP JUMPDEST PUSH2 0x370 PUSH2 0x6E1 JUMP JUMPDEST PUSH1 0x2 DUP3 PUSH1 0x4 DUP2 GT ISZERO PUSH2 0x385 JUMPI PUSH2 0x384 PUSH2 0xA3A JUMP JUMPDEST JUMPDEST PUSH1 0x5 DUP2 LT PUSH2 0x396 JUMPI PUSH2 0x395 PUSH2 0xA67 JUMP JUMPDEST JUMPDEST PUSH1 0x4 MUL ADD PUSH1 0x40 MLOAD DUP1 PUSH1 0x80 ADD PUSH1 0x40 MSTORE SWAP1 DUP2 PUSH0 DUP3 ADD DUP1 SLOAD PUSH2 0x3B4 SWAP1 PUSH2 0xB89 JUMP JUMPDEST DUP1 PUSH1 0x1F ADD PUSH1 0x20 DUP1 SWAP2 DIV MUL PUSH1 0x20 ADD PUSH1 0x40 MLOAD SWAP1 DUP2 ADD PUSH1 0x40 MSTORE DUP1 SWAP3 SWAP2 SWAP1 DUP2 DUP2 MSTORE PUSH1 0x20 ADD DUP3 DUP1 SLOAD PUSH2 0x3E0 SWAP1 PUSH2 0xB89 JUMP JUMPDEST DUP1 ISZERO PUSH2 0x42B JUMPI DUP1 PUSH1 0x1F LT PUSH2 0x402 JUMPI PUSH2 0x100 DUP1 DUP4 SLOAD DIV MUL DUP4 MSTORE SWAP2 PUSH1 0x20 ADD SWAP2 PUSH2 0x42B JUMP JUMPDEST DUP3 ADD SWAP2 SWAP1 PUSH0 MSTORE PUSH1 0x20 PUSH0 KECCAK256 SWAP1 JUMPDEST DUP2 SLOAD DUP2 MSTORE SWAP1 PUSH1 0x1 ADD SWAP1 PUSH1 0x20 ADD DUP1 DUP4 GT PUSH2 0x40E JUMPI DUP3 SWAP1 SUB PUSH1 0x1F AND DUP3 ADD SWAP2 JUMPDEST POP POP POP POP POP DUP2 MSTORE PUSH1 0x20 ADD PUSH1 0x1 DUP3 ADD DUP1 SLOAD PUSH2 0x444 SWAP1 PUSH2 0xB89 JUMP JUMPDEST DUP1 PUSH1 0x1F ADD PUSH1 0x20 DUP1 SWAP2 DIV MUL PUSH1 0x20 ADD PUSH1 0x40 MLOAD SWAP1 DUP2 ADD PUSH1 0x40 MSTORE DUP1 SWAP3 SWAP2 SWAP1 DUP2 DUP2 MSTORE PUSH1 0x20 ADD DUP3 DUP1 SLOAD PUSH2 0x470 SWAP1 PUSH2 0xB89 JUMP JUMPDEST DUP1 ISZERO PUSH2 0x4BB JUMPI DUP1 PUSH1 0x1F LT PUSH2 0x492 JUMPI PUSH2 0x100 DUP1 DUP4 SLOAD DIV MUL DUP4 MSTORE SWAP2 PUSH1 0x20 ADD SWAP2 PUSH2 0x4BB JUMP JUMPDEST DUP3 ADD SWAP2 SWAP1 PUSH0 MSTORE PUSH1 0x20 PUSH0 KECCAK256 SWAP1 JUMPDEST DUP2 SLOAD DUP2 MSTORE SWAP1 PUSH1 0x1 ADD SWAP1 PUSH1 0x20 ADD DUP1 DUP4 GT PUSH2 0x49E JUMPI DUP3 SWAP1 SUB PUSH1 0x1F AND DUP3 ADD SWAP2 JUMPDEST POP POP POP POP POP DUP2 MSTORE PUSH1 0x20 ADD PUSH1 0x2 DUP3 ADD SLOAD DUP2 MSTORE PUSH1 0x20 ADD PUSH1 0x3 DUP3 ADD SLOAD DUP2 MSTORE POP POP SWAP1 POP SWAP2 SWAP1 POP JUMP JUMPDEST PUSH0 DUP3 PUSH1 0x4 DUP2 GT ISZERO PUSH2 0x4F3 JUMPI PUSH2 0x4F2 PUSH2 0xA3A JUMP JUMPDEST JUMPDEST SWAP1 POP PUSH0 DUP3 PUSH1 0x2 DUP6 PUSH1 0x4 DUP2 GT ISZERO PUSH2 0x50C JUMPI PUSH2 0x50B PUSH2 0xA3A JUMP JUMPDEST JUMPDEST PUSH1 0x5 DUP2 LT PUSH2 0x51D JUMPI PUSH2 0x51C PUSH2 0xA67 JUMP JUMPDEST JUMPDEST PUSH1 0x4 MUL ADD PUSH1 0x2 ADD SLOAD PUSH2 0x52F SWAP2 SWAP1 PUSH2 0xBB9 JUMP JUMPDEST SWAP1 POP PUSH0 DUP3 LT ISZERO DUP1 PUSH2 0x540 JUMPI POP PUSH1 0x5 DUP3 LT JUMPDEST PUSH2 0x57F JUMPI PUSH1 0x40 MLOAD PUSH32 0x8C379A000000000000000000000000000000000000000000000000000000000 DUP2 MSTORE PUSH1 0x4 ADD PUSH2 0x576 SWAP1 PUSH2 0xC44 JUMP JUMPDEST PUSH1 0x40 MLOAD DUP1 SWAP2 SUB SWAP1 REVERT JUMPDEST DUP3 PUSH1 0x2 DUP4 PUSH1 0x5 DUP2 LT PUSH2 0x594 JUMPI PUSH2 0x593 PUSH2 0xA67 JUMP JUMPDEST JUMPDEST PUSH1 0x4 MUL ADD PUSH1 0x3 ADD SLOAD LT ISZERO PUSH2 0x5DD JUMPI PUSH1 0x40 MLOAD PUSH32 0x8C379A000000000000000000000000000000000000000000000000000000000 DUP2 MSTORE PUSH1 0x4 ADD PUSH2 0x5D4 SWAP1 PUSH2 0xCAC JUMP JUMPDEST PUSH1 0x40 MLOAD DUP1 SWAP2 SUB SWAP1 REVERT JUMPDEST DUP1 CALLVALUE LT ISZERO PUSH2 0x620 JUMPI PUSH1 0x40 MLOAD PUSH32 0x8C379A000000000000000000000000000000000000000000000000000000000 DUP2 MSTORE PUSH1 0x4 ADD PUSH2 0x617 SWAP1 PUSH2 0xD14 JUMP JUMPDEST PUSH1 0x40 MLOAD DUP1 SWAP2 SUB SWAP1 REVERT JUMPDEST DUP3 PUSH1 0x2 DUP4 PUSH1 0x5 DUP2 LT PUSH2 0x635 JUMPI PUSH2 0x634 PUSH2 0xA67 JUMP JUMPDEST JUMPDEST PUSH1 0x4 MUL ADD PUSH1 0x3 ADD PUSH0 DUP3 DUP3 SLOAD PUSH2 0x64A SWAP2 SWAP1 PUSH2 0xD32 JUMP JUMPDEST SWAP3 POP POP DUP2 SWAP1 SSTORE POP PUSH1 0x1 PUSH0 SWAP1 SLOAD SWAP1 PUSH2 0x100 EXP SWAP1 DIV PUSH20 0xFFFFFFFFFFFFFFFFFFFFFFFFFFFFFFFFFFFFFFFF AND PUSH20 0xFFFFFFFFFFFFFFFFFFFFFFFFFFFFFFFFFFFFFFFF AND PUSH2 0x8FC DUP3 SWAP1 DUP2 ISZERO MUL SWAP1 PUSH1 0x40 MLOAD PUSH0 PUSH1 0x40 MLOAD DUP1 DUP4 SUB DUP2 DUP6 DUP9 DUP9 CALL SWAP4 POP POP POP POP ISZERO DUP1 ISZERO PUSH2 0x6B5 JUMPI RETURNDATASIZE PUSH0 PUSH0 RETURNDATACOPY RETURNDATASIZE PUSH0 REVERT JUMPDEST POP POP POP POP POP JUMP JUMPDEST PUSH1 0x1 PUSH0 SWAP1 SLOAD SWAP1 PUSH2 0x100 EXP SWAP1 DIV PUSH20 0xFFFFFFFFFFFFFFFFFFFFFFFFFFFFFFFFFFFFFFFF AND DUP2 JUMP JUMPDEST PUSH1 0x40 MLOAD DUP1 PUSH1 0x80 ADD PUSH1 0x40 MSTORE DUP1 PUSH1 0x60 DUP2 MSTORE PUSH1 0x20 ADD PUSH1 0x60 DUP2 MSTORE PUSH1 0x20 ADD PUSH0 DUP2 MSTORE PUSH1 0x20 ADD PUSH0 DUP2 MSTORE POP SWAP1 JUMP JUMPDEST PUSH0 PUSH0 REVERT JUMPDEST PUSH1 0x5 DUP2 LT PUSH2 0x717 JUMPI PUSH0 PUSH0 REVERT JUMPDEST POP JUMP JUMPDEST PUSH0 DUP2 CALLDATALOAD SWAP1 POP PUSH2 0x728 DUP2 PUSH2 0x70B JUMP JUMPDEST SWAP3 SWAP2 POP POP JUMP JUMPDEST PUSH0 DUP2 SWAP1 POP SWAP2 SWAP1 POP JUMP JUMPDEST PUSH2 0x740 DUP2 PUSH2 0x72E JUMP JUMPDEST DUP2 EQ PUSH2 0x74A JUMPI PUSH0 PUSH0 REVERT JUMPDEST POP JUMP JUMPDEST PUSH0 DUP2 CALLDATALOAD SWAP1 POP PUSH2 0x75B DUP2 PUSH2 0x737 JUMP JUMPDEST SWAP3 SWAP2 POP POP JUMP JUMPDEST PUSH0 PUSH0 PUSH1 0x40 DUP4 DUP6 SUB SLT ISZERO PUSH2 0x777 JUMPI PUSH2 0x776 PUSH2 0x707 JUMP JUMPDEST JUMPDEST PUSH0 PUSH2 0x784 DUP6 DUP3 DUP7 ADD PUSH2 0x71A JUMP JUMPDEST SWAP3 POP POP PUSH1 0x20 PUSH2 0x795 DUP6 DUP3 DUP7 ADD PUSH2 0x74D JUMP JUMPDEST SWAP2 POP POP SWAP3 POP SWAP3 SWAP1 POP JUMP JUMPDEST PUSH0 PUSH20 0xFFFFFFFFFFFFFFFFFFFFFFFFFFFFFFFFFFFFFFFF DUP3 AND SWAP1 POP SWAP2 SWAP1 POP JUMP JUMPDEST PUSH0 DUP2 SWAP1 POP SWAP2 SWAP1 POP JUMP JUMPDEST PUSH0 PUSH2 0x7E1 PUSH2 0x7DC PUSH2 0x7D7 DUP5 PUSH2 0x79F JUMP JUMPDEST PUSH2 0x7BE JUMP JUMPDEST PUSH2 0x79F JUMP JUMPDEST SWAP1 POP SWAP2 SWAP1 POP JUMP JUMPDEST PUSH0 PUSH2 0x7F2 DUP3 PUSH2 0x7C7 JUMP JUMPDEST SWAP1 POP SWAP2 SWAP1 POP JUMP JUMPDEST PUSH0 PUSH2 0x803 DUP3 PUSH2 0x7E8 JUMP JUMPDEST SWAP1 POP SWAP2 SWAP1 POP JUMP JUMPDEST PUSH2 0x813 DUP2 PUSH2 0x7F9 JUMP JUMPDEST DUP3 MSTORE POP POP JUMP JUMPDEST PUSH0 PUSH1 0x20 DUP3 ADD SWAP1 POP PUSH2 0x82C PUSH0 DUP4 ADD DUP5 PUSH2 0x80A JUMP JUMPDEST SWAP3 SWAP2 POP POP JUMP JUMPDEST PUSH0 PUSH1 0x20 DUP3 DUP5 SUB SLT ISZERO PUSH2 0x847 JUMPI PUSH2 0x846 PUSH2 0x707 JUMP JUMPDEST JUMPDEST PUSH0 PUSH2 0x854 DUP5 DUP3 DUP6 ADD PUSH2 0x71A JUMP JUMPDEST SWAP2 POP POP SWAP3 SWAP2 POP POP JUMP JUMPDEST PUSH0 DUP2 MLOAD SWAP1 POP SWAP2 SWAP1 POP JUMP JUMPDEST PUSH0 DUP3 DUP3 MSTORE PUSH1 0x20 DUP3 ADD SWAP1 POP SWAP3 SWAP2 POP POP JUMP JUMPDEST DUP3 DUP2 DUP4 MCOPY PUSH0 DUP4 DUP4 ADD MSTORE POP POP POP JUMP JUMPDEST PUSH0 PUSH1 0x1F NOT PUSH1 0x1F DUP4 ADD AND SWAP1 POP SWAP2 SWAP1 POP JUMP JUMPDEST PUSH0 PUSH2 0x89F DUP3 PUSH2 0x85D JUMP JUMPDEST PUSH2 0x8A9 DUP2 DUP6 PUSH2 0x867 JUMP JUMPDEST SWAP4 POP PUSH2 0x8B9 DUP2 DUP6 PUSH1 0x20 DUP7 ADD PUSH2 0x877 JUMP JUMPDEST PUSH2 0x8C2 DUP2 PUSH2 0x885 JUMP JUMPDEST DUP5 ADD SWAP2 POP POP SWAP3 SWAP2 POP POP JUMP JUMPDEST PUSH2 0x8D6 DUP2 PUSH2 0x72E JUMP JUMPDEST DUP3 MSTORE POP POP JUMP JUMPDEST PUSH0 PUSH1 0x80 DUP4 ADD PUSH0 DUP4 ADD MLOAD DUP5 DUP3 SUB PUSH0 DUP7 ADD MSTORE PUSH2 0x8F6 DUP3 DUP3 PUSH2 0x895 JUMP JUMPDEST SWAP2 POP POP PUSH1 0x20 DUP4 ADD MLOAD DUP5 DUP3 SUB PUSH1 0x20 DUP7 ADD MSTORE PUSH2 0x910 DUP3 DUP3 PUSH2 0x895 JUMP JUMPDEST SWAP2 POP POP PUSH1 0x40 DUP4 ADD MLOAD PUSH2 0x925 PUSH1 0x40 DUP7 ADD DUP3 PUSH2 0x8CD JUMP JUMPDEST POP PUSH1 0x60 DUP4 ADD MLOAD PUSH2 0x938 PUSH1 0x60 DUP7 ADD DUP3 PUSH2 0x8CD JUMP JUMPDEST POP DUP1 SWAP2 POP POP SWAP3 SWAP2 POP POP JUMP JUMPDEST PUSH0 PUSH1 0x20 DUP3 ADD SWAP1 POP DUP2 DUP2 SUB PUSH0 DUP4 ADD MSTORE PUSH2 0x95B DUP2 DUP5 PUSH2 0x8DC JUMP JUMPDEST SWAP1 POP SWAP3 SWAP2 POP POP JUMP JUMPDEST PUSH0 PUSH2 0x96D DUP3 PUSH2 0x79F JUMP JUMPDEST SWAP1 POP SWAP2 SWAP1 POP JUMP JUMPDEST PUSH2 0x97D DUP2 PUSH2 0x963 JUMP JUMPDEST DUP3 MSTORE POP POP JUMP JUMPDEST PUSH0 PUSH1 0x20 DUP3 ADD SWAP1 POP PUSH2 0x996 PUSH0 DUP4 ADD DUP5 PUSH2 0x974 JUMP JUMPDEST SWAP3 SWAP2 POP POP JUMP JUMPDEST PUSH0 DUP3 DUP3 MSTORE PUSH1 0x20 DUP3 ADD SWAP1 POP SWAP3 SWAP2 POP POP JUMP JUMPDEST PUSH32 0x4F6E6C79206F776E65722063616E2063616C6C2074686973207265736F757263 PUSH0 DUP3 ADD MSTORE PUSH32 0x652E000000000000000000000000000000000000000000000000000000000000 PUSH1 0x20 DUP3 ADD MSTORE POP JUMP JUMPDEST PUSH0 PUSH2 0xA06 PUSH1 0x22 DUP4 PUSH2 0x99C JUMP JUMPDEST SWAP2 POP PUSH2 0xA11 DUP3 PUSH2 0x9AC JUMP JUMPDEST PUSH1 0x40 DUP3 ADD SWAP1 POP SWAP2 SWAP1 POP JUMP JUMPDEST PUSH0 PUSH1 0x20 DUP3 ADD SWAP1 POP DUP2 DUP2 SUB PUSH0 DUP4 ADD MSTORE PUSH2 0xA33 DUP2 PUSH2 0x9FA JUMP JUMPDEST SWAP1 POP SWAP2 SWAP1 POP JUMP JUMPDEST PUSH32 0x4E487B7100000000000000000000000000000000000000000000000000000000 PUSH0 MSTORE PUSH1 0x21 PUSH1 0x4 MSTORE PUSH1 0x24 PUSH0 REVERT JUMPDEST PUSH32 0x4E487B7100000000000000000000000000000000000000000000000000000000 PUSH0 MSTORE PUSH1 0x32 PUSH1 0x4 MSTORE PUSH1 0x24 PUSH0 REVERT JUMPDEST PUSH32 0x4E487B7100000000000000000000000000000000000000000000000000000000 PUSH0 MSTORE PUSH1 0x11 PUSH1 0x4 MSTORE PUSH1 0x24 PUSH0 REVERT JUMPDEST PUSH0 PUSH2 0xACB DUP3 PUSH2 0x72E JUMP JUMPDEST SWAP2 POP PUSH2 0xAD6 DUP4 PUSH2 0x72E JUMP JUMPDEST SWAP3 POP DUP3 DUP3 ADD SWAP1 POP DUP1 DUP3 GT ISZERO PUSH2 0xAEE JUMPI PUSH2 0xAED PUSH2 0xA94 JUMP JUMPDEST JUMPDEST SWAP3 SWAP2 POP POP JUMP JUMPDEST PUSH32 0x4E6F2066756E647320746F2077697468647261772E0000000000000000000000 PUSH0 DUP3 ADD MSTORE POP JUMP JUMPDEST PUSH0 PUSH2 0xB28 PUSH1 0x15 DUP4 PUSH2 0x99C JUMP JUMPDEST SWAP2 POP PUSH2 0xB33 DUP3 PUSH2 0xAF4 JUMP JUMPDEST PUSH1 0x20 DUP3 ADD SWAP1 POP SWAP2 SWAP1 POP JUMP JUMPDEST PUSH0 PUSH1 0x20 DUP3 ADD SWAP1 POP DUP2 DUP2 SUB PUSH0 DUP4 ADD MSTORE PUSH2 0xB55 DUP2 PUSH2 0xB1C JUMP JUMPDEST SWAP1 POP SWAP2 SWAP1 POP JUMP JUMPDEST PUSH32 0x4E487B7100000000000000000000000000000000000000000000000000000000 PUSH0 MSTORE PUSH1 0x22 PUSH1 0x4 MSTORE PUSH1 0x24 PUSH0 REVERT JUMPDEST PUSH0 PUSH1 0x2 DUP3 DIV SWAP1 POP PUSH1 0x1 DUP3 AND DUP1 PUSH2 0xBA0 JUMPI PUSH1 0x7F DUP3 AND SWAP2 POP JUMPDEST PUSH1 0x20 DUP3 LT DUP2 SUB PUSH2 0xBB3 JUMPI PUSH2 0xBB2 PUSH2 0xB5C JUMP JUMPDEST JUMPDEST POP SWAP2 SWAP1 POP JUMP JUMPDEST PUSH0 PUSH2 0xBC3 DUP3 PUSH2 0x72E JUMP JUMPDEST SWAP2 POP PUSH2 0xBCE DUP4 PUSH2 0x72E JUMP JUMPDEST SWAP3 POP DUP3 DUP3 MUL PUSH2 0xBDC DUP2 PUSH2 0x72E JUMP JUMPDEST SWAP2 POP DUP3 DUP3 DIV DUP5 EQ DUP4 ISZERO OR PUSH2 0xBF3 JUMPI PUSH2 0xBF2 PUSH2 0xA94 JUMP JUMPDEST JUMPDEST POP SWAP3 SWAP2 POP POP JUMP JUMPDEST PUSH32 0x496E76616C69642070726F6475637420656E756D000000000000000000000000 PUSH0 DUP3 ADD MSTORE POP JUMP JUMPDEST PUSH0 PUSH2 0xC2E PUSH1 0x14 DUP4 PUSH2 0x99C JUMP JUMPDEST SWAP2 POP PUSH2 0xC39 DUP3 PUSH2 0xBFA JUMP JUMPDEST PUSH1 0x20 DUP3 ADD SWAP1 POP SWAP2 SWAP1 POP JUMP JUMPDEST PUSH0 PUSH1 0x20 DUP3 ADD SWAP1 POP DUP2 DUP2 SUB PUSH0 DUP4 ADD MSTORE PUSH2 0xC5B DUP2 PUSH2 0xC22 JUMP JUMPDEST SWAP1 POP SWAP2 SWAP1 POP JUMP JUMPDEST PUSH32 0x50726F64756374206E6F7420656E6F7567682E00000000000000000000000000 PUSH0 DUP3 ADD MSTORE POP JUMP JUMPDEST PUSH0 PUSH2 0xC96 PUSH1 0x13 DUP4 PUSH2 0x99C JUMP JUMPDEST SWAP2 POP PUSH2 0xCA1 DUP3 PUSH2 0xC62 JUMP JUMPDEST PUSH1 0x20 DUP3 ADD SWAP1 POP SWAP2 SWAP1 POP JUMP JUMPDEST PUSH0 PUSH1 0x20 DUP3 ADD SWAP1 POP DUP2 DUP2 SUB PUSH0 DUP4 ADD MSTORE PUSH2 0xCC3 DUP2 PUSH2 0xC8A JUMP JUMPDEST SWAP1 POP SWAP2 SWAP1 POP JUMP JUMPDEST PUSH32 0x4E6F7420656E6F75676820657468657200000000000000000000000000000000 PUSH0 DUP3 ADD MSTORE POP JUMP JUMPDEST PUSH0 PUSH2 0xCFE PUSH1 0x10 DUP4 PUSH2 0x99C JUMP JUMPDEST SWAP2 POP PUSH2 0xD09 DUP3 PUSH2 0xCCA JUMP JUMPDEST PUSH1 0x20 DUP3 ADD SWAP1 POP SWAP2 SWAP1 POP JUMP JUMPDEST PUSH0 PUSH1 0x20 DUP3 ADD SWAP1 POP DUP2 DUP2 SUB PUSH0 DUP4 ADD MSTORE PUSH2 0xD2B DUP2 PUSH2 0xCF2 JUMP JUMPDEST SWAP1 POP SWAP2 SWAP1 POP JUMP JUMPDEST PUSH0 PUSH2 0xD3C DUP3 PUSH2 0x72E JUMP JUMPDEST SWAP2 POP PUSH2 0xD47 DUP4 PUSH2 0x72E JUMP JUMPDEST SWAP3 POP DUP3 DUP3 SUB SWAP1 POP DUP2 DUP2 GT ISZERO PUSH2 0xD5F JUMPI PUSH2 0xD5E PUSH2 0xA94 JUMP JUMPDEST JUMPDEST SWAP3 SWAP2 POP POP JUMP INVALID LOG2 PUSH5 0x6970667358 0x22 SLT KECCAK256 LOG0 PUSH24 0xB6CD83B9F2224664F09B3D67D189AE824058526683E91703 PUSH16 0x3A6C1A3B1764736F6C634300081E0033 "
		},
		"gasEstimates": {
			"creation": {
				"codeDepositCost": "696600",
				"executionCost": "infinite",
				"totalCost": "infinite"
			},
			"external": {
				"addProduct(uint8,uint256)": "infinite",
				"buy(uint8,uint256)": "infinite",
				"getInfoProduct(uint8)": "infinite",
				"owner()": "2596",
				"wallet()": "infinite",
				"withdrawAllFunds()": "infinite"
			}
		},
		"methodIdentifiers": {
			"addProduct(uint8,uint256)": "2d153a8c",
			"buy(uint8,uint256)": "62f791c0",
			"getInfoProduct(uint8)": "5b291dba",
			"owner()": "8da5cb5b",
			"wallet()": "521eb273",
			"withdrawAllFunds()": "49649fbf"
		}
	},
	"abi": [
		{
			"inputs": [
				{
					"internalType": "address",
					"name": "_wallet",
					"type": "address"
				}
			],
			"stateMutability": "nonpayable",
			"type": "constructor"
		},
		{
			"inputs": [
				{
					"internalType": "enum DrinkMachine.ProductEnum",
					"name": "productEnum",
					"type": "uint8"
				},
				{
					"internalType": "uint256",
					"name": "quantity",
					"type": "uint256"
				}
			],
			"name": "addProduct",
			"outputs": [],
			"stateMutability": "nonpayable",
			"type": "function"
		},
		{
			"inputs": [
				{
					"internalType": "enum DrinkMachine.ProductEnum",
					"name": "productEnum",
					"type": "uint8"
				},
				{
					"internalType": "uint256",
					"name": "qty",
					"type": "uint256"
				}
			],
			"name": "buy",
			"outputs": [],
			"stateMutability": "payable",
			"type": "function"
		},
		{
			"inputs": [
				{
					"internalType": "enum DrinkMachine.ProductEnum",
					"name": "productEnum",
					"type": "uint8"
				}
			],
			"name": "getInfoProduct",
			"outputs": [
				{
					"components": [
						{
							"internalType": "string",
							"name": "slug",
							"type": "string"
						},
						{
							"internalType": "string",
							"name": "name",
							"type": "string"
						},
						{
							"internalType": "uint256",
							"name": "price",
							"type": "uint256"
						},
						{
							"internalType": "uint256",
							"name": "quantity",
							"type": "uint256"
						}
					],
					"internalType": "struct ProductType",
					"name": "",
					"type": "tuple"
				}
			],
			"stateMutability": "view",
			"type": "function"
		},
		{
			"inputs": [],
			"name": "owner",
			"outputs": [
				{
					"internalType": "address",
					"name": "",
					"type": "address"
				}
			],
			"stateMutability": "view",
			"type": "function"
		},
		{
			"inputs": [],
			"name": "wallet",
			"outputs": [
				{
					"internalType": "contract IDrinkMachineWallet",
					"name": "",
					"type": "address"
				}
			],
			"stateMutability": "view",
			"type": "function"
		},
		{
			"inputs": [],
			"name": "withdrawAllFunds",
			"outputs": [],
			"stateMutability": "payable",
			"type": "function"
		}
	]
}