{
	"data": {
		"bytecode": {
			"linkReferences": {},
			"object": "6080604052348015600e575f5ffd5b5060015f5f3373ffffffffffffffffffffffffffffffffffffffff1673ffffffffffffffffffffffffffffffffffffffff1681526020019081526020015f20819055506108658061005e5f395ff3fe608060405260043610610028575f3560e01c8063a6f2ae3a1461002c578063d0e30db014610036575b5f5ffd5b610034610055565b005b61003e610127565b60405161004c9291906104ee565b60405180910390f35b5f5f3373ffffffffffffffffffffffffffffffffffffffff1673ffffffffffffffffffffffffffffffffffffffff1681526020019081526020015f205434106100d3576040517f08c379a00000000000000000000000000000000000000000000000000000000081526004016100ca90610593565b60405180910390fd5b345f5f3373ffffffffffffffffffffffffffffffffffffffff1673ffffffffffffffffffffffffffffffffffffffff1681526020019081526020015f205f82825461011e91906105e7565b92505081905550565b606080600134101561016e576040517f08c379a00000000000000000000000000000000000000000000000000000000081526004016101659061068a565b60405180910390fd5b345f5f3373ffffffffffffffffffffffffffffffffffffffff1673ffffffffffffffffffffffffffffffffffffffff1681526020019081526020015f205f8282546101b991906106a8565b925050819055506102055f5f3373ffffffffffffffffffffffffffffffffffffffff1673ffffffffffffffffffffffffffffffffffffffff1681526020019081526020015f2054610263565b60405160200161021591906107a9565b6040516020818303038152906040526040518060400160405280601581526020017f596f7572204465706f736974205375636365737321000000000000000000000081525090915091509091565b60605f60016102718461032d565b0190505f8167ffffffffffffffff81111561028f5761028e6107d5565b5b6040519080825280601f01601f1916602001820160405280156102c15781602001600182028036833780820191505090505b5090505f82602083010190505b600115610322578080600190039150507f3031323334353637383961626364656600000000000000000000000000000000600a86061a8153600a858161031757610316610802565b5b0494505f85036102ce575b819350505050919050565b5f5f5f90507a184f03e93ff9f4daa797ed6e38ed64bf6a1f0100000000000000008310610389577a184f03e93ff9f4daa797ed6e38ed64bf6a1f010000000000000000838161037f5761037e610802565b5b0492506040810190505b6d04ee2d6d415b85acef810000000083106103c6576d04ee2d6d415b85acef810000000083816103bc576103bb610802565b5b0492506020810190505b662386f26fc1000083106103f557662386f26fc1000083816103eb576103ea610802565b5b0492506010810190505b6305f5e100831061041e576305f5e100838161041457610413610802565b5b0492506008810190505b612710831061044357612710838161043957610438610802565b5b0492506004810190505b60648310610466576064838161045c5761045b610802565b5b0492506002810190505b600a8310610475576001810190505b80915050919050565b5f81519050919050565b5f82825260208201905092915050565b8281835e5f83830152505050565b5f601f19601f8301169050919050565b5f6104c08261047e565b6104ca8185610488565b93506104da818560208601610498565b6104e3816104a6565b840191505092915050565b5f6040820190508181035f83015261050681856104b6565b9050818103602083015261051a81846104b6565b90509392505050565b7f53616c646f20616e646120746964616b206d656e63756b75706920756e74756b5f8201527f206d656d62656c69206d696e756d616e20696e692e0000000000000000000000602082015250565b5f61057d603583610488565b915061058882610523565b604082019050919050565b5f6020820190508181035f8301526105aa81610571565b9050919050565b5f819050919050565b7f4e487b71000000000000000000000000000000000000000000000000000000005f52601160045260245ffd5b5f6105f1826105b1565b91506105fc836105b1565b9250828203905081811115610614576106136105ba565b5b92915050565b7f53616c646f20616e6461206b7572616e672064617269206d696e696d756d20645f8201527f65706f73697420283120776569292e0000000000000000000000000000000000602082015250565b5f610674602f83610488565b915061067f8261061a565b604082019050919050565b5f6020820190508181035f8301526106a181610668565b9050919050565b5f6106b2826105b1565b91506106bd836105b1565b92508282019050808211156106d5576106d46105ba565b5b92915050565b5f81905092915050565b7f596f75722062616c616e63653a200000000000000000000000000000000000005f82015250565b5f610719600e836106db565b9150610724826106e5565b600e82019050919050565b5f6107398261047e565b61074381856106db565b9350610753818560208601610498565b80840191505092915050565b7f20576569000000000000000000000000000000000000000000000000000000005f82015250565b5f6107936004836106db565b915061079e8261075f565b600482019050919050565b5f6107b38261070d565b91506107bf828461072f565b91506107ca82610787565b915081905092915050565b7f4e487b71000000000000000000000000000000000000000000000000000000005f52604160045260245ffd5b7f4e487b71000000000000000000000000000000000000000000000000000000005f52601260045260245ffdfea26469706673582212200d7528e25d97f511b235697713599fc8be57af45ec292e637ff5f3e074eda44664736f6c634300081e0033",
			"opcodes": "PUSH1 0x80 PUSH1 0x40 MSTORE CALLVALUE DUP1 ISZERO PUSH1 0xE JUMPI PUSH0 PUSH0 REVERT JUMPDEST POP PUSH1 0x1 PUSH0 PUSH0 CALLER PUSH20 0xFFFFFFFFFFFFFFFFFFFFFFFFFFFFFFFFFFFFFFFF AND PUSH20 0xFFFFFFFFFFFFFFFFFFFFFFFFFFFFFFFFFFFFFFFF AND DUP2 MSTORE PUSH1 0x20 ADD SWAP1 DUP2 MSTORE PUSH1 0x20 ADD PUSH0 KECCAK256 DUP2 SWAP1 SSTORE POP PUSH2 0x865 DUP1 PUSH2 0x5E PUSH0 CODECOPY PUSH0 RETURN INVALID PUSH1 0x80 PUSH1 0x40 MSTORE PUSH1 0x4 CALLDATASIZE LT PUSH2 0x28 JUMPI PUSH0 CALLDATALOAD PUSH1 0xE0 SHR DUP1 PUSH4 0xA6F2AE3A EQ PUSH2 0x2C JUMPI DUP1 PUSH4 0xD0E30DB0 EQ PUSH2 0x36 JUMPI JUMPDEST PUSH0 PUSH0 REVERT JUMPDEST PUSH2 0x34 PUSH2 0x55 JUMP JUMPDEST STOP JUMPDEST PUSH2 0x3E PUSH2 0x127 JUMP JUMPDEST PUSH1 0x40 MLOAD PUSH2 0x4C SWAP3 SWAP2 SWAP1 PUSH2 0x4EE JUMP JUMPDEST PUSH1 0x40 MLOAD DUP1 SWAP2 SUB SWAP1 RETURN JUMPDEST PUSH0 PUSH0 CALLER PUSH20 0xFFFFFFFFFFFFFFFFFFFFFFFFFFFFFFFFFFFFFFFF AND PUSH20 0xFFFFFFFFFFFFFFFFFFFFFFFFFFFFFFFFFFFFFFFF AND DUP2 MSTORE PUSH1 0x20 ADD SWAP1 DUP2 MSTORE PUSH1 0x20 ADD PUSH0 KECCAK256 SLOAD CALLVALUE LT PUSH2 0xD3 JUMPI PUSH1 0x40 MLOAD PUSH32 0x8C379A000000000000000000000000000000000000000000000000000000000 DUP2 MSTORE PUSH1 0x4 ADD PUSH2 0xCA SWAP1 PUSH2 0x593 JUMP JUMPDEST PUSH1 0x40 MLOAD DUP1 SWAP2 SUB SWAP1 REVERT JUMPDEST CALLVALUE PUSH0 PUSH0 CALLER PUSH20 0xFFFFFFFFFFFFFFFFFFFFFFFFFFFFFFFFFFFFFFFF AND PUSH20 0xFFFFFFFFFFFFFFFFFFFFFFFFFFFFFFFFFFFFFFFF AND DUP2 MSTORE PUSH1 0x20 ADD SWAP1 DUP2 MSTORE PUSH1 0x20 ADD PUSH0 KECCAK256 PUSH0 DUP3 DUP3 SLOAD PUSH2 0x11E SWAP2 SWAP1 PUSH2 0x5E7 JUMP JUMPDEST SWAP3 POP POP DUP2 SWAP1 SSTORE POP JUMP JUMPDEST PUSH1 0x60 DUP1 PUSH1 0x1 CALLVALUE LT ISZERO PUSH2 0x16E JUMPI PUSH1 0x40 MLOAD PUSH32 0x8C379A000000000000000000000000000000000000000000000000000000000 DUP2 MSTORE PUSH1 0x4 ADD PUSH2 0x165 SWAP1 PUSH2 0x68A JUMP JUMPDEST PUSH1 0x40 MLOAD DUP1 SWAP2 SUB SWAP1 REVERT JUMPDEST CALLVALUE PUSH0 PUSH0 CALLER PUSH20 0xFFFFFFFFFFFFFFFFFFFFFFFFFFFFFFFFFFFFFFFF AND PUSH20 0xFFFFFFFFFFFFFFFFFFFFFFFFFFFFFFFFFFFFFFFF AND DUP2 MSTORE PUSH1 0x20 ADD SWAP1 DUP2 MSTORE PUSH1 0x20 ADD PUSH0 KECCAK256 PUSH0 DUP3 DUP3 SLOAD PUSH2 0x1B9 SWAP2 SWAP1 PUSH2 0x6A8 JUMP JUMPDEST SWAP3 POP POP DUP2 SWAP1 SSTORE POP PUSH2 0x205 PUSH0 PUSH0 CALLER PUSH20 0xFFFFFFFFFFFFFFFFFFFFFFFFFFFFFFFFFFFFFFFF AND PUSH20 0xFFFFFFFFFFFFFFFFFFFFFFFFFFFFFFFFFFFFFFFF AND DUP2 MSTORE PUSH1 0x20 ADD SWAP1 DUP2 MSTORE PUSH1 0x20 ADD PUSH0 KECCAK256 SLOAD PUSH2 0x263 JUMP JUMPDEST PUSH1 0x40 MLOAD PUSH1 0x20 ADD PUSH2 0x215 SWAP2 SWAP1 PUSH2 0x7A9 JUMP JUMPDEST PUSH1 0x40 MLOAD PUSH1 0x20 DUP2 DUP4 SUB SUB DUP2 MSTORE SWAP1 PUSH1 0x40 MSTORE PUSH1 0x40 MLOAD DUP1 PUSH1 0x40 ADD PUSH1 0x40 MSTORE DUP1 PUSH1 0x15 DUP2 MSTORE PUSH1 0x20 ADD PUSH32 0x596F7572204465706F7369742053756363657373210000000000000000000000 DUP2 MSTORE POP SWAP1 SWAP2 POP SWAP2 POP SWAP1 SWAP2 JUMP JUMPDEST PUSH1 0x60 PUSH0 PUSH1 0x1 PUSH2 0x271 DUP5 PUSH2 0x32D JUMP JUMPDEST ADD SWAP1 POP PUSH0 DUP2 PUSH8 0xFFFFFFFFFFFFFFFF DUP2 GT ISZERO PUSH2 0x28F JUMPI PUSH2 0x28E PUSH2 0x7D5 JUMP JUMPDEST JUMPDEST PUSH1 0x40 MLOAD SWAP1 DUP1 DUP3 MSTORE DUP1 PUSH1 0x1F ADD PUSH1 0x1F NOT AND PUSH1 0x20 ADD DUP3 ADD PUSH1 0x40 MSTORE DUP1 ISZERO PUSH2 0x2C1 JUMPI DUP2 PUSH1 0x20 ADD PUSH1 0x1 DUP3 MUL DUP1 CALLDATASIZE DUP4 CALLDATACOPY DUP1 DUP3 ADD SWAP2 POP POP SWAP1 POP JUMPDEST POP SWAP1 POP PUSH0 DUP3 PUSH1 0x20 DUP4 ADD ADD SWAP1 POP JUMPDEST PUSH1 0x1 ISZERO PUSH2 0x322 JUMPI DUP1 DUP1 PUSH1 0x1 SWAP1 SUB SWAP2 POP POP PUSH32 0x3031323334353637383961626364656600000000000000000000000000000000 PUSH1 0xA DUP7 MOD BYTE DUP2 MSTORE8 PUSH1 0xA DUP6 DUP2 PUSH2 0x317 JUMPI PUSH2 0x316 PUSH2 0x802 JUMP JUMPDEST JUMPDEST DIV SWAP5 POP PUSH0 DUP6 SUB PUSH2 0x2CE JUMPI JUMPDEST DUP2 SWAP4 POP POP POP POP SWAP2 SWAP1 POP JUMP JUMPDEST PUSH0 PUSH0 PUSH0 SWAP1 POP PUSH27 0x184F03E93FF9F4DAA797ED6E38ED64BF6A1F010000000000000000 DUP4 LT PUSH2 0x389 JUMPI PUSH27 0x184F03E93FF9F4DAA797ED6E38ED64BF6A1F010000000000000000 DUP4 DUP2 PUSH2 0x37F JUMPI PUSH2 0x37E PUSH2 0x802 JUMP JUMPDEST JUMPDEST DIV SWAP3 POP PUSH1 0x40 DUP2 ADD SWAP1 POP JUMPDEST PUSH14 0x4EE2D6D415B85ACEF8100000000 DUP4 LT PUSH2 0x3C6 JUMPI PUSH14 0x4EE2D6D415B85ACEF8100000000 DUP4 DUP2 PUSH2 0x3BC JUMPI PUSH2 0x3BB PUSH2 0x802 JUMP JUMPDEST JUMPDEST DIV SWAP3 POP PUSH1 0x20 DUP2 ADD SWAP1 POP JUMPDEST PUSH7 0x2386F26FC10000 DUP4 LT PUSH2 0x3F5 JUMPI PUSH7 0x2386F26FC10000 DUP4 DUP2 PUSH2 0x3EB JUMPI PUSH2 0x3EA PUSH2 0x802 JUMP JUMPDEST JUMPDEST DIV SWAP3 POP PUSH1 0x10 DUP2 ADD SWAP1 POP JUMPDEST PUSH4 0x5F5E100 DUP4 LT PUSH2 0x41E JUMPI PUSH4 0x5F5E100 DUP4 DUP2 PUSH2 0x414 JUMPI PUSH2 0x413 PUSH2 0x802 JUMP JUMPDEST JUMPDEST DIV SWAP3 POP PUSH1 0x8 DUP2 ADD SWAP1 POP JUMPDEST PUSH2 0x2710 DUP4 LT PUSH2 0x443 JUMPI PUSH2 0x2710 DUP4 DUP2 PUSH2 0x439 JUMPI PUSH2 0x438 PUSH2 0x802 JUMP JUMPDEST JUMPDEST DIV SWAP3 POP PUSH1 0x4 DUP2 ADD SWAP1 POP JUMPDEST PUSH1 0x64 DUP4 LT PUSH2 0x466 JUMPI PUSH1 0x64 DUP4 DUP2 PUSH2 0x45C JUMPI PUSH2 0x45B PUSH2 0x802 JUMP JUMPDEST JUMPDEST DIV SWAP3 POP PUSH1 0x2 DUP2 ADD SWAP1 POP JUMPDEST PUSH1 0xA DUP4 LT PUSH2 0x475 JUMPI PUSH1 0x1 DUP2 ADD SWAP1 POP JUMPDEST DUP1 SWAP2 POP POP SWAP2 SWAP1 POP JUMP JUMPDEST PUSH0 DUP2 MLOAD SWAP1 POP SWAP2 SWAP1 POP JUMP JUMPDEST PUSH0 DUP3 DUP3 MSTORE PUSH1 0x20 DUP3 ADD SWAP1 POP SWAP3 SWAP2 POP POP JUMP JUMPDEST DUP3 DUP2 DUP4 MCOPY PUSH0 DUP4 DUP4 ADD MSTORE POP POP POP JUMP JUMPDEST PUSH0 PUSH1 0x1F NOT PUSH1 0x1F DUP4 ADD AND SWAP1 POP SWAP2 SWAP1 POP JUMP JUMPDEST PUSH0 PUSH2 0x4C0 DUP3 PUSH2 0x47E JUMP JUMPDEST PUSH2 0x4CA DUP2 DUP6 PUSH2 0x488 JUMP JUMPDEST SWAP4 POP PUSH2 0x4DA DUP2 DUP6 PUSH1 0x20 DUP7 ADD PUSH2 0x498 JUMP JUMPDEST PUSH2 0x4E3 DUP2 PUSH2 0x4A6 JUMP JUMPDEST DUP5 ADD SWAP2 POP POP SWAP3 SWAP2 POP POP JUMP JUMPDEST PUSH0 PUSH1 0x40 DUP3 ADD SWAP1 POP DUP2 DUP2 SUB PUSH0 DUP4 ADD MSTORE PUSH2 0x506 DUP2 DUP6 PUSH2 0x4B6 JUMP JUMPDEST SWAP1 POP DUP2 DUP2 SUB PUSH1 0x20 DUP4 ADD MSTORE PUSH2 0x51A DUP2 DUP5 PUSH2 0x4B6 JUMP JUMPDEST SWAP1 POP SWAP4 SWAP3 POP POP POP JUMP JUMPDEST PUSH32 0x53616C646F20616E646120746964616B206D656E63756B75706920756E74756B PUSH0 DUP3 ADD MSTORE PUSH32 0x206D656D62656C69206D696E756D616E20696E692E0000000000000000000000 PUSH1 0x20 DUP3 ADD MSTORE POP JUMP JUMPDEST PUSH0 PUSH2 0x57D PUSH1 0x35 DUP4 PUSH2 0x488 JUMP JUMPDEST SWAP2 POP PUSH2 0x588 DUP3 PUSH2 0x523 JUMP JUMPDEST PUSH1 0x40 DUP3 ADD SWAP1 POP SWAP2 SWAP1 POP JUMP JUMPDEST PUSH0 PUSH1 0x20 DUP3 ADD SWAP1 POP DUP2 DUP2 SUB PUSH0 DUP4 ADD MSTORE PUSH2 0x5AA DUP2 PUSH2 0x571 JUMP JUMPDEST SWAP1 POP SWAP2 SWAP1 POP JUMP JUMPDEST PUSH0 DUP2 SWAP1 POP SWAP2 SWAP1 POP JUMP JUMPDEST PUSH32 0x4E487B7100000000000000000000000000000000000000000000000000000000 PUSH0 MSTORE PUSH1 0x11 PUSH1 0x4 MSTORE PUSH1 0x24 PUSH0 REVERT JUMPDEST PUSH0 PUSH2 0x5F1 DUP3 PUSH2 0x5B1 JUMP JUMPDEST SWAP2 POP PUSH2 0x5FC DUP4 PUSH2 0x5B1 JUMP JUMPDEST SWAP3 POP DUP3 DUP3 SUB SWAP1 POP DUP2 DUP2 GT ISZERO PUSH2 0x614 JUMPI PUSH2 0x613 PUSH2 0x5BA JUMP JUMPDEST JUMPDEST SWAP3 SWAP2 POP POP JUMP JUMPDEST PUSH32 0x53616C646F20616E6461206B7572616E672064617269206D696E696D756D2064 PUSH0 DUP3 ADD MSTORE PUSH32 0x65706F73697420283120776569292E0000000000000000000000000000000000 PUSH1 0x20 DUP3 ADD MSTORE POP JUMP JUMPDEST PUSH0 PUSH2 0x674 PUSH1 0x2F DUP4 PUSH2 0x488 JUMP JUMPDEST SWAP2 POP PUSH2 0x67F DUP3 PUSH2 0x61A JUMP JUMPDEST PUSH1 0x40 DUP3 ADD SWAP1 POP SWAP2 SWAP1 POP JUMP JUMPDEST PUSH0 PUSH1 0x20 DUP3 ADD SWAP1 POP DUP2 DUP2 SUB PUSH0 DUP4 ADD MSTORE PUSH2 0x6A1 DUP2 PUSH2 0x668 JUMP JUMPDEST SWAP1 POP SWAP2 SWAP1 POP JUMP JUMPDEST PUSH0 PUSH2 0x6B2 DUP3 PUSH2 0x5B1 JUMP JUMPDEST SWAP2 POP PUSH2 0x6BD DUP4 PUSH2 0x5B1 JUMP JUMPDEST SWAP3 POP DUP3 DUP3 ADD SWAP1 POP DUP1 DUP3 GT ISZERO PUSH2 0x6D5 JUMPI PUSH2 0x6D4 PUSH2 0x5BA JUMP JUMPDEST JUMPDEST SWAP3 SWAP2 POP POP JUMP JUMPDEST PUSH0 DUP2 SWAP1 POP SWAP3 SWAP2 POP POP JUMP JUMPDEST PUSH32 0x596F75722062616C616E63653A20000000000000000000000000000000000000 PUSH0 DUP3 ADD MSTORE POP JUMP JUMPDEST PUSH0 PUSH2 0x719 PUSH1 0xE DUP4 PUSH2 0x6DB JUMP JUMPDEST SWAP2 POP PUSH2 0x724 DUP3 PUSH2 0x6E5 JUMP JUMPDEST PUSH1 0xE DUP3 ADD SWAP1 POP SWAP2 SWAP1 POP JUMP JUMPDEST PUSH0 PUSH2 0x739 DUP3 PUSH2 0x47E JUMP JUMPDEST PUSH2 0x743 DUP2 DUP6 PUSH2 0x6DB JUMP JUMPDEST SWAP4 POP PUSH2 0x753 DUP2 DUP6 PUSH1 0x20 DUP7 ADD PUSH2 0x498 JUMP JUMPDEST DUP1 DUP5 ADD SWAP2 POP POP SWAP3 SWAP2 POP POP JUMP JUMPDEST PUSH32 0x2057656900000000000000000000000000000000000000000000000000000000 PUSH0 DUP3 ADD MSTORE POP JUMP JUMPDEST PUSH0 PUSH2 0x793 PUSH1 0x4 DUP4 PUSH2 0x6DB JUMP JUMPDEST SWAP2 POP PUSH2 0x79E DUP3 PUSH2 0x75F JUMP JUMPDEST PUSH1 0x4 DUP3 ADD SWAP1 POP SWAP2 SWAP1 POP JUMP JUMPDEST PUSH0 PUSH2 0x7B3 DUP3 PUSH2 0x70D JUMP JUMPDEST SWAP2 POP PUSH2 0x7BF DUP3 DUP5 PUSH2 0x72F JUMP JUMPDEST SWAP2 POP PUSH2 0x7CA DUP3 PUSH2 0x787 JUMP JUMPDEST SWAP2 POP DUP2 SWAP1 POP SWAP3 SWAP2 POP POP JUMP JUMPDEST PUSH32 0x4E487B7100000000000000000000000000000000000000000000000000000000 PUSH0 MSTORE PUSH1 0x41 PUSH1 0x4 MSTORE PUSH1 0x24 PUSH0 REVERT JUMPDEST PUSH32 0x4E487B7100000000000000000000000000000000000000000000000000000000 PUSH0 MSTORE PUSH1 0x12 PUSH1 0x4 MSTORE PUSH1 0x24 PUSH0 REVERT INVALID LOG2 PUSH5 0x6970667358 0x22 SLT KECCAK256 0xD PUSH22 0x28E25D97F511B235697713599FC8BE57AF45EC292E63 PUSH32 0xF5F3E074EDA44664736F6C634300081E00330000000000000000000000000000 "
		},
		"gasEstimates": {
			"creation": {
				"codeDepositCost": "429800",
				"executionCost": "22666",
				"totalCost": "452466"
			},
			"external": {
				"buy()": "infinite",
				"deposit()": "infinite"
			}
		},
		"methodIdentifiers": {
			"buy()": "a6f2ae3a",
			"deposit()": "d0e30db0"
		}
	},
	"abi": [
		{
			"inputs": [],
			"stateMutability": "nonpayable",
			"type": "constructor"
		},
		{
			"anonymous": false,
			"inputs": [
				{
					"indexed": true,
					"internalType": "address",
					"name": "user",
					"type": "address"
				},
				{
					"indexed": false,
					"internalType": "uint256",
					"name": "value",
					"type": "uint256"
				},
				{
					"indexed": false,
					"internalType": "string",
					"name": "message",
					"type": "string"
				},
				{
					"indexed": false,
					"internalType": "string",
					"name": "productEnum",
					"type": "string"
				}
			],
			"name": "BuyEvent",
			"type": "event"
		},
		{
			"anonymous": false,
			"inputs": [
				{
					"indexed": true,
					"internalType": "address",
					"name": "user",
					"type": "address"
				},
				{
					"indexed": false,
					"internalType": "uint256",
					"name": "value",
					"type": "uint256"
				},
				{
					"indexed": false,
					"internalType": "string",
					"name": "message",
					"type": "string"
				},
				{
					"indexed": false,
					"internalType": "uint256",
					"name": "timestamp",
					"type": "uint256"
				}
			],
			"name": "DepositEvent",
			"type": "event"
		},
		{
			"inputs": [],
			"name": "buy",
			"outputs": [],
			"stateMutability": "payable",
			"type": "function"
		},
		{
			"inputs": [],
			"name": "deposit",
			"outputs": [
				{
					"internalType": "string",
					"name": "",
					"type": "string"
				},
				{
					"internalType": "string",
					"name": "",
					"type": "string"
				}
			],
			"stateMutability": "payable",
			"type": "function"
		}
	]
}