{
	"data": {
		"bytecode": {
			"linkReferences": {},
			"object": "6080604052348015600e575f5ffd5b505f5f5f3373ffffffffffffffffffffffffffffffffffffffff1673ffffffffffffffffffffffffffffffffffffffff1681526020019081526020015f2081905550610bd98061005d5f395ff3fe608060405260043610610033575f3560e01c806312065fe014610037578063cce7ec1314610061578063d0e30db01461007d575b5f5ffd5b348015610042575f5ffd5b5061004b61009c565b60405161005891906105c5565b60405180910390f35b61007b60048036038101906100769190610666565b6100df565b005b610085610206565b604051610093929190610714565b60405180910390f35b5f5f5f3373ffffffffffffffffffffffffffffffffffffffff1673ffffffffffffffffffffffffffffffffffffffff1681526020019081526020015f2054905090565b81815f5f8373ffffffffffffffffffffffffffffffffffffffff1673ffffffffffffffffffffffffffffffffffffffff1681526020019081526020015f2054811115610160576040517f08c379a0000000000000000000000000000000000000000000000000000000008152600401610157906107b9565b60405180910390fd5b825f5f8673ffffffffffffffffffffffffffffffffffffffff1673ffffffffffffffffffffffffffffffffffffffff1681526020019081526020015f205f8282546101ab9190610804565b925050819055508373ffffffffffffffffffffffffffffffffffffffff167f369dd71539ccc338107bb11b25cf5f235ac98f4e447581ff476b97d03aa22155846040516101f891906108cb565b60405180910390a250505050565b606080600134101561024d576040517f08c379a00000000000000000000000000000000000000000000000000000000081526004016102449061097a565b60405180910390fd5b345f5f3373ffffffffffffffffffffffffffffffffffffffff1673ffffffffffffffffffffffffffffffffffffffff1681526020019081526020015f205f8282546102989190610998565b925050819055503373ffffffffffffffffffffffffffffffffffffffff167f9a7e097867516109a2dd6bd29f98c34f40fa27cdca685241c7fe1b8d7953648b34426040516102e7929190610a15565b60405180910390a26103345f5f3373ffffffffffffffffffffffffffffffffffffffff1673ffffffffffffffffffffffffffffffffffffffff1681526020019081526020015f2054610392565b6040516020016103449190610b1d565b6040516020818303038152906040526040518060400160405280601581526020017f596f7572204465706f736974205375636365737321000000000000000000000081525090915091509091565b60605f60016103a08461045c565b0190505f8167ffffffffffffffff8111156103be576103bd610b49565b5b6040519080825280601f01601f1916602001820160405280156103f05781602001600182028036833780820191505090505b5090505f82602083010190505b600115610451578080600190039150507f3031323334353637383961626364656600000000000000000000000000000000600a86061a8153600a858161044657610445610b76565b5b0494505f85036103fd575b819350505050919050565b5f5f5f90507a184f03e93ff9f4daa797ed6e38ed64bf6a1f01000000000000000083106104b8577a184f03e93ff9f4daa797ed6e38ed64bf6a1f01000000000000000083816104ae576104ad610b76565b5b0492506040810190505b6d04ee2d6d415b85acef810000000083106104f5576d04ee2d6d415b85acef810000000083816104eb576104ea610b76565b5b0492506020810190505b662386f26fc10000831061052457662386f26fc10000838161051a57610519610b76565b5b0492506010810190505b6305f5e100831061054d576305f5e100838161054357610542610b76565b5b0492506008810190505b612710831061057257612710838161056857610567610b76565b5b0492506004810190505b60648310610595576064838161058b5761058a610b76565b5b0492506002810190505b600a83106105a4576001810190505b80915050919050565b5f819050919050565b6105bf816105ad565b82525050565b5f6020820190506105d85f8301846105b6565b92915050565b5f5ffd5b5f73ffffffffffffffffffffffffffffffffffffffff82169050919050565b5f61060b826105e2565b9050919050565b61061b81610601565b8114610625575f5ffd5b50565b5f8135905061063681610612565b92915050565b610645816105ad565b811461064f575f5ffd5b50565b5f813590506106608161063c565b92915050565b5f5f6040838503121561067c5761067b6105de565b5b5f61068985828601610628565b925050602061069a85828601610652565b9150509250929050565b5f81519050919050565b5f82825260208201905092915050565b8281835e5f83830152505050565b5f601f19601f8301169050919050565b5f6106e6826106a4565b6106f081856106ae565b93506107008185602086016106be565b610709816106cc565b840191505092915050565b5f6040820190508181035f83015261072c81856106dc565b9050818103602083015261074081846106dc565b90509392505050565b7f53616c646f20616e646120746964616b206d656e63756b75706920756e74756b5f8201527f206d656d62656c69206d696e756d616e20696e692e0000000000000000000000602082015250565b5f6107a36035836106ae565b91506107ae82610749565b604082019050919050565b5f6020820190508181035f8301526107d081610797565b9050919050565b7f4e487b71000000000000000000000000000000000000000000000000000000005f52601160045260245ffd5b5f61080e826105ad565b9150610819836105ad565b9250828203905081811115610831576108306107d7565b5b92915050565b7f42757920537563636573732100000000000000000000000000000000000000005f82015250565b5f61086b600c836106ae565b915061087682610837565b602082019050919050565b7f57617465720000000000000000000000000000000000000000000000000000005f82015250565b5f6108b56005836106ae565b91506108c082610881565b602082019050919050565b5f6060820190506108de5f8301846105b6565b81810360208301526108ef8161085f565b90508181036040830152610902816108a9565b905092915050565b7f53616c646f20616e6461206b7572616e672064617269206d696e696d756d20645f8201527f65706f73697420283120776569292e0000000000000000000000000000000000602082015250565b5f610964602f836106ae565b915061096f8261090a565b604082019050919050565b5f6020820190508181035f83015261099181610958565b9050919050565b5f6109a2826105ad565b91506109ad836105ad565b92508282019050808211156109c5576109c46107d7565b5b92915050565b7f4465706f736974205375636365737321000000000000000000000000000000005f82015250565b5f6109ff6010836106ae565b9150610a0a826109cb565b602082019050919050565b5f606082019050610a285f8301856105b6565b8181036020830152610a39816109f3565b9050610a4860408301846105b6565b9392505050565b5f81905092915050565b7f596f75722062616c616e63653a200000000000000000000000000000000000005f82015250565b5f610a8d600e83610a4f565b9150610a9882610a59565b600e82019050919050565b5f610aad826106a4565b610ab78185610a4f565b9350610ac78185602086016106be565b80840191505092915050565b7f20576569000000000000000000000000000000000000000000000000000000005f82015250565b5f610b07600483610a4f565b9150610b1282610ad3565b600482019050919050565b5f610b2782610a81565b9150610b338284610aa3565b9150610b3e82610afb565b915081905092915050565b7f4e487b71000000000000000000000000000000000000000000000000000000005f52604160045260245ffd5b7f4e487b71000000000000000000000000000000000000000000000000000000005f52601260045260245ffdfea26469706673582212205edc302c28f2c099bd907209145f51ef45d593d4cbb0479fb4c182bd57487ac464736f6c634300081e0033",
			"opcodes": "PUSH1 0x80 PUSH1 0x40 MSTORE CALLVALUE DUP1 ISZERO PUSH1 0xE JUMPI PUSH0 PUSH0 REVERT JUMPDEST POP PUSH0 PUSH0 PUSH0 CALLER PUSH20 0xFFFFFFFFFFFFFFFFFFFFFFFFFFFFFFFFFFFFFFFF AND PUSH20 0xFFFFFFFFFFFFFFFFFFFFFFFFFFFFFFFFFFFFFFFF AND DUP2 MSTORE PUSH1 0x20 ADD SWAP1 DUP2 MSTORE PUSH1 0x20 ADD PUSH0 KECCAK256 DUP2 SWAP1 SSTORE POP PUSH2 0xBD9 DUP1 PUSH2 0x5D PUSH0 CODECOPY PUSH0 RETURN INVALID PUSH1 0x80 PUSH1 0x40 MSTORE PUSH1 0x4 CALLDATASIZE LT PUSH2 0x33 JUMPI PUSH0 CALLDATALOAD PUSH1 0xE0 SHR DUP1 PUSH4 0x12065FE0 EQ PUSH2 0x37 JUMPI DUP1 PUSH4 0xCCE7EC13 EQ PUSH2 0x61 JUMPI DUP1 PUSH4 0xD0E30DB0 EQ PUSH2 0x7D JUMPI JUMPDEST PUSH0 PUSH0 REVERT JUMPDEST CALLVALUE DUP1 ISZERO PUSH2 0x42 JUMPI PUSH0 PUSH0 REVERT JUMPDEST POP PUSH2 0x4B PUSH2 0x9C JUMP JUMPDEST PUSH1 0x40 MLOAD PUSH2 0x58 SWAP2 SWAP1 PUSH2 0x5C5 JUMP JUMPDEST PUSH1 0x40 MLOAD DUP1 SWAP2 SUB SWAP1 RETURN JUMPDEST PUSH2 0x7B PUSH1 0x4 DUP1 CALLDATASIZE SUB DUP2 ADD SWAP1 PUSH2 0x76 SWAP2 SWAP1 PUSH2 0x666 JUMP JUMPDEST PUSH2 0xDF JUMP JUMPDEST STOP JUMPDEST PUSH2 0x85 PUSH2 0x206 JUMP JUMPDEST PUSH1 0x40 MLOAD PUSH2 0x93 SWAP3 SWAP2 SWAP1 PUSH2 0x714 JUMP JUMPDEST PUSH1 0x40 MLOAD DUP1 SWAP2 SUB SWAP1 RETURN JUMPDEST PUSH0 PUSH0 PUSH0 CALLER PUSH20 0xFFFFFFFFFFFFFFFFFFFFFFFFFFFFFFFFFFFFFFFF AND PUSH20 0xFFFFFFFFFFFFFFFFFFFFFFFFFFFFFFFFFFFFFFFF AND DUP2 MSTORE PUSH1 0x20 ADD SWAP1 DUP2 MSTORE PUSH1 0x20 ADD PUSH0 KECCAK256 SLOAD SWAP1 POP SWAP1 JUMP JUMPDEST DUP2 DUP2 PUSH0 PUSH0 DUP4 PUSH20 0xFFFFFFFFFFFFFFFFFFFFFFFFFFFFFFFFFFFFFFFF AND PUSH20 0xFFFFFFFFFFFFFFFFFFFFFFFFFFFFFFFFFFFFFFFF AND DUP2 MSTORE PUSH1 0x20 ADD SWAP1 DUP2 MSTORE PUSH1 0x20 ADD PUSH0 KECCAK256 SLOAD DUP2 GT ISZERO PUSH2 0x160 JUMPI PUSH1 0x40 MLOAD PUSH32 0x8C379A000000000000000000000000000000000000000000000000000000000 DUP2 MSTORE PUSH1 0x4 ADD PUSH2 0x157 SWAP1 PUSH2 0x7B9 JUMP JUMPDEST PUSH1 0x40 MLOAD DUP1 SWAP2 SUB SWAP1 REVERT JUMPDEST DUP3 PUSH0 PUSH0 DUP7 PUSH20 0xFFFFFFFFFFFFFFFFFFFFFFFFFFFFFFFFFFFFFFFF AND PUSH20 0xFFFFFFFFFFFFFFFFFFFFFFFFFFFFFFFFFFFFFFFF AND DUP2 MSTORE PUSH1 0x20 ADD SWAP1 DUP2 MSTORE PUSH1 0x20 ADD PUSH0 KECCAK256 PUSH0 DUP3 DUP3 SLOAD PUSH2 0x1AB SWAP2 SWAP1 PUSH2 0x804 JUMP JUMPDEST SWAP3 POP POP DUP2 SWAP1 SSTORE POP DUP4 PUSH20 0xFFFFFFFFFFFFFFFFFFFFFFFFFFFFFFFFFFFFFFFF AND PUSH32 0x369DD71539CCC338107BB11B25CF5F235AC98F4E447581FF476B97D03AA22155 DUP5 PUSH1 0x40 MLOAD PUSH2 0x1F8 SWAP2 SWAP1 PUSH2 0x8CB JUMP JUMPDEST PUSH1 0x40 MLOAD DUP1 SWAP2 SUB SWAP1 LOG2 POP POP POP POP JUMP JUMPDEST PUSH1 0x60 DUP1 PUSH1 0x1 CALLVALUE LT ISZERO PUSH2 0x24D JUMPI PUSH1 0x40 MLOAD PUSH32 0x8C379A000000000000000000000000000000000000000000000000000000000 DUP2 MSTORE PUSH1 0x4 ADD PUSH2 0x244 SWAP1 PUSH2 0x97A JUMP JUMPDEST PUSH1 0x40 MLOAD DUP1 SWAP2 SUB SWAP1 REVERT JUMPDEST CALLVALUE PUSH0 PUSH0 CALLER PUSH20 0xFFFFFFFFFFFFFFFFFFFFFFFFFFFFFFFFFFFFFFFF AND PUSH20 0xFFFFFFFFFFFFFFFFFFFFFFFFFFFFFFFFFFFFFFFF AND DUP2 MSTORE PUSH1 0x20 ADD SWAP1 DUP2 MSTORE PUSH1 0x20 ADD PUSH0 KECCAK256 PUSH0 DUP3 DUP3 SLOAD PUSH2 0x298 SWAP2 SWAP1 PUSH2 0x998 JUMP JUMPDEST SWAP3 POP POP DUP2 SWAP1 SSTORE POP CALLER PUSH20 0xFFFFFFFFFFFFFFFFFFFFFFFFFFFFFFFFFFFFFFFF AND PUSH32 0x9A7E097867516109A2DD6BD29F98C34F40FA27CDCA685241C7FE1B8D7953648B CALLVALUE TIMESTAMP PUSH1 0x40 MLOAD PUSH2 0x2E7 SWAP3 SWAP2 SWAP1 PUSH2 0xA15 JUMP JUMPDEST PUSH1 0x40 MLOAD DUP1 SWAP2 SUB SWAP1 LOG2 PUSH2 0x334 PUSH0 PUSH0 CALLER PUSH20 0xFFFFFFFFFFFFFFFFFFFFFFFFFFFFFFFFFFFFFFFF AND PUSH20 0xFFFFFFFFFFFFFFFFFFFFFFFFFFFFFFFFFFFFFFFF AND DUP2 MSTORE PUSH1 0x20 ADD SWAP1 DUP2 MSTORE PUSH1 0x20 ADD PUSH0 KECCAK256 SLOAD PUSH2 0x392 JUMP JUMPDEST PUSH1 0x40 MLOAD PUSH1 0x20 ADD PUSH2 0x344 SWAP2 SWAP1 PUSH2 0xB1D JUMP JUMPDEST PUSH1 0x40 MLOAD PUSH1 0x20 DUP2 DUP4 SUB SUB DUP2 MSTORE SWAP1 PUSH1 0x40 MSTORE PUSH1 0x40 MLOAD DUP1 PUSH1 0x40 ADD PUSH1 0x40 MSTORE DUP1 PUSH1 0x15 DUP2 MSTORE PUSH1 0x20 ADD PUSH32 0x596F7572204465706F7369742053756363657373210000000000000000000000 DUP2 MSTORE POP SWAP1 SWAP2 POP SWAP2 POP SWAP1 SWAP2 JUMP JUMPDEST PUSH1 0x60 PUSH0 PUSH1 0x1 PUSH2 0x3A0 DUP5 PUSH2 0x45C JUMP JUMPDEST ADD SWAP1 POP PUSH0 DUP2 PUSH8 0xFFFFFFFFFFFFFFFF DUP2 GT ISZERO PUSH2 0x3BE JUMPI PUSH2 0x3BD PUSH2 0xB49 JUMP JUMPDEST JUMPDEST PUSH1 0x40 MLOAD SWAP1 DUP1 DUP3 MSTORE DUP1 PUSH1 0x1F ADD PUSH1 0x1F NOT AND PUSH1 0x20 ADD DUP3 ADD PUSH1 0x40 MSTORE DUP1 ISZERO PUSH2 0x3F0 JUMPI DUP2 PUSH1 0x20 ADD PUSH1 0x1 DUP3 MUL DUP1 CALLDATASIZE DUP4 CALLDATACOPY DUP1 DUP3 ADD SWAP2 POP POP SWAP1 POP JUMPDEST POP SWAP1 POP PUSH0 DUP3 PUSH1 0x20 DUP4 ADD ADD SWAP1 POP JUMPDEST PUSH1 0x1 ISZERO PUSH2 0x451 JUMPI DUP1 DUP1 PUSH1 0x1 SWAP1 SUB SWAP2 POP POP PUSH32 0x3031323334353637383961626364656600000000000000000000000000000000 PUSH1 0xA DUP7 MOD BYTE DUP2 MSTORE8 PUSH1 0xA DUP6 DUP2 PUSH2 0x446 JUMPI PUSH2 0x445 PUSH2 0xB76 JUMP JUMPDEST JUMPDEST DIV SWAP5 POP PUSH0 DUP6 SUB PUSH2 0x3FD JUMPI JUMPDEST DUP2 SWAP4 POP POP POP POP SWAP2 SWAP1 POP JUMP JUMPDEST PUSH0 PUSH0 PUSH0 SWAP1 POP PUSH27 0x184F03E93FF9F4DAA797ED6E38ED64BF6A1F010000000000000000 DUP4 LT PUSH2 0x4B8 JUMPI PUSH27 0x184F03E93FF9F4DAA797ED6E38ED64BF6A1F010000000000000000 DUP4 DUP2 PUSH2 0x4AE JUMPI PUSH2 0x4AD PUSH2 0xB76 JUMP JUMPDEST JUMPDEST DIV SWAP3 POP PUSH1 0x40 DUP2 ADD SWAP1 POP JUMPDEST PUSH14 0x4EE2D6D415B85ACEF8100000000 DUP4 LT PUSH2 0x4F5 JUMPI PUSH14 0x4EE2D6D415B85ACEF8100000000 DUP4 DUP2 PUSH2 0x4EB JUMPI PUSH2 0x4EA PUSH2 0xB76 JUMP JUMPDEST JUMPDEST DIV SWAP3 POP PUSH1 0x20 DUP2 ADD SWAP1 POP JUMPDEST PUSH7 0x2386F26FC10000 DUP4 LT PUSH2 0x524 JUMPI PUSH7 0x2386F26FC10000 DUP4 DUP2 PUSH2 0x51A JUMPI PUSH2 0x519 PUSH2 0xB76 JUMP JUMPDEST JUMPDEST DIV SWAP3 POP PUSH1 0x10 DUP2 ADD SWAP1 POP JUMPDEST PUSH4 0x5F5E100 DUP4 LT PUSH2 0x54D JUMPI PUSH4 0x5F5E100 DUP4 DUP2 PUSH2 0x543 JUMPI PUSH2 0x542 PUSH2 0xB76 JUMP JUMPDEST JUMPDEST DIV SWAP3 POP PUSH1 0x8 DUP2 ADD SWAP1 POP JUMPDEST PUSH2 0x2710 DUP4 LT PUSH2 0x572 JUMPI PUSH2 0x2710 DUP4 DUP2 PUSH2 0x568 JUMPI PUSH2 0x567 PUSH2 0xB76 JUMP JUMPDEST JUMPDEST DIV SWAP3 POP PUSH1 0x4 DUP2 ADD SWAP1 POP JUMPDEST PUSH1 0x64 DUP4 LT PUSH2 0x595 JUMPI PUSH1 0x64 DUP4 DUP2 PUSH2 0x58B JUMPI PUSH2 0x58A PUSH2 0xB76 JUMP JUMPDEST JUMPDEST DIV SWAP3 POP PUSH1 0x2 DUP2 ADD SWAP1 POP JUMPDEST PUSH1 0xA DUP4 LT PUSH2 0x5A4 JUMPI PUSH1 0x1 DUP2 ADD SWAP1 POP JUMPDEST DUP1 SWAP2 POP POP SWAP2 SWAP1 POP JUMP JUMPDEST PUSH0 DUP2 SWAP1 POP SWAP2 SWAP1 POP JUMP JUMPDEST PUSH2 0x5BF DUP2 PUSH2 0x5AD JUMP JUMPDEST DUP3 MSTORE POP POP JUMP JUMPDEST PUSH0 PUSH1 0x20 DUP3 ADD SWAP1 POP PUSH2 0x5D8 PUSH0 DUP4 ADD DUP5 PUSH2 0x5B6 JUMP JUMPDEST SWAP3 SWAP2 POP POP JUMP JUMPDEST PUSH0 PUSH0 REVERT JUMPDEST PUSH0 PUSH20 0xFFFFFFFFFFFFFFFFFFFFFFFFFFFFFFFFFFFFFFFF DUP3 AND SWAP1 POP SWAP2 SWAP1 POP JUMP JUMPDEST PUSH0 PUSH2 0x60B DUP3 PUSH2 0x5E2 JUMP JUMPDEST SWAP1 POP SWAP2 SWAP1 POP JUMP JUMPDEST PUSH2 0x61B DUP2 PUSH2 0x601 JUMP JUMPDEST DUP2 EQ PUSH2 0x625 JUMPI PUSH0 PUSH0 REVERT JUMPDEST POP JUMP JUMPDEST PUSH0 DUP2 CALLDATALOAD SWAP1 POP PUSH2 0x636 DUP2 PUSH2 0x612 JUMP JUMPDEST SWAP3 SWAP2 POP POP JUMP JUMPDEST PUSH2 0x645 DUP2 PUSH2 0x5AD JUMP JUMPDEST DUP2 EQ PUSH2 0x64F JUMPI PUSH0 PUSH0 REVERT JUMPDEST POP JUMP JUMPDEST PUSH0 DUP2 CALLDATALOAD SWAP1 POP PUSH2 0x660 DUP2 PUSH2 0x63C JUMP JUMPDEST SWAP3 SWAP2 POP POP JUMP JUMPDEST PUSH0 PUSH0 PUSH1 0x40 DUP4 DUP6 SUB SLT ISZERO PUSH2 0x67C JUMPI PUSH2 0x67B PUSH2 0x5DE JUMP JUMPDEST JUMPDEST PUSH0 PUSH2 0x689 DUP6 DUP3 DUP7 ADD PUSH2 0x628 JUMP JUMPDEST SWAP3 POP POP PUSH1 0x20 PUSH2 0x69A DUP6 DUP3 DUP7 ADD PUSH2 0x652 JUMP JUMPDEST SWAP2 POP POP SWAP3 POP SWAP3 SWAP1 POP JUMP JUMPDEST PUSH0 DUP2 MLOAD SWAP1 POP SWAP2 SWAP1 POP JUMP JUMPDEST PUSH0 DUP3 DUP3 MSTORE PUSH1 0x20 DUP3 ADD SWAP1 POP SWAP3 SWAP2 POP POP JUMP JUMPDEST DUP3 DUP2 DUP4 MCOPY PUSH0 DUP4 DUP4 ADD MSTORE POP POP POP JUMP JUMPDEST PUSH0 PUSH1 0x1F NOT PUSH1 0x1F DUP4 ADD AND SWAP1 POP SWAP2 SWAP1 POP JUMP JUMPDEST PUSH0 PUSH2 0x6E6 DUP3 PUSH2 0x6A4 JUMP JUMPDEST PUSH2 0x6F0 DUP2 DUP6 PUSH2 0x6AE JUMP JUMPDEST SWAP4 POP PUSH2 0x700 DUP2 DUP6 PUSH1 0x20 DUP7 ADD PUSH2 0x6BE JUMP JUMPDEST PUSH2 0x709 DUP2 PUSH2 0x6CC JUMP JUMPDEST DUP5 ADD SWAP2 POP POP SWAP3 SWAP2 POP POP JUMP JUMPDEST PUSH0 PUSH1 0x40 DUP3 ADD SWAP1 POP DUP2 DUP2 SUB PUSH0 DUP4 ADD MSTORE PUSH2 0x72C DUP2 DUP6 PUSH2 0x6DC JUMP JUMPDEST SWAP1 POP DUP2 DUP2 SUB PUSH1 0x20 DUP4 ADD MSTORE PUSH2 0x740 DUP2 DUP5 PUSH2 0x6DC JUMP JUMPDEST SWAP1 POP SWAP4 SWAP3 POP POP POP JUMP JUMPDEST PUSH32 0x53616C646F20616E646120746964616B206D656E63756B75706920756E74756B PUSH0 DUP3 ADD MSTORE PUSH32 0x206D656D62656C69206D696E756D616E20696E692E0000000000000000000000 PUSH1 0x20 DUP3 ADD MSTORE POP JUMP JUMPDEST PUSH0 PUSH2 0x7A3 PUSH1 0x35 DUP4 PUSH2 0x6AE JUMP JUMPDEST SWAP2 POP PUSH2 0x7AE DUP3 PUSH2 0x749 JUMP JUMPDEST PUSH1 0x40 DUP3 ADD SWAP1 POP SWAP2 SWAP1 POP JUMP JUMPDEST PUSH0 PUSH1 0x20 DUP3 ADD SWAP1 POP DUP2 DUP2 SUB PUSH0 DUP4 ADD MSTORE PUSH2 0x7D0 DUP2 PUSH2 0x797 JUMP JUMPDEST SWAP1 POP SWAP2 SWAP1 POP JUMP JUMPDEST PUSH32 0x4E487B7100000000000000000000000000000000000000000000000000000000 PUSH0 MSTORE PUSH1 0x11 PUSH1 0x4 MSTORE PUSH1 0x24 PUSH0 REVERT JUMPDEST PUSH0 PUSH2 0x80E DUP3 PUSH2 0x5AD JUMP JUMPDEST SWAP2 POP PUSH2 0x819 DUP4 PUSH2 0x5AD JUMP JUMPDEST SWAP3 POP DUP3 DUP3 SUB SWAP1 POP DUP2 DUP2 GT ISZERO PUSH2 0x831 JUMPI PUSH2 0x830 PUSH2 0x7D7 JUMP JUMPDEST JUMPDEST SWAP3 SWAP2 POP POP JUMP JUMPDEST PUSH32 0x4275792053756363657373210000000000000000000000000000000000000000 PUSH0 DUP3 ADD MSTORE POP JUMP JUMPDEST PUSH0 PUSH2 0x86B PUSH1 0xC DUP4 PUSH2 0x6AE JUMP JUMPDEST SWAP2 POP PUSH2 0x876 DUP3 PUSH2 0x837 JUMP JUMPDEST PUSH1 0x20 DUP3 ADD SWAP1 POP SWAP2 SWAP1 POP JUMP JUMPDEST PUSH32 0x5761746572000000000000000000000000000000000000000000000000000000 PUSH0 DUP3 ADD MSTORE POP JUMP JUMPDEST PUSH0 PUSH2 0x8B5 PUSH1 0x5 DUP4 PUSH2 0x6AE JUMP JUMPDEST SWAP2 POP PUSH2 0x8C0 DUP3 PUSH2 0x881 JUMP JUMPDEST PUSH1 0x20 DUP3 ADD SWAP1 POP SWAP2 SWAP1 POP JUMP JUMPDEST PUSH0 PUSH1 0x60 DUP3 ADD SWAP1 POP PUSH2 0x8DE PUSH0 DUP4 ADD DUP5 PUSH2 0x5B6 JUMP JUMPDEST DUP2 DUP2 SUB PUSH1 0x20 DUP4 ADD MSTORE PUSH2 0x8EF DUP2 PUSH2 0x85F JUMP JUMPDEST SWAP1 POP DUP2 DUP2 SUB PUSH1 0x40 DUP4 ADD MSTORE PUSH2 0x902 DUP2 PUSH2 0x8A9 JUMP JUMPDEST SWAP1 POP SWAP3 SWAP2 POP POP JUMP JUMPDEST PUSH32 0x53616C646F20616E6461206B7572616E672064617269206D696E696D756D2064 PUSH0 DUP3 ADD MSTORE PUSH32 0x65706F73697420283120776569292E0000000000000000000000000000000000 PUSH1 0x20 DUP3 ADD MSTORE POP JUMP JUMPDEST PUSH0 PUSH2 0x964 PUSH1 0x2F DUP4 PUSH2 0x6AE JUMP JUMPDEST SWAP2 POP PUSH2 0x96F DUP3 PUSH2 0x90A JUMP JUMPDEST PUSH1 0x40 DUP3 ADD SWAP1 POP SWAP2 SWAP1 POP JUMP JUMPDEST PUSH0 PUSH1 0x20 DUP3 ADD SWAP1 POP DUP2 DUP2 SUB PUSH0 DUP4 ADD MSTORE PUSH2 0x991 DUP2 PUSH2 0x958 JUMP JUMPDEST SWAP1 POP SWAP2 SWAP1 POP JUMP JUMPDEST PUSH0 PUSH2 0x9A2 DUP3 PUSH2 0x5AD JUMP JUMPDEST SWAP2 POP PUSH2 0x9AD DUP4 PUSH2 0x5AD JUMP JUMPDEST SWAP3 POP DUP3 DUP3 ADD SWAP1 POP DUP1 DUP3 GT ISZERO PUSH2 0x9C5 JUMPI PUSH2 0x9C4 PUSH2 0x7D7 JUMP JUMPDEST JUMPDEST SWAP3 SWAP2 POP POP JUMP JUMPDEST PUSH32 0x4465706F73697420537563636573732100000000000000000000000000000000 PUSH0 DUP3 ADD MSTORE POP JUMP JUMPDEST PUSH0 PUSH2 0x9FF PUSH1 0x10 DUP4 PUSH2 0x6AE JUMP JUMPDEST SWAP2 POP PUSH2 0xA0A DUP3 PUSH2 0x9CB JUMP JUMPDEST PUSH1 0x20 DUP3 ADD SWAP1 POP SWAP2 SWAP1 POP JUMP JUMPDEST PUSH0 PUSH1 0x60 DUP3 ADD SWAP1 POP PUSH2 0xA28 PUSH0 DUP4 ADD DUP6 PUSH2 0x5B6 JUMP JUMPDEST DUP2 DUP2 SUB PUSH1 0x20 DUP4 ADD MSTORE PUSH2 0xA39 DUP2 PUSH2 0x9F3 JUMP JUMPDEST SWAP1 POP PUSH2 0xA48 PUSH1 0x40 DUP4 ADD DUP5 PUSH2 0x5B6 JUMP JUMPDEST SWAP4 SWAP3 POP POP POP JUMP JUMPDEST PUSH0 DUP2 SWAP1 POP SWAP3 SWAP2 POP POP JUMP JUMPDEST PUSH32 0x596F75722062616C616E63653A20000000000000000000000000000000000000 PUSH0 DUP3 ADD MSTORE POP JUMP JUMPDEST PUSH0 PUSH2 0xA8D PUSH1 0xE DUP4 PUSH2 0xA4F JUMP JUMPDEST SWAP2 POP PUSH2 0xA98 DUP3 PUSH2 0xA59 JUMP JUMPDEST PUSH1 0xE DUP3 ADD SWAP1 POP SWAP2 SWAP1 POP JUMP JUMPDEST PUSH0 PUSH2 0xAAD DUP3 PUSH2 0x6A4 JUMP JUMPDEST PUSH2 0xAB7 DUP2 DUP6 PUSH2 0xA4F JUMP JUMPDEST SWAP4 POP PUSH2 0xAC7 DUP2 DUP6 PUSH1 0x20 DUP7 ADD PUSH2 0x6BE JUMP JUMPDEST DUP1 DUP5 ADD SWAP2 POP POP SWAP3 SWAP2 POP POP JUMP JUMPDEST PUSH32 0x2057656900000000000000000000000000000000000000000000000000000000 PUSH0 DUP3 ADD MSTORE POP JUMP JUMPDEST PUSH0 PUSH2 0xB07 PUSH1 0x4 DUP4 PUSH2 0xA4F JUMP JUMPDEST SWAP2 POP PUSH2 0xB12 DUP3 PUSH2 0xAD3 JUMP JUMPDEST PUSH1 0x4 DUP3 ADD SWAP1 POP SWAP2 SWAP1 POP JUMP JUMPDEST PUSH0 PUSH2 0xB27 DUP3 PUSH2 0xA81 JUMP JUMPDEST SWAP2 POP PUSH2 0xB33 DUP3 DUP5 PUSH2 0xAA3 JUMP JUMPDEST SWAP2 POP PUSH2 0xB3E DUP3 PUSH2 0xAFB JUMP JUMPDEST SWAP2 POP DUP2 SWAP1 POP SWAP3 SWAP2 POP POP JUMP JUMPDEST PUSH32 0x4E487B7100000000000000000000000000000000000000000000000000000000 PUSH0 MSTORE PUSH1 0x41 PUSH1 0x4 MSTORE PUSH1 0x24 PUSH0 REVERT JUMPDEST PUSH32 0x4E487B7100000000000000000000000000000000000000000000000000000000 PUSH0 MSTORE PUSH1 0x12 PUSH1 0x4 MSTORE PUSH1 0x24 PUSH0 REVERT INVALID LOG2 PUSH5 0x6970667358 0x22 SLT KECCAK256 MCOPY 0xDC ADDRESS 0x2C 0x28 CALLCODE 0xC0 SWAP10 0xBD SWAP1 PUSH19 0x9145F51EF45D593D4CBB0479FB4C182BD5748 PUSH27 0xC464736F6C634300081E0033000000000000000000000000000000 "
		},
		"gasEstimates": {
			"creation": {
				"codeDepositCost": "606600",
				"executionCost": "5735",
				"totalCost": "612335"
			},
			"external": {
				"buy(address,uint256)": "infinite",
				"deposit()": "infinite",
				"getBalance()": "2496"
			}
		},
		"methodIdentifiers": {
			"buy(address,uint256)": "cce7ec13",
			"deposit()": "d0e30db0",
			"getBalance()": "12065fe0"
		}
	},
	"abi": [
		{
			"inputs": [],
			"stateMutability": "nonpayable",
			"type": "constructor"
		},
		{
			"anonymous": false,
			"inputs": [
				{
					"indexed": true,
					"internalType": "address",
					"name": "user",
					"type": "address"
				},
				{
					"indexed": false,
					"internalType": "uint256",
					"name": "value",
					"type": "uint256"
				},
				{
					"indexed": false,
					"internalType": "string",
					"name": "message",
					"type": "string"
				},
				{
					"indexed": false,
					"internalType": "string",
					"name": "productEnum",
					"type": "string"
				}
			],
			"name": "BuyEvent",
			"type": "event"
		},
		{
			"anonymous": false,
			"inputs": [
				{
					"indexed": true,
					"internalType": "address",
					"name": "user",
					"type": "address"
				},
				{
					"indexed": false,
					"internalType": "uint256",
					"name": "value",
					"type": "uint256"
				},
				{
					"indexed": false,
					"internalType": "string",
					"name": "message",
					"type": "string"
				},
				{
					"indexed": false,
					"internalType": "uint256",
					"name": "timestamp",
					"type": "uint256"
				}
			],
			"name": "DepositEvent",
			"type": "event"
		},
		{
			"inputs": [
				{
					"internalType": "address",
					"name": "sender",
					"type": "address"
				},
				{
					"internalType": "uint256",
					"name": "value",
					"type": "uint256"
				}
			],
			"name": "buy",
			"outputs": [],
			"stateMutability": "payable",
			"type": "function"
		},
		{
			"inputs": [],
			"name": "deposit",
			"outputs": [
				{
					"internalType": "string",
					"name": "",
					"type": "string"
				},
				{
					"internalType": "string",
					"name": "",
					"type": "string"
				}
			],
			"stateMutability": "payable",
			"type": "function"
		},
		{
			"inputs": [],
			"name": "getBalance",
			"outputs": [
				{
					"internalType": "uint256",
					"name": "",
					"type": "uint256"
				}
			],
			"stateMutability": "view",
			"type": "function"
		}
	]
}