{
	"data": {
		"bytecode": {
			"linkReferences": {},
			"object": "608060405234801561000f575f5ffd5b5061001e61002560201b60201c565b5050610997565b606080633b9aca0034101561006f576040517f08c379a0000000000000000000000000000000000000000000000000000000008152600401610066906104d8565b60405180910390fd5b345f5f3373ffffffffffffffffffffffffffffffffffffffff1673ffffffffffffffffffffffffffffffffffffffff1681526020019081526020015f205f8282546100ba919061052c565b9250508190555060015f3373ffffffffffffffffffffffffffffffffffffffff1673ffffffffffffffffffffffffffffffffffffffff1681526020019081526020015f2060405180604001604052806040518060400160405280600781526020017f4465706f73697400000000000000000000000000000000000000000000000000815250815260200134815250908060018154018082558091505060019003905f5260205f2090600202015f909190919091505f820151815f0190816101819190610793565b506020820151816001015550506101d95f5f3373ffffffffffffffffffffffffffffffffffffffff1673ffffffffffffffffffffffffffffffffffffffff1681526020019081526020015f205461023760201b60201c565b6040516020016101e9919061093e565b6040516020818303038152906040526040518060400160405280601581526020017f596f7572204465706f736974205375636365737321000000000000000000000081525090915091509091565b60605f600161024b8461030760201b60201c565b0190505f8167ffffffffffffffff81111561026957610268610569565b5b6040519080825280601f01601f19166020018201604052801561029b5781602001600182028036833780820191505090505b5090505f82602083010190505b6001156102fc578080600190039150507f3031323334353637383961626364656600000000000000000000000000000000600a86061a8153600a85816102f1576102f061096a565b5b0494505f85036102a8575b819350505050919050565b5f5f5f90507a184f03e93ff9f4daa797ed6e38ed64bf6a1f0100000000000000008310610363577a184f03e93ff9f4daa797ed6e38ed64bf6a1f01000000000000000083816103595761035861096a565b5b0492506040810190505b6d04ee2d6d415b85acef810000000083106103a0576d04ee2d6d415b85acef810000000083816103965761039561096a565b5b0492506020810190505b662386f26fc1000083106103cf57662386f26fc1000083816103c5576103c461096a565b5b0492506010810190505b6305f5e10083106103f8576305f5e10083816103ee576103ed61096a565b5b0492506008810190505b612710831061041d5761271083816104135761041261096a565b5b0492506004810190505b6064831061044057606483816104365761043561096a565b5b0492506002810190505b600a831061044f576001810190505b80915050919050565b5f82825260208201905092915050565b7f53616c646f20616e6461206b7572616e672064617269206d696e696d756d20645f8201527f65706f7369742028312067776569292e00000000000000000000000000000000602082015250565b5f6104c2603083610458565b91506104cd82610468565b604082019050919050565b5f6020820190508181035f8301526104ef816104b6565b9050919050565b5f819050919050565b7f4e487b71000000000000000000000000000000000000000000000000000000005f52601160045260245ffd5b5f610536826104f6565b9150610541836104f6565b9250828201905080821115610559576105586104ff565b5b92915050565b5f81519050919050565b7f4e487b71000000000000000000000000000000000000000000000000000000005f52604160045260245ffd5b7f4e487b71000000000000000000000000000000000000000000000000000000005f52602260045260245ffd5b5f60028204905060018216806105da57607f821691505b6020821081036105ed576105ec610596565b5b50919050565b5f819050815f5260205f209050919050565b5f6020601f8301049050919050565b5f82821b905092915050565b5f6008830261064f7fffffffffffffffffffffffffffffffffffffffffffffffffffffffffffffffff82610614565b6106598683610614565b95508019841693508086168417925050509392505050565b5f819050919050565b5f61069461068f61068a846104f6565b610671565b6104f6565b9050919050565b5f819050919050565b6106ad8361067a565b6106c16106b98261069b565b848454610620565b825550505050565b5f5f905090565b6106d86106c9565b6106e38184846106a4565b505050565b5b81811015610706576106fb5f826106d0565b6001810190506106e9565b5050565b601f82111561074b5761071c816105f3565b61072584610605565b81016020851015610734578190505b61074861074085610605565b8301826106e8565b50505b505050565b5f82821c905092915050565b5f61076b5f1984600802610750565b1980831691505092915050565b5f610783838361075c565b9150826002028217905092915050565b61079c8261055f565b67ffffffffffffffff8111156107b5576107b4610569565b5b6107bf82546105c3565b6107ca82828561070a565b5f60209050601f8311600181146107fb575f84156107e9578287015190505b6107f38582610778565b86555061085a565b601f198416610809866105f3565b5f5b828110156108305784890151825560018201915060208501945060208101905061080b565b8683101561084d5784890151610849601f89168261075c565b8355505b6001600288020188555050505b505050505050565b5f81905092915050565b7f596f75722062616c616e63653a200000000000000000000000000000000000005f82015250565b5f6108a0600e83610862565b91506108ab8261086c565b600e82019050919050565b8281835e5f83830152505050565b5f6108ce8261055f565b6108d88185610862565b93506108e88185602086016108b6565b80840191505092915050565b7f20576569000000000000000000000000000000000000000000000000000000005f82015250565b5f610928600483610862565b9150610933826108f4565b600482019050919050565b5f61094882610894565b915061095482846108c4565b915061095f8261091c565b915081905092915050565b7f4e487b71000000000000000000000000000000000000000000000000000000005f52601260045260245ffd5b610c7b806109a45f395ff3fe608060405260043610610033575f3560e01c80631453812814610037578063a6f2ae3a14610074578063d0e30db01461007e575b5f5ffd5b348015610042575f5ffd5b5061005d60048036038101906100589190610617565b61009d565b60405161006b9291906106d4565b60405180910390f35b61007c61015d565b005b61008661015f565b604051610094929190610702565b60405180910390f35b6001602052815f5260405f2081815481106100b6575f80fd5b905f5260205f2090600202015f9150915050805f0180546100d690610764565b80601f016020809104026020016040519081016040528092919081815260200182805461010290610764565b801561014d5780601f106101245761010080835404028352916020019161014d565b820191905f5260205f20905b81548152906001019060200180831161013057829003601f168201915b5050505050908060010154905082565b565b606080633b9aca003410156101a9576040517f08c379a00000000000000000000000000000000000000000000000000000000081526004016101a090610804565b60405180910390fd5b345f5f3373ffffffffffffffffffffffffffffffffffffffff1673ffffffffffffffffffffffffffffffffffffffff1681526020019081526020015f205f8282546101f4919061084f565b9250508190555060015f3373ffffffffffffffffffffffffffffffffffffffff1673ffffffffffffffffffffffffffffffffffffffff1681526020019081526020015f2060405180604001604052806040518060400160405280600781526020017f4465706f73697400000000000000000000000000000000000000000000000000815250815260200134815250908060018154018082558091505060019003905f5260205f2090600202015f909190919091505f820151815f0190816102bb9190610a4f565b5060208201518160010155505061030d5f5f3373ffffffffffffffffffffffffffffffffffffffff1673ffffffffffffffffffffffffffffffffffffffff1681526020019081526020015f205461036b565b60405160200161031d9190610bec565b6040516020818303038152906040526040518060400160405280601581526020017f596f7572204465706f736974205375636365737321000000000000000000000081525090915091509091565b60605f600161037984610435565b0190505f8167ffffffffffffffff81111561039757610396610882565b5b6040519080825280601f01601f1916602001820160405280156103c95781602001600182028036833780820191505090505b5090505f82602083010190505b60011561042a578080600190039150507f3031323334353637383961626364656600000000000000000000000000000000600a86061a8153600a858161041f5761041e610c18565b5b0494505f85036103d6575b819350505050919050565b5f5f5f90507a184f03e93ff9f4daa797ed6e38ed64bf6a1f0100000000000000008310610491577a184f03e93ff9f4daa797ed6e38ed64bf6a1f010000000000000000838161048757610486610c18565b5b0492506040810190505b6d04ee2d6d415b85acef810000000083106104ce576d04ee2d6d415b85acef810000000083816104c4576104c3610c18565b5b0492506020810190505b662386f26fc1000083106104fd57662386f26fc1000083816104f3576104f2610c18565b5b0492506010810190505b6305f5e1008310610526576305f5e100838161051c5761051b610c18565b5b0492506008810190505b612710831061054b57612710838161054157610540610c18565b5b0492506004810190505b6064831061056e576064838161056457610563610c18565b5b0492506002810190505b600a831061057d576001810190505b80915050919050565b5f5ffd5b5f73ffffffffffffffffffffffffffffffffffffffff82169050919050565b5f6105b38261058a565b9050919050565b6105c3816105a9565b81146105cd575f5ffd5b50565b5f813590506105de816105ba565b92915050565b5f819050919050565b6105f6816105e4565b8114610600575f5ffd5b50565b5f81359050610611816105ed565b92915050565b5f5f6040838503121561062d5761062c610586565b5b5f61063a858286016105d0565b925050602061064b85828601610603565b9150509250929050565b5f81519050919050565b5f82825260208201905092915050565b8281835e5f83830152505050565b5f601f19601f8301169050919050565b5f61069782610655565b6106a1818561065f565b93506106b181856020860161066f565b6106ba8161067d565b840191505092915050565b6106ce816105e4565b82525050565b5f6040820190508181035f8301526106ec818561068d565b90506106fb60208301846106c5565b9392505050565b5f6040820190508181035f83015261071a818561068d565b9050818103602083015261072e818461068d565b90509392505050565b7f4e487b71000000000000000000000000000000000000000000000000000000005f52602260045260245ffd5b5f600282049050600182168061077b57607f821691505b60208210810361078e5761078d610737565b5b50919050565b7f53616c646f20616e6461206b7572616e672064617269206d696e696d756d20645f8201527f65706f7369742028312067776569292e00000000000000000000000000000000602082015250565b5f6107ee60308361065f565b91506107f982610794565b604082019050919050565b5f6020820190508181035f83015261081b816107e2565b9050919050565b7f4e487b71000000000000000000000000000000000000000000000000000000005f52601160045260245ffd5b5f610859826105e4565b9150610864836105e4565b925082820190508082111561087c5761087b610822565b5b92915050565b7f4e487b71000000000000000000000000000000000000000000000000000000005f52604160045260245ffd5b5f819050815f5260205f209050919050565b5f6020601f8301049050919050565b5f82821b905092915050565b5f6008830261090b7fffffffffffffffffffffffffffffffffffffffffffffffffffffffffffffffff826108d0565b61091586836108d0565b95508019841693508086168417925050509392505050565b5f819050919050565b5f61095061094b610946846105e4565b61092d565b6105e4565b9050919050565b5f819050919050565b61096983610936565b61097d61097582610957565b8484546108dc565b825550505050565b5f5f905090565b610994610985565b61099f818484610960565b505050565b5b818110156109c2576109b75f8261098c565b6001810190506109a5565b5050565b601f821115610a07576109d8816108af565b6109e1846108c1565b810160208510156109f0578190505b610a046109fc856108c1565b8301826109a4565b50505b505050565b5f82821c905092915050565b5f610a275f1984600802610a0c565b1980831691505092915050565b5f610a3f8383610a18565b9150826002028217905092915050565b610a5882610655565b67ffffffffffffffff811115610a7157610a70610882565b5b610a7b8254610764565b610a868282856109c6565b5f60209050601f831160018114610ab7575f8415610aa5578287015190505b610aaf8582610a34565b865550610b16565b601f198416610ac5866108af565b5f5b82811015610aec57848901518255600182019150602085019450602081019050610ac7565b86831015610b095784890151610b05601f891682610a18565b8355505b6001600288020188555050505b505050505050565b5f81905092915050565b7f596f75722062616c616e63653a200000000000000000000000000000000000005f82015250565b5f610b5c600e83610b1e565b9150610b6782610b28565b600e82019050919050565b5f610b7c82610655565b610b868185610b1e565b9350610b9681856020860161066f565b80840191505092915050565b7f20576569000000000000000000000000000000000000000000000000000000005f82015250565b5f610bd6600483610b1e565b9150610be182610ba2565b600482019050919050565b5f610bf682610b50565b9150610c028284610b72565b9150610c0d82610bca565b915081905092915050565b7f4e487b71000000000000000000000000000000000000000000000000000000005f52601260045260245ffdfea2646970667358221220fc52d622eb51e1215b899b757ad0b51b56e272e49f5466804a183de72d18e81764736f6c634300081e0033",
			"opcodes": "PUSH1 0x80 PUSH1 0x40 MSTORE CALLVALUE DUP1 ISZERO PUSH2 0xF JUMPI PUSH0 PUSH0 REVERT JUMPDEST POP PUSH2 0x1E PUSH2 0x25 PUSH1 0x20 SHL PUSH1 0x20 SHR JUMP JUMPDEST POP POP PUSH2 0x997 JUMP JUMPDEST PUSH1 0x60 DUP1 PUSH4 0x3B9ACA00 CALLVALUE LT ISZERO PUSH2 0x6F JUMPI PUSH1 0x40 MLOAD PUSH32 0x8C379A000000000000000000000000000000000000000000000000000000000 DUP2 MSTORE PUSH1 0x4 ADD PUSH2 0x66 SWAP1 PUSH2 0x4D8 JUMP JUMPDEST PUSH1 0x40 MLOAD DUP1 SWAP2 SUB SWAP1 REVERT JUMPDEST CALLVALUE PUSH0 PUSH0 CALLER PUSH20 0xFFFFFFFFFFFFFFFFFFFFFFFFFFFFFFFFFFFFFFFF AND PUSH20 0xFFFFFFFFFFFFFFFFFFFFFFFFFFFFFFFFFFFFFFFF AND DUP2 MSTORE PUSH1 0x20 ADD SWAP1 DUP2 MSTORE PUSH1 0x20 ADD PUSH0 KECCAK256 PUSH0 DUP3 DUP3 SLOAD PUSH2 0xBA SWAP2 SWAP1 PUSH2 0x52C JUMP JUMPDEST SWAP3 POP POP DUP2 SWAP1 SSTORE POP PUSH1 0x1 PUSH0 CALLER PUSH20 0xFFFFFFFFFFFFFFFFFFFFFFFFFFFFFFFFFFFFFFFF AND PUSH20 0xFFFFFFFFFFFFFFFFFFFFFFFFFFFFFFFFFFFFFFFF AND DUP2 MSTORE PUSH1 0x20 ADD SWAP1 DUP2 MSTORE PUSH1 0x20 ADD PUSH0 KECCAK256 PUSH1 0x40 MLOAD DUP1 PUSH1 0x40 ADD PUSH1 0x40 MSTORE DUP1 PUSH1 0x40 MLOAD DUP1 PUSH1 0x40 ADD PUSH1 0x40 MSTORE DUP1 PUSH1 0x7 DUP2 MSTORE PUSH1 0x20 ADD PUSH32 0x4465706F73697400000000000000000000000000000000000000000000000000 DUP2 MSTORE POP DUP2 MSTORE PUSH1 0x20 ADD CALLVALUE DUP2 MSTORE POP SWAP1 DUP1 PUSH1 0x1 DUP2 SLOAD ADD DUP1 DUP3 SSTORE DUP1 SWAP2 POP POP PUSH1 0x1 SWAP1 SUB SWAP1 PUSH0 MSTORE PUSH1 0x20 PUSH0 KECCAK256 SWAP1 PUSH1 0x2 MUL ADD PUSH0 SWAP1 SWAP2 SWAP1 SWAP2 SWAP1 SWAP2 POP PUSH0 DUP3 ADD MLOAD DUP2 PUSH0 ADD SWAP1 DUP2 PUSH2 0x181 SWAP2 SWAP1 PUSH2 0x793 JUMP JUMPDEST POP PUSH1 0x20 DUP3 ADD MLOAD DUP2 PUSH1 0x1 ADD SSTORE POP POP PUSH2 0x1D9 PUSH0 PUSH0 CALLER PUSH20 0xFFFFFFFFFFFFFFFFFFFFFFFFFFFFFFFFFFFFFFFF AND PUSH20 0xFFFFFFFFFFFFFFFFFFFFFFFFFFFFFFFFFFFFFFFF AND DUP2 MSTORE PUSH1 0x20 ADD SWAP1 DUP2 MSTORE PUSH1 0x20 ADD PUSH0 KECCAK256 SLOAD PUSH2 0x237 PUSH1 0x20 SHL PUSH1 0x20 SHR JUMP JUMPDEST PUSH1 0x40 MLOAD PUSH1 0x20 ADD PUSH2 0x1E9 SWAP2 SWAP1 PUSH2 0x93E JUMP JUMPDEST PUSH1 0x40 MLOAD PUSH1 0x20 DUP2 DUP4 SUB SUB DUP2 MSTORE SWAP1 PUSH1 0x40 MSTORE PUSH1 0x40 MLOAD DUP1 PUSH1 0x40 ADD PUSH1 0x40 MSTORE DUP1 PUSH1 0x15 DUP2 MSTORE PUSH1 0x20 ADD PUSH32 0x596F7572204465706F7369742053756363657373210000000000000000000000 DUP2 MSTORE POP SWAP1 SWAP2 POP SWAP2 POP SWAP1 SWAP2 JUMP JUMPDEST PUSH1 0x60 PUSH0 PUSH1 0x1 PUSH2 0x24B DUP5 PUSH2 0x307 PUSH1 0x20 SHL PUSH1 0x20 SHR JUMP JUMPDEST ADD SWAP1 POP PUSH0 DUP2 PUSH8 0xFFFFFFFFFFFFFFFF DUP2 GT ISZERO PUSH2 0x269 JUMPI PUSH2 0x268 PUSH2 0x569 JUMP JUMPDEST JUMPDEST PUSH1 0x40 MLOAD SWAP1 DUP1 DUP3 MSTORE DUP1 PUSH1 0x1F ADD PUSH1 0x1F NOT AND PUSH1 0x20 ADD DUP3 ADD PUSH1 0x40 MSTORE DUP1 ISZERO PUSH2 0x29B JUMPI DUP2 PUSH1 0x20 ADD PUSH1 0x1 DUP3 MUL DUP1 CALLDATASIZE DUP4 CALLDATACOPY DUP1 DUP3 ADD SWAP2 POP POP SWAP1 POP JUMPDEST POP SWAP1 POP PUSH0 DUP3 PUSH1 0x20 DUP4 ADD ADD SWAP1 POP JUMPDEST PUSH1 0x1 ISZERO PUSH2 0x2FC JUMPI DUP1 DUP1 PUSH1 0x1 SWAP1 SUB SWAP2 POP POP PUSH32 0x3031323334353637383961626364656600000000000000000000000000000000 PUSH1 0xA DUP7 MOD BYTE DUP2 MSTORE8 PUSH1 0xA DUP6 DUP2 PUSH2 0x2F1 JUMPI PUSH2 0x2F0 PUSH2 0x96A JUMP JUMPDEST JUMPDEST DIV SWAP5 POP PUSH0 DUP6 SUB PUSH2 0x2A8 JUMPI JUMPDEST DUP2 SWAP4 POP POP POP POP SWAP2 SWAP1 POP JUMP JUMPDEST PUSH0 PUSH0 PUSH0 SWAP1 POP PUSH27 0x184F03E93FF9F4DAA797ED6E38ED64BF6A1F010000000000000000 DUP4 LT PUSH2 0x363 JUMPI PUSH27 0x184F03E93FF9F4DAA797ED6E38ED64BF6A1F010000000000000000 DUP4 DUP2 PUSH2 0x359 JUMPI PUSH2 0x358 PUSH2 0x96A JUMP JUMPDEST JUMPDEST DIV SWAP3 POP PUSH1 0x40 DUP2 ADD SWAP1 POP JUMPDEST PUSH14 0x4EE2D6D415B85ACEF8100000000 DUP4 LT PUSH2 0x3A0 JUMPI PUSH14 0x4EE2D6D415B85ACEF8100000000 DUP4 DUP2 PUSH2 0x396 JUMPI PUSH2 0x395 PUSH2 0x96A JUMP JUMPDEST JUMPDEST DIV SWAP3 POP PUSH1 0x20 DUP2 ADD SWAP1 POP JUMPDEST PUSH7 0x2386F26FC10000 DUP4 LT PUSH2 0x3CF JUMPI PUSH7 0x2386F26FC10000 DUP4 DUP2 PUSH2 0x3C5 JUMPI PUSH2 0x3C4 PUSH2 0x96A JUMP JUMPDEST JUMPDEST DIV SWAP3 POP PUSH1 0x10 DUP2 ADD SWAP1 POP JUMPDEST PUSH4 0x5F5E100 DUP4 LT PUSH2 0x3F8 JUMPI PUSH4 0x5F5E100 DUP4 DUP2 PUSH2 0x3EE JUMPI PUSH2 0x3ED PUSH2 0x96A JUMP JUMPDEST JUMPDEST DIV SWAP3 POP PUSH1 0x8 DUP2 ADD SWAP1 POP JUMPDEST PUSH2 0x2710 DUP4 LT PUSH2 0x41D JUMPI PUSH2 0x2710 DUP4 DUP2 PUSH2 0x413 JUMPI PUSH2 0x412 PUSH2 0x96A JUMP JUMPDEST JUMPDEST DIV SWAP3 POP PUSH1 0x4 DUP2 ADD SWAP1 POP JUMPDEST PUSH1 0x64 DUP4 LT PUSH2 0x440 JUMPI PUSH1 0x64 DUP4 DUP2 PUSH2 0x436 JUMPI PUSH2 0x435 PUSH2 0x96A JUMP JUMPDEST JUMPDEST DIV SWAP3 POP PUSH1 0x2 DUP2 ADD SWAP1 POP JUMPDEST PUSH1 0xA DUP4 LT PUSH2 0x44F JUMPI PUSH1 0x1 DUP2 ADD SWAP1 POP JUMPDEST DUP1 SWAP2 POP POP SWAP2 SWAP1 POP JUMP JUMPDEST PUSH0 DUP3 DUP3 MSTORE PUSH1 0x20 DUP3 ADD SWAP1 POP SWAP3 SWAP2 POP POP JUMP JUMPDEST PUSH32 0x53616C646F20616E6461206B7572616E672064617269206D696E696D756D2064 PUSH0 DUP3 ADD MSTORE PUSH32 0x65706F7369742028312067776569292E00000000000000000000000000000000 PUSH1 0x20 DUP3 ADD MSTORE POP JUMP JUMPDEST PUSH0 PUSH2 0x4C2 PUSH1 0x30 DUP4 PUSH2 0x458 JUMP JUMPDEST SWAP2 POP PUSH2 0x4CD DUP3 PUSH2 0x468 JUMP JUMPDEST PUSH1 0x40 DUP3 ADD SWAP1 POP SWAP2 SWAP1 POP JUMP JUMPDEST PUSH0 PUSH1 0x20 DUP3 ADD SWAP1 POP DUP2 DUP2 SUB PUSH0 DUP4 ADD MSTORE PUSH2 0x4EF DUP2 PUSH2 0x4B6 JUMP JUMPDEST SWAP1 POP SWAP2 SWAP1 POP JUMP JUMPDEST PUSH0 DUP2 SWAP1 POP SWAP2 SWAP1 POP JUMP JUMPDEST PUSH32 0x4E487B7100000000000000000000000000000000000000000000000000000000 PUSH0 MSTORE PUSH1 0x11 PUSH1 0x4 MSTORE PUSH1 0x24 PUSH0 REVERT JUMPDEST PUSH0 PUSH2 0x536 DUP3 PUSH2 0x4F6 JUMP JUMPDEST SWAP2 POP PUSH2 0x541 DUP4 PUSH2 0x4F6 JUMP JUMPDEST SWAP3 POP DUP3 DUP3 ADD SWAP1 POP DUP1 DUP3 GT ISZERO PUSH2 0x559 JUMPI PUSH2 0x558 PUSH2 0x4FF JUMP JUMPDEST JUMPDEST SWAP3 SWAP2 POP POP JUMP JUMPDEST PUSH0 DUP2 MLOAD SWAP1 POP SWAP2 SWAP1 POP JUMP JUMPDEST PUSH32 0x4E487B7100000000000000000000000000000000000000000000000000000000 PUSH0 MSTORE PUSH1 0x41 PUSH1 0x4 MSTORE PUSH1 0x24 PUSH0 REVERT JUMPDEST PUSH32 0x4E487B7100000000000000000000000000000000000000000000000000000000 PUSH0 MSTORE PUSH1 0x22 PUSH1 0x4 MSTORE PUSH1 0x24 PUSH0 REVERT JUMPDEST PUSH0 PUSH1 0x2 DUP3 DIV SWAP1 POP PUSH1 0x1 DUP3 AND DUP1 PUSH2 0x5DA JUMPI PUSH1 0x7F DUP3 AND SWAP2 POP JUMPDEST PUSH1 0x20 DUP3 LT DUP2 SUB PUSH2 0x5ED JUMPI PUSH2 0x5EC PUSH2 0x596 JUMP JUMPDEST JUMPDEST POP SWAP2 SWAP1 POP JUMP JUMPDEST PUSH0 DUP2 SWAP1 POP DUP2 PUSH0 MSTORE PUSH1 0x20 PUSH0 KECCAK256 SWAP1 POP SWAP2 SWAP1 POP JUMP JUMPDEST PUSH0 PUSH1 0x20 PUSH1 0x1F DUP4 ADD DIV SWAP1 POP SWAP2 SWAP1 POP JUMP JUMPDEST PUSH0 DUP3 DUP3 SHL SWAP1 POP SWAP3 SWAP2 POP POP JUMP JUMPDEST PUSH0 PUSH1 0x8 DUP4 MUL PUSH2 0x64F PUSH32 0xFFFFFFFFFFFFFFFFFFFFFFFFFFFFFFFFFFFFFFFFFFFFFFFFFFFFFFFFFFFFFFFF DUP3 PUSH2 0x614 JUMP JUMPDEST PUSH2 0x659 DUP7 DUP4 PUSH2 0x614 JUMP JUMPDEST SWAP6 POP DUP1 NOT DUP5 AND SWAP4 POP DUP1 DUP7 AND DUP5 OR SWAP3 POP POP POP SWAP4 SWAP3 POP POP POP JUMP JUMPDEST PUSH0 DUP2 SWAP1 POP SWAP2 SWAP1 POP JUMP JUMPDEST PUSH0 PUSH2 0x694 PUSH2 0x68F PUSH2 0x68A DUP5 PUSH2 0x4F6 JUMP JUMPDEST PUSH2 0x671 JUMP JUMPDEST PUSH2 0x4F6 JUMP JUMPDEST SWAP1 POP SWAP2 SWAP1 POP JUMP JUMPDEST PUSH0 DUP2 SWAP1 POP SWAP2 SWAP1 POP JUMP JUMPDEST PUSH2 0x6AD DUP4 PUSH2 0x67A JUMP JUMPDEST PUSH2 0x6C1 PUSH2 0x6B9 DUP3 PUSH2 0x69B JUMP JUMPDEST DUP5 DUP5 SLOAD PUSH2 0x620 JUMP JUMPDEST DUP3 SSTORE POP POP POP POP JUMP JUMPDEST PUSH0 PUSH0 SWAP1 POP SWAP1 JUMP JUMPDEST PUSH2 0x6D8 PUSH2 0x6C9 JUMP JUMPDEST PUSH2 0x6E3 DUP2 DUP5 DUP5 PUSH2 0x6A4 JUMP JUMPDEST POP POP POP JUMP JUMPDEST JUMPDEST DUP2 DUP2 LT ISZERO PUSH2 0x706 JUMPI PUSH2 0x6FB PUSH0 DUP3 PUSH2 0x6D0 JUMP JUMPDEST PUSH1 0x1 DUP2 ADD SWAP1 POP PUSH2 0x6E9 JUMP JUMPDEST POP POP JUMP JUMPDEST PUSH1 0x1F DUP3 GT ISZERO PUSH2 0x74B JUMPI PUSH2 0x71C DUP2 PUSH2 0x5F3 JUMP JUMPDEST PUSH2 0x725 DUP5 PUSH2 0x605 JUMP JUMPDEST DUP2 ADD PUSH1 0x20 DUP6 LT ISZERO PUSH2 0x734 JUMPI DUP2 SWAP1 POP JUMPDEST PUSH2 0x748 PUSH2 0x740 DUP6 PUSH2 0x605 JUMP JUMPDEST DUP4 ADD DUP3 PUSH2 0x6E8 JUMP JUMPDEST POP POP JUMPDEST POP POP POP JUMP JUMPDEST PUSH0 DUP3 DUP3 SHR SWAP1 POP SWAP3 SWAP2 POP POP JUMP JUMPDEST PUSH0 PUSH2 0x76B PUSH0 NOT DUP5 PUSH1 0x8 MUL PUSH2 0x750 JUMP JUMPDEST NOT DUP1 DUP4 AND SWAP2 POP POP SWAP3 SWAP2 POP POP JUMP JUMPDEST PUSH0 PUSH2 0x783 DUP4 DUP4 PUSH2 0x75C JUMP JUMPDEST SWAP2 POP DUP3 PUSH1 0x2 MUL DUP3 OR SWAP1 POP SWAP3 SWAP2 POP POP JUMP JUMPDEST PUSH2 0x79C DUP3 PUSH2 0x55F JUMP JUMPDEST PUSH8 0xFFFFFFFFFFFFFFFF DUP2 GT ISZERO PUSH2 0x7B5 JUMPI PUSH2 0x7B4 PUSH2 0x569 JUMP JUMPDEST JUMPDEST PUSH2 0x7BF DUP3 SLOAD PUSH2 0x5C3 JUMP JUMPDEST PUSH2 0x7CA DUP3 DUP3 DUP6 PUSH2 0x70A JUMP JUMPDEST PUSH0 PUSH1 0x20 SWAP1 POP PUSH1 0x1F DUP4 GT PUSH1 0x1 DUP2 EQ PUSH2 0x7FB JUMPI PUSH0 DUP5 ISZERO PUSH2 0x7E9 JUMPI DUP3 DUP8 ADD MLOAD SWAP1 POP JUMPDEST PUSH2 0x7F3 DUP6 DUP3 PUSH2 0x778 JUMP JUMPDEST DUP7 SSTORE POP PUSH2 0x85A JUMP JUMPDEST PUSH1 0x1F NOT DUP5 AND PUSH2 0x809 DUP7 PUSH2 0x5F3 JUMP JUMPDEST PUSH0 JUMPDEST DUP3 DUP2 LT ISZERO PUSH2 0x830 JUMPI DUP5 DUP10 ADD MLOAD DUP3 SSTORE PUSH1 0x1 DUP3 ADD SWAP2 POP PUSH1 0x20 DUP6 ADD SWAP5 POP PUSH1 0x20 DUP2 ADD SWAP1 POP PUSH2 0x80B JUMP JUMPDEST DUP7 DUP4 LT ISZERO PUSH2 0x84D JUMPI DUP5 DUP10 ADD MLOAD PUSH2 0x849 PUSH1 0x1F DUP10 AND DUP3 PUSH2 0x75C JUMP JUMPDEST DUP4 SSTORE POP JUMPDEST PUSH1 0x1 PUSH1 0x2 DUP9 MUL ADD DUP9 SSTORE POP POP POP JUMPDEST POP POP POP POP POP POP JUMP JUMPDEST PUSH0 DUP2 SWAP1 POP SWAP3 SWAP2 POP POP JUMP JUMPDEST PUSH32 0x596F75722062616C616E63653A20000000000000000000000000000000000000 PUSH0 DUP3 ADD MSTORE POP JUMP JUMPDEST PUSH0 PUSH2 0x8A0 PUSH1 0xE DUP4 PUSH2 0x862 JUMP JUMPDEST SWAP2 POP PUSH2 0x8AB DUP3 PUSH2 0x86C JUMP JUMPDEST PUSH1 0xE DUP3 ADD SWAP1 POP SWAP2 SWAP1 POP JUMP JUMPDEST DUP3 DUP2 DUP4 MCOPY PUSH0 DUP4 DUP4 ADD MSTORE POP POP POP JUMP JUMPDEST PUSH0 PUSH2 0x8CE DUP3 PUSH2 0x55F JUMP JUMPDEST PUSH2 0x8D8 DUP2 DUP6 PUSH2 0x862 JUMP JUMPDEST SWAP4 POP PUSH2 0x8E8 DUP2 DUP6 PUSH1 0x20 DUP7 ADD PUSH2 0x8B6 JUMP JUMPDEST DUP1 DUP5 ADD SWAP2 POP POP SWAP3 SWAP2 POP POP JUMP JUMPDEST PUSH32 0x2057656900000000000000000000000000000000000000000000000000000000 PUSH0 DUP3 ADD MSTORE POP JUMP JUMPDEST PUSH0 PUSH2 0x928 PUSH1 0x4 DUP4 PUSH2 0x862 JUMP JUMPDEST SWAP2 POP PUSH2 0x933 DUP3 PUSH2 0x8F4 JUMP JUMPDEST PUSH1 0x4 DUP3 ADD SWAP1 POP SWAP2 SWAP1 POP JUMP JUMPDEST PUSH0 PUSH2 0x948 DUP3 PUSH2 0x894 JUMP JUMPDEST SWAP2 POP PUSH2 0x954 DUP3 DUP5 PUSH2 0x8C4 JUMP JUMPDEST SWAP2 POP PUSH2 0x95F DUP3 PUSH2 0x91C JUMP JUMPDEST SWAP2 POP DUP2 SWAP1 POP SWAP3 SWAP2 POP POP JUMP JUMPDEST PUSH32 0x4E487B7100000000000000000000000000000000000000000000000000000000 PUSH0 MSTORE PUSH1 0x12 PUSH1 0x4 MSTORE PUSH1 0x24 PUSH0 REVERT JUMPDEST PUSH2 0xC7B DUP1 PUSH2 0x9A4 PUSH0 CODECOPY PUSH0 RETURN INVALID PUSH1 0x80 PUSH1 0x40 MSTORE PUSH1 0x4 CALLDATASIZE LT PUSH2 0x33 JUMPI PUSH0 CALLDATALOAD PUSH1 0xE0 SHR DUP1 PUSH4 0x14538128 EQ PUSH2 0x37 JUMPI DUP1 PUSH4 0xA6F2AE3A EQ PUSH2 0x74 JUMPI DUP1 PUSH4 0xD0E30DB0 EQ PUSH2 0x7E JUMPI JUMPDEST PUSH0 PUSH0 REVERT JUMPDEST CALLVALUE DUP1 ISZERO PUSH2 0x42 JUMPI PUSH0 PUSH0 REVERT JUMPDEST POP PUSH2 0x5D PUSH1 0x4 DUP1 CALLDATASIZE SUB DUP2 ADD SWAP1 PUSH2 0x58 SWAP2 SWAP1 PUSH2 0x617 JUMP JUMPDEST PUSH2 0x9D JUMP JUMPDEST PUSH1 0x40 MLOAD PUSH2 0x6B SWAP3 SWAP2 SWAP1 PUSH2 0x6D4 JUMP JUMPDEST PUSH1 0x40 MLOAD DUP1 SWAP2 SUB SWAP1 RETURN JUMPDEST PUSH2 0x7C PUSH2 0x15D JUMP JUMPDEST STOP JUMPDEST PUSH2 0x86 PUSH2 0x15F JUMP JUMPDEST PUSH1 0x40 MLOAD PUSH2 0x94 SWAP3 SWAP2 SWAP1 PUSH2 0x702 JUMP JUMPDEST PUSH1 0x40 MLOAD DUP1 SWAP2 SUB SWAP1 RETURN JUMPDEST PUSH1 0x1 PUSH1 0x20 MSTORE DUP2 PUSH0 MSTORE PUSH1 0x40 PUSH0 KECCAK256 DUP2 DUP2 SLOAD DUP2 LT PUSH2 0xB6 JUMPI PUSH0 DUP1 REVERT JUMPDEST SWAP1 PUSH0 MSTORE PUSH1 0x20 PUSH0 KECCAK256 SWAP1 PUSH1 0x2 MUL ADD PUSH0 SWAP2 POP SWAP2 POP POP DUP1 PUSH0 ADD DUP1 SLOAD PUSH2 0xD6 SWAP1 PUSH2 0x764 JUMP JUMPDEST DUP1 PUSH1 0x1F ADD PUSH1 0x20 DUP1 SWAP2 DIV MUL PUSH1 0x20 ADD PUSH1 0x40 MLOAD SWAP1 DUP2 ADD PUSH1 0x40 MSTORE DUP1 SWAP3 SWAP2 SWAP1 DUP2 DUP2 MSTORE PUSH1 0x20 ADD DUP3 DUP1 SLOAD PUSH2 0x102 SWAP1 PUSH2 0x764 JUMP JUMPDEST DUP1 ISZERO PUSH2 0x14D JUMPI DUP1 PUSH1 0x1F LT PUSH2 0x124 JUMPI PUSH2 0x100 DUP1 DUP4 SLOAD DIV MUL DUP4 MSTORE SWAP2 PUSH1 0x20 ADD SWAP2 PUSH2 0x14D JUMP JUMPDEST DUP3 ADD SWAP2 SWAP1 PUSH0 MSTORE PUSH1 0x20 PUSH0 KECCAK256 SWAP1 JUMPDEST DUP2 SLOAD DUP2 MSTORE SWAP1 PUSH1 0x1 ADD SWAP1 PUSH1 0x20 ADD DUP1 DUP4 GT PUSH2 0x130 JUMPI DUP3 SWAP1 SUB PUSH1 0x1F AND DUP3 ADD SWAP2 JUMPDEST POP POP POP POP POP SWAP1 DUP1 PUSH1 0x1 ADD SLOAD SWAP1 POP DUP3 JUMP JUMPDEST JUMP JUMPDEST PUSH1 0x60 DUP1 PUSH4 0x3B9ACA00 CALLVALUE LT ISZERO PUSH2 0x1A9 JUMPI PUSH1 0x40 MLOAD PUSH32 0x8C379A000000000000000000000000000000000000000000000000000000000 DUP2 MSTORE PUSH1 0x4 ADD PUSH2 0x1A0 SWAP1 PUSH2 0x804 JUMP JUMPDEST PUSH1 0x40 MLOAD DUP1 SWAP2 SUB SWAP1 REVERT JUMPDEST CALLVALUE PUSH0 PUSH0 CALLER PUSH20 0xFFFFFFFFFFFFFFFFFFFFFFFFFFFFFFFFFFFFFFFF AND PUSH20 0xFFFFFFFFFFFFFFFFFFFFFFFFFFFFFFFFFFFFFFFF AND DUP2 MSTORE PUSH1 0x20 ADD SWAP1 DUP2 MSTORE PUSH1 0x20 ADD PUSH0 KECCAK256 PUSH0 DUP3 DUP3 SLOAD PUSH2 0x1F4 SWAP2 SWAP1 PUSH2 0x84F JUMP JUMPDEST SWAP3 POP POP DUP2 SWAP1 SSTORE POP PUSH1 0x1 PUSH0 CALLER PUSH20 0xFFFFFFFFFFFFFFFFFFFFFFFFFFFFFFFFFFFFFFFF AND PUSH20 0xFFFFFFFFFFFFFFFFFFFFFFFFFFFFFFFFFFFFFFFF AND DUP2 MSTORE PUSH1 0x20 ADD SWAP1 DUP2 MSTORE PUSH1 0x20 ADD PUSH0 KECCAK256 PUSH1 0x40 MLOAD DUP1 PUSH1 0x40 ADD PUSH1 0x40 MSTORE DUP1 PUSH1 0x40 MLOAD DUP1 PUSH1 0x40 ADD PUSH1 0x40 MSTORE DUP1 PUSH1 0x7 DUP2 MSTORE PUSH1 0x20 ADD PUSH32 0x4465706F73697400000000000000000000000000000000000000000000000000 DUP2 MSTORE POP DUP2 MSTORE PUSH1 0x20 ADD CALLVALUE DUP2 MSTORE POP SWAP1 DUP1 PUSH1 0x1 DUP2 SLOAD ADD DUP1 DUP3 SSTORE DUP1 SWAP2 POP POP PUSH1 0x1 SWAP1 SUB SWAP1 PUSH0 MSTORE PUSH1 0x20 PUSH0 KECCAK256 SWAP1 PUSH1 0x2 MUL ADD PUSH0 SWAP1 SWAP2 SWAP1 SWAP2 SWAP1 SWAP2 POP PUSH0 DUP3 ADD MLOAD DUP2 PUSH0 ADD SWAP1 DUP2 PUSH2 0x2BB SWAP2 SWAP1 PUSH2 0xA4F JUMP JUMPDEST POP PUSH1 0x20 DUP3 ADD MLOAD DUP2 PUSH1 0x1 ADD SSTORE POP POP PUSH2 0x30D PUSH0 PUSH0 CALLER PUSH20 0xFFFFFFFFFFFFFFFFFFFFFFFFFFFFFFFFFFFFFFFF AND PUSH20 0xFFFFFFFFFFFFFFFFFFFFFFFFFFFFFFFFFFFFFFFF AND DUP2 MSTORE PUSH1 0x20 ADD SWAP1 DUP2 MSTORE PUSH1 0x20 ADD PUSH0 KECCAK256 SLOAD PUSH2 0x36B JUMP JUMPDEST PUSH1 0x40 MLOAD PUSH1 0x20 ADD PUSH2 0x31D SWAP2 SWAP1 PUSH2 0xBEC JUMP JUMPDEST PUSH1 0x40 MLOAD PUSH1 0x20 DUP2 DUP4 SUB SUB DUP2 MSTORE SWAP1 PUSH1 0x40 MSTORE PUSH1 0x40 MLOAD DUP1 PUSH1 0x40 ADD PUSH1 0x40 MSTORE DUP1 PUSH1 0x15 DUP2 MSTORE PUSH1 0x20 ADD PUSH32 0x596F7572204465706F7369742053756363657373210000000000000000000000 DUP2 MSTORE POP SWAP1 SWAP2 POP SWAP2 POP SWAP1 SWAP2 JUMP JUMPDEST PUSH1 0x60 PUSH0 PUSH1 0x1 PUSH2 0x379 DUP5 PUSH2 0x435 JUMP JUMPDEST ADD SWAP1 POP PUSH0 DUP2 PUSH8 0xFFFFFFFFFFFFFFFF DUP2 GT ISZERO PUSH2 0x397 JUMPI PUSH2 0x396 PUSH2 0x882 JUMP JUMPDEST JUMPDEST PUSH1 0x40 MLOAD SWAP1 DUP1 DUP3 MSTORE DUP1 PUSH1 0x1F ADD PUSH1 0x1F NOT AND PUSH1 0x20 ADD DUP3 ADD PUSH1 0x40 MSTORE DUP1 ISZERO PUSH2 0x3C9 JUMPI DUP2 PUSH1 0x20 ADD PUSH1 0x1 DUP3 MUL DUP1 CALLDATASIZE DUP4 CALLDATACOPY DUP1 DUP3 ADD SWAP2 POP POP SWAP1 POP JUMPDEST POP SWAP1 POP PUSH0 DUP3 PUSH1 0x20 DUP4 ADD ADD SWAP1 POP JUMPDEST PUSH1 0x1 ISZERO PUSH2 0x42A JUMPI DUP1 DUP1 PUSH1 0x1 SWAP1 SUB SWAP2 POP POP PUSH32 0x3031323334353637383961626364656600000000000000000000000000000000 PUSH1 0xA DUP7 MOD BYTE DUP2 MSTORE8 PUSH1 0xA DUP6 DUP2 PUSH2 0x41F JUMPI PUSH2 0x41E PUSH2 0xC18 JUMP JUMPDEST JUMPDEST DIV SWAP5 POP PUSH0 DUP6 SUB PUSH2 0x3D6 JUMPI JUMPDEST DUP2 SWAP4 POP POP POP POP SWAP2 SWAP1 POP JUMP JUMPDEST PUSH0 PUSH0 PUSH0 SWAP1 POP PUSH27 0x184F03E93FF9F4DAA797ED6E38ED64BF6A1F010000000000000000 DUP4 LT PUSH2 0x491 JUMPI PUSH27 0x184F03E93FF9F4DAA797ED6E38ED64BF6A1F010000000000000000 DUP4 DUP2 PUSH2 0x487 JUMPI PUSH2 0x486 PUSH2 0xC18 JUMP JUMPDEST JUMPDEST DIV SWAP3 POP PUSH1 0x40 DUP2 ADD SWAP1 POP JUMPDEST PUSH14 0x4EE2D6D415B85ACEF8100000000 DUP4 LT PUSH2 0x4CE JUMPI PUSH14 0x4EE2D6D415B85ACEF8100000000 DUP4 DUP2 PUSH2 0x4C4 JUMPI PUSH2 0x4C3 PUSH2 0xC18 JUMP JUMPDEST JUMPDEST DIV SWAP3 POP PUSH1 0x20 DUP2 ADD SWAP1 POP JUMPDEST PUSH7 0x2386F26FC10000 DUP4 LT PUSH2 0x4FD JUMPI PUSH7 0x2386F26FC10000 DUP4 DUP2 PUSH2 0x4F3 JUMPI PUSH2 0x4F2 PUSH2 0xC18 JUMP JUMPDEST JUMPDEST DIV SWAP3 POP PUSH1 0x10 DUP2 ADD SWAP1 POP JUMPDEST PUSH4 0x5F5E100 DUP4 LT PUSH2 0x526 JUMPI PUSH4 0x5F5E100 DUP4 DUP2 PUSH2 0x51C JUMPI PUSH2 0x51B PUSH2 0xC18 JUMP JUMPDEST JUMPDEST DIV SWAP3 POP PUSH1 0x8 DUP2 ADD SWAP1 POP JUMPDEST PUSH2 0x2710 DUP4 LT PUSH2 0x54B JUMPI PUSH2 0x2710 DUP4 DUP2 PUSH2 0x541 JUMPI PUSH2 0x540 PUSH2 0xC18 JUMP JUMPDEST JUMPDEST DIV SWAP3 POP PUSH1 0x4 DUP2 ADD SWAP1 POP JUMPDEST PUSH1 0x64 DUP4 LT PUSH2 0x56E JUMPI PUSH1 0x64 DUP4 DUP2 PUSH2 0x564 JUMPI PUSH2 0x563 PUSH2 0xC18 JUMP JUMPDEST JUMPDEST DIV SWAP3 POP PUSH1 0x2 DUP2 ADD SWAP1 POP JUMPDEST PUSH1 0xA DUP4 LT PUSH2 0x57D JUMPI PUSH1 0x1 DUP2 ADD SWAP1 POP JUMPDEST DUP1 SWAP2 POP POP SWAP2 SWAP1 POP JUMP JUMPDEST PUSH0 PUSH0 REVERT JUMPDEST PUSH0 PUSH20 0xFFFFFFFFFFFFFFFFFFFFFFFFFFFFFFFFFFFFFFFF DUP3 AND SWAP1 POP SWAP2 SWAP1 POP JUMP JUMPDEST PUSH0 PUSH2 0x5B3 DUP3 PUSH2 0x58A JUMP JUMPDEST SWAP1 POP SWAP2 SWAP1 POP JUMP JUMPDEST PUSH2 0x5C3 DUP2 PUSH2 0x5A9 JUMP JUMPDEST DUP2 EQ PUSH2 0x5CD JUMPI PUSH0 PUSH0 REVERT JUMPDEST POP JUMP JUMPDEST PUSH0 DUP2 CALLDATALOAD SWAP1 POP PUSH2 0x5DE DUP2 PUSH2 0x5BA JUMP JUMPDEST SWAP3 SWAP2 POP POP JUMP JUMPDEST PUSH0 DUP2 SWAP1 POP SWAP2 SWAP1 POP JUMP JUMPDEST PUSH2 0x5F6 DUP2 PUSH2 0x5E4 JUMP JUMPDEST DUP2 EQ PUSH2 0x600 JUMPI PUSH0 PUSH0 REVERT JUMPDEST POP JUMP JUMPDEST PUSH0 DUP2 CALLDATALOAD SWAP1 POP PUSH2 0x611 DUP2 PUSH2 0x5ED JUMP JUMPDEST SWAP3 SWAP2 POP POP JUMP JUMPDEST PUSH0 PUSH0 PUSH1 0x40 DUP4 DUP6 SUB SLT ISZERO PUSH2 0x62D JUMPI PUSH2 0x62C PUSH2 0x586 JUMP JUMPDEST JUMPDEST PUSH0 PUSH2 0x63A DUP6 DUP3 DUP7 ADD PUSH2 0x5D0 JUMP JUMPDEST SWAP3 POP POP PUSH1 0x20 PUSH2 0x64B DUP6 DUP3 DUP7 ADD PUSH2 0x603 JUMP JUMPDEST SWAP2 POP POP SWAP3 POP SWAP3 SWAP1 POP JUMP JUMPDEST PUSH0 DUP2 MLOAD SWAP1 POP SWAP2 SWAP1 POP JUMP JUMPDEST PUSH0 DUP3 DUP3 MSTORE PUSH1 0x20 DUP3 ADD SWAP1 POP SWAP3 SWAP2 POP POP JUMP JUMPDEST DUP3 DUP2 DUP4 MCOPY PUSH0 DUP4 DUP4 ADD MSTORE POP POP POP JUMP JUMPDEST PUSH0 PUSH1 0x1F NOT PUSH1 0x1F DUP4 ADD AND SWAP1 POP SWAP2 SWAP1 POP JUMP JUMPDEST PUSH0 PUSH2 0x697 DUP3 PUSH2 0x655 JUMP JUMPDEST PUSH2 0x6A1 DUP2 DUP6 PUSH2 0x65F JUMP JUMPDEST SWAP4 POP PUSH2 0x6B1 DUP2 DUP6 PUSH1 0x20 DUP7 ADD PUSH2 0x66F JUMP JUMPDEST PUSH2 0x6BA DUP2 PUSH2 0x67D JUMP JUMPDEST DUP5 ADD SWAP2 POP POP SWAP3 SWAP2 POP POP JUMP JUMPDEST PUSH2 0x6CE DUP2 PUSH2 0x5E4 JUMP JUMPDEST DUP3 MSTORE POP POP JUMP JUMPDEST PUSH0 PUSH1 0x40 DUP3 ADD SWAP1 POP DUP2 DUP2 SUB PUSH0 DUP4 ADD MSTORE PUSH2 0x6EC DUP2 DUP6 PUSH2 0x68D JUMP JUMPDEST SWAP1 POP PUSH2 0x6FB PUSH1 0x20 DUP4 ADD DUP5 PUSH2 0x6C5 JUMP JUMPDEST SWAP4 SWAP3 POP POP POP JUMP JUMPDEST PUSH0 PUSH1 0x40 DUP3 ADD SWAP1 POP DUP2 DUP2 SUB PUSH0 DUP4 ADD MSTORE PUSH2 0x71A DUP2 DUP6 PUSH2 0x68D JUMP JUMPDEST SWAP1 POP DUP2 DUP2 SUB PUSH1 0x20 DUP4 ADD MSTORE PUSH2 0x72E DUP2 DUP5 PUSH2 0x68D JUMP JUMPDEST SWAP1 POP SWAP4 SWAP3 POP POP POP JUMP JUMPDEST PUSH32 0x4E487B7100000000000000000000000000000000000000000000000000000000 PUSH0 MSTORE PUSH1 0x22 PUSH1 0x4 MSTORE PUSH1 0x24 PUSH0 REVERT JUMPDEST PUSH0 PUSH1 0x2 DUP3 DIV SWAP1 POP PUSH1 0x1 DUP3 AND DUP1 PUSH2 0x77B JUMPI PUSH1 0x7F DUP3 AND SWAP2 POP JUMPDEST PUSH1 0x20 DUP3 LT DUP2 SUB PUSH2 0x78E JUMPI PUSH2 0x78D PUSH2 0x737 JUMP JUMPDEST JUMPDEST POP SWAP2 SWAP1 POP JUMP JUMPDEST PUSH32 0x53616C646F20616E6461206B7572616E672064617269206D696E696D756D2064 PUSH0 DUP3 ADD MSTORE PUSH32 0x65706F7369742028312067776569292E00000000000000000000000000000000 PUSH1 0x20 DUP3 ADD MSTORE POP JUMP JUMPDEST PUSH0 PUSH2 0x7EE PUSH1 0x30 DUP4 PUSH2 0x65F JUMP JUMPDEST SWAP2 POP PUSH2 0x7F9 DUP3 PUSH2 0x794 JUMP JUMPDEST PUSH1 0x40 DUP3 ADD SWAP1 POP SWAP2 SWAP1 POP JUMP JUMPDEST PUSH0 PUSH1 0x20 DUP3 ADD SWAP1 POP DUP2 DUP2 SUB PUSH0 DUP4 ADD MSTORE PUSH2 0x81B DUP2 PUSH2 0x7E2 JUMP JUMPDEST SWAP1 POP SWAP2 SWAP1 POP JUMP JUMPDEST PUSH32 0x4E487B7100000000000000000000000000000000000000000000000000000000 PUSH0 MSTORE PUSH1 0x11 PUSH1 0x4 MSTORE PUSH1 0x24 PUSH0 REVERT JUMPDEST PUSH0 PUSH2 0x859 DUP3 PUSH2 0x5E4 JUMP JUMPDEST SWAP2 POP PUSH2 0x864 DUP4 PUSH2 0x5E4 JUMP JUMPDEST SWAP3 POP DUP3 DUP3 ADD SWAP1 POP DUP1 DUP3 GT ISZERO PUSH2 0x87C JUMPI PUSH2 0x87B PUSH2 0x822 JUMP JUMPDEST JUMPDEST SWAP3 SWAP2 POP POP JUMP JUMPDEST PUSH32 0x4E487B7100000000000000000000000000000000000000000000000000000000 PUSH0 MSTORE PUSH1 0x41 PUSH1 0x4 MSTORE PUSH1 0x24 PUSH0 REVERT JUMPDEST PUSH0 DUP2 SWAP1 POP DUP2 PUSH0 MSTORE PUSH1 0x20 PUSH0 KECCAK256 SWAP1 POP SWAP2 SWAP1 POP JUMP JUMPDEST PUSH0 PUSH1 0x20 PUSH1 0x1F DUP4 ADD DIV SWAP1 POP SWAP2 SWAP1 POP JUMP JUMPDEST PUSH0 DUP3 DUP3 SHL SWAP1 POP SWAP3 SWAP2 POP POP JUMP JUMPDEST PUSH0 PUSH1 0x8 DUP4 MUL PUSH2 0x90B PUSH32 0xFFFFFFFFFFFFFFFFFFFFFFFFFFFFFFFFFFFFFFFFFFFFFFFFFFFFFFFFFFFFFFFF DUP3 PUSH2 0x8D0 JUMP JUMPDEST PUSH2 0x915 DUP7 DUP4 PUSH2 0x8D0 JUMP JUMPDEST SWAP6 POP DUP1 NOT DUP5 AND SWAP4 POP DUP1 DUP7 AND DUP5 OR SWAP3 POP POP POP SWAP4 SWAP3 POP POP POP JUMP JUMPDEST PUSH0 DUP2 SWAP1 POP SWAP2 SWAP1 POP JUMP JUMPDEST PUSH0 PUSH2 0x950 PUSH2 0x94B PUSH2 0x946 DUP5 PUSH2 0x5E4 JUMP JUMPDEST PUSH2 0x92D JUMP JUMPDEST PUSH2 0x5E4 JUMP JUMPDEST SWAP1 POP SWAP2 SWAP1 POP JUMP JUMPDEST PUSH0 DUP2 SWAP1 POP SWAP2 SWAP1 POP JUMP JUMPDEST PUSH2 0x969 DUP4 PUSH2 0x936 JUMP JUMPDEST PUSH2 0x97D PUSH2 0x975 DUP3 PUSH2 0x957 JUMP JUMPDEST DUP5 DUP5 SLOAD PUSH2 0x8DC JUMP JUMPDEST DUP3 SSTORE POP POP POP POP JUMP JUMPDEST PUSH0 PUSH0 SWAP1 POP SWAP1 JUMP JUMPDEST PUSH2 0x994 PUSH2 0x985 JUMP JUMPDEST PUSH2 0x99F DUP2 DUP5 DUP5 PUSH2 0x960 JUMP JUMPDEST POP POP POP JUMP JUMPDEST JUMPDEST DUP2 DUP2 LT ISZERO PUSH2 0x9C2 JUMPI PUSH2 0x9B7 PUSH0 DUP3 PUSH2 0x98C JUMP JUMPDEST PUSH1 0x1 DUP2 ADD SWAP1 POP PUSH2 0x9A5 JUMP JUMPDEST POP POP JUMP JUMPDEST PUSH1 0x1F DUP3 GT ISZERO PUSH2 0xA07 JUMPI PUSH2 0x9D8 DUP2 PUSH2 0x8AF JUMP JUMPDEST PUSH2 0x9E1 DUP5 PUSH2 0x8C1 JUMP JUMPDEST DUP2 ADD PUSH1 0x20 DUP6 LT ISZERO PUSH2 0x9F0 JUMPI DUP2 SWAP1 POP JUMPDEST PUSH2 0xA04 PUSH2 0x9FC DUP6 PUSH2 0x8C1 JUMP JUMPDEST DUP4 ADD DUP3 PUSH2 0x9A4 JUMP JUMPDEST POP POP JUMPDEST POP POP POP JUMP JUMPDEST PUSH0 DUP3 DUP3 SHR SWAP1 POP SWAP3 SWAP2 POP POP JUMP JUMPDEST PUSH0 PUSH2 0xA27 PUSH0 NOT DUP5 PUSH1 0x8 MUL PUSH2 0xA0C JUMP JUMPDEST NOT DUP1 DUP4 AND SWAP2 POP POP SWAP3 SWAP2 POP POP JUMP JUMPDEST PUSH0 PUSH2 0xA3F DUP4 DUP4 PUSH2 0xA18 JUMP JUMPDEST SWAP2 POP DUP3 PUSH1 0x2 MUL DUP3 OR SWAP1 POP SWAP3 SWAP2 POP POP JUMP JUMPDEST PUSH2 0xA58 DUP3 PUSH2 0x655 JUMP JUMPDEST PUSH8 0xFFFFFFFFFFFFFFFF DUP2 GT ISZERO PUSH2 0xA71 JUMPI PUSH2 0xA70 PUSH2 0x882 JUMP JUMPDEST JUMPDEST PUSH2 0xA7B DUP3 SLOAD PUSH2 0x764 JUMP JUMPDEST PUSH2 0xA86 DUP3 DUP3 DUP6 PUSH2 0x9C6 JUMP JUMPDEST PUSH0 PUSH1 0x20 SWAP1 POP PUSH1 0x1F DUP4 GT PUSH1 0x1 DUP2 EQ PUSH2 0xAB7 JUMPI PUSH0 DUP5 ISZERO PUSH2 0xAA5 JUMPI DUP3 DUP8 ADD MLOAD SWAP1 POP JUMPDEST PUSH2 0xAAF DUP6 DUP3 PUSH2 0xA34 JUMP JUMPDEST DUP7 SSTORE POP PUSH2 0xB16 JUMP JUMPDEST PUSH1 0x1F NOT DUP5 AND PUSH2 0xAC5 DUP7 PUSH2 0x8AF JUMP JUMPDEST PUSH0 JUMPDEST DUP3 DUP2 LT ISZERO PUSH2 0xAEC JUMPI DUP5 DUP10 ADD MLOAD DUP3 SSTORE PUSH1 0x1 DUP3 ADD SWAP2 POP PUSH1 0x20 DUP6 ADD SWAP5 POP PUSH1 0x20 DUP2 ADD SWAP1 POP PUSH2 0xAC7 JUMP JUMPDEST DUP7 DUP4 LT ISZERO PUSH2 0xB09 JUMPI DUP5 DUP10 ADD MLOAD PUSH2 0xB05 PUSH1 0x1F DUP10 AND DUP3 PUSH2 0xA18 JUMP JUMPDEST DUP4 SSTORE POP JUMPDEST PUSH1 0x1 PUSH1 0x2 DUP9 MUL ADD DUP9 SSTORE POP POP POP JUMPDEST POP POP POP POP POP POP JUMP JUMPDEST PUSH0 DUP2 SWAP1 POP SWAP3 SWAP2 POP POP JUMP JUMPDEST PUSH32 0x596F75722062616C616E63653A20000000000000000000000000000000000000 PUSH0 DUP3 ADD MSTORE POP JUMP JUMPDEST PUSH0 PUSH2 0xB5C PUSH1 0xE DUP4 PUSH2 0xB1E JUMP JUMPDEST SWAP2 POP PUSH2 0xB67 DUP3 PUSH2 0xB28 JUMP JUMPDEST PUSH1 0xE DUP3 ADD SWAP1 POP SWAP2 SWAP1 POP JUMP JUMPDEST PUSH0 PUSH2 0xB7C DUP3 PUSH2 0x655 JUMP JUMPDEST PUSH2 0xB86 DUP2 DUP6 PUSH2 0xB1E JUMP JUMPDEST SWAP4 POP PUSH2 0xB96 DUP2 DUP6 PUSH1 0x20 DUP7 ADD PUSH2 0x66F JUMP JUMPDEST DUP1 DUP5 ADD SWAP2 POP POP SWAP3 SWAP2 POP POP JUMP JUMPDEST PUSH32 0x2057656900000000000000000000000000000000000000000000000000000000 PUSH0 DUP3 ADD MSTORE POP JUMP JUMPDEST PUSH0 PUSH2 0xBD6 PUSH1 0x4 DUP4 PUSH2 0xB1E JUMP JUMPDEST SWAP2 POP PUSH2 0xBE1 DUP3 PUSH2 0xBA2 JUMP JUMPDEST PUSH1 0x4 DUP3 ADD SWAP1 POP SWAP2 SWAP1 POP JUMP JUMPDEST PUSH0 PUSH2 0xBF6 DUP3 PUSH2 0xB50 JUMP JUMPDEST SWAP2 POP PUSH2 0xC02 DUP3 DUP5 PUSH2 0xB72 JUMP JUMPDEST SWAP2 POP PUSH2 0xC0D DUP3 PUSH2 0xBCA JUMP JUMPDEST SWAP2 POP DUP2 SWAP1 POP SWAP3 SWAP2 POP POP JUMP JUMPDEST PUSH32 0x4E487B7100000000000000000000000000000000000000000000000000000000 PUSH0 MSTORE PUSH1 0x12 PUSH1 0x4 MSTORE PUSH1 0x24 PUSH0 REVERT INVALID LOG2 PUSH5 0x6970667358 0x22 SLT KECCAK256 0xFC MSTORE 0xD6 0x22 0xEB MLOAD RJUMPI 0x215B DUP10 SWAP12 PUSH22 0x7AD0B51B56E272E49F5466804A183DE72D18E8176473 PUSH16 0x6C634300081E00330000000000000000 "
		},
		"gasEstimates": {
			"creation": {
				"codeDepositCost": "639000",
				"executionCost": "infinite",
				"totalCost": "infinite"
			},
			"external": {
				"buy()": "119",
				"deposit()": "infinite",
				"transactions(address,uint256)": "infinite"
			}
		},
		"methodIdentifiers": {
			"buy()": "a6f2ae3a",
			"deposit()": "d0e30db0",
			"transactions(address,uint256)": "14538128"
		}
	},
	"abi": [
		{
			"inputs": [],
			"stateMutability": "nonpayable",
			"type": "constructor"
		},
		{
			"inputs": [],
			"name": "buy",
			"outputs": [],
			"stateMutability": "payable",
			"type": "function"
		},
		{
			"inputs": [],
			"name": "deposit",
			"outputs": [
				{
					"internalType": "string",
					"name": "",
					"type": "string"
				},
				{
					"internalType": "string",
					"name": "",
					"type": "string"
				}
			],
			"stateMutability": "payable",
			"type": "function"
		},
		{
			"inputs": [
				{
					"internalType": "address",
					"name": "",
					"type": "address"
				},
				{
					"internalType": "uint256",
					"name": "",
					"type": "uint256"
				}
			],
			"name": "transactions",
			"outputs": [
				{
					"internalType": "string",
					"name": "action",
					"type": "string"
				},
				{
					"internalType": "uint256",
					"name": "value",
					"type": "uint256"
				}
			],
			"stateMutability": "view",
			"type": "function"
		}
	]
}